:020000041000EA
:1000000000800210C1070010CD070010CB070010C0
:10001000CD070010CD070010CD070010CD07001050
:10002000000000000000000000000000CD070010EC
:10003000CD07001000000000CD070010CD07001014
:10004000CD070010CD070010CD070010CD07001020
:10005000CD070010CD070010CD070010CD07001010
:10006000CD070010CD0700100000000000000000C8
:100070000000000000000000000000000000000080
:100080000000000000000000000000000000000070
:100090000000000000000000000000000000000060
:1000A0000000000000000000000000000000000050
:1007C000034880F30A8800F03FFEFEE7FEE70000E2
:1007D0000080F20F81F0004102E000BF83F000438F
:1007E00030B54FEA41044FEA430594EA050F08BFCC
:1007F00090EA020F1FBF54EA000C55EA020C7FEA90
:10080000645C7FEA655C00F0E2804FEA5454D4EB0C
:100810005555B8BF6D420CDD2C4480EA020281EAD6
:10082000030382EA000083EA010180EA020281EA0E
:100830000303362D88BF30BD11F0004F4FEA013160
:100840004FF4801C4CEA113102D0404261EB41016F
:1008500013F0004F4FEA03334CEA133302D05242F5
:1008600063EB430394EA050F00F0A780A4F10104B1
:10087000D5F1200E0DDB02FA0EFC22FA05F28018EB
:1008800041F1000103FA0EF2801843FA05F35941D1
:100890000EE0A5F120050EF1200E012A03FA0EFC50
:1008A00028BF4CF0020C43FA05F3C01851EBE3717A
:1008B00001F0004507D54FF0000EDCF1000C7EEB97
:1008C00000006EEB0101B1F5801F1BD3B1F5001FD5
:1008D0000CD349085FEA30004FEA3C0C04F10104F4
:1008E0004FEA445212F5800F80F09A80BCF1004F1D
:1008F00008BF5FEA500C50F1000041EB045141EA9F
:10090000050130BD5FEA4C0C404141EB0101013C67
:1009100028BFB1F5801FE9D291F0000F04BF014656
:100920000020B1FA81F308BF2033A3F10B03B3F128
:1009300020020CDA0C3208DD02F1140CC2F10C02B8
:1009400001FA0CF021FA02F10CE002F11402D8BF16
:10095000C2F1200C01FA02F120FA0CFCDCBF41EAE2
:100960000C019040E41AA2BF01EB0451294330BDB1
:100970006FEA04041F3C1CDA0C340EDC04F114048E
:10098000C4F1200220FA04F001FA02F340EA030065
:1009900021FA04F345EA030130BDC4F10C04C4F1AB
:1009A000200220FA02F001FA04F340EA030029468B
:1009B00030BD21FA04F0294630BD94F0000F83F4D5
:1009C000801306BF81F480110134013D4EE77FEAB8
:1009D000645C18BF7FEA655C29D094EA050F08BF04
:1009E00090EA020F05D054EA000C04BF19461046E5
:1009F00030BD91EA030F1EBF0021002030BD5FEA29
:100A0000545C05D14000494128BF41F0004130BD50
:100A100014F580043CBF01F5801130BD01F00045A4
:100A200045F0FE4141F470014FF0000030BD7FEA17
:100A3000645C1ABF194610467FEA655C1CBF0B4612
:100A4000024650EA013406BF52EA033591EA030F29
:100A500041F4002130BD00BF90F0000F04BF002121
:100A6000704730B54FF4806404F132044FF0000554
:100A70004FF0000150E700BF90F0000F04BF0021CD
:100A8000704730B54FF4806404F1320410F0004533
:100A900048BF40424FF000013EE700BF42004FEA2E
:100AA000E2014FEA31014FEA02701FBF12F07F43AB
:100AB00093F07F4F81F06051704732F07F4208BF62
:100AC000704793F07F4F04BF41F40021704730B569
:100AD0004FF4607401F0004521F000411CE700BFB5
:100AE00050EA010208BF704730B54FF000050AE038
:100AF00050EA010208BF704730B511F0004502D539
:100B0000404261EB41014FF4806404F132045FEA3A
:100B1000915C3FF4D8AE4FF003025FEADC0C18BFE3
:100B200003325FEADC0C18BF033202EBDC02C2F1D5
:100B3000200300FA03FC20FA02F001FA03FE40EA67
:100B40000E0021FA02F11444BDE600BF70B54FF06B
:100B5000FF0C4CF4E06C1CEA11541DBF1CEA135549
:100B600094EA0C0F95EA0C0F00F0DEF82C4481EAB1
:100B7000030621EA4C5123EA4C5350EA013518BFD1
:100B800052EA033541F4801143F4801338D0A0FBBE
:100B900002CE4FF00005E1FB02E506F00042E0FB6B
:100BA00003E54FF00006E1FB03569CF0000F18BF71
:100BB0004EF0010EA4F1FF04B6F5007F64F5407419
:100BC00004D25FEA4E0E6D4146EB060642EAC621AC
:100BD00041EA55514FEAC52040EA5E504FEACE2E19
:100BE000B4F1FD0C88BFBCF5E06F1ED8BEF1004F1C
:100BF00008BF5FEA500E50F1000041EB045170BD98
:100C000006F0004646EA010140EA020081EA0301DB
:100C1000B4EB5C04C2BFD4EB0C0541EA045170BDD7
:100C200041F480114FF0000E013C00F3AB8014F151
:100C3000360FDEBF002001F0004170BDC4F100049A
:100C4000203C35DA0C341BDC04F11404C4F120051B
:100C500000FA05F320FA04F001FA05F240EA020076
:100C600001F0004221F0004110EBD37021FA04F6AC
:100C700042EB06015EEA430E08BF20EAD37070BD66
:100C8000C4F10C04C4F1200500FA04F320FA05F0C5
:100C900001FA04F240EA020001F0004110EBD370C7
:100CA00041F100015EEA430E08BF20EAD37070BD37
:100CB000C4F1200500FA05F24EEA020E20FA04F310
:100CC00001FA05F243EA020321FA04F001F00041BF
:100CD00021FA04F220EA020000EBD3705EEA430E30
:100CE00008BF20EAD37070BD94F0000F0FD101F05F
:100CF0000046400041EB010111F4801F08BF013C98
:100D0000F7D041EA060195F0000F18BF704703F0D5
:100D10000046520043EB030313F4801F08BF013D5C
:100D2000F7D043EA0603704794EA0C0F0CEA135518
:100D300018BF95EA0C0F0CD050EA410618BF52EAD2
:100D40004306D1D181EA030101F000414FF00000D8
:100D500070BD50EA410606BF1046194652EA4306E6
:100D600019D094EA0C0F02D150EA013613D195EA5A
:100D70000C0F05D152EA03361CBF104619460AD1A2
:100D800081EA030101F0004141F0FE4141F47001AC
:100D90004FF0000070BD41F0FE4141F4780170BD9C
:100DA00070B54FF0FF0C4CF4E06C1CEA11541DBF01
:100DB0001CEA135594EA0C0F95EA0C0F00F0A7F803
:100DC000A4EB050481EA030E52EA03354FEA013130
:100DD00000F088804FEA03334FF0805545EA131343
:100DE00043EA12634FEA022245EA111545EA10650B
:100DF0004FEA00260EF000419D4208BF964244F1A2
:100E0000FD0404F5407402D25B084FEA3202B61AC0
:100E100065EB03055B084FEA32024FF480104FF494
:100E2000002CB6EB020E75EB030E22BFB61A754608
:100E300040EA0C005B084FEA3202B6EB020E75EB9B
:100E4000030E22BFB61A754640EA5C005B084FEA03
:100E50003202B6EB020E75EB030E22BFB61A7546D0
:100E600040EA9C005B084FEA3202B6EB020E75EBDB
:100E7000030E22BFB61A754640EADC0055EA060E9C
:100E800018D04FEA051545EA16754FEA06164FEADF
:100E9000C30343EA52734FEAC2025FEA1C1CC0D18B
:100EA00011F4801F0BD141EA00014FF000004FF018
:100EB000004CB6E711F4801F04BF01430020B4F1D9
:100EC000FD0C88BFBCF5E06F3FF6AFAEB5EB030C91
:100ED00004BFB6EB020C5FEA500C50F1000041EB8E
:100EE000045170BD0EF0004E4EEA113114EB5C045B
:100EF000C2BFD4EB0C0541EA045170BD41F480112E
:100F00004FF0000E013C90E645EA060E8DE60CEA35
:100F1000135594EA0C0F08BF95EA0C0F3FF43BAF52
:100F200094EA0C0F0AD150EA01347FF434AF95EA09
:100F30000C0F7FF425AF104619462CE795EA0C0FED
:100F400006D152EA03353FF4FDAE1046194622E7BA
:100F500050EA410618BF52EA43067FF4C5AE50EA94
:100F600041047FF40DAF52EA43057FF4EBAE12E784
:100F70004FF0FF3C06E000BF4FF0010C02E000BF65
:100F80004FF0010C4DF804CD4FEA410C7FEA6C5C48
:100F90004FEA430C18BF7FEA6C5C1BD001B050EAEB
:100FA000410C0CBF52EA430C91EA030F02BF90EAD6
:100FB000020F0020704710F1000F91EA030F58BF95
:100FC000994208BF90422CBFD8176FEAE37040F0F7
:100FD000010070474FEA410C7FEA6C5C02D150EA95
:100FE000013C07D14FEA430C7FEA6C5CD6D152EA50
:100FF000033CD3D05DF8040B704700BF8446104615
:1010000062468C461946634600E000BF01B5FFF713
:10101000B7FF002848BF10F1000F01BD4DF808EDE3
:10102000FFF7F4FF0CBF012000205DF808FB00BFB4
:101030004DF808EDFFF7EAFF34BF012000205DF80E
:1010400008FB00BF4DF808EDFFF7E0FF94BF01205B
:1010500000205DF808FB00BF4DF808EDFFF7CEFF5C
:1010600094BF012000205DF808FB00BF4DF808ED9B
:10107000FFF7C4FF34BF012000205DF808FB00BF6C
:101080004FEA410212F5001215D211D56FF47873B0
:10109000B3EB625212D94FEAC12343F0004343EA53
:1010A000505311F0004F23FA02F018BF404270472E
:1010B0004FF00000704750EA013005D111F00040B8
:1010C00008BF6FF0004070474FF00000704700BF4E
:1010D0004A0011D212F5001211D20DD56FF47873B7
:1010E000B3EB62520ED44FEAC12343F0004343EA0C
:1010F000505323FA02F070474FF00000704750EA57
:10110000013002D14FF0FF3070474FF000007047C0
:1011100053B94AB9002908BF00281CBF4FF0FF315E
:101120004FF0FF3000F082B9ADF1080C6DE904CE4C
:1011300000F006F8DDF804E0DDE9022304B07047B2
:101140002DE9F04F099D04460F46002B48D18A42F5
:10115000944661D9B2FA82F343B1C3F120019F40B2
:1011600002FA03FC9C4020FA01F10F434FEA1C41B4
:101170001FFA8CFE220CB7FBF1F601FB167706FB7B
:101180000EF042EA0742904208D91CEB020206F137
:10119000FF3702D2904200F237813E46121AA4B2C3
:1011A000B2FBF1F001FB102200FB0EFE44EA024408
:1011B000A64508D91CEB040400F1FF3202D2A64573
:1011C00000F21C81104640EA0640A4EB0E04002603
:1011D0001DB1DC400023C5E900433146BDE8F08F76
:1011E0008B4209D9002D00F0FD800026C5E90001E1
:1011F00030463146BDE8F08FB3FA83F6002E4BD16E
:101200008B42C0F0F280824240F2EF803046002DE7
:10121000E3D0C5E90047E0E702B9FFDEB2FA82F3A6
:10122000002B40F09D80891A4FEA124E97B201269A
:10123000200CB1FBFEF20EFB121140EA014107FB4C
:1012400002F088420FD91CEB010102F1FF382CBFDC
:101250004FF001094FF00009884203D9B9F1000F9E
:1012600000F0CF804246091AA4B2B1FBFEF00EFB9B
:10127000101100FB07F744EA0144A74208D91CEB10
:10128000040400F1FF3102D2A74200F2B480084604
:10129000E41B40EA02409BE7C6F12007B34001FA95
:1012A00006F422FA07FCF940B2404CEA030C20FA9B
:1012B00007F34FEA1C491C431FFA8CFE00FA06F3A1
:1012C000200CB1FBF9F809FB181140EA014108FBB9
:1012D0000EF088420FD91CEB010108F1FF3A2CBF38
:1012E0004FF0010B4FF0000B884203D9BBF1000F08
:1012F00000F08D80D046091AA4B2B1FBF9F009FBC9
:10130000101100FB0EFE44EA01418E4507D91CEB8B
:10131000010100F1FF3401D28E457FD8204640EA1A
:101320000840A1EB0E01A0FB029841454C46C64681
:1013300002D306D14B4504D20138B9EB020468EB65
:101340000C0E002D70D01A1B61EB0E0122FA06F371
:1013500001FA07F7F14000261F43C5E900713CE799
:1013600002FA03FCC3F1200001FA03F221FA00F6AD
:101370004FEA1C4E24FA00F11FFA8CF79C401143EF
:10138000B6FBFEF00A0C0EFB106642EA064200FBBA
:1013900007F696420ED91CEB020200F1FF382CBF73
:1013A0004FF001094FF00009964202D9B9F1000F40
:1013B00031D04046921B89B2B2FBFEF60EFB1622DC
:1013C00041EA024106FB07F28A4207D91CEB010100
:1013D00006F1FF3801D28A4223D84646891A46EAE6
:1013E000004625E72E462846F7E6841A61EB0303FC
:1013F00001201F460BE76444023849E76444023881
:10140000E1E6023A61442EE7023E6244C6E6A8F1F4
:10141000020861446FE702386244CBE70238614456
:101420007DE7023E6144D9E72E46D6E6704700BF0D
:04143000F8B500BF4C
:04143400F8B500BF48
:0E14380080B400AF00BFBD465DF8047B704776
:1014480080B582B000AF00237B6000F013F801F094
:101458009FFC064801F01EFD00BF7B685A1C7A609D
:101468001946034801F068FCF6E700BFA0380010F1
:04147800A838001080
:10147C0080B400AF0D4B0E4A9A600C4BD3F88830F9
:10148C000A4A43F47003C2F88830084B5B69074A78
:10149C0043F4702343F010035361064B064A1A6061
:1014AC0000BFBD465DF8047B704700BF00ED00E057
:0C14BC00000000103838001040787D015E
:1014C80080B485B000AFB9607A603B600346FB73B7
:0C14D80000BF1437BD465DF8047B704770
:1014E40080B584B000AFB9607A603B600346FB739B
:1014F400FB7B002B03D0FB7B184601F03BFC00BFB9
:061504001037BD4680BD5A
:10150A0080B485B000AF786039607B68FB6002E028
:10151A00FB680133FB60FB681B78002B04D03B6837
:10152A005A1E3A60002BF3D1FA687B68D31A184620
:0A153A001437BD465DF8047B7047CE
:1015440080B483B000AF0346FB71FB792F2B04D921
:10155400FB79392B01D8012300E0002303F00103B8
:0E156400DBB218460C37BD465DF8047B7047BD
:1015720080B584B000AF78600023FB600EE0FA68AB
:1015820013469B0013445B0018467B681B68591C7A
:101592007A6811601B780344303BFB607B681B68F0
:1015A2001B781846FFF7CDFF0346002BE7D1FB68F7
:0815B20018461037BD4680BD4C
:1015BA0090B587B000AFF860B9607A603B607B682D
:1015CA003B617B6B03F00203002B25D17B6B03F09D
:1015DA000103002B20D1FB6A7B610AE07A68531C65
:1015EA007B60FC683B68B9682020A0477B690133AF
:1015FA007B617A693B6B9A42F0D30DE0FB6A013B4F
:10160A00FB62BA6AFB6A134418787A68531C7B60D7
:10161A00FC683B68B968A047FB6A002BEED17B6B7C
:10162A0003F00203002B0ED007E07A68531C7B609C
:10163A00FC683B68B9682020A0477A683B69D31ADE
:10164A003A6B9A42F1D87B6818461C37BD4690BD62
:10165A0080B588B004AFF860B9607A603B603B6BD4
:10166A0003F00203002B36D1FB6A002B18D03B6B28
:10167A0003F00103002B13D097F82030002B04D17C
:10168A003B6B03F00C03002B0AD0FB6A013BFB62A5
:10169A0006E0FB695A1CFA61BA69134430221A70CF
:1016AA00FA69BB6A9A420AD2FB691F2BF1D906E092
:1016BA00FB695A1CFA61BA69134430221A703B6BEF
:1016CA0003F00103002B06D0FA69FB6A9A4202D2A0
:1016DA00FB691F2BECD93B6B03F01003002B58D08E
:1016EA003B6B03F48063002B16D1FB69002B13D0EC
:1016FA00FA69BB6A9A4203D0FA69FB6A9A420BD129
:10170A00FB69013BFB61FB69002B05D07B6A102B4F
:10171A0002D1FB69013BFB617B6A102B0FD13B6B4A
:10172A0003F02003002B0AD1FB691F2B07D8FB69A2
:10173A005A1CFA61BA69134478221A701FE07B6A4C
:10174A00102B0FD13B6B03F02003002B0AD0FB694F
:10175A001F2B07D8FB695A1CFA61BA69134458222D
:10176A001A700CE07B6A022B09D1FB691F2B06D881
:10177A00FB695A1CFA61BA69134462221A70FB693E
:10178A001F2B06D8FB695A1CFA61BA691344302226
:10179A001A70FB691F2B24D897F82030002B07D02A
:1017AA00FB695A1CFA61BA6913442D221A7018E0AF
:1017BA003B6B03F00403002B07D0FB695A1CFA6148
:1017CA00BA6913442B221A700BE03B6B03F008032F
:1017DA00002B06D0FB695A1CFA61BA69134420220D
:1017EA001A703B6B0393FB6A0293FB690193BB6913
:1017FA0000933B687A68B968F868FFF7D9FE034630
:08180A0018461037BD4680BDF1
:1018120080B596B008AFF860B9607A603B6000238B
:101822007B633B6C002B03D17B6D23F010037B6544
:101832007B6D03F48063002B02D03B6C002B32D013
:101842003B6CBA6CB3FBF2F2B96C01FB02F29B1A6D
:1018520087F8333097F83330092B04D897F83330B0
:101862003033DAB20DE07B6D03F02003002B01D0A0
:10187200412200E0612297F833301344DBB20A3B85
:10188200DAB27B6B591C796338333B4403F8282C5A
:101892003A6CBB6CB2FBF3F33B643B6C002B02D0A3
:1018A2007B6B1F2BCCD97B6D06933B6D0593FB6C39
:1018B2000493BB6C039397F8443002937B6B0193C0
:1018C20007F1100300933B687A68B968F868FFF77C
:0C18D200C3FE034618463837BD4680BDF3
:1018DE0080B596B008AFF860B9607A603B600023BF
:1018EE007B63D7E91023134303D13B6E23F0100320
:1018FE003B663B6E03F48063002B03D0D7E91023C5
:10190E00134337D0D7E91001D7E91423FFF7F9FBBA
:10191E00134687F8333097F83330092B04D897F8ED
:10192E0033303033DAB20DE03B6E03F02003002B80
:10193E0001D0412200E0612297F833301344DBB22C
:10194E000A3BDAB27B6B591C796338333B4403F89C
:10195E00282CD7E91423D7E91001FFF7D2FB024652
:10196E000B46C7E91023D7E91023134302D07B6B34
:10197E001F2BC7D93B6D3A6E0692FA6D0592BA6D62
:10198E000492039397F8483002937B6B019307F10F
:10199E00100300933B687A68B968F868FFF756FE43
:0A19AE00034618463837BD4680BDD9
:1019B80090B59DB004AF78613961FA60BB6087ED7E
:1019C800000B0023FB654FF000024FF00003C7E94E
:1019D8001023D7E90023D7E90001FFF71BFB0346D3
:1019E800002B0FD1BB6F03937B6F029303230193EB
:1019F800A74B0093BB68FA6839697869FFF7D9FD86
:101A0800034622E24FF0FF326FF48013D7E900015A
:101A1800FFF70AFB0346002B0FD0BB6F03937B6FC6
:101A28000293042301939B4B0093BB68FA683969BE
:101A38007869FFF7BEFD034607E24FF0FF32964B89
:101A4800D7E90001FFF70EFB0346002B1DD0BB6F43
:101A580003F00403002B01D0904B00E0904BBA6FC9
:101A680002F00402002A01D0042200E00322B96F28
:101A78000391796F029101920093BB68FA68396902
:101A88007869FFF796FD0346DFE17DA3D3E90023DC
:101A9800D7E90001FFF7E6FA0346002B09D17AA33C
:101AA800D3E90023D7E90001FFF7BEFA0346002B6C
:101AB8000FD0BB6F02937B6F01933B6F009397ED41
:101AC800000BBB68FA683969786900F0C9F9034600
:101AD800BBE1002387F85B304FF000024FF00003B2
:101AE800D7E90001FFF7A0FA0346002B0ED0012327
:101AF80087F85B30D7E900234FF000004FF0000172
:101B0800FEF768FE02460B46C7E90023BB6F03F4E5
:101B18008063002B0DD106233B670AE0FB6D5A1C3E
:101B2800FA6560333B44302203F8482C3B6F013B95
:101B38003B67FB6D1F2B02D83B6F092BEED8D7E90B
:101B48000001FFF799FA03467B65786DFEF790FF71
:101B580002460B46D7E90001FEF73CFE02460B465B
:101B6800104619464F4A3B6FDB001344D3E9002364
:101B7800FEF7E8FF02460B46C7E90E23D7E90E0138
:101B8800FFF7A2FA03463B65386DFEF761FF024690
:101B98000B46D7E90E01FEF71DFE02460B46C7E9C4
:101BA80010234FF00002404BD7E91001FFF75AFA13
:101BB8000346002B16D03B6D01333B65386DFEF7AD
:101BC80047FF384A3B6FDB001344D3E90023FFF794
:101BD8003FFA0346002B1AD000233B657B6D013387
:101BE8007B6514E04FF000022F4BD7E91001FFF797
:101BF8001BFA0346002B0AD13B6D002B04D03B6D2A
:101C080003F00103002B02D03B6D01333B653B6FB2
:101C1800002B4BD1786DFEF72BFF02460B46D7E918
:101C28000001FEF7D7FD02460B46C7E91023012342
:101C38001C464FF000021C4BD7E91001FFF7F4F9DE
:101C48000346002B01D100231C46E3B283F00103B5
:101C5800DBB2002B09D14FF00002134BD7E910017A
:101C6800FFF700FA0346002B64D07B6D03F00103F5
:101C7800002B00F081807B6D01337B657CE000BF29
:101C88000000000065CDCD410000000065CDCDC14C
:101C9800BC380010C0380010FFFFEF7FC8380010B4
:101CA800D0380010D83800100000E03F3B6FFB64CC
:101CB8001FE0FB6C013BFB64396D664BA3FB012302
:101CC800DA0813469B0013445B00CA1AD2B2FB6DB4
:101CD800591CF9653032D2B260333B4403F8482CC2
:101CE8003B6D5C4AA2FB0323DB083B653B6D002B85
:101CF80003D0FB6D1F2BDCD909E000BF07E0FB6DAB
:101D08005A1CFA6560333B44302203F8482CFB6DBB
:101D18001F2B04D8FB6C5A1EFA64002BEFD1FB6D05
:101D28001F2B29D8FB6D5A1CFA6560333B442E22C1
:101D380003F8482C20E07A6D474B83FB0213991077
:101D4800D317C91A0B469B000B445B00D11ACAB2C1
:101D5800FB6D591CF9653032D2B260333B4403F84D
:101D6800482C7B6D3C4A82FB03129210DB17D31A76
:101D78007B657B6D002B03D0FB6D1F2BDBD900E04F
:101D880000BFBB6F03F00203002B23D1BB6F03F02E
:101D98000103002B1ED07B6F002B14D097F85B300B
:101DA800002B04D1BB6F03F00C03002B0BD07B6F0F
:101DB800013B7B6707E0FB6D5A1CFA6560333B44C7
:101DC800302203F8482CFA6D7B6F9A4202D2FB6DE1
:101DD8001F2BF0D9FB6D1F2B27D897F85B30002BF2
:101DE80008D0FB6D5A1CFA6560333B442D2203F87A
:101DF800482C1AE0BB6F03F00403002B08D0FB6DDE
:101E08005A1CFA6560333B442B2203F8482C0CE03B
:101E1800BB6F03F00803002B07D0FB6D5A1CFA6553
:101E280060333B44202203F8482CBB6F03937B6F3D
:101E38000293FB6D019307F118030093BB68FA68DE
:101E480039697869FFF7B5FB034618466437BD461C
:0C1E580090BD00BFCDCCCCCC67666666A8
:101E68002DE9F04F9FB006AF78623962FA61BB6125
:101E780087ED040BD7E90423D7E90401FFF7CAF873
:101E88000346002B14D04FF0FF32C14BD7E90401B1
:101E9800FFF7E8F80346002B0AD14FF0FF326FF442
:101EA8008013D7E90401FFF7BFF80346002B12D0CF
:101EB800D7F890300293D7F88C300193D7F8883050
:101EC800009397ED040BBB69FA69396A786AFFF7E2
:101ED8006FFD03463FE201231E464FF000024FF01C
:101EE8000003D7E90401FFF79FF80346002B01D14F
:101EF80000231E4687F8536097F85330002B09D00B
:101F08003B693B607B6983F000437B6097ED007B16
:101F180087ED047BD7F8903003F48063002B02D15F
:101F28000623C7F88830D7E90423C7E90A23D7E985
:101F38000A014FF000024FF000030A0D0023134678
:101F4800C3F30A03A3F2FF33FB64D7E90A239046DD
:101F5800C3F31309444649F07F5545F44015C7E9D2
:101F68000A45F86CFEF784FD7DA3D3E90023FEF74C
:101F7800E9FD02460B46104619467BA3D3E9002328
:101F8800FEF72AFC02460B4614461D46D7E90A010D
:101F98004FF000027F4BFEF71DFC02460B46104631
:101FA800194673A3D3E90023FEF7CCFD02460B467E
:101FB80020462946FEF710FC02460B4610461946F5
:101FC800FFF75AF80346FB65F86DFEF751FD6AA363
:101FD800D3E90023FEF7B6FD02460B461046194624
:101FE8004FF000026C4BFEF7F7FB02460B4610461B
:101FF8001946FFF741F80346FB64F86DFEF738FD14
:102008005FA3D3E90023FEF79DFD02460B46144665
:102018001D46F86CFEF72CFD5BA3D3E90023FEF701
:1020280091FD02460B4620462946FEF7D3FB0246A1
:102038000B46C7E91023D7E91023D7E91001FEF7AB
:1020480081FD02460B46C7E90E23FB6C03F2FF3302
:10205800DA179A4693464FF000024FF000034FEA12
:102068000A530022C7E90A23D7E90A45D7E910012C
:1020780002460B46FEF7B0FB02460B4690469946D1
:10208800D7E910234FF000004FF08041FEF7A2FB84
:1020980002460B4692469B464FF000023F4BD7E95B
:1020A8000E01FEF779FE02460B46104619464FF020
:1020B80000023B4BFEF790FB02460B46D7E90E01A8
:1020C800FEF76AFE02460B46104619464FF000021C
:1020D800344BFEF781FB02460B46D7E90E01FEF7AB
:1020E8005BFE02460B4650465946FEF775FB024614
:1020F8000B4640464946FEF74FFE02460B46104641
:1021080019464FF00002284BFEF766FB02460B46C5
:1021180020462946FEF716FD02460B46C7E90A2364
:10212800D7E90A23D7E90401FEF77EFF0346002B0F
:102138000DD0FB6D013BFB65D7E90A014FF00002AA
:10214800174BFEF729FE02460B46C7E90A23FB6D2B
:10215800632B2BDCFB6D13F1630F27DB042326E0D5
:10216800FB799F501344D33FB3C8608B288AC63F7E
:1021780061436F63A787D23F71A379094F930A40E0
:102188001655B5BBB16B0240EF39FAFE422EE63F59
:10219800FFFFEF7F0000F83F0000E03F00002C4009
:1021A80000002440000018400000F03F0523BB65F4
:1021B800D7F8903003F40063002B3DD068A3D3E92F
:1021C8000023D7E90401FEF743FF0346002B24D080
:1021D80065A3D3E90023D7E90401FEF725FF0346E9
:1021E800002B1AD0D7F88830FA6D9A4207DAD7F858
:1021F8008820FB6DD31A013BC7F8883002E0002322
:10220800C7F88830D7F8903043F48063C7F8903027
:102218000023BB650023FB650EE0D7F88830002B50
:102228000AD0D7F8903003F48063002B04D0D7F895
:102238008830013BC7F88830D7F88C307B65D7F8F1
:102248008C20BB6D9A4204D97A6DBB6DD31A7B651D
:1022580001E000237B65D7F8903003F00203002BE0
:1022680004D0BB6D002B01D000237B65FB6D002BD8
:1022780009D0D7E90A23D7E90401FEF78DFD024604
:102288000B46C7E90423FB697B6397F85330002B9F
:1022980006D03B69BB607B6983F00043FB6003E0C9
:1022A80097ED047B87ED027BD7F8903023F4006329
:1022B80002937B6D0193D7F88830009397ED020B5A
:1022C800BB69FA69396A786AFFF772FBF861BB6D16
:1022D800002B3FD0D7F8903003F02003002B01D01B
:1022E800452000E06520FA69531CFB617C6ABB69E4
:1022F800396AA047FB6D002BB8BF5B421846FB6DDF
:10230800DB0FDBB2BA6D013A052105910492002278
:1023180003920A22029201930090BB69FA69396A12
:10232800786AFFF772FAF861D7F8903003F0020381
:10233800002B0FD007E0FA69531CFB617C6ABB696C
:10234800396A2020A047FA697B6BD31AD7F88C200A
:102358009A42F0D8FB6918466437BD46BDE8F08F4D
:102368002D431CEBE2361A3F0000000080842E410A
:102378002DE9F04FA3B00AAF78613961FA60BB600C
:102388000023FB643B69002B40F0BE84A34B7B61B8
:1023980000F0BABCBB681B78252B0DD0BB68187839
:1023A800FA6C531CFB647C69FB683969A047BB68FD
:1023B8000133BB6000F0A8BCBB680133BB600023DD
:1023C800FB65BB681B78203B102B57D801A252F83D
:1023D80023F000BF5D240010852400108524001020
:1023E8007124001085240010852400108524001015
:1023F80085240010852400108524001085240010F1
:10240800492400108524001035240010852400106C
:102418008524001021240010FB6D43F00103FB65A7
:10242800BB680133BB6001233B652AE0FB6D43F0C9
:102438000203FB65BB680133BB6001233B6520E0F9
:10244800FB6D43F00403FB65BB680133BB600123EC
:102458003B6516E0FB6D43F00803FB65BB68013381
:10246800BB6001233B650CE0FB6D43F01003FB658B
:10247800BB680133BB6001233B6502E000233B6579
:1024880000BF3B6D002B9CD10023BB65BB681B784C
:102498001846FFF753F80346002B06D007F1080348
:1024A8001846FFF762F8B8651AE0BB681B782A2B54
:1024B80016D1D7F888301A1DC7F888201B68BB6367
:1024C800BB6B002B07DAFB6D43F00203FB65BB6BAC
:1024D8005B42BB6501E0BB6BBB65BB680133BB609E
:1024E80000237B65BB681B782E2B27D1FB6D43F43B
:1024F8008063FB65BB680133BB60BB681B7818460B
:10250800FFF71CF80346002B06D007F1080318460E
:10251800FFF72BF8786511E0BB681B782A2B0DD1E3
:10252800D7F888301A1DC7F888201B687B637B6B37
:1025380023EAE3737B65BB680133BB60BB681B7828
:10254800683B122B66D801A252F823F0C725001069
:102558001D260010FD2500101D260010A1250010C5
:102568001D2600101D2600101D2600101D26001017
:102578001D2600101D2600101D260010ED25001038
:102588001D2600101D2600101D2600101D260010F7
:102598001D2600100D260010FB6D43F48073FB65AB
:1025A800BB680133BB60BB681B786C2B34D1FB6DF7
:1025B80043F40073FB65BB680133BB602CE0FB6D23
:1025C80043F08003FB65BB680133BB60BB681B78C5
:1025D800682B25D1FB6D43F04003FB65BB680133D5
:1025E800BB601DE0FB6D43F48073FB65BB68013382
:1025F800BB6016E0FB6D43F40073FB65BB680133F9
:10260800BB600EE0FB6D43F48073FB65BB68013370
:10261800BB6006E000BF04E000BF02E0C914001080
:1026280000BFBB681B78253B532B00F2608301A2D7
:1026380052F823F0DF2C0010F72C0010F72C0010B4
:10264800F72C0010F72C0010F72C0010F72C0010B6
:10265800F72C0010F72C0010F72C0010F72C0010A6
:10266800F72C0010F72C0010F72C0010F72C001096
:10267800F72C0010F72C0010F72C0010F72C001086
:10268800F72C0010F72C0010F72C0010F72C001076
:10269800F72C0010F72C0010F72C0010F72C001066
:1026A800F72C0010F72C0010F72C0010F72C001056
:1026B800F72C0010932A0010432A0010932A0010C8
:1026C800F72C0010F72C0010F72C0010F72C001036
:1026D800F72C0010F72C0010F72C0010F72C001026
:1026E800F72C0010F72C0010F72C0010F72C001016
:1026F800F72C0010F72C0010F72C0010F72C001006
:102708008D270010F72C0010F72C0010F72C001064
:10271800F72C0010F72C0010F72C0010F72C0010E5
:10272800F72C0010F72C00108D270010032B001039
:102738008D270010932A0010432A0010932A0010B6
:10274800F72C00108D270010F72C0010F72C001024
:10275800F72C0010F72C0010F72C00108D27001014
:10276800432C0010F72C0010F72C00107B2B0010C6
:10277800F72C00108D270010F72C0010F72C0010F4
:102788008D270010BB681B78782B03D0BB681B789B
:10279800582B02D11023BB6413E0BB681B786F2B46
:1027A80002D10823BB640CE0BB681B78622B02D102
:1027B8000223BB6405E00A23BB64FB6D23F010030E
:1027C800FB65BB681B78582B03D1FB6D43F02003D6
:1027D800FB65BB681B78692B07D0BB681B78642B2B
:1027E80003D0FB6D23F00C03FB65FB6D03F48063E2
:1027F800002B03D0FB6D23F00103FB65BB681B783E
:10280800692B04D0BB681B78642B40F09880FB6D63
:1028180003F40073002B31D0D7F88830073323F046
:10282800070303F10802C7F88820D3E90023C7E9A2
:102838000623D7E90623002B06DA0021D2F1000887
:1028480061EB030942464B46F969C90FC9B2B86C36
:1028580000248246A346F86D0890B86D0790786DFD
:102868000690CDE904AB0291CDE90023FB68FA6C30
:1028780039697869FFF72FF8F864DAE0FB6D03F43B
:102888008073002B20D0D7F888301A1DC7F888200D
:102898001B687B627B6A002BB8BF5B4219467B6A68
:1028A800DB0FDBB2FA6D0592BA6D04927A6D039272
:1028B800BA6C029201930091FB68FA6C39697869E5
:1028C800FEF7A3FFF864B4E0FB6D03F04003002BB0
:1028D80007D0D7F888301A1DC7F888201B68DBB2E4
:1028E80012E0FB6D03F08003002B07D0D7F8883087
:1028F8001A1DC7F888201B681BB205E0D7F8883076
:102908001A1DC7F888201B68BB62BB6A002BB8BFBA
:102918005B421946BB6ADB0FDBB2FA6D0592BA6DF2
:1029280004927A6D0392BA6C029201930091FB684B
:10293800FA6C39697869FEF768FFF86479E0FB6D2D
:1029480003F40073002B22D0D7F88830073323F024
:10295800070303F10802C7F88820D3E90023B96CFC
:1029680000200D460646F96D0891B96D0791796DFD
:102978000691CDE9045600210291CDE90023FB68B8
:10298800FA6C39697869FEF7A6FFF86451E0FB6DC7
:1029980003F48073002B18D0D7F888301A1DC7F8B5
:1029A80088201B68FA6D0592BA6D04927A6D0392BD
:1029B800BA6C0292002201920093FB68FA6C3969A2
:1029C8007869FEF722FFF86433E0FB6D03F04003FB
:1029D800002B07D0D7F888301A1DC7F888201B6845
:1029E800DBB212E0FB6D03F08003002B07D0D7F8B1
:1029F80088301A1DC7F888201B689BB205E0D7F8F5
:102A080088301A1DC7F888201B68FB62FB6D059388
:102A1800BB6D04937B6D0393BB6C029300230193FE
:102A2800FB6A0093FB68FA6C39697869FEF7EDFE7A
:102A3800F864BB680133BB6066E1BB681B78462B52
:102A480003D1FB6D43F02003FB65D7F888300733CB
:102A580023F0070303F10802C7F8882093ED007BF1
:102A6800FB6D0293BB6D01937B6D0093B0EE470A3B
:102A7800F0EE670AFB68FA6C39697869FEF798FF27
:102A8800F864BB680133BB603EE1BB681B78672B09
:102A980003D0BB681B78472B03D1FB6D43F400635D
:102AA800FB65BB681B78452B03D0BB681B78472B9D
:102AB80003D1FB6D43F02003FB65D7F8883007335B
:102AC80023F0070303F10802C7F8882093ED007B81
:102AD800FB6D0293BB6D01937B6D0093B0EE470ACB
:102AE800F0EE670AFB68FA6C39697869FFF7B8F99C
:102AF800F864BB680133BB6006E101237B64FB6DAE
:102B080003F00203002B0ED107E0FA6C531CFB64A0
:102B18007C69FB6839692020A0477B6C5A1C7A6461
:102B2800BA6D9A42F1D8D7F888301A1DC7F88820AC
:102B38001B68D8B2FA6C531CFB647C69FB68396962
:102B4800A047FB6D03F00203002B0ED007E0FA6CE0
:102B5800531CFB647C69FB6839692020A0477B6CA7
:102B68005A1C7A64BA6D9A42F1D8BB680133BB60CB
:102B7800CAE0D7F888301A1DC7F888201B683B645C
:102B88007B6D002B01D07B6D01E04FF0FF331946C0
:102B9800386CFEF7B6FCF863FB6D03F48063002B1A
:102BA80005D0FA6B7B6D934228BF1346FB63FB6D20
:102BB80003F00203002B1AD107E0FA6C531CFB64E4
:102BC8007C69FB6839692020A047FB6B5A1CFA63B3
:102BD800BA6D9A42F1D80AE03B6C5A1C3A641878EC
:102BE800FA6C531CFB647C69FB683969A0473B6C31
:102BF8001B78002B09D0FB6D03F48063002BEBD00E
:102C08007B6D5A1E7A65002BE6D1FB6D03F002033B
:102C1800002B0ED007E0FA6C531CFB647C69FB6840
:102C280039692020A047FB6B5A1CFA63BA6D9A4297
:102C3800F1D8BB680133BB6066E00823BB65FB6D58
:102C480043F02103FB65002387F8333097F83330CE
:102C5800002B23D0D7F888301A1DC7F888201B68A6
:102C68001A4600233A607B60FB6D0893BB6D07939F
:102C78007B6D06934FF010024FF00003CDE904235B
:102C880000230293D7E90034CDE90034FB68FA6CDD
:102C980039697869FEF71FFEF86418E0D7F88830BC
:102CA8001A1DC7F888201B681A46FB6D0593BB6D73
:102CB80004937B6D039310230293002301930092E6
:102CC800FB68FA6C39697869FEF79FFDF864BB68A0
:102CD8000133BB6018E0FA6C531CFB647C69FB6829
:102CE80039692520A047BB680133BB600CE0BB688D
:102CF8001878FA6C531CFB647C69FB683969A04737
:102D0800BB680133BB6000BFBB681B78002B7FF436
:102D180041ABFA6CFB689A4202D3FB685A1E00E08A
:102D2800FA6C7C69FB6839690020A047FB6C18467F
:082D38006437BD46BDE8F08FD1
:102D40000FB480B586B002AF07F11C03BB60391D1C
:102D5000BB680093BB694FF0FF320648FFF70CFBDE
:102D6000F860FB6818461037BD46BDE8804004B0E7
:082D7000704700BFE5140010DC
:102D780080B483B000AF7860044A7B6813607B68D6
:102D880018460C37BD465DF8047B7047000020509C
:102D980080B400AF034B01221A6000BFBD465DF846
:082DA800047B70470800205075
:102DB00002440346934200D1704703F8011BF9E730
:102DC00070B50E46054618B183690BB900F046FA96
:102DD000AB69AC6813B9284600F040FA2C4B9C4212
:102DE00020D16C68636EDB0705D4A389980502D4F3
:102DF000A06D00F0D1FAA38919071DD52369DBB1B5
:102E0000013EA36816F8011F013BA36039BB002BEC
:102E100038DA22460A21284600F048F8013011D05D
:102E20000A2511E01B4B9C4201D1AC68DAE71A4B32
:102E30009C4208BFEC68D5E72146284600F088F898
:102E40000028DDD04FF0FF35636EDA0705D4A38983
:102E50009B0502D4A06D00F0A0FA284670BD002B9F
:102E600004DAA2699A4206DC0A2904D023685A1CB3
:102E700022601970C5E72246284600F017F8013095
:102E8000BFD1DFE723680A255A1C22601D70DBE7EB
:0C2E90005C3900107C3900103C39001047
:102E9C00024B01461868FFF78DBF00BF3C3800108D
:102EAC00F8B50E461446054618B183690BB900F007
:102EBC00CFF9214B9C422BD16C68A369A360A389E9
:102ECC001A072FD523696BB32369F6B220683746EE
:102EDC00C01A6369834204DC2146284600F024F9B9
:102EEC0030BBA3680130013BA36023685A1C2260ED
:102EFC001E706369834204D0A389DB0706D50A2EB2
:102F0C0004D12146284600F00FF988B93846F8BD9F
:102F1C000A4B9C4201D1AC68CFE7094B9C4208BFDD
:102F2C00EC68CAE72146284600F00CF80028CBD004
:102F3C004FF0FF37EAE700BF5C3900107C39001016
:042F4C003C390010FC
:102F5000324B70B51D6806460C4625B1AB6913B9F6
:102F6000284600F07BF92E4B9C420FD16C68A38958
:102F7000B4F90C2019072CD4DD0611D409233360D1
:102F800042F040034FF0FF30A3813EE0254B9C42CE
:102F900001D1AC68EBE7244B9C4208BFEC68E6E744
:102FA000580712D5616B41B104F14403994202D034
:102FB000304600F059FA00236363A38923F0240309
:102FC000A3810023636023692360A38943F008037E
:102FD000A38123694BB9A38903F42073B3F5007F60
:102FE00003D02146304600F0FFF9A089B4F90C2047
:102FF00010F001030AD00023A36063695B42A36160
:10300000236943B910F08000BAD170BD810758BF61
:103010006369A360F4E70020F7E700BF3C380010C5
:0C3020005C3900107C3900103C390010B5
:10302C008A892DE9F041054610070C4658D44B68A7
:10303C00002B05DC0B6C002B02DC0020BDE8F081C2
:10304C00E66A002EF9D0002312F480522F682B6010
:10305C0032D0606DA3895A0705D56368C01A636BBB
:10306C000BB1236CC01A00230246E66A2846216A7B
:10307C00B047431CA38906D129681D292CD8294A9D
:10308C00CA40D60728D50022D90462602269226082
:10309C0004D5421C01D12B6803B96065616B2F60AC
:1030AC000029CAD004F14403994202D0284600F00A
:1030BC00D5F900206063C1E7216A01232846B04797
:1030CC00411CC7D12B68002BC4D01D2B01D0162B53
:1030DC0001D12F60B1E7A38943F04003A381ADE791
:1030EC000F69002FA9D093070E680F600CBF4B69B6
:1030FC000023A6EB07088B60B8F1000F9DDD43465B
:10310C003A46216A2846A66AB047002806DCA389FD
:10311C004FF0FF3043F04003A3818FE70744A8EB47
:08312C000008E9E70100402062
:1031340038B50B6905460C4613B90025284638BD39
:1031440018B183690BB900F087F8144B9C421BD16A
:103154006C68B4F90C30002BEFD0626ED00704D445
:10316400990502D4A06D00F015F928462146FFF711
:103174005BFF636E0546DA07E0D4A3899B05DDD4C3
:10318400A06D00F008F9D9E7054B9C4201D1AC6869
:10319400DFE7044B9C4208BFEC68DAE75C390010B7
:0831A4007C3900103C390010D9
:1031AC00002310B504468360818119464366C281B1
:1031BC0008228361C0E90033C0E904335C30FFF7B7
:1031CC00F1FD054B24626362044BA362044BE36282
:1031DC00044B236310BD00BF493600106B36001042
:0831EC00A3360010C7360010E5
:0C31F400014900F0AFB800BF35310010F9
:1032000070B568224D1E0E46554305F1740100F05D
:1032100097F9044640B1002105F16802C0E90016A3
:0C3220000C30A060FFF7C4FD204670BD1C
:0C322C00014800F0B3B800BF9D3900104D
:0C323800014800F0AEB800BF9D39001046
:0C324400014800F0A7B800BF9E39001040
:0C325000014800F0A2B800BF9E39001039
:10325C0010B50446FFF7F0FFA3691BB1BDE81040A1
:10326C00FFF7F0BFC4E9123323652046124B134A13
:10327C001B68A262A34204BF0123A36100F020F8E3
:10328C006060204600F01CF8A060204600F018F8A2
:10329C0000220421E0606068FFF782FF012209210F
:1032AC00A068FFF77DFF02221221E068FFF778FF8C
:1032BC000123A361D2E700BF38390010F5310010AB
:1032CC00F8B50746FFF7ACFF1E4B1E68B36913B980
:1032DC003046FFF7BDFF4836D6E90134013B03D534
:1032EC0033680BB33668F7E7B4F90C50D5B9164B05
:1032FC0004F158006566E36000F047F8FFF796FFAD
:10330C000822294604F15C002560A561C4E9015539
:10331C00C4E90455FFF746FDC4E90D55C4E912553F
:10332C002046F8BD6834D9E704213846FFF762FF20
:10333C00044630600028D5D1FFF778FF0C233B60A2
:0C334C00EEE700BF383900100100FFFF61
:103358002DE9F8430646884600F148040027D4E9D9
:103368000195B9F1010905D52468002CF7D1384633
:10337800BDE8F883AB89012B07D9B5F90E300133C5
:0E33880003D029463046C04707436835E9E7C1
:0233960070477E
:0233980070477C
:02339A0070477A
:10339C0070B50E46B1F90E1096B0144600291D46B4
:1033AC0008DAB6F90C3000222A601A0610D44FF451
:1033BC0080630EE06A4600F0A7F90028F1DB019A61
:1033CC0002F47042A2F500535A425A412A60EEE7C9
:0A33DC0040230020236016B070BDEE
:1033E8008B8973B59D0706460C4607D504F147033C
:1033F800236023610123636102B070BD01AB6A469B
:10340800FFF7C8FF00990546304600F095F848B91F
:10341800B4F90C309A05EFD423F0030343F0020308
:10342800A381E3E70D4BB362A389206043F08003D7
:103438002061A381009B6361019B5BB1B4F90E100D
:10344800304600F075F928B1A38923F0030343F04F
:103458000103A381A0890543A581CDE7F5310010BB
:1034680037B5002943D051F8043C0C1F0190002BBC
:10347800B8BFE41800F07EF91E4A0198136833B902
:103488006360146003B0BDE8304000F079B9A3422E
:1034980008D9256861198B4201BF19685B68491909
:1034A8002160EDE71A465B680BB1A342FAD91168AF
:1034B8005518A5420BD12468214454181160A34221
:1034C800E0D11C685B68214453601160DAE702D9D7
:1034D8000C230360D6E7256861198B4202BF19687F
:1034E8005B684919636008BF21605460CAE703B08C
:0834F80030BD00BFA039001037
:1035000070B50E4E0C460546316811B900F08CF8C6
:1035100030602146284600F087F8431C0AD0C41CBE
:1035200024F00304A04207D0211A284600F07CF8BA
:10353000013001D14FF0FF34204670BDA439001096
:103540002DE9F041CD1C074625F0030508350C2D6B
:1035500038BF0C25002D01DBA94205D90C2300261C
:103560003B603046BDE8F0812E4E00F007F933682D
:103570001C4634BB29463846FFF7C2FF431C0446AD
:103580004DD134682646002E40D123683146384656
:1035900004EB030800F048F880453AD12168033570
:1035A00038466D1A25F0030508350C2D38BF0C255B
:1035B0002946FFF7A5FF01302BD023682B44236059
:1035C0000EE02268521B1ED40B2A16D96119A342A1
:1035D000256018BF5960636808BF316062514B6055
:1035E00004F10B06384600F0CFF8231D26F007063D
:1035F000F21AB6D09B1BA350B3E76268A3420CBF7C
:1036000032605A60ECE723466468B2E73446766875
:10361000B9E70C2338463B6000F0B6F8A1E7256017
:08362000DEE700BFA039001035
:1036280038B50023054D044608462B6000F0E8F83D
:10363800431C02D12B6803B1236038BDA8390010A0
:1036480010B50C46B1F90E1000F0A0F80028ABBF79
:10365800636DA3891B1823F48053ACBF6365A381F2
:0236680010BD93
:10366A002DE9F0411F468B8905460C46DB051646B7
:10367A0005D502230022B1F90E1000F068F8A389DB
:10368A003246B4F90E10284623F48053A3813B46F0
:08369A00BDE8F04100F017B893
:1036A20010B50C46B1F90E1000F055F8431CA38971
:1036B20015BF606523F4805343F48053A38118BF80
:0436C200A38110BD13
:0836C600B1F90E1000F013B879
:1036D00038B50446064D0846114600222A601A46AF
:1036E00000F0A2F8431C02D12B6803B1236038BD5F
:0436F000A8390010E5
:1036F40038B50023054D044608462B6000F05AF8FF
:10370400431C02D12B6803B1236038BDA8390010D3
:1037140038B50023064D0446084611462B6000F0D8
:1037240051F8431C02D12B6803B1236038BD00BF9C
:04373400A8390010A0
:1037380038B50023054D044608462B6000F048F8CC
:10374800431C02D12B6803B1236038BDA83900108F
:1037580038B50446064D0846114600222A601A4626
:1037680000F03EF8431C02D12B6803B1236038BD3A
:04377800A83900105C
:0C377C000148FFF70BBE00BF9C39001095
:0C3788000148FFF706BE00BF9C3900108E
:1037940038B50446064D0846114600222A601A46EA
:1037A40000F028F8431C02D12B6803B1236038BD14
:0437B400A839001020
:1037B800024B58224FF0FF301A607047A8390010AA
:1037C800024B58224FF0FF301A607047A83900109A
:1037D800024B582200201A60704700BFA839001019
:1037E800024B58224FF0FF301A607047A83900107A
:1037F800024B58224FF0FF301A607047A83900106A
:10380800054A0346106810B1034413607047034823
:1038180003441360704700BFAC390010C059001052
:10382800024B58224FF0FF301A607047A839001039
:0438380040787D0156
:04383C004038001000
:10384000000000005C3900107C3900103C39001089
:103850000000000000000000000000000000000068
:103860000000000000000000000000000000000058
:103870000000000000000000000000000000000048
:103880000000000000000000000000000000000038
:103890000000000000000000000000000000000028
:1038A000537461727400000068656C6C6F20776FF0
:1038B000726C64202D2025642E0A00006E616E005B
:1038C000666E692D00000000666E692B0000000026
:0438D000666E6900B7
:1038D800000000000000F03F00000000000024404D
:1038E80000000000000059400000000000408F4028
:1038F800000000000088C34000000000006AF84093
:103908000000000080842E4100000000D0126341B6
:103918000000000084D797410000000065CDCD412C
:1039280098CEFF7FB0B0B080A4CEFF7F010000002A
:043938004038001003
:10393C00000000000000000000000000000000007B
:10394C00000000000000000000000000000000006B
:10395C00000000000000000000000000000000005B
:10396C00000000000000000000000000000000004B
:10397C00000000000000000000000000000000003B
:10398C00000000000000000000000000000000002B
:04000005100007C11F
:00000001FF
