:020000040800F2
:10000000A09900203D34000855070008D1010008E0
:10001000690700087D07000891070008000000003C
:10002000000000000000000000000000A50700081C
:10003000AD07000800000000AF070008B707000880
:100040008D3400088D3400088D3400088D3400088C
:100050008D3400088D3400088D3400088D3400087C
:100060008D3400088D3400088D3400088D3400086C
:100070008D3400088D3400088D3400088D3400085C
:100080008D3400088D3400088D3400088D3400084C
:100090008D3400088D3400088D3400088D3400083C
:1000A0008D3400088D3400088D3400088D3400082C
:1000B0008D3400088D3400088D3400088D3400081C
:1000C0008D3400088D3400088D3400088D3400080C
:1000D0008D340008CD0700088D3400088D340008E9
:1000E0008D3400088D3400088D3400088D340008EC
:1000F0008D3400088D3400088D3400088D340008DC
:100100008D3400088D3400088D3400088D340008CB
:100110008D3400088D3400088D3400088D340008BB
:100120008D3400088D3400088D3400088D340008AB
:100130008D34000800000000000000008D3400082D
:100140008D3400088D3400088D3400088D3400088B
:100150008D3400088D3400088D3400088D3400087B
:100160008D3400088D3400088D3400088D3400086B
:100170008D3400088D3400080000000000000000ED
:080180008D3400088D340008E5
:1001900010B5054C237833B9044B13B10448AFF3C1
:1001A00000800123237010BD7800002000000000B3
:1001B0001845000808B5034B1BB103490348AFF3CA
:1001C000008008BD000000007C00002018450008E9
:1001D00072B60E4B19680E4B1A681EF0040F05D14B
:1001E000EFF3088088420ADB904208DC2DE9F00F2B
:1001F0001EF0040F0CBFEFF30880EFF30980714687
:10020000044ABFF34F8F62B610470000E48100201C
:10021000E8810020D1180008000000000000000064
:1002200001F0FF01102A2BDB10F0070F08D010F8A7
:10023000013B013A8B422DD010F0070F42B3F6D1AB
:10024000F0B441EA012141EA014122F007047FF0C4
:1002500000070023F0E80256083C85EA010586EA1B
:10026000010685FA47F5A3FA87F586FA47F6A5FA57
:1002700087F68EB9EED1F0BC01F0FF0102F0070263
:1002800032B110F8013B013A83EA010313B1F8D10E
:100290000020704701387047002D06BF35460338EF
:1002A000073815F0010F07D1013015F4807F02BF28
:1002B000013015F4C03F0130F0BC0138704700BF79
:1002C00053B94AB9002908BF00281CBF4FF0FF31BD
:1002D0004FF0FF3000F074B9ADF1080C6DE904CEB9
:1002E00000F006F8DDF804E0DDE9022304B0704711
:1002F0002DE9F047089D04468E46002B4DD18A42D9
:10030000944669D9B2FA82F252B101FA02F3C2F10B
:10031000200120FA01F10CFA02FC41EA030E94409C
:100320004FEA1C48210CBEFBF8F61FFA8CF708FBBD
:1003300016E341EA034306FB07F199420AD91CEB95
:10034000030306F1FF3080F01F81994240F21C81C7
:10035000023E63445B1AA4B2B3FBF8F008FB10330F
:1003600044EA034400FB07F7A7420AD91CEB040444
:1003700000F1FF3380F00A81A74240F20781644414
:10038000023840EA0640E41B00261DB1D440002399
:10039000C5E900433146BDE8F0878B4209D9002DFD
:1003A00000F0EF800026C5E9000130463146BDE887
:1003B000F087B3FA83F6002E4AD18B4202D38242F1
:1003C00000F2F980841A61EB030301209E46002DA0
:1003D000E0D0C5E9004EDDE702B9FFDEB2FA82F2F5
:1003E000002A40F09280A1EB0C014FEA1C471FFA53
:1003F0008CFE0126200CB1FBF7F307FB131140EA3A
:1004000001410EFB03F0884208D91CEB010103F106
:10041000FF3802D2884200F2CB804346091AA4B2C8
:10042000B1FBF7F007FB101144EA01440EFB00FE9C
:10043000A64508D91CEB040400F1FF3102D2A64501
:1004400000F2BB800846A4EB0E0440EA03409CE7A0
:10045000C6F12007B34022FA07FC4CEA030C20FA4D
:1004600007F401FA06F31C43F9404FEA1C4900FA6D
:1004700006F3B1FBF9F8200C1FFA8CFE09FB1811EA
:1004800040EA014108FB0EF0884202FA06F20BD95D
:100490001CEB010108F1FF3A80F08880884240F2AD
:1004A0008580A8F102086144091AA4B2B1FBF9F0F1
:1004B00009FB101144EA014100FB0EFE8E4508D9EC
:1004C0001CEB010100F1FF346CD28E456AD9023871
:1004D000614440EA0840A0FB0294A1EB0E01A14256
:1004E000C846A64656D353D05DB1B3EB080261EBC4
:1004F0000E0101FA07F722FA06F3F1401F43C5E99E
:10050000007100263146BDE8F087C2F12003D840D3
:100510000CFA02FC21FA03F3914001434FEA1C4715
:100520001FFA8CFEB3FBF7F007FB10360B0C43EA07
:10053000064300FB0EF69E4204FA02F408D91CEBB7
:10054000030300F1FF382FD29E422DD902386344B5
:100550009B1B89B2B3FBF7F607FB163341EA034155
:1005600006FB0EF38B4208D91CEB010106F1FF38A4
:1005700016D28B4214D9023E6144C91A46EA00469B
:1005800038E72E46284605E70646E3E61846F8E62D
:100590004B45A9D2B9EB020864EB0C0E0138A3E776
:1005A0004646EAE7204694E74046D1E7D0467BE757
:1005B000023B614432E7304609E76444023842E7CF
:1005C000704700BF00B583B00B4B0193012300932C
:1005D00000234FF400620949094801F0C1FE0128D7
:1005E00006D00146074802F093FF03B05DF804FB14
:1005F00002F06EFAF9E700BF9400002030450008D1
:10060000050700083C45000800B583B001904FF68F
:10061000FF73012201A9034800F088FB019803B091
:100620005DF804FB9880002030B583B0002401946D
:100630000E4A536943F00803536123680193019AFA
:100640000B4D2146284602F063FF63680193019A2F
:100650000421284602F05CFFD4F803300193019A8C
:100660000321284602F054FF03B030BD00ED00E046
:100670005C45000808B50349034802F049FFFFF74D
:10068000D3FF08BDDC4500087845000808B50349DC
:10069000034802F03DFFFFF7EDFF08BDD445000819
:1006A0007845000808B50349034802F031FFFFF719
:1006B000EDFF08BDCC4500087845000808B50349A2
:1006C000034802F025FFFFF7EDFF08BDC445000811
:1006D0007845000808B50349034802F019FFFFF701
:1006E000EDFF08BDBC4500087845000808B5034982
:1006F000034802F00DFFFFF7EDFF08BDB445000809
:100700007845000810B5002401E0FFF7EFFF4FF433
:100710007A7001F0B9FF034802F080FF022CF4DC8C
:100720000134F4E78845000808B500F0E3FF00F065
:100730006DF800F091F801F065F8FFF743FF044809
:1007400002F06CFF4FF47A7001F000F8F7E700BF99
:10075000A445000808B50249024802F0D9FEFEE7A8
:10076000404600087845000808B50249024802F0F2
:10077000CFFEFEE72C4600087845000808B5024980
:10078000024802F0C5FEFEE718460008784500085A
:1007900008B50249024802F0BBFEFEE70446000825
:1007A0007845000808B502F0B3FC08BD704708B5ED
:1007B00002F0DEFC08BD08B502F0F8F8012802D10D
:1007C00000F0B2FF08BD02F005FDF9E708B50248E8
:1007D00000F09EFB08BD00BF9880002008B50349CB
:1007E000034802F095FE72B6FEE700BFF44500082C
:1007F0007845000808B50349034802F089FE72B63F
:10080000FEE700BFE44500087845000884B00022F8
:100810000192104B196B41F004011963196B01F03F
:100820000401019101990292196B41F08001196351
:10083000196B01F080010291029903921A6B42F048
:1008400001021A631B6B03F001030393039B04B0C3
:10085000704700BF0038024008B50A480A4B0360E1
:100860004FF4E133436000238360C36003610C22D3
:1008700042618361C36100F0C3F900B908BDFFF7AD
:10088000ADFFFBE7988000200010014010B588B054
:10089000002303930493059306930793026803F1DF
:1008A000804303F588339A4201D008B010BD00247C
:1008B000019403F594335A6C42F010025A645A6C56
:1008C00002F010020192019A02941A6B42F00102A6
:1008D0001A631B6B03F001030293029B4FF4C06386
:1008E000039302230493032306930723079303A987
:1008F000054800F077FC22462146252000F062FEE4
:10090000252000F0A5FED0E70000024082B00021C3
:1009100000910B4B5A6C42F480425A645A6C02F4B8
:1009200080420092009A01911A6C42F080521A643F
:100930001B6C03F080530193019B02B0704700BF12
:1009400000380240026802F10C0353E8003F23F430
:1009500090730C3242E800310029F3D1026802F1B1
:10096000140353E8003F23F00103143242E800313E
:100970000029F3D1036B012B05D0202380F84230EE
:10098000002303637047026802F10C0353E8003F41
:1009900023F010030C3242E800310029F3D1ECE7D8
:1009A00090F84130DBB2212B01D0022070478368E0
:1009B000B3F5805F17D0036A5A1C02621A78036885
:1009C0005A60C38C9BB2013B9BB2C3844BB9026893
:1009D000D36823F08003D3600268D36843F04003F8
:1009E000D360002070470369002BE4D1036A1B88A1
:1009F0000268C3F308035360036A02330362E0E74B
:100A000038B504464268574B9A423FD8E36813B161
:100A1000B3F5005F40D123692BB1B3F5806F02D0ED
:100A2000B3F5C06F3ED163694FF6F372134200D144
:100A300023B940F678614C48FFF7DCFE2268136961
:100A400023F44053E1680B431361A3682269134305
:100A500062691343E2691A432168CB6823F41643A1
:100A600023F00C031343CB602268536923F44073D3
:100A7000A1690B43536123683C4A934218D002F5A5
:100A80008062934214D000F08DFB13E040F6756154
:100A90003548FFF7AFFEB9E740F676613248FFF719
:100AA000A9FEB8E740F677612F48FFF7A3FEBAE743
:100AB00000F088FBE369B3F5004F29D0002103184B
:100AC00049411B1841F10001C90041EA5371DB00A3
:100AD000181863684FEA83024FEA937341F10001EB
:100AE000FFF7EEFB224DA5FB00325109642303FB07
:100AF00011031B013233A5FB03235B0903F0F00252
:100B000002EB011203F00F03216813448B6038BD20
:100B10000023021843EB0301121841F10001C90040
:100B200041EA5271D200101841F100016268921836
:100B30005B41FFF7C5FB0E4DA5FB00325109642355
:100B400003FB1103DB003233A5FB03235B095A00CF
:100B500002F4F87202EB011203F007032168134458
:100B60008B60D4E7A037A0004C460008001001407D
:100B70001F85EB512DE9F04383B005460E4617461D
:100B80009946DDF828802C68246836EA04030CBFF7
:100B90004FF0010C4FF0000CBC4528D1B8F1FF3FDD
:100BA000F1D000F0CDFDA0EB0900404523D8B8F10D
:100BB000000F22D02B68DA6812F0040FE3D0802EE9
:100BC000E1D0402EDFD01A6812F0080FDBD00024ED
:100BD00001941A6801925B680193019B2846FFF714
:100BE000B1FE08236B6485F84040012000E000203E
:100BF00003B0BDE8F0830320FAE70320F8E7000024
:100C0000002800F08C8010B504468369002B56D074
:100C10000368444A934210D0A2F54C4293420CD050
:100C200002F58062934208D002F54C42934204D010
:100C300040F273113C48FFF7DDFDA36943B1B3F502
:100C4000807F05D0B3F5007F02D0B3F5407F30D16F
:100C5000A36813B1B3F5805F4FD1E36913B1B3F566
:100C6000004F50D194F84130002B52D0242384F807
:100C700041302268D36823F40053D3602046FFF745
:100C8000BFFE2268136923F49043136122685369FD
:100C900023F02A0353612268D36843F40053D360DE
:100CA00000206064202384F8413084F8423060637F
:100CB00010BD4FF4BA711C48FFF79CFDC8E70368EC
:100CC000184A9342C4D0A2F54C429342C0D002F5D8
:100CD00080629342BCD002F580629342B8D002F5A4
:100CE00080629342B4D002F544429342B0D04FF4B4
:100CF000BC710D48FFF77EFDAAE74FF4BD710A48AD
:100D0000FFF778FDA9E740F27B110748FFF772FD76
:100D1000A8E784F840302046FFF7B8FDA6E7012099
:100D2000704700BF001001404C4600082DE9F0411B
:100D300082B01E4690F84130DBB2202B56D10446DB
:100D40000D469046002955D00AB901204FE00023F6
:100D50004364212380F8413000F0F2FC0746A4F8F8
:100D60002480A4F82680A368B3F5805F02D04FF0FA
:100D7000000814E023692BB34FF000080FE0202394
:100D800084F84130032032E038F8023B2268C3F394
:100D900008035360E28C92B2013A92B2E284E38C8F
:100DA0009BB293B100963B46002280212046FFF77C
:100DB000E1FE0028E3D1002DE6D015F8012B2368D1
:100DC0005A60E7E7A8460025E9E700963B4600227F
:100DD00040212046FFF7CEFE18B9202384F8413089
:100DE00005E0202384F84130032000E0022002B017
:100DF000BDE8F0810120FAE7704708B50168CA68CC
:100E000022F04002CA60202280F84120FFF7F4FF60
:100E1000002008BD7047704708B5806B0023C3856C
:100E2000C384FFF7F8FF08BD704790F84230DBB28B
:100E3000222B69D18368B3F5805F4FD0826AB3F506
:100E4000805F04D0002B56D10369002B53D1036877
:100E50005B681370836A01338362C38D9BB2013B6D
:100E60009BB2C385002B51D100B583B00268D36813
:100E700023F02003D3600268D36823F48073D36027
:100E80000268536923F001035361202380F8423044
:100E900000234363036B012B33D1002303630268F8
:100EA00002F10C0353E8003F23F010030C3242E838
:100EB00000310029F3D103681A6812F0100F06D030
:100EC000002201921A6801925B680193019B818D57
:100ED000FFF7AAFF002003B05DF804FB0269002AB7
:100EE000ACD1826A03685B68C3F308031380836A2A
:100EF00002338362B1E703685B6803F07F0313701A
:100F0000A8E7FFF787FFE5E702207047002070475A
:100F100030B583B0044602681368D068516913F095
:100F20000F0505D113F0200F02D010F0200F19D1BA
:100F30002DB111F0010119D110F4907F16D1216B60
:100F400001297DD013F0800F03D010F0800F40F006
:100F5000198113F0400F03D010F0400F40F01681BC
:100F600003B030BD2046FFF760FFF9E713F0010F33
:100F700006D010F4807F03D0626C42F001026264FC
:100F800013F0040F04D019B1626C42F002026264E3
:100F900013F0020F04D019B1626C42F004026264D3
:100FA00013F0080F07D010F0200F00D119B1626CB8
:100FB00042F008026264626C002AD1D013F0200F64
:100FC00002D010F0200F29D123685B6903F04003A1
:100FD000626C12F0080F00D163B32046FFF7B2FC39
:100FE00023685B6913F0400F20D0226802F11403DC
:100FF00053E8003F23F04003143242E80031002957
:10100000F3D1E36B73B1634A1A65E06B00F0A8FAA1
:101010000028A5D0E06B036D9847A1E72046FFF7B5
:1010200004FFD1E72046FFF7F6FE99E72046FFF7D9
:10103000F2FE95E72046FFF7EEFE002363648FE79C
:1010400013F0100F3FF47EAF10F0100F3FF47AAFA3
:10105000002301931368019353680193019B536923
:1010600013F0400F52D0E26B13685B689BB2002B09
:101070003FF476AFA18D99427FF672AFE385D369D5
:10108000B3F5807F37D0226802F10C0353E8003FAC
:1010900023F480730C3242E800310029F3D1226836
:1010A00002F1140353E8003F23F00103143242E835
:1010B00000310029F3D1226802F1140353E8003F04
:1010C00023F04003143242E800310029F3D12023F9
:1010D00084F8423000232363226802F10C0353E8B2
:1010E000003F23F010030C3242E800310029F3D115
:1010F000E06B00F0EBF902236363A18DE38D9BB2FB
:10110000C91A89B22046FFF78FFE29E7A18DE38D2A
:101110009BB2C91A89B2E38D9BB2002B3FF420AF7A
:1011200000293FF41DAF226802F10C0353E8003F91
:1011300023F490730C3242E800300028F3D1226887
:1011400002F1140353E8003F23F00103143242E894
:1011500000300028F3D1202384F842300023236399
:10116000226802F10C0353E8003F23F010030C3215
:1011700042E800300028F3D1022363632046FFF7E2
:1011800053FEEDE62046FFF70BFCE9E62046FFF7AD
:1011900034FEE5E6190E0008014B1868704700BFE1
:1011A0000800002008B5FFF7F7FF044B9B68C3F366
:1011B0008223034AD35CD84008BD00BF00380240F8
:1011C0000047000808B5FFF7E7FF044B9B68C3F32F
:1011D0004233034AD35CD84008BD00BF0038024008
:1011E000004700082DE9F04182B007460E46544BF7
:1011F000984223D003F5806398421FD003F58063A3
:1012000098421BD003F58063984217D003F58063A2
:10121000984213D003F5806398420FD003F58063A2
:1012200098420BD003F58063984207D003F58063A2
:10123000984203D0AC214348FFF7DCFA33689AB2F6
:1012400012B11B0C1B041BB1AD213E48FFF7D2FAB3
:101250007368012B19D9112B17D0022B15D0122B23
:1012600013D0B3F5881F10D0B3F5041F0DD0B3F51C
:10127000441F0AD0B3F5901F07D0B3F5081F04D060
:10128000B3F5481F01D0032B01D1002492E0AE2119
:101290002C48FFF7AFFAF8E7F368032B13D8BA68C6
:1012A000610003238B4022EA0302F3688B4013435F
:1012B000BB607A6822EA05027368C3F30015A54093
:1012C00015437D6087E0C0211E48FFF793FAE6E7EB
:1012D000D1211C48FFF78EFA86E03369BBB1092B98
:1012E00015D0012B13D0022B11D0032B0FD0042BC0
:1012F0000DD0052B0BD0062B09D0072B07D0082BC0
:1013000005D00A2B03D00C2B01D00F2B10D1E208F3
:10131000083257F8220004F0070399000F238B408E
:1013200020EA030033698B40034347F822306BE027
:10133000DE210448FFF75EFAE9E7072305E000BF76
:10134000000002408846000800238B40034302321D
:101350005A4941F822305A4B9A686FEA080322EA48
:101360000801706810F4801F01D048EA0201544A55
:101370009160D26803EA0201706810F4001F01D086
:1013800048EA02014E4AD160526803EA02017068DD
:1013900010F4003F01D048EA0201494A5160126846
:1013A0001340716811F4803F01D048EA0203444AB7
:1013B000136001340F2C7ED80125A540336803EA61
:1013C000050835EA0303F4D1736803F00303013B16
:1013D000012B7FF661AF736803F00303032B0DD07D
:1013E000B368022B3FF674AFFA68610003238B40A9
:1013F00022EA0302B3688B401343FB60736803F077
:101400000303022B3FF469AF3A68610003238B406A
:1014100022EA0302736803F003038B4013433B602B
:10142000736813F4403FC4D000230193254B5A6CDA
:1014300042F480425A645B6C03F480430193019B45
:10144000A208911C1D4B53F8210004F003039900DE
:101450000F238B4020EA03001B4B9F423FF474AFE5
:1014600003F580639F421AD003F580639F4218D032
:1014700003F580639F4216D003F580639F4214D02A
:1014800003F580639F4212D003F580639F4210D022
:1014900003F580639F423FF450AF082355E70123D3
:1014A00053E7022351E703234FE704234DE70523C6
:1014B0004BE7062349E702B0BDE8F0810038014060
:1014C000003C0140003802400000024070B5044674
:1014D000866D00F035F994F83530DBB2022B06D07A
:1014E00080236365002384F83430012070BD0546F5
:1014F0002268136823F0160313602268536923F0EF
:1015000080035361236CE3B12268136823F008035E
:1015100013602268136823F00103136023681B68BB
:1015200013F0010F11D000F00BF9431B052BF5D977
:1015300020236365032084F83500002384F83430C9
:10154000D4E7A36C002BDFD1E3E7E26D3F239340A8
:10155000B360012384F83530002084F83400C5E7F7
:1015600090F83530DBB2022B03D080234365012095
:101570007047052380F835300268136823F00103B3
:10158000136000207047000010B50446C31E042BF2
:101590000FD80A4AD36823F4E0631B041B0C24020F
:1015A00004F4E064234343F0BF6343F40033D360A7
:1015B00010BD90210248FFF71DF9EAE700ED00E0B9
:1015C000C446000870B505460C4616460F2A25D8B5
:1015D0000F2C28D81B4BDB68C3F30223C3F1070190
:1015E000042928BF04211A1D062A21D9033B4FF0E4
:1015F000FF3202FA01F124EA01049C4002FA03F3EB
:1016000026EA03063443002D14DB2401E4B205F17D
:10161000604505F5614585F8004370BDA8210A487D
:10162000FFF7E8F8D4E7A9210748FFF7E3F8D1E787
:101630000023DCE705F00F052401E4B2034B5C5501
:10164000EBE700BF00ED00E0C446000814ED00E049
:1016500010B5041E0ADB002C07DB04F01F0264092E
:1016600001239340044A42F8243010BDBC210348B2
:10167000FFF7C0F8EFE700BF00E100E0C446000854
:101680000138B0F1807F0BD24FF0E0235861054A5A
:10169000F02182F823100020986107221A61704718
:1016A0000120704700ED00E010B504460E4B18789D
:1016B0004FF47A73B3FBF0F30C4A1068B0FBF3F00D
:1016C000FFF7DEFF68B90F2C01D901200AE00022E4
:1016D00021464FF0FF30FFF775FF054B1C600020DF
:1016E00000E0012010BD00BF000000200800002025
:1016F0000400002008B50B4B1A6842F400721A600F
:101700001A6842F480621A601A6842F480721A60A1
:101710000320FFF739FF0F20FFF7C6FFFFF7F6F8AA
:10172000002008BD003C0240034A1168034B1B78AF
:101730000B441360704700BFE080002000000020D1
:10174000014B1868704700BFE080002038B50446A0
:10175000FFF7F6FF0546B4F1FF3F02D0044B1B78BC
:101760001C44FFF7EDFF401BA042FAD338BD00BF79
:1017700000000020034AD2F8883043F47003C2F816
:101780008830704700ED00E082B00023019307E04D
:1017900030F8131002AA02EB430222F8041C0133B2
:1017A000012BF5D9BDF80600BDF8043043EA00402E
:1017B00002B0704700F47843000C00F47840B3F5B1
:1017C000704F0AD0B3F5784F09D0B0F5704F08D0FC
:1017D000B0F5784F07D000207047012070470120F6
:1017E00070470120704701207047000010B5044683
:1017F0000146034801F08CFE204600F02BF910BD95
:101800000847000808B50A490A4B19600A4A0B4BF9
:101810001A60531A0A4801F07BFE0A490A4A531A11
:101820000A4801F075FE0121094801F071FE08BD6A
:10183000A0910020E4810020A0990020E8810020F0
:101840002047000890010008304500084447000880
:10185000684700082DE9F84348B30F4614461D4673
:10186000804639B34AB39A422AD8002600E00434AD
:10187000D4B1AC4218D8226813489042F7D8134B21
:101880009342F4D312F0010FF1D0A2F10509EED08A
:101890004846FFF779FFFFF78DFF0028E7D048F8AB
:1018A00026900136BE42E2D33046BDE8F8836FF0A1
:1018B0000106F9E76FF00106F6E76FF00206F3E7BD
:1018C0006FF00206F0E700BF900100083045000805
:1018D000F8B505460E460368464C236043686360CE
:1018E0008368A360C368E36003692361436963613C
:1018F0008369A361C369E361036A2362436A636224
:10190000836AA362C36AE362036B2363436B63630B
:10191000836BA363C36BE363374F384601F07EFEEE
:10192000364801F07BFE364801F078FE216A3548E2
:1019300001F0EEFD616A344801F0EAFDA16A334826
:1019400001F0E6FDE16A324801F0E2FD216831482C
:1019500001F0DEFD6168304801F0DAFDA1682F4832
:1019600001F0D6FDE1682E4801F0D2FD21692D4835
:1019700001F0CEFD61692C4801F0CAFDA1692B4838
:1019800001F0C6FDE1692A4801F0C2FD216B29483A
:1019900001F0BEFD616B284801F0BAFDA16B27483C
:1019A00001F0B6FDE16B264801F0B2FD384601F0CA
:1019B00035FE3046FFF71AFF224B05F14002402169
:1019C0002148FFF747FF0546204801F0A1FDA16B24
:1019D0001F4801F09DFD002406E01B4B53F8241026
:1019E0001B4801F095FD0134AC42F6DB024801F0E2
:1019F00015FEFEE7EC810020A44700088847000898
:101A0000A8470008BC470008D0470008E447000882
:101A1000F84700080C48000820480008344800082F
:101A2000484800085C4800087048000884480008DE
:101A300098480008AC480008C0480008D44800088E
:101A4000E8480008A0990020E4800020FC48000835
:101A50000C49000810B50446164801F0DFFD164891
:101A600001F056FD14F0040F18D0144801F0D6FD13
:101A7000134801F04DFD14F0080F13D0114801F088
:101A8000CDFD114801F044FD14F0100F0ED00F48A9
:101A900001F0C4FD074801F0C1FD10BD0C4801F084
:101AA000BDFDE5E70B4801F0B9FDEAE70A4801F0A2
:101AB000B5FDEFE71449000818490008344900084B
:101AC0006C49000888490008C0490008DC49000842
:101AD00050490008A4490008F849000800F108032B
:101AE00043604FF0FF328260C360036100234361B3
:101AF00083610360704700230361704730B40D6851
:101B0000B5F1FF3F11D000F108031C465B681A686D
:101B1000AA42FAD963684B6099608C606160086181
:101B200003680133036030BC70470469F2E703695E
:101B3000416882688A60416851605A68824205D073
:101B400000220261186801381860704782685A6084
:101B5000F6E710B5044601F0EDFAA36C23B90124B1
:101B600001F0F8FA204610BD0024F9E770B50446EC
:101B70001546866C026D5AB903681BB10020013608
:101B8000A66470BD806800F021FF0023A360F6E723
:101B90006DB9406801F0A6FC226D63681344636070
:101BA000A268934219D3236863602846E7E7C068B8
:101BB00001F098FC226D5142E3689B1AE3602268B1
:101BC000934202D2A3680B44E360022D01D00020AF
:101BD000D5E726B1013E0020D1E72846CFE7002017
:101BE000CDE70346026D6AB110B50846D9681144C5
:101BF000D9609C68A14201D31968D960D96801F005
:101C000071FC10BD704770B582B00190846DA26CFC
:101C1000E36C9A4203D30025284602B070BD94F8C5
:101C2000556076B2002201A92046FFF79FFF0546C6
:101C3000B6F1FF3F0AD1E36A002BEDD004F12C008E
:101C400000F0CEFD0028E7D00125E5E700F0A8FB75
:101C50008642E1D2013676B284F85560DCE738B5C9
:101C6000054601F067FA95F8554064B208E0EB6A62
:101C7000B3B105F12C0000F0B3FD70B9013C64B2C2
:101C8000002C0DDDAB6D002BF1D02846FFF7BBFF1C
:101C90000028F3D000F060FEF0E700F05DFEEDE715
:101CA000FF2385F8553001F055FA01F043FA95F815
:101CB000544064B201E0013C64B2002C0ADD2B699F
:101CC00043B105F1100000F08BFD0028F3D000F0C7
:101CD00043FEF0E7FF2385F8543001F03BFA38BDAE
:101CE000002844D038B50D460446C36C002B40D0C4
:101CF000026D0021A3FB022313B919B1002039E0C2
:101D00000121FAE701F016FA2368E26C216D01FB6C
:101D10000230A0600020A0646360013A02FB01333E
:101D2000E360FF2384F8543084F85530B5B9236953
:101D30001BB901F00FFA01201CE004F1100000F0C3
:101D40004FFD0028F5D04FF0E0234FF08052C3F84C
:101D5000042DBFF34F8FBFF36F8FEAE704F110003C
:101D6000FFF7BCFE04F12C00FFF7B8FEE1E700200E
:101D70007047002038BD10B5029C0B4649B924605D
:101D8000E064236501212046FFF7AAFF0023A36535
:101D900010BD2260F4E7B8B110B582B01C4684468D
:101DA000A3B102B1A1B15AB1012384F85630009415
:101DB0009DF810306046FFF7DEFF204602B010BDF0
:101DC0000029F1D01046F9E7002070471846F5E7E2
:101DD0000020F3E7F0B585B004460F4601920026D7
:101DE0003EE039462046FFF7FCFE013DA56423692D
:101DF00023B901F0AFF9012005B0F0BD04F11000E6
:101E000000F0EEFC0028F4D04FF0E0234FF08052B9
:101E1000C3F8042DBFF34F8FBFF36F8FE9E701F0D5
:101E200099F90020E8E702A800F04CFD012621E026
:101E3000002384F8543029E0002384F855302BE047
:101E40002046FFF70CFF00F07FFB09E02046FFF77C
:101E500006FF00F079FB2046FFF77BFE00283FD10C
:101E600001F068F9A56C002DBBD1019B002BD6D0E9
:101E7000002ED8D001F06EF900F084FA01F05AF982
:101E800094F854305BB2B3F1FF3FD1D094F85530A1
:101E90005BB2B3F1FF3FCFD001F05CF901A902A81A
:101EA00000F01CFD0028D1D12046FFF752FE00288B
:101EB000C6D0019904F12C0000F066FC2046FFF723
:101EC000CEFE00F041FB0028CAD14FF0E0234FF0D6
:101ED0008052C3F8042DBFF34F8FBFF36F8FBFE75E
:101EE000002089E770B504460D46164601F022F938
:101EF00094F854305BB2B3F1FF3F0DD094F85530F5
:101F00005BB2B3F1FF3F0BD001F024F9A36C5BB1DE
:101F10002046FFF7A4FE70BD002384F85430EDE79F
:101F2000002384F85530EFE73246294604F12C00AF
:101F300000F038FCECE700000A4B1B6803B10123FA
:101F4000094A1268D06A50B9084A1268012A07D8AB
:101F500033B9074B1868074B1B68C01A704700203D
:101F6000704700BFD48600202C82002038820020D9
:101F700060870020C4870020074B1B681B6823B9BB
:101F8000064B4FF0FF321A607047034B1B68DB684B
:101F90001A68024B1A607047308200206087002068
:101FA0002DE9F04780460D4617469946089EDDF814
:101FB00024A00A9C9200A521206B01F0A1FA236BBA
:101FC00007F18042013A03EB820727F007079DB132
:101FD0004FF0000CBCF1030F0BD815F80C2004EBEC
:101FE0000C0383F8342015F80C3013B10CF1010CFC
:101FF000F0E7002384F83730042E00D90426E66287
:10200000A663201DFFF777FD04F11800FFF773FDAD
:102010002461C6F10506A66164624A464146384617
:1020200001F060F82060BAF1000F01D0CAF800405A
:10203000BDE8F0872DE9F04385B00D9E0E9CF4B10C
:102040000546894690461F46DEB14C2200212046B7
:1020500001F056FA2663022384F8493000230393E3
:1020600002940F9B01930C9B00933B4642464946CA
:102070002846FFF795FF204605B0BDE8F0832046CF
:10208000FAE73046F8E7000038B5002407E0C4EB73
:10209000C40293000E481844FFF720FD0134042CBD
:1020A000F5D90C4D2846FFF719FD0B4C2046FFF7DC
:1020B00015FD0A48FFF712FD0948FFF70FFD094813
:1020C000FFF70CFD084B1D60084B1C6038BD00BFBE
:1020D00038820020D8860020F48600206C870020FB
:1020E000A88700208C8700203082002034820020C6
:1020F00010B5044601F01EF82A4A13680133136034
:10210000294B1B685BB1294B1B686BB9264B1B68BD
:10211000DA6AE36A9A4207D8234B1C6004E0224B38
:102120001C601368012B39D0214A136801331360F6
:10213000E36A204A1268934201D91E4A13601E4A7C
:10214000C3EBC30302EB83035B68A3609868E060A2
:10215000211D41609960E36AC3EBC30102EB81007A
:10216000606152F821100131C3EBC30342F8231020
:1021700000F0F0FF0D4B1B687BB10B4B1B68DA6A5C
:10218000E36A9A4209D24FF0E0234FF08052C3F83D
:10219000042DBFF34F8FBFF36F8F10BDFFF774FF98
:1021A000C2E700BFC48200202C8200208887002064
:1021B000D0840020D4860020388200202DE9F0430E
:1021C00085B006460F4615469846900000F0CAFEB8
:1021D000814610B34C2000F0C5FE0446C8B14C2225
:1021E000002101F08DF9C4F8309074B1002384F817
:1021F0004930039302940D9B01930C9B009343463B
:102200002A4639463046FFF7CBFE204605B0BDE8EA
:10221000F083484600F010FFE7E70446F5E710B505
:10222000044690F8493013B1012B07D010BD006B64
:1022300000F002FF204600F0FFFEF7E700F0FCFE92
:10224000F4E700000F4B1B68D3B110B500F072FF2C
:102250000D4BDB68DC68201DFFF769FC0B4A136837
:10226000013B1360074A1368013B136000F072FFE3
:102270002046FFF7D4FF034B1B68002BE6D110BDAF
:10228000704700BFC8820020A8870020C4820020B9
:102290002DE9F04104460D46214B1E68214B1F6875
:1022A000214BD3F80080214B1A68002182F84A1094
:1022B00018680430FFF73BFCB4F1FF3F0DD0344405
:1022C0001A4B1B685C60A6421DD9184B1968043173
:1022D0004046FFF713FCBDE8F081002DEFD0144A13
:1022E0005168124B1868816018688C68C46018685F
:1022F000043060601868043088601B685A61136895
:1023000001331360E7E7094B196804313846FFF7DA
:10231000F5FB084B1B68A342DDD9064B1C60DAE7CE
:10232000C487002030820020348200202C820020CC
:102330008C8700206087002010B586B000240594AB
:1023400005AC03940A9C0294099C0194089C009497
:10235000FFF770FE08B1FFF7CBFE059806B010BD81
:1023600010B582B0059C0194049C0094FFF726FFF1
:1023700020B1FFF7BDFE012002B010BD4FF0FF30CD
:10238000FAE70000024A136801331360704700BF88
:10239000CC840020014B1868704700BFC487002020
:1023A000014B1868704700BFC482002010B5044676
:1023B0000A4B1B6803440A4A12689A4204D0074B2E
:1023C000186804441C6010BD00F0B4FE054A136890
:1023D0000133136000F0BEFE013CF0E7C48700202B
:1023E00060870020688700204C4B1B68002B40F062
:1023F0008D8070B54A4B1C6801341C60A4B1494BF8
:102400001B68A3421DD90020474B1B68DB6AC3EB46
:10241000C3039A00454B9B58012B00D90120444B24
:102420001B68002B78D170BD424A1168424B186876
:1024300010601960414A136801331360FFF79CFD77
:10244000DDE7002037E0374B4FF0FF321A60DBE763
:10245000344B1A60D8E7D968516042E00021996294
:10246000116801391160DA6A354909688A4201D96F
:1024700033490A602D49C2EBC2024FEA820C8C44F8
:10248000DCF804209A609668DE6075609560DA6A10
:10249000C2EBC20C4FEA8C054E195E614D590135F5
:1024A0004FEA8C0C41F80C50DA6A1F4B1B68DB6A50
:1024B0009A4200D901201F4B1B681B68002BC2D019
:1024C0001C4B1B68DB68DB685A689442C0D35A69AE
:1024D0009D68D968A9609D684D6051681D1DA9421D
:1024E000B9D0002159611168013911609A6A002A36
:1024F000B9D0DE69196AB160DE694E60566803F1D1
:1025000018018E42AAD1196A5160A7E70D4A1368D3
:102510000133136000207047012084E7CC84002041
:10252000C4870020608700202C8200203882002091
:10253000148800203082002034820020648700202C
:10254000D48600206887002010B500F0F3FD464BCC
:102550001A68013A1A601B68002B7FD1434B1B6835
:102560003BB900247BE0196A516015E0D9685160DD
:1025700021E000233E4A1268002A4AD03C4BDB6827
:10258000DB689A6AD869196A8160D86948605068BE
:1025900003F118018842E6D00021996211680139DF
:1025A00011605A699868D968816098684860516874
:1025B000181D8142DAD0002159611168013911607A
:1025C000DA6A2C4909688A4201D92A490A602A49EB
:1025D000C2EBC20201EB820252689A609468DC602E
:1025E00060609060DA6AC2EBC20001EB80045C615B
:1025F00051F820000130C2EBC20241F82200D96A32
:102600001E4A1268D26A9142B4D91D4A0121116052
:10261000B0E70BB1FFF7B0FC1A4B1C6894B9184B2C
:102620001C68E4B1154B1B684FF0E0234FF080525B
:10263000C3F8042DBFF34F8FBFF36F8F01240EE05B
:10264000013C07D0FFF7D0FE0028F9D00C4B012247
:102650001A60F5E70B4B00221A60E0E7002400F057
:1026600079FD204610BD00BFCC840020C48200202C
:102670006C870020D4860020388200202C82002025
:10268000148800206887002010B550B94FF0E0236F
:102690004FF08052C3F8042DBFF34F8FBFF36F8FFD
:1026A00010BD0446FFF76EFE00212046FFF7F0FD47
:1026B000FFF74AFF0028F3D1E8E7000008B50DE076
:1026C0004FF0E0234FF08052C3F8042DBFF34F8F3B
:1026D000BFF36F8FFFF730FC012806D8FFF7B2FD7C
:1026E000074B1B68012BEBD8F4E7FFF74BFEFFF716
:1026F00023FC012801D900F083FDFFF725FFEDE75A
:10270000388200201B4B1B681BB11B4B01221A6037
:102710007047194B00221A60184B1B6800E0013B00
:10272000C3EBC3018A0016498A58002AF7D0C3EBCD
:10273000C30082000A44506840685060C3EBC30C79
:102740004FEA8C020832114488420CD0C3EBC3021A
:1027500091000B4A0A445268D1680A4A116007493D
:102760000B601368704762469100054A0A44D168BD
:102770005160EBE7CC84002014880020D486002030
:10278000388200202C82002010B50C46044B1968BA
:102790001831FFF7B3F901212046FFF779FD10BD8D
:1027A0002C82002070B50346084659680B4C2568FA
:1027B000E96125688E682E62256818357560256880
:1027C00018358D6021688B621968013119601146D6
:1027D0000AB14FF0FF30FFF75BFD70BD2C82002087
:1027E00010B5C368DC68A36AE169226A8A60E1699E
:1027F00051605A6804F118018A4242D00022A26254
:102800001A68013A1A60294B1B68002B3FD1636993
:10281000A168E2688A60A16851605A68211D8A42F5
:1028200032D0002262611A68013A1A60E36A204AD3
:102830001268934201D91E4A13601E4AC3EBC303B8
:1028400002EB83035B68A3609868E0604160996075
:10285000E36AC3EBC30102EB8100606152F821100F
:102860000131C3EBC30342F82310FFF785FBE26A93
:10287000114B1B68DB6A9A4215D901200F4B186077
:1028800010BD226A5A60B9E7E2685A60C9E70C4B8A
:102890005A68E2619068206241609160A3621A68A0
:1028A00001321A60E3E70020EAE700BFCC84002091
:1028B000D4860020388200202C820020148800203A
:1028C0006C870020034B1B680360034B1B6843604D
:1028D000704700BF64870020C4870020F8B5044615
:1028E0000D4600F027FC194B1A686368D01A184986
:1028F000096891F84A1049B1154B1B68002283F80A
:102900004A20012400F026FC2046F8BD2968B1F1D8
:10291000FF3F18D00F4E36682768B74205D0934264
:1029200003D800232B600124ECE7814203D8002365
:102930002B600124E6E79B1A0B442B602046FFF72F
:10294000C1FF0024DEE70024DCE700BFC4870020CD
:102950002C82002064870020014B01221A607047FE
:10296000148800200C4B1B6873B90C4B1B686BB9A7
:102970000B4B1B6863B90B4B1A680B4B1B68013B75
:102980009A4207D00120704700207047002070470E
:1029900000207047022070476C87002014880020B8
:1029A000688700208C870020C4820020054B1B68AC
:1029B00033B1054B1B680BB10020704702207047F4
:1029C0000120704788870020CC840020002834D064
:1029D00038B50446C36B013BC363C16A826B914245
:1029E0002DD00BB1002038BD051D2846FFF79FF8FC
:1029F000A36BE362C3F10502A261124A126893421B
:102A000001D9104A1360104AC3EBC30302EB8303DE
:102A10005B68A3609968E1604D609D60E36AC3EB09
:102A2000C30102EB8100606152F821100131C3EB58
:102A3000C30342F823100120D5E70020704700208F
:102A4000D1E700BFD486002038820020034B03600A
:102A5000034B0B6080231360704700BF1487002076
:102A6000CC82002030B589B00023032B09DC154A45
:102A7000D25C03F12001694401F8042C0AB101334E
:102A8000F3E70024002C02DD012009B030BD002551
:102A90000495059506AA05A904A8FFF7D7FF049B8E
:102AA0000293059B019300952B46069A07A90648B9
:102AB000FFF742FC054B43F8240008B10134E1E77D
:102AC0000020E2E7144A0008BD2600081087002015
:102AD00008B5FFF7C7FF012804D0012805D00D4B2A
:102AE0001B6808BD00F0B2F9F7E74FF0BF0383F3AE
:102AF0001188BFF36F8FBFF34F8F074B4FF0FF323B
:102B00001A60064B01221A60054B00221A6000F081
:102B10001FFCE4E70C00002060870020888700206D
:102B2000C4870020034B0360034B0B6080231360BA
:102B3000704700BFC8870020D4840020064B1A6865
:102B400013682BB90123036023B9D3681868704751
:102B50000023F8E7002070471888002008B541607E
:102B6000006191420CD8D21A83699A4201D30120A4
:102B700008BD011D094B1868FEF7C0FF0020F7E7EC
:102B80009A4201D2994206D2011D054B1868FEF700
:102B9000B5FF0020ECE70120EAE700BF1C88002019
:102BA0001888002070B504460D46164604E0A36957
:102BB0001D44236A20469847A1692B463246294482
:102BC0002046FFF7CBFF0028F1D170BD70B5054658
:102BD0000E460D4B1B68DB68DC68201DFEF7A7FF67
:102BE00094F8243013F0040F07D123F0010384F884
:102BF0002430236A2046984770BD32462946204635
:102C0000FFF7D0FFF5E700BF1888002008B505E002
:102C1000DB684FF0FF311868FFF7D8FF054B1B68E2
:102C20001A68002AF4D1044A106802490860136047
:102C300008BD00BF188800201C88002038B5054654
:102C4000FFF7A8FB0446074B1B68834205D8002307
:102C50002B60044B1C60204638BDFFF7D7FF0123D3
:102C60002B60F6E7F888002070B582B006460C4667
:102C7000FFF788FB01A8FFF7E1FF019B33BB054687
:102C80000CB9B04219D224B1124A12681268DAB9EA
:102C900001242246711B104B1868FFF723F9FFF738
:102CA00053FCA8B94FF0E0234FF08052C3F8042D35
:102CB000BFF34F8FBFF36F8F0AE0FFF745FC294644
:102CC0003046FFF783FF03E01C46E2E7FFF73CFCDA
:102CD00002B070BD1C8800205889002030B587B034
:102CE0000023029303930493059302E0029B002BBD
:102CF0000FDA002202A9364B1868FFF76BF800289C
:102D000064D0029B002BF1DA05990498039B984745
:102D1000ECE7049C636913B1201DFEF708FF01A8CE
:102D2000FFF78CFF0546029B013B082BE1D8DFE84B
:102D300003F0050529303F050529300094F82430BB
:102D400043F0010384F82430039BA169024619442F
:102D50002046FFF703FF0028CBD094F8243013F06F
:102D6000040F07D123F0010384F82430236A20469E
:102D70009847BEE7A3692A46039919442046FFF7FE
:102D800011FFF3E794F8243023F0010384F8243092
:102D9000AFE794F8243043F0010384F8243003991A
:102DA000A1610346024601442046FFF7D7FEA0E793
:102DB00094F8243013F0020F04D023F0010384F8B8
:102DC000243096E7204600F037F992E707B030BD8F
:102DD0005889002000B583B001A8FFF7AFFE019924
:102DE000FFF742FFFFF77AFFF6E7000030B583B048
:102DF00000F0A0F90E4B1B681BB100F0ABF903B05B
:102E000030BD0C4D2846FEF769FE0B4C2046FEF700
:102E100065FE0A4B1D600A4B1C6000230093094BA2
:102E2000094A10210A20FEF7B6FF014B1860E4E7BB
:102E300058890020C0880020DC88002018880020E5
:102E40001C880020FC8800202088002010B588B055
:102E5000FFF7CCFF104B1B68D3B1002405940694F8
:102E600007AA06A905A8FFF75DFE059B0293069B2E
:102E70000193042300932346079A08490848FFF763
:102E80005BFA084B186008B1012002E0204600E020
:102E9000002008B010BD00BF588900201C4A00085F
:102EA000D52D00085C890020104A12F0070F1AD0B7
:102EB000D11D21F00701C1F5004313440A460C4817
:102EC0000260002141601344083B23F007030948D6
:102ED000036059601960991A51601360064B1960BC
:102EE000064B196070474FF40043E8E79800002054
:102EF000748900206089002068890020648900208E
:102F0000164B1A461B688342FBD3516802EB010C37
:102F1000844509D0416800EB010C634509D003608A
:102F2000904219D0106070474068014451601046CB
:102F3000F0E710B40A4C2468A3420BD05B68194434
:102F4000416013681B680360904200D010605DF818
:102F5000044B70470460F7E7704700BF7489002096
:102F60006089002070B5044670B110F1090F0AD8CD
:102F7000083414F0070307D0C3F10803DA43A24270
:102F800012D31C4400E00024FFF7FCF9254B1B681A
:102F900063B1002C3EDB002C3ED0234B1E68A642C2
:102FA0003CD322490B6806E00024EDE7FFF77CFFE5
:102FB000EFE7194613465A68A24202D21A68002A5D
:102FC000F7D1184A12689A422AD00D6808351A6853
:102FD0000A605868001B102805D91A1950605C60F7
:102FE000086818510A605968761A0F480660104838
:102FF0000068864201D20E48066041F000415960E7
:1030000000221A600B4A136801331360FFF79CFA21
:10301000284670BD0025F9E70025F7E70025F5E70C
:103020000025F3E76089002064890020748900206E
:10303000688900206C89002008B338B50446A0F1E7
:10304000080550F8043C002B02DA50F8082C02B1B5
:1030500038BD23F0004340F8043CFFF793F954F8DF
:10306000041C074A13680B4413602846FFF748FF07
:10307000044A136801331360FFF766FAE8E7704704
:10308000648900207089002082B0002301934FF0F2
:10309000BF0383F31188BFF36F8FBFF34F8F019B83
:1030A000002BFCD002B0704708480068006880F32D
:1030B00008884FF0000080F3148862B661B6BFF351
:1030C0004F8FBFF36F8F00DF00BF000008ED00E0FF
:1030D000DFF80C00016841F47001016070470000E6
:1030E00088ED00E04FF0807340F8043C21F00101CE
:1030F00040F8081C054B40F80C3C40F8202C6FF0C1
:10310000020340F8243C4438704700BF893000086F
:10311000074B19680868B0E8F04F80F30988BFF3DF
:103120006F8F4FF0000080F311887047AFF300807D
:103130002C8200204FF0BF0383F31188BFF36F8F01
:10314000BFF34F8F024A136801331360704700BF0B
:1031500010000020034A1368013B13600BB983F38E
:1031600011887047100000200000000000000000DF
:10317000EFF30980BFF36F8F154B1A681EF0100F25
:1031800008BF20ED108A20E9F04F10602DE90900FA
:103190004FF0BF0080F31188BFF34F8FBFF36F8FE5
:1031A000FFF7B0FA4FF0000080F3118809BC1968EE
:1031B0000868B0E8F04F1EF0100F08BFB0EC108A9E
:1031C00080F30988BFF36F8F704700BFAFF30080B3
:1031D0002C82002008B54FF0BF0383F31188BFF3A2
:1031E0006F8FBFF34F8FFFF7FFF828B14FF0E02349
:1031F0004FF08052C3F8042D002383F3118808BDDB
:1032000010B5414B1C68844200D3044672B6BFF32C
:103210004F8FBFF36F8FFFF7A5FB08B962B610BDE4
:103220004FF0E02306221A619B690BB9374B1B68EC
:10323000601E364A126802FB00334FF0E022D2F8DB
:10324000042D12F0806F08D04FF0E0224FF0007193
:10325000C2F8041D2D4A12689B1A2D4A12689A4220
:1032600000D29B1A4FF0E022536100219161116955
:1032700041F00101116124B1BFF34F8F30BFBFF3A3
:103280006F8F62B6BFF34F8FBFF36F8F72B6BFF30E
:103290004F8FBFF36F8F4FF0E0220621116112694B
:1032A00012F4803F1FD0194A11684FF0E022926952
:1032B000D31A0B44013B164A12689A4201D2994232
:1032C00000D24B1E4FF0E02253614FF0E02300226A
:1032D0009A6107221A610D4A1268013A5A61FFF792
:1032E00065F862B69BE74FF0E0218B69074A1268E8
:1032F00002FB04F4E01AB0FBF2F000FB02221C1BFC
:1033000014444C61E1E700BF8489002080890020DB
:103310007C890020094B0A4A1A600A4B68221A600D
:10332000094B5E221A604FF0E02300221A619A6175
:10333000064A5A6107221A61704700BF808900203F
:1033400000710200848900207C890020FF70020047
:1033500038B54FF0E024D4F8203D43F47F03C4F89F
:10336000203DD4F8203D43F07F43C4F8203D0025A4
:10337000C4F81C5DFFF7CEFF084B1D60FFF7A8FEE9
:10338000D4F8343F43F04043C4F8343FFFF78CFE99
:10339000FFF7B8F9FFF778FE284638BD1000002087
:1033A00010B503460C4A0D490D48006840B10C4861
:1033B00000680344521A934206D8094A136010BDAC
:1033C0000748084C0460F2E700F062F80C23036041
:1033D0004FF0FF30F3E700BFA09900200008000085
:1033E00088890020A089002070B50C46164600256B
:1033F00006E0AFF30080214601F8010B01350C46D1
:10340000B542F6DB304670BD70B50C461646002559
:1034100004E014F8010BFDF7F7F80135B542F8DBCD
:10342000304670BD4FF0FF3070474FF400534B6093
:10343000002070470120704700207047DFF834D02B
:10344000FEF798F90C480D490D4A002302E0D458C4
:10345000C4500433C4188C42F9D30A4A0A4C0023DE
:1034600001E013600432A242FBD300F017F8FDF72D
:103470005BF97047A0990020000000207800002030
:10348000CC4A0008780000209C890020FEE700005C
:10349000014B1868704700BF1400002070B50D4D37
:1034A0000D4C641BA4100026A64209D10B4D0C4CF8
:1034B00001F032F8641BA4100026A64205D170BDAD
:1034C00055F8043B98470136EEE755F8043B98471A
:1034D0000136F2E7C44A0008C44A0008C44A00089A
:1034E000C84A00080A44914200F1FF3300D17047F6
:1034F00010B511F8014B03F8014F9142F9D110BDFD
:1035000002440346934200D1704703F8011BF9E7D8
:103510000FB40A4B13B51C6824B1A36913B9204634
:1035200000F05EFA05AB049AA1680193204600F012
:1035300067FC02B0BDE8104004B0704714000020E2
:1035400070B50E46054618B183690BB900F048FA0C
:10355000AB69AC6813B9284600F042FA2C4B9C4288
:1035600020D16C68636EDB0705D4A389980502D46B
:10357000A06D00F0D3FAA38919071DD52369DBB12B
:10358000013EA36816F8011F013BA36039BB002B65
:1035900038DA22460A21284600F048F8013011D0D6
:1035A0000A2511E01B4B9C4201D1AC68DAE71A4BAB
:1035B0009C4208BFEC68D5E72146284600F088F811
:1035C0000028DDD04FF0FF35636EDA0705D4A389FC
:1035D0009B0502D4A06D00F0A2FA284670BD002B16
:1035E00004DAA2699A4206DC0A2904D023685A1C2C
:1035F00022601970C5E72246284600F017F801300E
:10360000BFD1DFE723680A255A1C22601D70DBE763
:10361000484A0008684A0008284A0008024B014648
:103620001868FFF78DBF00BF14000020F8B50E46E4
:103630001446054618B183690BB900F0D1F9214B46
:103640009C422BD16C68A369A360A3891A072FD56C
:1036500023696BB323692068C01A6369F6B2834299
:10366000374604DC2146284600F026F930BBA36823
:10367000013BA36023685A1C22601E7063690130FD
:10368000834204D0A389DB0706D50A2E04D1214644
:10369000284600F011F988B93846F8BD0A4B9C421B
:1036A00001D1AC68CFE7094B9C4208BFEC68CAE780
:1036B0002146284600F00CF80028CBD04FF0FF3709
:1036C000EAE700BF484A0008684A0008284A00089C
:1036D000324B70B51D6806460C4625B1AB6913B96F
:1036E000284600F07DF92E4B9C420FD16C68A389CF
:1036F000B4F90C2019072CD4DD0611D4092333604A
:1037000042F04003A3814FF0FF303EE0254B9C4246
:1037100001D1AC68EBE7244B9C4208BFEC68E6E7BC
:10372000580712D5616B41B104F14403994202D0AC
:10373000304600F05BFA00236363A38923F024037F
:10374000A3810023636023692360A38943F00803F6
:10375000A38123694BB9A38903F42073B3F5007FD8
:1037600003D02146304600F001FAA089B4F90C20BC
:1037700010F001030AD00023A36063695B42A361D8
:10378000236943B910F08000BAD170BD810758BFDA
:103790006369A360F4E70020F7E700BF140000208E
:1037A000484A0008684A0008284A00088A892DE922
:1037B000F041054610070C4658D44B68002B05DC39
:1037C0000B6C002B02DC0020BDE8F081E66A002EC5
:1037D000F9D0002312F480522F682B6032D0606D34
:1037E000A3895A0705D56368C01A636B0BB1236CB4
:1037F000C01A00230246E66A216A2846B047431CE5
:10380000A38906D129681D292CD82A4ACA40D6077F
:1038100028D500226260D9042269226004D5421CA6
:1038200001D12B6803B96065616B2F600029CAD094
:1038300004F14403994202D0284600F0D7F9002051
:103840006063C1E7216A01232846B047411CC7D104
:103850002B68002BC4D01D2B01D0162B01D12F605B
:10386000B1E7A38943F04003A381ADE70F69002FBF
:10387000A9D093070E6808BF4B690F6018BF0023DB
:10388000A6EB07088B60B8F1000F9CDD216AA66AE1
:1038900043463A462846B047002806DCA38943F051
:1038A0004003A3814FF0FF308EE70744A8EB0008E8
:1038B000E9E700BF0100402038B50B6905460C461A
:1038C00013B90025284638BD18B183690BB900F03B
:1038D00087F8144B9C421BD16C68B4F90C30002B58
:1038E000EFD0626ED00704D4990502D4A06D00F029
:1038F00015F928462146FFF759FF636EDA0705469A
:10390000E0D4A3899B05DDD4A06D00F008F9D9E7C8
:10391000054B9C4201D1AC68DFE7044B9C4208BFD9
:10392000EC68DAE7484A0008684A0008284A0008B4
:10393000002310B50446C0E90033C0E904338360B6
:1039400081814366C2818361194608225C30FFF79A
:10395000D7FD054B6362054BA362054BE362054B44
:103960002462236310BD00BFA9430008CB430008B5
:103970000344000827440008014900F0AFB800BF25
:10398000B938000870B568224D1E55430E4605F142
:10399000740100F097F9044640B10021C0E9001617
:1039A0000C30A06005F16802FFF7AAFD204670BD4B
:1039B000014800F0B3B800BF8D890020014800F035
:1039C000AEB800BF8D890020014800F0A7B800BF45
:1039D0008E890020014800F0A2B800BF8E89002027
:1039E00010B50446FFF7F0FFA3691BB1BDE8104016
:1039F000FFF7F0BFC4E912332365134B134A1B686A
:103A0000A262A34204BF0123A361204600F020F874
:103A10006060204600F01CF8A060204600F018F816
:103A20000022E06004216068FFF782FFA0680122A5
:103A30000921FFF77DFFE06802221221FFF778FFDE
:103A40000123A361D2E700BF244A000879390008A6
:103A5000F8B50746FFF7ACFF1E4B1E68B36913B9F4
:103A60003046FFF7BDFF4836D6E90134013B03D5A8
:103A700033680BB33668F7E7B4F90C50D5B9164B79
:103A8000E36004F15800656600F047F8FFF796FF21
:103A9000C4E90155C4E904552560A56108222946F9
:103AA00004F15C00FFF72CFDC4E90D55C4E9125583
:103AB0002046F8BD6834D9E704213846FFF762FF95
:103AC000044630600028D5D1FFF778FF0C233B6017
:103AD000EEE700BF244A00080100FFFF2DE9F8438C
:103AE0000646884600F148040027D4E90195B9F15B
:103AF000010905D52468002CF7D13846BDE8F883C4
:103B0000AB89012B07D9B5F90E30013303D0294613
:103B10003046C04707436835E9E77047704770474C
:103B200070B50E46B1F90E10002996B014461D4628
:103B300008DAB6F90C3000222A601A0610D44FF4C5
:103B400080630EE06A4600F095FC0028F1DB019AE4
:103B500002F47042A2F500535A425A412A60EEE73D
:103B600040230020236016B070BD00008B8973B520
:103B70009D0706460C4607D504F1470323602361E1
:103B80000123636102B070BD01AB6A46FFF7C8FF55
:103B900000990546304600F095F848B9B4F90C3064
:103BA0009A05EFD423F0030343F00203A381E3E774
:103BB0000D4BB362A389206043F08003A381009B77
:103BC0006361019B20615BB1B4F90E10304600F0D7
:103BD00063FC28B1A38923F0030343F00103A3810D
:103BE000A0890543A581CDE77939000837B50029BB
:103BF00044D051F8043C0190002BA1F10404B8BF5B
:103C0000E41800F06BFC1E4A0198136833B9636036
:103C1000146003B0BDE8304000F066BCA34208D990
:103C2000256861198B4201BF19685B6849192160D9
:103C3000EDE71A465B680BB1A342FAD91168551833
:103C4000A5420BD1246821445418A3421160E0D14D
:103C50001C685B68536021441160DAE702D90C23C9
:103C60000360D6E7256861198B4204BF19685B6859
:103C7000636004BF491921605460CAE703B030BDD6
:103C80009089002070B50E4E0C463168054611B97A
:103C900000F07AFB30602146284600F075FB431C9B
:103CA0000AD0C41C24F00304A04207D0211A2846DD
:103CB00000F06AFB013001D14FF0FF34204670BDA7
:103CC000948900202DE9F041CD1C25F0030508352D
:103CD0000C2D38BF0C25002D074601DBA94205D964
:103CE0000C233B6000263046BDE8F0812E4E00F0EC
:103CF000F5FB33681C4634BB29463846FFF7C2FF44
:103D0000431C04464DD134682646002E40D123681A
:103D10003146384604EB030800F036FB80453AD1C3
:103D2000216803356D1A25F0030508350C2D38BFC1
:103D30000C2529463846FFF7A5FF01302BD0236814
:103D40002B4423600EE02268521B1ED40B2A16D986
:103D50006119A342256018BF5960636808BF3160CC
:103D600062514B60384604F10B0600F0BDFB26F0B3
:103D70000706231DF21AB6D09B1BA350B3E7626857
:103D8000A3420CBF32605A60ECE723466468B2E796
:103D900034467668B9E70C233B60384600F0A4FB54
:103DA000A1E72560DEE700BF908900209368013B12
:103DB000002B10B4936008DA9469A34201DB0A294E
:103DC00003D15DF8044BFFF731BC1368581C106039
:103DD000197008465DF8044B7047F8B506460F4663
:103DE0001446D518AC4201D1002007E014F8011B9D
:103DF0003A463046FFF7DAFF431CF3D1F8BD000026
:103E00002DE9F04F0D469DB014469846064618B170
:103E100083690BB9FFF7E4FD894B9D421BD175689F
:103E20006B6ED90705D4AB899A0502D4A86DFFF74C
:103E300075FEAB891B0701D52B69EBB929463046C6
:103E4000FFF746FCC0B16B6EDC070ED54FF0FF30BC
:103E50001DB0BDE8F08F7B4B9D4201D1B568DFE717
:103E6000794B9D4208BFF568DAE7AB899805EDD438
:103E7000A86DFFF754FEE9E70023099320238DF88E
:103E80002930CDF80C803023DFF8C0818DF82A303E
:103E90004FF0010923469A4613F8012B0AB1252A4F
:103EA000F9D1BAEB040B0BD05B46224629463046CB
:103EB000FFF793FF013000F0AA80099A5A44099253
:103EC0009AF80030002B00F0A28000234FF0FF3260
:103ED000CDE905230AF1010A049307938DF85330C5
:103EE0001A935446052214F8011B5848FCF798F918
:103EF000049AD8B9D10644BF20238DF85330130754
:103F000044BF2B238DF853309AF800302A2B15D05C
:103F1000079A544600204FF00A0C214611F8013B45
:103F2000303B092B4ED9B0B1079214E0A0EB080347
:103F300009FA03F313430493A246D2E7039B191D26
:103F40001B680391002BBBBF5B4242F00202079348
:103F50000793B8BF049223782E2B0CD163782A2BB9
:103F600035D1039B1A1D1B680392002BB8BF4FF07D
:103F7000FF3302340593DFF8E4A021780322504692
:103F8000FCF74EF940B14023A0EB0A0003FA00F021
:103F9000049B03430134049314F8011B2C488DF84F
:103FA00028100622FCF73CF900283FD0294B1BBB08
:103FB000039B073323F0070308330393099B3B4418
:103FC000099367E70CFB02320C460120A5E70023AA
:103FD0000134059319464FF00A0C204610F8012BC6
:103FE000303A092A03D9002BC5D00591C3E70CFB51
:103FF000012104460123F0E703AB00932A46164B48
:1040000004A93046AFF300800746781CD6D16B6E0A
:10401000D90705D4AB899A0502D4A86DFFF77FFDB7
:10402000AB895B063FF512AF099811E703AB00932C
:104030002A46094B04A9304600F080F8E4E700BFA7
:10404000484A0008684A0008284A0008884A0008C8
:10405000924A000800000000DB3D00088E4A00087C
:104060002DE9F047164699468A680B69DDF82080ED
:104070009342B8BF1346336091F8432007460C467D
:104080000AB1013333602368990642BF33680233B3
:104090003360256815F0060506D104F1190AE368B6
:1040A00032689B1AAB4226DC94F84320131E226828
:1040B00018BF012392062BD404F143024946384627
:1040C000C04701301ED02368E568326803F006035C
:1040D000042B08BFAD1AA36822690CBF25EAE57559
:1040E00000259342C4BF9B1AED1800261A34B5422E
:1040F0001AD1002008E00123524649463846C047FD
:10410000013003D14FF0FF30BDE8F0870135C6E73D
:10411000E1185A1C302081F84300224494F84510DD
:1041200082F843100233C7E7012322464946384646
:10413000C0470130E6D00136D9E700002DE9FF473E
:104140000F7E0C9D782F914680460C469A4601F1D1
:10415000430207D8622F0AD8002F00F0D880582FCA
:1041600000F0A38004F1420584F842703AE0A7F120
:104170006303152BF6D801A151F823F0D5410008AF
:10418000E9410008654100086541000865410008F3
:1041900065410008E94100086541000865410008E3
:1041A0006541000865410008F54200081942000811
:1041B000D742000865410008654100081743000820
:1041C0006541000819420008654100086541000882
:1041D000DF4200082B681A1D1B682A6004F14205A3
:1041E00084F842300123A3E020682968060601F123
:1041F00004030AD50E682B60002E03DA2D237642C5
:1042000084F843305E480A2319E00E682B6010F0F2
:10421000400F18BF36B2EFE72B682068191D2960E0
:10422000010601D51E6802E04606FBD51E885448EB
:104230006F2F0CBF08230A23002184F84310656800
:10424000A560002DA2BF216821F0040121600EB9F4
:10425000002D4DD01546B6FBF3F103FB1167C75D8A
:1042600005F8017D3746BB420E46F4D9082B0BD129
:104270002368DE0708D5236961689942DEBF3023D1
:1042800005F8013C05F1FF35521B2261CDF800A075
:104290004B4603AA21464046FFF7E2FE01304CD1CF
:1042A0004FF0FF3004B0BDE8F087354881F8457025
:1042B0002968236851F8046B29601D0614D5DF07AF
:1042C00044BF43F0200323601EB9236823F020037A
:1042D00023601023B0E7236843F020032360782392
:1042E000284884F84530E3E7590648BFB6B2E6E708
:1042F0001546BBE72B6826686169181D28603506DE
:104300001B6801D5196002E07006FBD519800023F7
:1043100023611546BAE72B681A1D2A601D6862687A
:1043200000212846FBF77CFF08B1401B60606368F2
:104330002361002384F84330A8E723692A464946CD
:104340004046D0470130ABD023689B0713D4E068C8
:10435000039B9842B8BF1846A4E70123324649465A
:104360004046D04701309BD00135E36803995B1A82
:10437000AB42F2DCEBE7002504F11906F5E700BFDC
:10438000994A0008AA4A000838B5064D0023044699
:1043900008462B60FFF704F8431C02D12B6803B1D9
:1043A000236038BD9889002010B50C46B1F90E1075
:1043B00000F0A0F80028ABBF636DA3891B1823F49D
:1043C0008053ACBF6365A38110BD2DE9F0411F464A
:1043D0008B89DB0505460C46164605D5B1F90E104E
:1043E0000223002200F068F8A389B4F90E1023F428
:1043F0008053A38132463B462846BDE8F04100F099
:1044000017B810B50C46B1F90E1000F055F8431C62
:10441000A38915BF606523F4805343F48053A381BF
:1044200018BFA38110BDB1F90E1000F013B8000041
:1044300038B5074D04460846114600222A601A4640
:10444000FEF7E2FF431C02D12B6803B1236038BDA5
:104450009889002038B5064D0023044608462B6095
:10446000FEF7E0FF431C02D12B6803B1236038BD87
:104470009889002038B5074D0023044608461146A8
:104480002B60FEF7D2FF431C02D12B6803B12360DF
:1044900038BD00BF9889002038B5064D002304467A
:1044A00008462B60FEF7C6FF431C02D12B6803B100
:1044B000236038BD9889002038B5074D044608466A
:1044C000114600222A601A46FEF7B6FF431C02D1AD
:1044D0002B6803B1236038BD988900200148FFF79D
:1044E0001DBB00BF8C8900200148FFF718BB00BF2F
:1044F0008C89002038B5074D044608461146002235
:104500002A601A46FEF770FF431C02D12B6803B1E4
:10451000236038BD98890020F8B500BFF8BC08BCFE
:104520009E467047F8B500BFF8BC08BC9E46704771
:104530006D61696E5F7461736B0000006D61696E1F
:10454000207461736B2063726561746520666169B4
:104550006C6564282564292E0D0A0000616464726C
:104560003A3078253032582D76616C75653A30785E
:10457000253038580D0A000074686973206973206B
:1045800025732E0D0A00000068656C6C6F2074683E
:104590006973206973204672656552544F532E0D1E
:1045A0000000000068656C6C6F2071656D752E0DE4
:1045B0000000000074657374350000007465737446
:1045C0003400000074657374330000007465737404
:1045D00032000000746573743100000074657374F8
:1045E000300000006173736572745F6661696C65A9
:1045F000640000004572726F725F48616E646C65A2
:104600007200000055736167654661756C745F48A0
:10461000616E646C657200004275734661756C74FE
:104620005F48616E646C6572000000004D656D4D01
:10463000616E6167655F48616E646C657200000061
:104640004E4D495F48616E646C6572002E2E2F449A
:104650007269766572732F53544D333246347878CD
:104660005F48414C5F4472697665722F5372632FC5
:1046700073746D3332663478785F68616C5F75612E
:1046800072742E63000000002E2E2F44726976652E
:1046900072732F53544D3332463478785F48414C0F
:1046A0005F4472697665722F5372632F73746D3332
:1046B00032663478785F68616C5F6770696F2E630B
:1046C000000000002E2E2F447269766572732F53FE
:1046D000544D3332463478785F48414C5F447269B8
:1046E0007665722F5372632F73746D33326634782C
:1046F000785F68616C5F636F727465782E63000029
:104700000000000001020304204558455F52455453
:1047100055524E3A20307825303858200D0A000086
:10472000436F646520537461636B3A5B253038587E
:10473000202D20253038585D2C2073697A653A2564
:10474000640D0A00436F64652054657874203A5BF9
:1047500025303858202D20253038585D2C2073699D
:104760007A653A25640D0A00436F646520537461CD
:10477000636B2047726F77746820446F776E776140
:1047800072643A25640D0A002048617264466175BE
:104790006C7420496E666F726D6174696F6E20442F
:1047A000756D70200D00000020537461636B20460E
:1047B00072616D652020200D000000002052302025
:1047C00020203D20307825303858200D0A00000088
:1047D0002052312020203D20307825303858200DBF
:1047E0000A0000002052322020203D203078253061
:1047F0003858200D0A0000002052332020203D2090
:10480000307825303858200D0A000000205234201E
:1048100020203D20307825303858200D0A00000037
:104820002052352020203D20307825303858200D6A
:104830000A0000002052362020203D20307825300C
:104840003858200D0A0000002052372020203D203B
:10485000307825303858200D0A00000020523820CA
:1048600020203D20307825303858200D0A000000E7
:104870002052392020203D20307825303858200D16
:104880000A0000002052313020203D2030782530B1
:104890003858200D0A0000002052313120203D20E0
:1048A000307825303858200D0A000000205231326F
:1048B00020203D20307825303858200D0A00000097
:1048C000204C522020203D20307825303858200DB3
:1048D0000A0000002050432020203D203078253061
:1048E0003858200D0A0000002050535220203D204F
:1048F000307825303858200D0A00000020537461AC
:10490000636B2043616C6C3A2000000025303858FE
:1049100020000000200D0000204269743220526502
:104920007475726E20537461636B2053656C65639C
:10493000743A20005B55736520505350202020208E
:1049400020202020202020202020205D2E0D00006F
:104950005B557365204D53502020202020202020BF
:10496000202020202020205D2E0D00002042697490
:10497000332052657475726E204D6F6465205365E7
:104980006C6563743A2020005B557365205468722F
:10499000656164204D6F6465202020202020205D0B
:1049A0002E0D00005B5573652050726F6365737345
:1049B000204D6F64652020202020205D2E0D0000FA
:1049C000204269743420537461636B204672616DB8
:1049D0006520547970653A20202020005B5573656E
:1049E000203820576F726C64204672616D652020FC
:1049F0002020205D2E0D00005B557365203236208F
:104A0000576F726C64204672616D65202020205DB6
:104A10002E0D000049444C4500000000546D7220EA
:104A20005376630018000020000000000000000022
:104A30000000000000000000000000000000000076
:104A40000000000000000000000000000000000066
:104A50000000000000000000000000000000000056
:104A60000000000000000000000000000000000046
:104A70000000000000000000000000000000000036
:104A80000000000000000000232D302B2000686C87
:104A90004C00656667454647003031323334353661
:104AA000373839414243444546003031323334359A
:0C4AB000363738396162636465660000C7
:084ABC0034B8FF7F0100000087
:044AC400B501000830
:044AC8009101000850
:104ACC0001000000100000000024F40004000000AD
:104ADC00AAAAAAAA1800002000000000484A000850
:104AEC00684A0008284A0008000000000000000086
:104AFC0000000000000000000000000000000000AA
:104B0C000000000000000000000000000000000099
:104B1C000000000000000000000000000000000089
:104B2C000000000000000000000000000000000079
:084B3C00000000000000000071
:040000050800343D7E
:00000001FF
