:020000040800F2
:10000000F8090020752A00089D130008852A0008B9
:10001000A9130008B5130008C11300080000000070
:10002000000000000000000000000000CD130008E8
:10003000CF13000800000000D1130008D3130008FC
:100040006B2B00086F2B0008732B0008772B000820
:100050007B2B00087F2B0008832B0008872B0008D0
:100060008B2B00088F2B0008932B0008972B000880
:100070009B2B00089F2B0008A32B0008A72B000830
:10008000AB2B0008AF2B0008B32B0008B72B0008E0
:10009000BB2B0008BF2B0008C32B0008C72B000890
:1000A000CB2B0008CF2B0008D32B0008D72B000840
:1000B000D5130008DB2B0008DF2B0008E32B00081A
:1000C000E72B0008EB2B0008EF2B0008F32B0008B0
:1000D000F72B0008E3130008FB2B0008FF2B000898
:1000E000032C0008072C00080B2C00080F2C00081C
:1000F000132C0008172C00081B2C00081F2C0008CC
:10010000232C0008272C00082B2C00082F2C00087B
:10011000332C0008372C00083B2C00083F2C00082B
:10012000432C0008472C00084B2C00084F2C0008DB
:10013000532C00080000000000000000572C0008AD
:100140005B2C00085F2C0008632C0008672C00085B
:100150006B2C00086F2C0008732C0008772C00080B
:100160007B2C00087F2C0008832C0008872C0008BB
:100170008B2C00088F2C00080000000000000000FD
:10018000932C0008972C000870B506000C00150091
:100190004FF6FF732A0092B22100264800F007F9BB
:1001A000002801D1280001E05FF0FF3070BD80B56C
:1001B0002149224800F002FE00F049FE01BD80B551
:1001C0001F491E4800F0FAFDFFF7F1FF01BD80B5A1
:1001D0001C491A4800F0F2FDFFF7F1FF01BD80B5A0
:1001E0001949164800F0EAFDFFF7F1FF01BD80B59F
:1001F0001649124800F0E2FDFFF7F1FF01BD80B59E
:1002000013490E4800F0DAFDFFF7F1FF01BD80B59C
:1002100000F05EFE00F076FE00F09CFE00F0FCFEBA
:10022000FFF7EDFF0B4800F0C9FD4FF47A7001F0C5
:10023000A1F8F7E714010020EC3100088031000834
:10024000F4310008FC310008043200080C320008C8
:10025000143200089031000810B50400002C01D1C0
:100260000120A3E0A06900282FD02168DFF81C023C
:10027000814214D02168DFF8180281420FD0216832
:10028000DFF8100281420AD02168DFF80C028142B7
:1002900005D040F27311DFF8040201F0AEF8A06956
:1002A000002836D0A069B0F5807F32D0A069B0F5C3
:1002B000007F2ED0A069B0F5407F2AD04FF4BA71EC
:1002C000DFF8D80101F099F823E02168DFF8BC01DC
:1002D00081421ED02168DFF8B801814219D021681F
:1002E000DFF8B001814214D02168DFF8B401814207
:1002F0000FD02168DFF8AC0181420AD02168DFF815
:100300009801814205D04FF4BC71DFF8900101F0F3
:1003100074F8A068002809D0A068B0F5805F05D007
:100320004FF4BD71DFF8740101F067F8E06900284F
:1003300009D0E069B0F5004F05D040F27B11DFF83D
:100340005C0101F05AF894F84100002805D1002022
:1003500084F84000200000F017FE242084F84100BB
:100360002068C16831F400512068C160200000F0AD
:1003700071FB2068016931F49041206801612068B7
:10038000416931F02A01206841612068C16851F457
:1003900000512068C16000206064202084F8410082
:1003A000202084F8420000206063002010BD2DE969
:1003B000FC4781460D0016001F00002499F84100FB
:1003C00020285FD1002D03D0300080B2002801D159
:1003D000012058E00020C9F84400212089F841009C
:1003E00001F026F88046A9F82460A9F82660D9F81B
:1003F0000800B0F5805F06D1D9F81000002802D1BE
:100400000024AA4602E02C005FF0000AB9F826009A
:10041000002824D00097434600228021484600F05F
:10042000D3F9002804D0202089F8410003202AE0D5
:10043000002C09D1BAF80010C905C90DD9F800007F
:1004400041601AF1020A04E02178D9F80000416005
:10045000641CB9F82600401EA9F82600D6E70097CC
:10046000434600224021484600F0AEF9002804D05F
:10047000202089F84100032005E0202089F8410070
:10048000002000E00220BDE8F687000000100140D7
:10049000004400400048004000140140082D0008BE
:1004A000004C0040005000402DE9FC478246DAF83D
:1004B00000000668DAF80000C768DAF80000D0F833
:1004C00014800020002516F00F04002C07D1B00680
:1004D00005D5B80603D5504600F041FA72E1002C6C
:1004E00000F08A805FEAC87003D417F4907F00F0B0
:1004F00083803000C00707D5F80505D5DAF8440039
:1005000050F00100CAF84400700708D54046C00703
:1005100005D5DAF8440050F00200CAF84400B007EC
:1005200008D54046C00705D5DAF8440050F004006D
:10053000CAF8440030070AD5B80602D44046C007BE
:1005400005D5DAF8440050F00800CAF84400DAF89B
:10055000440000284FD0B00604D5B80602D5504656
:1005600000F0FDF9DAF800004069800910F00100A0
:100570000500DAF84400000701D4002D35D05046BC
:1005800000F069F9DAF800004069400629D5DAF888
:100590000000143050E8000F30F040000100DAF89D
:1005A000000010F1140242E800100028EFD1DAF840
:1005B0003C00002811D00FF20931DAF83C00016547
:1005C000DAF83C0000F088FF002814D0DAF83C008C
:1005D000DAF83C10096D88470DE0504600F090FFB6
:1005E00009E0504600F08CFF05E0504600F088FF1F
:1005F0000020CAF84400E5E0DAF83000012840F0B5
:10060000D180F00640F1CE80F80640F1CB8000208A
:100610000090DAF8000000680090DAF80000406806
:1006200000900098DAF80000406940066DD5DAF8CD
:100630003C000068D0F80490484680B2002863D09F
:100640004946BAF82C0089B281425DD2AAF82E90B0
:10065000DAF83C00C069B0F5807F49D0DAF80000D4
:100660000C3050E8000F30F480700100DAF8000020
:1006700010F10C0242E800100028EFD1DAF8000077
:10068000143050E8000F400840000100DAF8000084
:1006900010F1140242E800100028EFD1DAF800004F
:1006A000143050E8000F30F040000100DAF800008C
:1006B00010F1140242E800100028EFD120208AF83F
:1006C00042000020CAF83000DAF800000C3050E890
:1006D000000F30F010000100DAF8000010F10C02F9
:1006E00042E800100028EFD1DAF83C0000F0A6FE46
:1006F0000220CAF83400BAF82C10BAF82E00091AF1
:1007000089B2504600F0FDFE5CE0BAF82C90BAF8D1
:100710002E00B9EB0009BAF82E00002841D0484657
:1007200080B200283DD0DAF800000C3050E8000F0D
:1007300030F490700100DAF8000010F10C0242E889
:1007400000100028EFD1DAF80000143050E8000F54
:10075000400840000100DAF8000010F1140242E8FD
:1007600000100028EFD120208AF842000020CAF8AB
:100770003000DAF800000C3050E8000F30F01000C4
:100780000100DAF8000010F10C0242E80010002825
:10079000EFD10220CAF83400494689B2504600F031
:1007A000B0FE0FE0300605D5380603D5504600F000
:1007B00093F807E0700605D5780603D5504600F09B
:1007C000BEF8FFE7BDE8F3872DE9FC4180460D0048
:1007D00016001F00089CD8F8000000682840A842B6
:1007E00001D1012100E000213000C0B281422FD1AF
:1007F00014F1010FEFD000F01BFEC01B844201D3A7
:10080000002C01D1032024E0D8F80000C068400784
:10081000E1D5802DDFD0402DDDD0D8F80000006874
:100820000007D8D500200090D8F80000006800909C
:10083000D8F80000406800900098404600F00BF89F
:100840000820C8F84400002088F84000012000E09B
:100850000020BDE8F68101680C3151E8001F31F439
:1008600090710A00016811F10C0343E8002100298E
:10087000F1D10168143151E8001F490849000A000C
:10088000016811F1140343E800210029F1D1016B43
:1008900001290DD101680C3151E8001F31F0100120
:1008A0000A00016811F10C0343E800210029F1D18D
:1008B000202180F8421000210163704700000000F1
:1008C00038B50400A56B0020E8850020E8842800E6
:1008D00000F016FE31BD0000010091F84100212812
:1008E0002BD18868B0F5805F0DD1086900280AD146
:1008F000086A02001388DB05DB0D08684360086A9C
:10090000801C086205E00B6A581C08621B780868A6
:100910004360C88C401EC88480B200280BD1086890
:10092000C36833F080030868C3600868C36853F085
:1009300040030868C360002000E00220704710B543
:1009400004002068C16831F040012068C1602020A7
:1009500084F84100200000F0D5FD002010BD7CB5DA
:10096000040094F84200222872D1A068B0F5805F9C
:100970000DD1206900280AD10026A56A20684068A8
:10098000C005C00D2880A06A801CA06217E0A66A7E
:100990000025A068B0F5805F05D0A068002806D1CA
:1009A0002069002803D120684068307004E0206886
:1009B000406810F07F003070A06A401CA062E08D9B
:1009C000401EE08580B2002840D12068C16831F027
:1009D00020012068C1602068C16831F480712068FE
:1009E000C1602068406940084000216848612020BB
:1009F00084F8420000206063206B012821D1002090
:100A0000206320680C3050E8000F30F01000010027
:100A1000206810F10C0242E800100028F1D1206893
:100A20000068C00608D5002000902068006800908B
:100A30002068406800900098A18D200000F061FDC2
:100A400002E0200000F05FFD002002E0002000E056
:100A5000022076BD2DE9F84F84B005006868D549BD
:100A6000884204D340F67561D14800F0C6FCE868BE
:100A7000002808D0E868B0F5005F04D040F6766141
:100A8000CB4800F0BAFC286900280CD02869B0F5E2
:100A9000806F08D02869B0F5C06F04D040F6776148
:100AA000C34800F0AAFC69694FF6F370014202D115
:100AB0006869002804D140F67861BD4800F09DFCCB
:100AC0002868016931F44051E868014328680161F0
:100AD000A9682869014368690143E86901430391F2
:100AE0002868C168B4480140039801432868C16080
:100AF0002868416931F44071A8690143286841615F
:100B00002968A948814203D02968A848814203D1B5
:100B100000F008FD040002E000F0F9FC0400E869C0
:100B2000B0F5004F40F09F807FF0630A5FF002084D
:100B30005FF000091926002722000023A6FB02010E
:100B400006FB031107FB0211CDE9000168680021D3
:100B5000A8FB002308FB013309FB0033DDE900019A
:100B600000F00EFD6421B0FBF1F0009022000023A4
:100B7000A6FB020106FB031107FB0211CDE90101EF
:100B800068680021A8FB002308FB013309FB003340
:100B9000DDE9010100F0F4FC834622000023A6FBFE
:100BA000020106FB031107FB0211CDE90101686890
:100BB0000021A8FB002308FB013309FB0033DDE91A
:100BC000010100F0DDFC6421B0FBF1F00AFB00B094
:100BD000C00032306421B0FBF1F0400010F4F87036
:100BE000009910EB0110009022000023A6FB0201E7
:100BF00006FB031107FB0211CDE901016868002122
:100C0000A8FB002308FB013309FB0033DDE90101E8
:100C100000F0B6FC834622000023A6FB020106FB7F
:100C2000031107FB021106000F0068680021A8FBF2
:100C3000002308FB013309FB00333000390000F0CA
:100C40009FFC6421B0FBF1F00AFB00BA5FEACA0125
:100C500032316420B1FBF0F111F00701009809185E
:100C6000286881609CE05FF004085FF000097FF075
:100C7000630A1926002722000023A6FB020106FBB7
:100C8000031107FB0211CDE9000168680021A8FBF0
:100C9000002308FB013309FB0033DDE9000100F00C
:100CA0006FFC6421B0FBF1F0009022000023A6FB52
:100CB000020106FB031107FB0211CDE9010168687F
:100CC0000021A8FB002308FB013309FB0033DDE909
:100CD000010100F055FC834622000023A6FB02011F
:100CE00006FB031107FB0211CDE901016868002131
:100CF000A8FB002308FB013309FB0033DDE90101F8
:100D000000F03EFC6421B0FBF1F00AFB00B00101F1
:100D100032316420B1FBF0F010F0F000009910EBDC
:100D20000110009022000023A6FB020106FB031124
:100D300007FB0211CDE9010168680021A8FB00232F
:100D400008FB013309FB0033DDE9010100F018FC69
:100D5000834622000023A6FB020106FB031107FBCA
:100D6000021106000F0068680021A8FB002308FBA1
:100D7000013309FB00333000390000F001FC64212D
:100D8000B0FBF1F00AFB00BA5FEA0A1032306421CE
:100D9000B0FBF1F111F00F0100980918286881608B
:100DA00005B0BDE8F08F00000010014000140140C4
:100DB000082D0008A137A000F369FFFF0EB41EB58F
:100DC000024605A801900024009401AB01210448CB
:100DD00078440C3000F0F0FC03B010BC5DF810FB60
:100DE000BB1E000038B504002DA52800FFF7E6FF64
:100DF0002C48FFF7E3FF600703D52B48FFF7DEFF22
:100E000002E02A48FFF7DAFF2948FFF7D7FF20075B
:100E100003D52848FFF7D2FF02E02748FFF7CEFFAF
:100E20002648FFF7CBFFE00603D52548FFF7C6FFAE
:100E300002E02448FFF7C2FF2800FFF7BFFF31BDE3
:100E40000100480701D5002000E0012070472DE98E
:100E5000FC410024002000901B49086850F0080065
:100E60000860002528680090184E009A290030007C
:100E7000FFF7A4FF042738680090009A390030007B
:100E8000FFF79CFF5FF00308D8F800000090009A7D
:100E900041463000FFF792FFBDE8F38100000000FB
:100EA000200D0A00A02E0008002F00081C2F0008AB
:100EB000C02E0008382F0008542F0008E02E00082C
:100EC000702F00088C2F000814ED00E0A82F0008F8
:100ED00080B50B48016851F400710160016851F45C
:100EE00080610160016851F480710160032000F0AD
:100EF0004BFF0F2000F09CFF01F000F8002002BD26
:100F0000003C024081B0002000901148016851F07F
:100F100004010160016811F00401009100990021B1
:100F20000091016851F080010160016811F08001B9
:100F30000091009900210091016851F001010160C8
:100F4000006810F001000090009801B0704700BFE9
:100F50003038024080B52B482B4901605FF4E13105
:100F60004160002181600021C160002101610C21EC
:100F70004161002181610021C161FFF76DF9002805
:100F800001D000F033FA01BD10B586B00400142181
:100F9000002201A800F0D2FF21681B4881422ED117
:100FA000002000901949086850F010000860086897
:100FB00010F010000090009800200090144908687C
:100FC00050F001000860086810F0010000900098DF
:100FD0004FF4C06001900220029000200390032093
:100FE00004900720059001A90A4800F0DBFF0022C9
:100FF0000021252000F0DDFE252000F0FDFE06B0DA
:1010000010BD0000140100200010014044380240CF
:10101000303802400000024080B5B449B448016055
:10102000B44AB5480260531AB448FFF7C7FEB44942
:10103000B44A531AB448FFF7C1FE0121B348FFF781
:10104000BDFE01BD18B5040004210022684600F071
:1010500075FF00210020022807D214EB40021388FC
:101060006A4622F81030401CF5E7BDF80220BDF8B2
:10107000000050EA024012BD010011F478420B005A
:101080001B0C13F47843100080B2B0F5704F04D0FD
:10109000100080B2B0F5784F01D101200CE01800AB
:1010A00080B2B0F5704F04D0180080B2B0F5784F20
:1010B00001D1012000E00020704710B5040021009C
:1010C0009348FFF77BFE2000FFF78CFE10BD38B57C
:1010D000050001242800FFF7B3FEC0B232BD2DE9A0
:1010E000F84F82460C0000255FF0000B5146894EF8
:1010F00008683060091D08687060091D0868B060E4
:10110000091D0868F060091D08683061091D08683C
:101110007061091D0868B061091D0868F061091D4A
:1011200008683062091D08687062091D0868B062AD
:10113000091D0868F062091D08683063091D086808
:101140007063091D0868B063091D0868F0630F1D0E
:101150000FF294184046FFF731FE6F48FFF72EFE5E
:101160006E48FFF72BFE316A6D48FFF727FE716A64
:101170006C48FFF723FEB16A6B48FFF71FFEF16A68
:101180006A48FFF71BFE31686948FFF717FE716870
:101190006848FFF713FEB1686748FFF70FFEF16874
:1011A0006648FFF70BFE31696548FFF707FE716976
:1011B0006448FFF703FEB1696348FFF7FFFDF1697B
:1011C0006248FFF7FBFD316B6148FFF7F7FD716B7C
:1011D0006048FFF7F3FDB16B5F48FFF7EFFDF16B80
:1011E0005E48FFF7EBFD4046FFF7E8FD2000FFF704
:1011F00064FF5FF010092000FFF769FF00280BD0A3
:101200003C4B0AEB890240215548DFF858C1DCF815
:1012100000C0E047834609E0002352464021504881
:10122000DFF844C1DCF800C0E04783464F48FFF7D1
:10123000C5FD4F4DB16B2800FFF7C0FD00265E4590
:1012400007DA474850F826102800FFF7B7FD761C4C
:10125000F5E74046FFF7B2FDFEE72DE9F84F050040
:101260000E0017009B465FF000085FF000095FF07A
:10127000000A0021002D01D0002E02D17FF00100D4
:1012800030E0002F01D0BB4502D27FF0020029E000
:101290003C00002C25D0A34523D320688146184864
:1012A000814502D31748484500D218E05FEAC9706B
:1012B00015D5B9F10109B9F104095FEAC9700ED475
:1012C0004846FFF7BFFE82465046FFF7D5FE00288E
:1012D00005D045F8289018F10108B04501D2241D29
:1012E000D7E74046BDE8F28F0D0A0000F801002064
:1012F000E8010020F8090020EC010020F42D00088E
:1013000088010008082D0008182E0008602E00082B
:10131000C42F0008A4010020802E00081830000807
:101320002C300008403000085430000868300008B5
:101330007C30000890300008A4300008B830000865
:10134000CC300008E0300008F43000080831000814
:101350001C310008303100084431000858310008C1
:1013600014000020080000200C000020D0310008EC
:101370002432000870B5040000F05AF80500260079
:1013800016F1010F02D004480078361800F050F82A
:10139000401BB042FAD370BD1000002080B51B493D
:1013A0001B48FFF70BFDFEE780B51A491848FFF709
:1013B00005FDFEE780B518491548FFF7FFFCFEE77D
:1013C00080B516491248FFF7F9FCFEE770477047F1
:1013D0007047704780B500F0FFFF114801F098F9A1
:1013E00001BD80B50F48FFF75FF801BD80B50E491C
:1013F0000748FFF7E3FC72B6FEE738B505000C00BE
:101400000A490348FFF7DAFC72B6FEE7E03100084C
:10141000A0310008DC2F0008F02F0008043000087D
:101420005C01002014010020B0310008C031000828
:1014300001480068704700BFE401002070B5040057
:10144000A56DFFF7F5FF060094F83500022806D0D9
:1014500080206065002084F8340001203BE0206893
:10146000016831F01601206801602068416931F09F
:10147000800120684161206C002802D1A06C002806
:1014800005D02068016831F00801206801602068FB
:101490000168490849002068016020680068C007A9
:1014A0000ED5FFF7C5FF801B0628F6D32020606508
:1014B000032084F83500002084F8340003200AE07B
:1014C0003F21E06D8140A960012084F835000020B3
:1014D00084F83400002070BD010091F83500022826
:1014E00003D080204865012009E0052081F83500FF
:1014F00008680268520852000868026000207047BD
:1015000070477047704770471B480068704780B548
:10151000FFF7FAFF1949174A1268C2F38222895C61
:10152000C84002BD80B5FFF7EFFF1449114A1268A9
:10153000C2F34232895CC84002BD0F2202600D4AEC
:10154000136813F003034360136813F0F003836020
:10155000136813F4E053C3601268D20812F4E05227
:101560000261034A126812F007020A607047000025
:10157000003C024008380240040000201C320008F1
:10158000BBBBE1B1B2F5803F80F07E80022A1ED95C
:101590008C46B1FBF2F102FB11C31B0443EA10437A
:1015A000B3FBF2FC02FB1C3380B240EA0343B3FB03
:1015B000F2F002FB103240EA0C4000237047022A8E
:1015C00005D98446B0FBF2F002FB10C270474AB165
:1015D00005D100F0010249085FEA3000704700229F
:1015E0000023704701F0B2B90B0002000021002077
:1015F0007047904271EB030CF6D3B3F5803F2FD2C6
:10160000F0B5B3FA83F7B1FA81F4A7F10F0E3D1BE1
:101610005340CEF1200602FA0EF2F3415340B5F1E9
:101620000F0746D80F3C2C444140C4F12006A0408F
:10163000F1414140B1FBF3F603FB1611A2FB064555
:10164000001BA94102D2761E8018594180EA01028E
:1016500021FA0EF362FA0EF200215A403046F0BD34
:1016600030B4B1FBF3FC03FB1C11A2FB0C45001BC7
:10167000A94103D2ACF1010C8018594130BC02469B
:101680000B46604600217047B2F1807F65D3F0B50C
:10169000B2FA82F7B1FA81F4C7F10F063D1B22FAC4
:1016A00006F307F1110EF24120355A40B5F10F074C
:1016B000B8D94140C4F12006A040F1414140B1FBFE
:1016C000F3FC03FB1C11A2FB0C45001BA94103D238
:1016D000BCF1010C801859410F2F12D30F3FC903E1
:1016E00041EA5041B1FBF3F603FB1611A2FB06459C
:1016F000D4EBC030A94102D2761E8018594146EA87
:10170000CC3C07B34140C7F12006B840F14141400D
:10171000B1FBF3F603FB1611A2FB0645001BA94122
:1017200002D2761E8018594180EA010221FA0EF396
:10173000C7F1200462FA0EF20CFA07F05A402CFAB4
:1017400004F13043F0BD80EA010221FA0EF30021DA
:1017500062FA0EF260465A40F0BD8C46B1FBF2F1DF
:1017600002FB11C31B0243EA1063B3FBF2FC02FB52
:101770001C331B024CEA002043EA1063B3FBF2FC6B
:1017800002FB1C331B024CEA002043EA1063B3FB4C
:10179000F2FC02FB1C331B024CEA002043EA1063FC
:1017A000B3FBF2FC02FB1C324CEA00200023704722
:1017B00040F02000704700002DE9F84F94B00DF183
:1017C0002E051E9CDFF8A8B36C70129500240894B7
:1017D00002914FF0FF340CAD1394814617461E461C
:1017E0000AE017F8011B0298C8470028029000F091
:1017F000D0800898401C0890387840B12528F0D156
:1018000000200022002105900692079103E008982D
:10181000B0E141F0010117F8010F2028F9D0232889
:101820000CD02B2804D02D2805D0302809D00BE06F
:1018300041F00201EFE741F00401ECE741F008015B
:10184000E9E741F01001E6E72A280CD1326852F8A6
:10185000040B326000280A9003D540420A9041F000
:1018600004017F1C10E00A9209E00A9A5A4505DA41
:1018700002EB820300EB430030380A907F1C38787B
:10188000A0F130020A2AF0D338782E2802D013981B
:10189000099021E017F8010F2A2806D1326852F882
:1018A000040B326009907F1C16E02D280CBF7F1CB2
:1018B0000020002209920AE040B9099B5B4505DA45
:1018C00003EB830402EB4402303A09927F1C3A781E
:1018D000A2F130030A2BEFD3ADF82C100FF29830A1
:1018E000397801F035F808B117F8010B8DF82E00A2
:1018F0009DF82E00682804BF3978682903D162203A
:101900008DF82E007F1C0CA8049017F8012B252AB7
:1019100014D0582A64D0632A00F0BE80642A18BF0D
:10192000692A00F088806F2A5AD0702A4CD0732A16
:1019300009D0752A18BF782A52D0B6E00120059048
:101940008DF830200FE0306850F8044B306003947D
:101950002CBB12994878F8B10FF2243001F004F84A
:101960004042012815D10A990598081A0799411A89
:101970000698A1EB00089DF82C104A0700F1AC80F6
:101980002020B8F1000F8DF8000040F3A5804446F8
:1019900097E04FF0FF30EDE0C0A00390E3E7DDF803
:1019A0002480B8F1000F04D5204600F0FDFF044666
:1019B00008E042460021204601F012F8002814BF3A
:1019C000041B44460694CEE7316851F8040B31609D
:1019D0000CAA01900392782101A800F0CEF8C2E78A
:1019E0009DF82E00622802D0682806D00BE03168EE
:1019F00051F8040B3160C0B209E0316851F8040BB2
:101A0000316080B203E0316851F8040B316001901D
:101A10009DF82C00010739D50198002836D042F0F6
:101A20002001782932D1059830232B54401C411CC9
:101A300005912A542AE09DF82E00622802D06828D9
:101A400006D00BE0316851F8040B316040B209E078
:101A5000316851F8040B316000B203E0316851F88D
:101A6000040B31600028019002D505982D210AE071
:101A7000BDF82C10880702D505982B2103E0C80774
:101A800004D5059820212954401C05900CA90598DF
:101A90000844039011469FE701200590316851F8F2
:101AA000040B31608DF830005DE7012005902521A1
:101AB00010008DF830103FF456AF022105916A7086
:101AC00051E701236A4601A9484600F0BDF8002805
:101AD0007FF45FAF641EF4D1059C0DF1300A64B150
:101AE0001AF8011B0298C847002802903FF451AF32
:101AF0000898401C641E0890F2D1079C3020002CEE
:101B00008DF800000ADD01236A4601A9484600F06D
:101B10009BF800287FF43DAF641EF4D1DDF80CA0E3
:101B2000069C64B11AF8011B0298C847002802906D
:101B30003FF42FAF0898401C641E0890F2D19DF826
:101B40002C0041077FF558AE2020B8F1000F8DF82A
:101B500000007FF751AE444601236A4601A948467A
:101B600000F072F800287FF414AF641EF4D143E64D
:101B7000CBCCCC0C15B0BDE8F08FF8B504460D46C3
:101B8000E66828466F2808BF082205D0FFF710FE38
:101B9000782814BF0A221022216818230846642DD1
:101BA00018BF692D02D1002948BF404258B9216AA7
:101BB00049B9082A26D194F82800010722D53020F7
:101BC0001723F0751EE0B0FBF2F102FB11005B1E63
:101BD00030303A2803DAF054080003D106E0401907
:101BE0005138F8E7A768F1188F42ECD3082A09D1D9
:101BF00094F82800010705D5F05C302802D05B1E60
:101C00003020F054C3F11802206A6261F118824258
:101C1000A16007DA218D821A4FF6EF700140A261B0
:101C20002185F1BD00280ED594F8280000F014009D
:101C3000102808D1636A2069A1691B1A5B1A9B1AD4
:101C4000012BA8BFA361F1BDF8B505460E461746A6
:101C50001C4600205CB117F8011B7068A847706033
:101C600030B1F069401CF0610020641EF3D1F2BD78
:101C70004FF0FF30F2BD0000686C747A4C00000039
:101C80007072696E74665F733A20626164202573B6
:101C900020617267756D656E7400000000000EE0D3
:101CA00002684368024408305FEAC37C44BF4B4487
:101CB0005B1E52F804CB43F804CB091FF9D150F84E
:101CC000041B0029ECD1704710B410F00702DFF8B4
:101CD00048311C684FF6FF010C4054EA0224DFF83B
:101CE0003C110C431C6010BC7047DFF82C010068ED
:101CF000C0F3022070470000010049B200290AD455
:101D0000012210F01F018A40DFF81431010049B2AE
:101D1000490943F82120704710B4020052B2002A4A
:101D200006D40C01DFF8FC30020052B29C5409E0EA
:101D30000A01DFF8F44003005BB213F00F03234401
:101D400003F8042C10BC704770B4030013F00704B0
:101D5000D4F10700052801D3042001E0D4F10700E5
:101D6000251D072D01D2002600E0E61E012515FAEB
:101D700000F0401E0140B14015FA06F6761E3240D2
:101D80001143080070BC704710B50400072C0CD03C
:101D9000062C0AD0052C08D0042C06D0032C04D025
:101DA0009021DFF88800FFF728FB2000FFF78CFF69
:101DB00010BD2DE9F04180460C0015000026102DC5
:101DC00004D3A821DFF86400FFF717FB102C04D31D
:101DD000A921DFF85800FFF710FBFFF786FF070087
:101DE0002A0021003800FFF7AFFF0100404640B253
:101DF000FFF792FFBDE8F08110B50400200040B26B
:101E0000002804D5BC21DFF82400FFF7F6FA2000F3
:101E100040B2FFF771FF10BD0CED00E00000FA05C5
:101E200000E100E000E400E018ED00E0802D000893
:101E30002DE9F84787B00500002700260020009014
:101E40002A49086850F001000860086810F0010095
:101E50000090009801A902A8FFF76FFB059C002CD9
:101E600003D1FFF754FB070002E0FFF750FB4700E8
:101E70001F48B7FBF0F8B8F10108DFF878905FF081
:101E80008040C9F8000040F2E730C9F80C00C9F8FA
:101E900004800020C9F810000020C9F808000020C4
:101EA000C9F81800484600F0A3FA82465046C0B26E
:101EB000002816D1484600F077FB82465046C0B253
:101EC00000280ED11C20FFF797FF102D07D200220B
:101ED00029001C20FFF76DFF0748056001E0012085
:101EE00082465046C0B208B0BDE8F0874038024094
:101EF00040420F005C0100200000002081B0002063
:101F000000900C49086850F480400860086810F49C
:101F1000804000900098002000900749086850F029
:101F200080500860086810F080500090009801B060
:101F3000704700BF443802404038024062F30F222D
:101F400062F31F42401810F0030308D0C91A1FD3D0
:101F5000DB0748BF00F8012D28BF20F8022D130031
:101F600030B414461546103928BF20E93C00FAD891
:101F7000490728BF20E90C0048BF40F8042D89001C
:101F800028BF20F8022D48BF00F8012D30BC704753
:101F9000C91818BF00F8012DCB0728BF00F8012D84
:101FA000704700002DE9F84F83460C0000250026FD
:101FB0000027DFF8E483C34524D0DFF8E00383453E
:101FC00020D0DFF8DC0383451CD0DFF8D80383453D
:101FD00018D0DFF8D403834514D0DFF8D00383454D
:101FE00010D0DFF8CC0383450CD0DFF8C80383455D
:101FF00008D0DFF8C403834504D0AC21DFF8BC036C
:10200000FFF7FBF92068000404D02068000C0004EE
:10201000002804D0AD21DFF8A403FFF7EEF96068D3
:1020200000282BD06068012828D06068112825D0AE
:102030006068022822D0606812281FD06068B0F55E
:10204000881F1BD06068B0F5041F17D06068B0F51A
:10205000441F13D06068B0F5901F0FD06068B0F5D2
:10206000081F0BD06068B0F5481F07D060680328D0
:1020700004D0AE21DFF84403FFF7BFF95FF0000999
:10208000B9F1100F80F085815FF0010A1AFA09F0AA
:102090000500206828400600AE4240F07781207994
:1020A00010F00300012804D0207910F0030002286A
:1020B0002FD1E06800280DD0E06801280AD0E06840
:1020C000022807D0E068032804D0C021DFF8EC0222
:1020D000FFF793F9DBF8081003224846C0B240002E
:1020E00082409143E2684846C0B2400082401143BA
:1020F000CBF80810DBF804001AFA09FA30EA0A00F3
:102100006268C2F3001212FA09F210430700CBF81A
:102110000470207910F0030003281ED0A068002866
:102120000AD0A068012807D0A068022804D0D121D5
:10213000DFF88802FFF761F9DBF80C10032248464C
:10214000C0B2400082409143A2684846C0B24000FD
:10215000824011430F00CBF80C70207910F003007F
:10216000022840F084802069002867D0206909286F
:1021700064D02069002861D0206900285ED02069E1
:1021800000285BD02069002858D02069012855D04C
:102190002069012852D0206902284FD020690228E6
:1021A0004CD02069022849D02069032846D02069F4
:1021B000042843D02069042840D0206904283DD059
:1021C000206905283AD02069052837D020690928D8
:1021D00034D02069062831D0206909282ED0206902
:1021E00007282BD02069072828D02069072825D068
:1021F0002069082822D0206908281FD020690828D3
:102200001CD02069092819D02069092816D0206916
:102210000A2813D020690A2810D020690C280DD074
:1022200020690C280AD020690C2807D020690F28C3
:1022300004D0DE21DFF88401FFF7DFF84846C0084C
:102240000BEB8000016A0F2219F00700C0B280007A
:1022500082409143226919F00700C0B28000824099
:1022600011430F004846C0080BEB80000762DBF803
:10227000001003224846C0B24000824091432279B8
:1022800012F003024846C0B24000824011430F00E2
:10229000CBF80070606810F4403F77D000200090C9
:1022A000DFF81C11086850F480400860086810F4DA
:1022B000804000900098DFF80C114846800851F8E3
:1022C00020200F2319F00300C0B2800083409A43FE
:1022D000C34501D100232AE0DFF8C000834501D1C6
:1022E000012324E0DFF8B800834501D102231EE07A
:1022F000DFF8B000834501D1032318E0DFF8A80020
:10230000834501D1042312E0DFF8A000834501D109
:1023100005230CE0DFF89800834501D1062306E091
:10232000DFF89000834501D1072300E00823DBB2EA
:1023300019F00300C0B2800083401A434846800869
:1023400041F82020DFF880100868B0436368DB02A2
:1023500000D530430860DFF874100A68B243636840
:102360009B0200D532430A60DFF864000168B14384
:1023700063689B0300D531430160DFF858000768AC
:10238000B7436268D20300D53743076019F10109EA
:1023900076E6BDE8F18F0000000002400004024034
:1023A00000080240000C02400010024000140240ED
:1023B00000180240001C024000200240442D00088A
:1023C0004438024008380140083C01400C3C0140C0
:1023D000043C0140003C014003480168034A127874
:1023E00089180160704700BFE40100201000002040
:1023F00010B50400002C01D10120D4E02168DFF8E1
:10240000D802814245D02068B0F1804F41D0216888
:10241000DFF8C80281423CD02168DFF8C402814263
:1024200037D02168DFF8BC02814232D02168DFF862
:10243000B80281422DD02168DFF8B002814228D055
:102440002168DFF8AC02814223D02168DFF8A402C2
:1024500081421ED02068DFF8A012884219D021687E
:10246000DFF89802814214D02168DFF8940281429B
:102470000FD02168DFF88C0281420AD02168DFF892
:102480008802814205D040F21311DFF88002FEF786
:10249000B4FFA068002811D0A06810280ED0A06852
:1024A00020280BD0A068402808D0A068602805D05C
:1024B0004FF48A71DFF85402FEF79FFF206900286D
:1024C0000DD02069B0F5807F09D02069B0F5007F7C
:1024D00005D040F21511DFF83402FEF78EFF2068B8
:1024E000B0F1804F04D02168DFF8F801814201D1BA
:1024F000012000E00020C0B200280AD1E0680028D6
:1025000005D0E068B0F5803F01D2012007E000204F
:1025100005E0E068002801D0012000E0002000284C
:1025200005D14FF48B71DFF8E401FEF766FFA06977
:10253000002808D0A069802805D040F21711DFF8E4
:10254000CC01FEF75AFF94F83D00002805D1002089
:1025500084F83C00200000F06FFA022084F83D006F
:10256000211D206800F073F9012084F84600012045
:1025700084F83E00012084F83F00012084F84000E8
:10258000012084F84100012084F84200012084F8F1
:102590004300012084F84400012084F84500012014
:1025A00084F83D00002010BD70B50400DFF82861FC
:1025B0002068B04245D02068B0F1804F41D02168FA
:1025C000DFF8180181423CD02168DFF81401814214
:1025D00037D02068DFF80C11884232D02168DFF84C
:1025E000080181422DD02168DFF80001814228D006
:1025F0002168DFF8FC00814223D02168DFF8F40075
:1026000081421ED02168DFF8F000814219D0216894
:10261000DFF8E800814214D02168DFF8E40081424D
:102620000FD02168DFF8DC0081420AD02168DFF892
:10263000D800814205D04FF4E871DFF8D000FEF7F2
:10264000DCFE94F83D00012801D0012042E0022088
:1026500084F83D002068C16851F001012068C16024
:102660002068B04221D02068B0F1804F1DD0216891
:10267000DFF86800814218D02168DFF864008142E9
:1026800013D02068DFF85C1088420ED02168DFF894
:102690006000814209D02168DFF85800814204D0EF
:1026A0002168DFF85C0081420DD12068806810F05D
:1026B00007000500062D0CD02068016851F00101CB
:1026C0002068016005E02068016851F00101206880
:1026D0000160002070BD00000000014000040040C7
:1026E00000080040000C00400010004000140040B2
:1026F0000004014000400140004401400048014006
:1027000000180040001C004000200040BC2D0008C4
:1027100070B504002068C56820680669B00718D540
:10272000A80716D57FF002012068016101202077FB
:102730002068806910F0030F03D0200000F07DF9BD
:1027400005E0200000F07AF9200000F078F9002080
:102750002077700718D5680716D57FF00401206828
:102760000161022020772068806910F4407F03D047
:10277000200000F062F905E0200000F05FF9200081
:1027800000F05DF900202077300718D5280716D50E
:102790007FF0080120680161042020772068C0696B
:1027A00010F0030F03D0200000F047F905E02000EF
:1027B00000F044F9200000F042F900202077F006F4
:1027C00018D5E80616D57FF01001206801610820B1
:1027D00020772068C06910F4407F03D0200000F00B
:1027E0002CF905E0200000F029F9200000F027F97D
:1027F00000202077F00708D5E80706D57FF0010014
:1028000021680861200000F01BF9300608D5280671
:1028100006D57FF0800120680161200000F011F9E9
:10282000700608D5680606D57FF040012068016172
:10283000200000F007F9B00608D5A80606D57FF0FD
:10284000200120680161200000F0FDF870BD10B487
:102850000468DFF8D430984212D0B0F1804F0FD026
:10286000DFF8C82090420BD0DFF8C420904207D098
:10287000DFF8C020904203D0DFF8CC20904204D192
:1028800034F0700422004C681443984227D0B0F111
:10289000804F24D0DFF89420904220D0DFF89020A1
:1028A00090421CD0DFF88C20904218D0DFF898209E
:1028B000904214D01A4A904211D0DFF87C20904206
:1028C0000DD0DFF87820904209D0164A904206D009
:1028D000DFF86C20904202D01A4A904204D134F4BE
:1028E00040742200CC68144334F080044A691443D5
:1028F00004608A68C2620A688262984203D0DFF884
:102900004820904201D10A690263012242610269B2
:10291000D20703D5026952085200026110BC704709
:102920000040014000180040000001400004004049
:1029300000080040000C00400044014000480140F5
:10294000001C0040002000400004014070470000CF
:10295000C9B202788A421AB11CBF10F8012FF9E7F8
:1029600018BF00207047000080B500B906A00549D7
:102970000B681BB122220021984701E000F064F8A7
:10298000222002BDF0010020636F6E7374726169D2
:102990006E742068616E646C65723A2062616420B6
:1029A0006D6573736167650000F10103810704D0F1
:1029B00010F8011B820781B1FAD10268A2F101313E
:1029C000914311F0803104BF50F8042FF6E709BAA3
:1029D000B1FA81F100EBD100401CC01A7047000031
:1029E000C9B2830706D0521E22D310F8013B994288
:1029F000F7D11FE0083A13D302F1040241EA0121A2
:102A000041EA014150F8043B121F21BF4B40A3F1A2
:102A1000013C2CEA030C1CF0803FF3D0C9B2001F2C
:102A20000832521E24BF10F8013B91EA030FF8D878
:102A300018BF0120401E70477047704770477047AD
:102A40007047704770477047012000F001B80000E0
:102A500080B5AFF30080024A11001820ABBEFBE73F
:102A6000260002000249086850F4700008607047B0
:102A700088ED00E00148804701480047652A0008CA
:102A8000CD2A000872B60E4B19680E4B1A681EF05C
:102A9000040F0AD1EFF3088088420ADB904208DC79
:102AA0002DE9F00FEFF3088004E0EFF3098020E94F
:102AB000F00F00BF7146044ABFF34F8F62B6104754
:102AC000E8010020EC010020DF1000080548014665
:102AD00003B4684680F30988AFF3008000F004F87F
:102AE00000F014F8A5EDF5FE4EF68851CEF2000187
:102AF000086840F470000860BFF34F8FBFF36F8F1A
:102B00004FF00170E1EE100A7047000000F00DF880
:102B1000002801D000F00CF8AFF300800020AFF3E4
:102B20000080FDF774FB00F018F8012070470000EA
:102B300010B5034A7A440832024C7C44A41D03E0D9
:102B4000FC0200001C03000004E01168101D114489
:102B500088470246A242F8D110BD00F001B800003B
:102B600007463846FFF774FFFBE7FFF7FEBFFFF7A6
:102B7000FEBFFFF7FEBFFFF7FEBFFFF7FEBFFFF789
:102B8000FEBFFFF7FEBFFFF7FEBFFFF7FEBFFFF779
:102B9000FEBFFFF7FEBFFFF7FEBFFFF7FEBFFFF769
:102BA000FEBFFFF7FEBFFFF7FEBFFFF7FEBFFFF759
:102BB000FEBFFFF7FEBFFFF7FEBFFFF7FEBFFFF749
:102BC000FEBFFFF7FEBFFFF7FEBFFFF7FEBFFFF739
:102BD000FEBFFFF7FEBFFFF7FEBFFFF7FEBFFFF729
:102BE000FEBFFFF7FEBFFFF7FEBFFFF7FEBFFFF719
:102BF000FEBFFFF7FEBFFFF7FEBFFFF7FEBFFFF709
:102C0000FEBFFFF7FEBFFFF7FEBFFFF7FEBFFFF7F8
:102C1000FEBFFFF7FEBFFFF7FEBFFFF7FEBFFFF7E8
:102C2000FEBFFFF7FEBFFFF7FEBFFFF7FEBFFFF7D8
:102C3000FEBFFFF7FEBFFFF7FEBFFFF7FEBFFFF7C8
:102C4000FEBFFFF7FEBFFFF7FEBFFFF7FEBFFFF7B8
:102C5000FEBFFFF7FEBFFFF7FEBFFFF7FEBFFFF7A8
:102C6000FEBFFFF7FEBFFFF7FEBFFFF7FEBFFFF798
:102C7000FEBFFFF7FEBFFFF7FEBFFFF7FEBFFFF788
:102C8000FEBFFFF7FEBFFFF7FEBFFFF7FEBFFFF778
:102C9000FEBFFFF7FEBFFFF7FEBF38B505460C4687
:102CA000204600F005F8A04218BF0025284632BD96
:102CB00080B58DF80000012269460120FDF764FA15
:102CC000012802D19DF8000002BD4FF0FF3002BD87
:102CD00030B4002412E050F8043BDA0744BF4B4400
:102CE0005B1E091F042943F8044BFAD21A468D07CC
:102CF00044BF1C80921CCB0748BF147050F8041BC3
:102D00000029E8D130BC70472E2E5C44726976658C
:102D100072735C53544D3332463478785F48414C7B
:102D20005F4472697665725C5372635C73746D3371
:102D300032663478785F68616C5F756172742E6397
:102D4000000000002E2E5C447269766572735C533D
:102D5000544D3332463478785F48414C5F44726951
:102D60007665725C5372635C73746D33326634786B
:102D7000785F68616C5F6770696F2E6300000000A8
:102D80002E2E5C447269766572735C53544D3332F7
:102D9000463478785F48414C5F4472697665725C6E
:102DA0005372635C73746D3332663478785F686134
:102DB0006C5F636F727465782E6300002E2E5C4426
:102DC0007269766572735C53544D33324634787849
:102DD0005F48414C5F4472697665725C5372635C14
:102DE00073746D3332663478785F68616C5F7469D0
:102DF0006D2E6300436F646520537461636B3A5BAF
:102E000025303858202D20253038585D2C20736906
:102E10007A653A25640D0A00436F6465205465782D
:102E200074203A5B25303858202D20253038585DE5
:102E30002C2073697A653A25640D0A0095FEFFFF20
:102E4000E0010000140000200000000053EEFFFF2E
:102E50001400000018030000000000200000000023
:102E6000436F646520537461636B2047726F77749E
:102E70006820446F776E776172643A25640D0A00AA
:102E800020486172644661756C7420496E666F7289
:102E90006D6174696F6E2044756D70200D0A0000BD
:102EA00020426974322052657475726E20537461C9
:102EB000636B2053656C6563742E2E3A000000002E
:102EC00020426974332052657475726E204D6F64B0
:102ED000652053656C6563742E2E2E3A0000000049
:102EE000204269743420537461636B204672616DB3
:102EF0006520547970652E2E2E2E2E3A000000008B
:102F00005B557365205053502E2E2E2E2E2E2E2EB6
:102F10002E2E2E2E2E2E2E5D2E0D0A005B55736545
:102F2000204D53502E2E2E2E2E2E2E2E2E2E2E2E69
:102F30002E2E2E5D2E0D0A005B557365205468728F
:102F4000656164204D6F64652E2E2E2E2E2E2E5D13
:102F50002E0D0A005B5573652050726F63657373A5
:102F6000204D6F64652E2E2E2E2E2E5D2E0D0A0006
:102F70005B557365203820576F726C642046726110
:102F80006D652E2E2E2E2E5D2E0D0A005B5573655F
:102F900020323620576F726C64204672616D652E48
:102FA0002E2E2E5D2E0D0A00616464723A30782553
:102FB0003032582D76616C75653A30782530385846
:102FC0000D0A0000204558455F52455455524E3A6F
:102FD00020307825303858200D0A00004D656D4DA1
:102FE000616E6167655F48616E646C6572000000C8
:102FF0004275734661756C745F48616E646C65728E
:103000000000000055736167654661756C745F4828
:10301000616E646C6572000020537461636B2046BE
:1030200072616D652020200D0A00000020523020C2
:1030300020203D20307825303858200D0A0000002F
:103040002052312020203D20307825303858200D66
:103050000A0000002052322020203D203078253008
:103060003858200D0A0000002052332020203D2037
:10307000307825303858200D0A00000020523420C6
:1030800020203D20307825303858200D0A000000DF
:103090002052352020203D20307825303858200D12
:1030A0000A0000002052362020203D2030782530B4
:1030B0003858200D0A0000002052372020203D20E3
:1030C000307825303858200D0A0000002052382072
:1030D00020203D20307825303858200D0A0000008F
:1030E0002052392020203D20307825303858200DBE
:1030F0000A0000002052313020203D203078253059
:103100003858200D0A0000002052313120203D2087
:10311000307825303858200D0A0000002052313216
:1031200020203D20307825303858200D0A0000003E
:10313000204C522020203D20307825303858200D5A
:103140000A0000002050432020203D203078253008
:103150003858200D0A0000002050535220203D20F6
:10316000307825303858200D0A000000100000008B
:103170000024F4005B1200085B120008010000004C
:10318000746869732069732025732E0D0A0000008E
:1031900068656C6C6F2071656D752E0D0A000000FE
:1031A000746869732069732025732E0D0A0000006E
:1031B0004572726F725F48616E646C6572000000E8
:1031C0006173736572745F6661696C6564000000A9
:1031D00020537461636B2043616C6C3A20000000E3
:1031E0004E4D495F48616E646C657200746573741E
:1031F00030000000746573743100000074657374EE
:1032000032000000746573743300000074657374D9
:103210003400000074657374350000000000000085
:0C32200001020304253038582000000093
:0400000508002ACDF8
:00000001FF
