:020000040800F2
:1000000038120020F51A000819080008D10100086C
:100010002D080008410800085508000800000000ED
:100020000000000000000000000000006908000857
:100030006B080008000000006D0800086F08000849
:10004000451B0008451B0008451B0008451B000810
:10005000451B0008451B0008451B0008451B000800
:10006000451B0008451B0008451B0008451B0008F0
:10007000451B0008451B0008451B0008451B0008E0
:10008000451B0008451B0008451B0008451B0008D0
:10009000451B0008451B0008451B0008451B0008C0
:1000A000451B0008451B0008451B0008451B0008B0
:1000B000451B0008451B0008451B0008451B0008A0
:1000C000451B0008451B0008451B0008451B000890
:1000D000451B000879080008451B0008451B00085F
:1000E000451B0008451B0008451B0008451B000870
:1000F000451B0008451B0008451B0008451B000860
:10010000451B0008451B0008451B0008451B00084F
:10011000451B0008451B0008451B0008451B00083F
:10012000451B0008451B0008451B0008451B00082F
:10013000451B00080000000000000000451B0008EF
:10014000451B0008451B0008451B0008451B00080F
:10015000451B0008451B0008451B0008451B0008FF
:10016000451B0008451B0008451B0008451B0008EF
:10017000451B0008451B00080000000000000000AF
:08018000451B0008451B0008A7
:1001900010B5054C237833B9044B13B10448AFF3C1
:1001A00000800123237010BD7000002000000000BB
:1001B000B42B000808B5034B1BB103490348AFF348
:1001C000008008BD0000000074000020B42B00086F
:1001D00072B60E4B19680E4B1A681EF0040F05D14B
:1001E000EFF3088088420ADB904208DC2DE9F00F2B
:1001F0001EF0040F0CBFEFF30880EFF30980714687
:10020000044ABFF34F8F62B610470000DC010020A4
:10021000E0010020E91800080000000000000000D4
:1002200001F0FF01102A2BDB10F0070F08D010F8A7
:10023000013B013A8B422DD010F0070F42B3F6D1AB
:10024000F0B441EA012141EA014122F007047FF0C4
:1002500000070023F0E80256083C85EA010586EA1B
:10026000010685FA47F5A3FA87F586FA47F6A5FA57
:1002700087F68EB9EED1F0BC01F0FF0102F0070263
:1002800032B110F8013B013A83EA010313B1F8D10E
:100290000020704701387047002D06BF35460338EF
:1002A000073815F0010F07D1013015F4807F02BF28
:1002B000013015F4C03F0130F0BC0138704700BF79
:1002C00053B94AB9002908BF00281CBF4FF0FF31BD
:1002D0004FF0FF3000F074B9ADF1080C6DE904CEB9
:1002E00000F006F8DDF804E0DDE9022304B0704711
:1002F0002DE9F047089D04468E46002B4DD18A42D9
:10030000944669D9B2FA82F252B101FA02F3C2F10B
:10031000200120FA01F10CFA02FC41EA030E94409C
:100320004FEA1C48210CBEFBF8F61FFA8CF708FBBD
:1003300016E341EA034306FB07F199420AD91CEB95
:10034000030306F1FF3080F01F81994240F21C81C7
:10035000023E63445B1AA4B2B3FBF8F008FB10330F
:1003600044EA034400FB07F7A7420AD91CEB040444
:1003700000F1FF3380F00A81A74240F20781644414
:10038000023840EA0640E41B00261DB1D440002399
:10039000C5E900433146BDE8F0878B4209D9002DFD
:1003A00000F0EF800026C5E9000130463146BDE887
:1003B000F087B3FA83F6002E4AD18B4202D38242F1
:1003C00000F2F980841A61EB030301209E46002DA0
:1003D000E0D0C5E9004EDDE702B9FFDEB2FA82F2F5
:1003E000002A40F09280A1EB0C014FEA1C471FFA53
:1003F0008CFE0126200CB1FBF7F307FB131140EA3A
:1004000001410EFB03F0884208D91CEB010103F106
:10041000FF3802D2884200F2CB804346091AA4B2C8
:10042000B1FBF7F007FB101144EA01440EFB00FE9C
:10043000A64508D91CEB040400F1FF3102D2A64501
:1004400000F2BB800846A4EB0E0440EA03409CE7A0
:10045000C6F12007B34022FA07FC4CEA030C20FA4D
:1004600007F401FA06F31C43F9404FEA1C4900FA6D
:1004700006F3B1FBF9F8200C1FFA8CFE09FB1811EA
:1004800040EA014108FB0EF0884202FA06F20BD95D
:100490001CEB010108F1FF3A80F08880884240F2AD
:1004A0008580A8F102086144091AA4B2B1FBF9F0F1
:1004B00009FB101144EA014100FB0EFE8E4508D9EC
:1004C0001CEB010100F1FF346CD28E456AD9023871
:1004D000614440EA0840A0FB0294A1EB0E01A14256
:1004E000C846A64656D353D05DB1B3EB080261EBC4
:1004F0000E0101FA07F722FA06F3F1401F43C5E99E
:10050000007100263146BDE8F087C2F12003D840D3
:100510000CFA02FC21FA03F3914001434FEA1C4715
:100520001FFA8CFEB3FBF7F007FB10360B0C43EA07
:10053000064300FB0EF69E4204FA02F408D91CEBB7
:10054000030300F1FF382FD29E422DD902386344B5
:100550009B1B89B2B3FBF7F607FB163341EA034155
:1005600006FB0EF38B4208D91CEB010106F1FF38A4
:1005700016D28B4214D9023E6144C91A46EA00469B
:1005800038E72E46284605E70646E3E61846F8E62D
:100590004B45A9D2B9EB020864EB0C0E0138A3E776
:1005A0004646EAE7204694E74046D1E7D0467BE757
:1005B000023B614432E7304609E76444023842E7CF
:1005C000704700BF00B583B001904FF6FF73012262
:1005D00001A9034800F068FB019803B05DF804FB33
:1005E0008C00002030B583B0002401940E4A53697A
:1005F00043F00803536123680193019A0B4D214690
:10060000284601F0D3FA63680193019A0421284631
:1006100001F0CCFAD4F803300193019A0321284663
:1006200001F0C4FA03B030BD00ED00E0CC2B0008AF
:1006300008B50349034801F0B9FAFFF7D3FF08BD35
:10064000502C0008E82B000808B50349034801F0C6
:10065000ADFAFFF7EDFF08BD482C0008E82B0008B5
:1006600008B50349034801F0A1FAFFF7EDFF08BD03
:10067000402C0008E82B000808B50349034801F0A6
:1006800095FAFFF7EDFF08BD382C0008E82B0008AD
:1006900008B50349034801F089FAFFF7EDFF08BDEB
:1006A000302C0008E82B000808B50349034801F086
:1006B0007DFAFFF7EDFF08BD282C0008E82B0008A5
:1006C00008B500F0D5FF00F027F800F04BF801F076
:1006D000A5F8FFF7E9FF044801F0EEFA4FF47A704D
:1006E00000F0F2FFF7E700BFF82B000808B5034958
:1006F000034801F05BFA72B6FEE700BF182C000851
:10070000E82B000808B50249024801F04FFA08BD7D
:10071000082C0008E82B000884B000220192104B3E
:10072000196B41F004011963196B01F00401019187
:1007300001990292196B41F080011963196B01F064
:1007400080010291029903921A6B42F001021A632E
:100750001B6B03F001030393039B04B0704700BFBE
:100760000038024008B50A480A4B03604FF4E133F1
:10077000436000238360C36003610C224261836194
:10078000C36100F0FBF900B908BDFFF7AFFFFBE75D
:100790008C0000200010014010B588B000230393A6
:1007A0000493059306930793026803F1804303F5CE
:1007B00088339A4201D008B010BD0024019403F59B
:1007C00094335A6C42F010025A645A6C02F01002D0
:1007D0000192019A02941A6B42F001021A631B6B98
:1007E00003F001030293029B4FF4C06303930223BF
:1007F0000493032306930723079303A9054800F0F6
:10080000AFFC22462146252000F09AFE252000F06C
:10081000DDFED0E70000024008B50249024801F0C1
:10082000C5F9FEE7942C0008E82B000808B502493A
:10083000024801F0BBF9FEE7802C0008E82B000815
:1008400008B50249024801F0B1F9FEE76C2C000836
:10085000E82B000808B50249024801F0A7F9FEE7B5
:10086000582C0008E82B000870477047704708B5FF
:1008700000F018FF08BD000008B5024800F006FBB4
:1008800008BD00BF8C00002082B0002100910B4BFE
:100890005A6C42F480425A645A6C02F480420092CC
:1008A000009A01911A6C42F080521A641B6C03F09A
:1008B00080530193019B02B0704700BF0038024093
:1008C000026802F10C0353E8003F23F490730C32EA
:1008D00042E800310029F3D1026802F1140353E821
:1008E000003F23F00103143242E800310029F3D124
:1008F000036B012B05D0202380F8423000230363D3
:100900007047026802F10C0353E8003F23F0100324
:100910000C3242E800310029F3D1ECE790F8413085
:10092000DBB2212B01D0022070478368B3F5805FD2
:1009300017D0036A5A1C02621A7803685A60C38C83
:100940009BB2013B9BB2C3844BB90268D36823F0CE
:100950008003D3600268D36843F04003D360002073
:1009600070470369002BE4D1036A1B880268C3F354
:1009700008035360036A02330362E0E738B50446B4
:100980004268574B9A423FD8E36813B1B3F5005F12
:1009900040D123692BB1B3F5806F02D0B3F5C06F9E
:1009A0003ED163694FF6F372134200D123B940F68A
:1009B00078614C48FFF7A6FE2268136923F4405380
:1009C000E1680B431361A36822691343626913430F
:1009D000E2691A432168CB6823F4164323F00C0321
:1009E0001343CB602268536923F44073A1690B431E
:1009F000536123683C4A934218D002F580629342C7
:100A000014D000F08DFB13E040F675613548FFF718
:100A100079FEB9E740F676613248FFF773FEB8E732
:100A200040F677612F48FFF76DFEBAE700F088FBCC
:100A3000E369B3F5004F29D00021031849411B1881
:100A400041F10001C90041EA5371DB0018186368E5
:100A50004FEA83024FEA937341F10001FFF730FC44
:100A6000224DA5FB00325109642303FB11031B0136
:100A70003233A5FB03235B0903F0F00202EB011202
:100A800003F00F03216813448B6038BD0023021864
:100A900043EB0301121841F10001C90041EA527110
:100AA000D200101841F10001626892185B41FFF713
:100AB00007FC0E4DA5FB00325109642303FB110313
:100AC000DB003233A5FB03235B095A0002F4F87202
:100AD00002EB011203F00703216813448B60D4E793
:100AE000A037A000A02C0008001001401F85EB518A
:100AF0002DE9F04383B005460E4617469946DDF8CA
:100B000028802C68246836EA04030CBF4FF0010CDF
:100B10004FF0000CBC4528D1B8F1FF3FF1D000F0F8
:100B2000CDFDA0EB0900404523D8B8F1000F22D03D
:100B30002B68DA6812F0040FE3D0802EE1D0402E4B
:100B4000DFD01A6812F0080FDBD0002401941A6875
:100B500001925B680193019B2846FFF7B1FE0823D1
:100B60006B6485F84040012000E0002003B0BDE840
:100B7000F0830320FAE70320F8E70000002800F0E4
:100B80008C8010B504468369002B56D00368444A14
:100B9000934210D0A2F54C4293420CD002F58062F1
:100BA000934208D002F54C42934204D040F27311B4
:100BB0003C48FFF7A7FDA36943B1B3F5807F05D09B
:100BC000B3F5007F02D0B3F5407F30D1A36813B1F5
:100BD000B3F5805F4FD1E36913B1B3F5004F50D146
:100BE00094F84130002B52D0242384F841302268FD
:100BF000D36823F40053D3602046FFF7BFFE22687A
:100C0000136923F4904313612268536923F02A0384
:100C100053612268D36843F40053D36000206064BA
:100C2000202384F8413084F84230606310BD4FF4D3
:100C3000BA711C48FFF766FDC8E70368184A93427B
:100C4000C4D0A2F54C429342C0D002F580629342D8
:100C5000BCD002F580629342B8D002F58062934224
:100C6000B4D002F544429342B0D04FF4BC710D4869
:100C7000FFF748FDAAE74FF4BD710A48FFF742FDB0
:100C8000A9E740F27B110748FFF73CFDA8E784F88D
:100C900040302046FFF780FDA6E70120704700BFE7
:100CA00000100140A02C00082DE9F04182B01E4642
:100CB00090F84130DBB2202B56D104460D469046C9
:100CC000002955D00AB901204FE0002343642123B5
:100CD00080F8413000F0F2FC0746A4F82480A4F824
:100CE0002680A368B3F5805F02D04FF0000814E0BF
:100CF00023692BB34FF000080FE0202384F8413024
:100D0000032032E038F8023B2268C3F30803536043
:100D1000E28C92B2013A92B2E284E38C9BB293B13C
:100D200000963B46002280212046FFF7E1FE002886
:100D3000E3D1002DE6D015F8012B23685A60E7E7D0
:100D4000A8460025E9E700963B46002240212046C0
:100D5000FFF7CEFE18B9202384F8413005E02023A8
:100D600084F84130032000E0022002B0BDE8F081A9
:100D70000120FAE7704708B50168CA6822F040020E
:100D8000CA60202280F84120FFF7F4FF002008BD50
:100D90007047704708B5806B0023C385C384FFF795
:100DA000F8FF08BD704790F84230DBB2222B69D1C2
:100DB0008368B3F5805F4FD0826AB3F5805F04D05B
:100DC000002B56D10369002B53D103685B68137065
:100DD000836A01338362C38D9BB2013B9BB2C3859F
:100DE000002B51D100B583B00268D36823F02003F3
:100DF000D3600268D36823F48073D36002685369B8
:100E000023F001035361202380F842300023436321
:100E1000036B012B33D100230363026802F10C033F
:100E200053E8003F23F010030C3242E80031002960
:100E3000F3D103681A6812F0100F06D00022019255
:100E40001A6801925B680193019B818DFFF7AAFFED
:100E5000002003B05DF804FB0269002AACD1826A6D
:100E600003685B68C3F308031380836A02338362F9
:100E7000B1E703685B6803F07F031370A8E7FFF72F
:100E800087FFE5E7022070470020704730B583B048
:100E9000044602681368D068516913F00F0505D144
:100EA00013F0200F02D010F0200F19D12DB111F046
:100EB000010119D110F4907F16D1216B01297DD049
:100EC00013F0800F03D010F0800F40F0198113F061
:100ED000400F03D010F0400F40F0168103B030BD3A
:100EE0002046FFF760FFF9E713F0010F06D010F47A
:100EF000807F03D0626C42F00102626413F0040F41
:100F000004D019B1626C42F00202626413F0020F65
:100F100004D019B1626C42F00402626413F0080F4D
:100F200007D010F0200F00D119B1626C42F0080216
:100F30006264626C002AD1D013F0200F02D010F04E
:100F4000200F29D123685B6903F04003626C12F023
:100F5000080F00D163B32046FFF7B2FC23685B693A
:100F600013F0400F20D0226802F1140353E8003F31
:100F700023F04003143242E800310029F3D1E36B3F
:100F800073B1634A1A65E06B00F0A8FA0028A5D097
:100F9000E06B036D9847A1E72046FFF704FFD1E718
:100FA0002046FFF7F6FE99E72046FFF7F2FE95E7A9
:100FB0002046FFF7EEFE002363648FE713F0100F67
:100FC0003FF47EAF10F0100F3FF47AAF002301938F
:100FD0001368019353680193019B536913F0400F09
:100FE00052D0E26B13685B689BB2002B3FF476AF84
:100FF000A18D99427FF672AFE385D369B3F5807F07
:1010000037D0226802F10C0353E8003F23F48073C9
:101010000C3242E800310029F3D1226802F11403B6
:1010200053E8003F23F00103143242E80031002965
:10103000F3D1226802F1140353E8003F23F0400388
:10104000143242E800310029F3D1202384F84230E1
:1010500000232363226802F10C0353E8003F23F0CE
:1010600010030C3242E800310029F3D1E06B00F0AC
:10107000EBF902236363A18DE38D9BB2C91A89B298
:101080002046FFF78FFE29E7A18DE38D9BB2C91A99
:1010900089B2E38D9BB2002B3FF420AF00293FF4CF
:1010A0001DAF226802F10C0353E8003F23F4907354
:1010B0000C3242E800300028F3D1226802F1140318
:1010C00053E8003F23F00103143242E800300028C7
:1010D000F3D1202384F8423000232363226802F1F5
:1010E0000C0353E8003F23F010030C3242E80030B9
:1010F0000028F3D1022363632046FFF753FEEDE699
:101100002046FFF70BFCE9E62046FFF734FEE5E654
:10111000950D0008014B1868704700BF08000020BB
:1011200008B5FFF7F7FF044B9B68C3F38223034A1C
:10113000D35CD84008BD00BF00380240542D0008E1
:1011400008B5FFF7E7FF044B9B68C3F34233034A3C
:10115000D35CD84008BD00BF00380240542D0008C1
:101160002DE9F04182B007460E46544B984223D0F9
:1011700003F5806398421FD003F5806398421BD02B
:1011800003F58063984217D003F58063984213D02B
:1011900003F5806398420FD003F5806398420BD02B
:1011A00003F58063984207D003F58063984203D02B
:1011B000AC214348FFF7A6FA33689AB212B11B0C70
:1011C0001B041BB1AD213E48FFF79CFA7368012B4D
:1011D00019D9112B17D0022B15D0122B13D0B3F520
:1011E000881F10D0B3F5041F0DD0B3F5441F0AD0EB
:1011F000B3F5901F07D0B3F5081F04D0B3F5481F0F
:1012000001D0032B01D1002492E0AE212C48FFF73E
:1012100079FAF8E7F368032B13D8BA68610003235F
:101220008B4022EA0302F3688B401343BB607A6869
:1012300022EA05027368C3F30015A54015437D60DB
:1012400087E0C0211E48FFF75DFAE6E7D1211C4880
:10125000FFF758FA86E03369BBB1092B15D0012B93
:1012600013D0022B11D0032B0FD0042B0DD0052B44
:101270000BD0062B09D0072B07D0082B05D00A2B43
:1012800003D00C2B01D00F2B10D1E208083257F8F5
:10129000220004F0070399000F238B4020EA03008B
:1012A00033698B40034347F822306BE0DE2104486A
:1012B000FFF728FAE9E7072305E000BF0000024036
:1012C000DC2C000800238B40034302325A4941F8CA
:1012D00022305A4B9A686FEA080322EA08017068C4
:1012E00010F4801F01D048EA0201544A9160D2688C
:1012F00003EA0201706810F4001F01D048EA0201FD
:101300004E4AD160526803EA0201706810F4003F4F
:1013100001D048EA0201494A5160126813407168DD
:1013200011F4803F01D048EA0203444A13600134BB
:101330000F2C7ED80125A540336803EA050835EA5D
:101340000303F4D1736803F00303013B012B7FF621
:1013500061AF736803F00303032B0DD0B368022B56
:101360003FF674AFFA68610003238B4022EA030260
:10137000B3688B401343FB60736803F00303022BD5
:101380003FF469AF3A68610003238B4022EA03020D
:10139000736803F003038B4013433B60736813F4DB
:1013A000403FC4D000230193254B5A6C42F4804245
:1013B0005A645B6C03F480430193019BA208911C67
:1013C0001D4B53F8210004F0030399000F238B40B9
:1013D00020EA03001B4B9F423FF474AF03F5806388
:1013E0009F421AD003F580639F4218D003F58063B3
:1013F0009F4216D003F580639F4214D003F58063AB
:101400009F4212D003F580639F4210D003F58063A2
:101410009F423FF450AF082355E7012353E70223CF
:1014200051E703234FE704234DE705234BE706234A
:1014300049E702B0BDE8F08100380140003C0140BE
:10144000003802400000024070B50446866D00F08E
:1014500035F994F83530DBB2022B06D08023636572
:10146000002384F83430012070BD054622681368DB
:1014700023F0160313602268536923F0800353613D
:10148000236CE3B12268136823F008031360226819
:10149000136823F00103136023681B6813F0010F26
:1014A00011D000F00BF9431B052BF5D92023636500
:1014B000032084F83500002384F83430D4E7A36C8B
:1014C000002BDFD1E3E7E26D3F239340B3600123BC
:1014D00084F83530002084F83400C5E790F83530C2
:1014E000DBB2022B03D08023436501207047052324
:1014F00080F835300268136823F001031360002080
:101500007047000010B50446C31E042B0FD80A4ACA
:10151000D36823F4E0631B041B0C240204F4E0648E
:10152000234343F0BF6343F40033D36010BD9021E5
:101530000248FFF7E7F8EAE700ED00E0182D0008A1
:1015400070B505460C4616460F2A25D80F2C28D80C
:101550001B4BDB68C3F30223C3F10701042928BF37
:1015600004211A1D062A21D9033B4FF0FF3202FA4B
:1015700001F124EA01049C4002FA03F326EA03067F
:101580003443002D14DB2401E4B205F1604505F578
:10159000614585F8004370BDA8210A48FFF7B2F8FD
:1015A000D4E7A9210748FFF7ADF8D1E70023DCE72E
:1015B00005F00F052401E4B2034B5C55EBE700BFD7
:1015C00000ED00E0182D000814ED00E010B5041E39
:1015D0000ADB002C07DB04F01F026409012393409F
:1015E000044A42F8243010BDBC210348FFF78AF8B2
:1015F000EFE700BF00E100E0182D00080138B0F16E
:10160000807F0BD24FF0E0235861054AF02182F829
:1016100023100020986107221A617047012070474B
:1016200000ED00E010B504460E4B18784FF47A73C5
:10163000B3FBF0F30C4A1068B0FBF3F0FFF7DEFFEA
:1016400068B90F2C01D901200AE0002221464FF091
:10165000FF30FFF775FF054B1C60002000E0012004
:1016600010BD00BF00000020080000200400002082
:1016700008B50B4B1A6842F400721A601A6842F4FB
:1016800080621A601A6842F480721A600320FFF7C1
:1016900039FF0F20FFF7C6FFFFF7F6F8002008BD5F
:1016A000003C0240034A1168034B1B780B44136053
:1016B000704700BFD400002000000020014B1868D4
:1016C000704700BFD400002038B50446FFF7F6FF8E
:1016D0000546B4F1FF3F02D0044B1B781C44FFF7D2
:1016E000EDFF401BA042FAD338BD00BF0000002030
:1016F000034AD2F8883043F47003C2F88830704748
:1017000000ED00E010B503460C4A0D490D48006895
:1017100040B10C4800680344521A934206D8094A63
:10172000136010BD0748084C0460F2E700F00CFAA3
:101730000C2303604FF0FF30F3E700BF38120020A6
:1017400000080000D80000203802002070B50C46C8
:101750001646002506E0AFF30080214601F8010B94
:1017600001350C46B542F6DB304670BD70B50C460F
:101770001646002504E014F8010BFEF723FF01359F
:10178000B542F8DB304670BD4FF0FF3070474FF484
:1017900000534B60002070470120704700207047C5
:1017A00082B00023019307E030F8131002AA02EB85
:1017B000430222F8041C0133012BF5D9BDF80600C1
:1017C000BDF8043043EA004002B0704700F47843AB
:1017D000000C00F47840B3F5704F0AD0B3F5784FA1
:1017E00009D0B0F5704F08D0B0F5784F07D0002081
:1017F0007047012070470120704701207047012089
:101800007047000010B504460146034800F0CEF9C9
:10181000204600F02BF910BD5C2D000808B50A49E0
:101820000A4B19600A4A0B4B1A60531A0A4800F017
:10183000BDF90A490A4A531A0A4800F0B7F90121CA
:10184000094800F0B3F908BD380A0020DC01002087
:1018500038120020E0010020742D000890010008DB
:10186000CC2B0008982D0008BC2D00082DE9F8436A
:1018700048B30F4614461D46804639B34AB39A42D0
:101880002AD8002600E00434D4B1AC4218D822682B
:1018900013489042F7D8134B9342F4D312F0010F40
:1018A000F1D0A2F10509EED04846FFF779FFFFF726
:1018B0008DFF0028E7D048F826900136BE42E2D3DB
:1018C0003046BDE8F8836FF00106F9E76FF00106D6
:1018D000F6E76FF00206F3E76FF00206F0E700BFED
:1018E00090010008CC2B0008F8B505460E460368A9
:1018F000464C2360436863608368A360C368E36009
:1019000003692361436963618369A361C369E36117
:10191000036A2362436A6362836AA362C36AE362FF
:10192000036B2363436B6363836BA363C36BE363E7
:10193000374F384600F0C0F9364800F0BDF9364858
:1019400000F0BAF9216A354800F030F9616A34488C
:1019500000F02CF9A16A334800F028F9E16A324816
:1019600000F024F92168314800F020F9616830481E
:1019700000F01CF9A1682F4800F018F9E1682E4822
:1019800000F014F921692D4800F010F961692C4824
:1019900000F00CF9A1692B4800F008F9E1692A4828
:1019A00000F004F9216B294800F000F9616B284828
:1019B00000F0FCF8A16B274800F0F8F8E16B26482E
:1019C00000F0F4F8384600F077F93046FFF71AFFD8
:1019D000224B05F1400240212148FFF747FF054611
:1019E000204800F0E3F8A16B1F4800F0DFF8002466
:1019F00006E01B4B53F824101B4800F0D7F80134C5
:101A0000AC42F6DB024800F057F9FEE7E4010020A3
:101A1000F82D0008DC2D0008FC2D0008102E000811
:101A2000242E0008382E00084C2E0008602E0008D6
:101A3000742E0008882E00089C2E0008B02E000886
:101A4000C42E0008D82E0008EC2E0008002F000835
:101A5000142F0008282F00083C2F000838120020FF
:101A6000DC000020502F0008602F000810B504464D
:101A7000164800F021F9164800F098F814F0040F09
:101A800018D0144800F018F9134800F08FF814F03B
:101A9000080F13D0114800F00FF9114800F086F834
:101AA00014F0100F0ED00F4800F006F9074800F0B0
:101AB00003F910BD0C4800F0FFF8E5E70B4800F013
:101AC000FBF8EAE70A4800F0F7F8EFE7682F0008AC
:101AD0006C2F0008842F00089C2F0008B42F0008EA
:101AE000E02F0008F82F0008902F0008C82F0008EA
:101AF00010300008DFF834D0FFF7FAFD0C480D492C
:101B00000D4A002302E0D458C4500433C4188C4258
:101B1000F9D30A4A0A4C002301E013600432A242BE
:101B2000FBD300F017F8FEF7CBFD7047381200200A
:101B30000000002070000020D0300008700000205D
:101B400034020020FEE70000014B1868704700BF18
:101B50000C00002070B50D4D0D4C641BA410002628
:101B6000A64209D10B4D0C4C01F024F8641BA410C3
:101B70000026A64205D170BD55F8043B98470136B2
:101B8000EEE755F8043B98470136F2E7C830000805
:101B9000C8300008C8300008CC30000802440346B2
:101BA000934200D1704703F8011BF9E70FB40A4BC9
:101BB00013B51C6824B1A36913B9204600F05EFA7E
:101BC00005AB049AA1680193204600F067FC02B0BF
:101BD000BDE8104004B070470C00002070B50E4600
:101BE000054618B183690BB900F048FAAB69AC68D7
:101BF00013B9284600F042FA2C4B9C4220D16C6865
:101C0000636EDB0705D4A389980502D4A06D00F0AC
:101C1000D3FAA38919071DD52369DBB1013EA36857
:101C200016F8011F013BA36039BB002B38DA2246AE
:101C30000A21284600F048F8013011D00A2511E0A9
:101C40001B4B9C4201D1AC68DAE71A4B9C4208BF9F
:101C5000EC68D5E72146284600F088F80028DDD05A
:101C60004FF0FF35636EDA0705D4A3899B0502D4D4
:101C7000A06D00F0A2FA284670BD002B04DAA2691C
:101C80009A4206DC0A2904D023685A1C2260197083
:101C9000C5E72246284600F017F80130BFD1DFE73C
:101CA00023680A255A1C22601D70DBE74C300008AF
:101CB0006C3000082C300008024B01461868FFF712
:101CC0008DBF00BF0C000020F8B50E461446054637
:101CD00018B183690BB900F0D1F9214B9C422BD18B
:101CE0006C68A369A360A3891A072FD523696BB316
:101CF00023692068C01A6369F6B28342374604DC60
:101D00002146284600F026F930BBA368013BA360BA
:101D100023685A1C22601E7063690130834204D01C
:101D2000A389DB0706D50A2E04D12146284600F0F8
:101D300011F988B93846F8BD0A4B9C4201D1AC680C
:101D4000CFE7094B9C4208BFEC68CAE7214628460A
:101D500000F00CF80028CBD04FF0FF37EAE700BFC7
:101D60004C3000086C3000082C300008324B70B545
:101D70001D6806460C4625B1AB6913B9284600F02C
:101D80007DF92E4B9C420FD16C68A389B4F90C20CD
:101D900019072CD4DD0611D40923336042F0400327
:101DA000A3814FF0FF303EE0254B9C4201D1AC684F
:101DB000EBE7244B9C4208BFEC68E6E7580712D5D6
:101DC000616B41B104F14403994202D0304600F006
:101DD0005BFA00236363A38923F02403A381002318
:101DE000636023692360A38943F00803A381236907
:101DF0004BB9A38903F42073B3F5007F03D02146C8
:101E0000304600F001FAA089B4F90C2010F001036B
:101E10000AD00023A36063695B42A361236943B9CD
:101E200010F08000BAD170BD810758BF6369A3600C
:101E3000F4E70020F7E700BF0C0000204C3000085A
:101E40006C3000082C3000088A892DE9F0410546E5
:101E500010070C4658D44B68002B05DC0B6C002B8C
:101E600002DC0020BDE8F081E66A002EF9D00023F4
:101E700012F480522F682B6032D0606DA3895A070C
:101E800005D56368C01A636B0BB1236CC01A0023BD
:101E90000246E66A216A2846B047431CA38906D158
:101EA00029681D292CD82A4ACA40D60728D50022DD
:101EB0006260D9042269226004D5421C01D12B68DA
:101EC00003B96065616B2F600029CAD004F1440337
:101ED000994202D0284600F0D7F900206063C1E79C
:101EE000216A01232846B047411CC7D12B68002B2B
:101EF000C4D01D2B01D0162B01D12F60B1E7A389CF
:101F000043F04003A381ADE70F69002FA9D09307E9
:101F10000E6808BF4B690F6018BF0023A6EB0708C7
:101F20008B60B8F1000F9CDD216AA66A43463A46F1
:101F30002846B047002806DCA38943F04003A3816C
:101F40004FF0FF308EE70744A8EB0008E9E700BF39
:101F50000100402038B50B6905460C4613B9002531
:101F6000284638BD18B183690BB900F087F8144BC7
:101F70009C421BD16C68B4F90C30002BEFD0626E20
:101F8000D00704D4990502D4A06D00F015F92846B5
:101F90002146FFF759FF636EDA070546E0D4A389AF
:101FA0009B05DDD4A06D00F008F9D9E7054B9C42F4
:101FB00001D1AC68DFE7044B9C4208BFEC68DAE76C
:101FC0004C3000086C3000082C300008002310B59D
:101FD0000446C0E90033C0E904338360818143666D
:101FE000C2818361194608225C30FFF7D7FD054B9B
:101FF0006362054BA362054BE362054B24622363D6
:1020000010BD00BF452A0008672A00089F2A000863
:10201000C32A0008014900F0AFB800BF551F0008EF
:1020200070B568224D1E55430E4605F1740100F04F
:1020300097F9044640B10021C0E900160C30A060B9
:1020400005F16802FFF7AAFD204670BD014800F0C7
:10205000B3B800BF25020020014800F0AEB800BFB1
:1020600025020020014800F0A7B800BF260200208A
:10207000014800F0A2B800BF2602002010B50446B7
:10208000FFF7F0FFA3691BB1BDE81040FFF7F0BFF9
:10209000C4E912332365134B134A1B68A262A3429F
:1020A00004BF0123A361204600F020F860602046B1
:1020B00000F01CF8A060204600F018F80022E06054
:1020C00004216068FFF782FFA06801220921FFF761
:1020D0007DFFE06802221221FFF778FF0123A36150
:1020E000D2E700BF2830000815200008F8B50746E1
:1020F000FFF7ACFF1E4B1E68B36913B93046FFF7FC
:10210000BDFF4836D6E90134013B03D533680BB334
:102110003668F7E7B4F90C50D5B9164BE36004F113
:102120005800656600F047F8FFF796FFC4E90155CF
:10213000C4E904552560A5610822294604F15C0024
:10214000FFF72CFDC4E90D55C4E912552046F8BD32
:102150006834D9E704213846FFF762FF044630604F
:102160000028D5D1FFF778FF0C233B60EEE700BFD6
:10217000283000080100FFFF2DE9F8430646884695
:1021800000F148040027D4E90195B9F1010905D50A
:102190002468002CF7D13846BDE8F883AB89012BC1
:1021A00007D9B5F90E30013303D029463046C04770
:1021B00007436835E9E770477047704770B50E46CA
:1021C000B1F90E10002996B014461D4608DAB6F98A
:1021D0000C3000222A601A0610D44FF480630EE0FF
:1021E0006A4600F095FC0028F1DB019A02F4704287
:1021F000A2F500535A425A412A60EEE740230020DC
:10220000236016B070BD00008B8973B59D0706462C
:102210000C4607D504F14703236023610123636162
:1022200002B070BD01AB6A46FFF7C8FF00990546D2
:10223000304600F095F848B9B4F90C309A05EFD45F
:1022400023F0030343F00203A381E3E70D4BB362E2
:10225000A389206043F08003A381009B6361019BFD
:1022600020615BB1B4F90E10304600F063FC28B178
:10227000A38923F0030343F00103A381A08905434D
:10228000A581CDE71520000837B5002944D051F8C5
:10229000043C0190002BA1F10404B8BFE41800F045
:1022A0006BFC1E4A0198136833B96360146003B075
:1022B000BDE8304000F066BCA34208D9256861192A
:1022C0008B4201BF19685B6849192160EDE71A4626
:1022D0005B680BB1A342FAD911685518A5420BD11E
:1022E000246821445418A3421160E0D11C685B6843
:1022F000536021441160DAE702D90C230360D6E76A
:10230000256861198B4204BF19685B68636004BF6C
:10231000491921605460CAE703B030BD280200208B
:1023200070B50E4E0C463168054611B900F07AFBC7
:1023300030602146284600F075FB431C0AD0C41CBF
:1023400024F00304A04207D0211A284600F06AFBBB
:10235000013001D14FF0FF34204670BD2C02002027
:102360002DE9F041CD1C25F0030508350C2D38BFB3
:102370000C25002D074601DBA94205D90C233B6043
:1023800000263046BDE8F0812E4E00F0F5FB3368A4
:102390001C4634BB29463846FFF7C2FF431C04469F
:1023A0004DD134682646002E40D123683146384648
:1023B00004EB030800F036FB80453AD12168033571
:1023C0006D1A25F0030508350C2D38BF0C2529465C
:1023D0003846FFF7A5FF01302BD023682B4423603C
:1023E0000EE02268521B1ED40B2A16D96119A34293
:1023F000256018BF5960636808BF316062514B6047
:10240000384604F10B0600F0BDFB26F00706231D3D
:10241000F21AB6D09B1BA350B3E76268A3420CBF6D
:1024200032605A60ECE723466468B2E73446766867
:10243000B9E70C233B60384600F0A4FBA1E7256018
:10244000DEE700BF280200209368013B002B10B498
:10245000936008DA9469A34201DB0A2903D15DF88D
:10246000044BFFF731BC1368581C10601970084604
:102470005DF8044B7047F8B506460F461446D5186C
:10248000AC4201D1002007E014F8011B3A46304667
:10249000FFF7DAFF431CF3D1F8BD00002DE9F04F40
:1024A0000D469DB014469846064618B183690BB98F
:1024B000FFF7E4FD894B9D421BD175686B6ED90710
:1024C00005D4AB899A0502D4A86DFFF775FEAB89D8
:1024D0001B0701D52B69EBB929463046FFF746FCAF
:1024E000C0B16B6EDC070ED54FF0FF301DB0BDE8FC
:1024F000F08F7B4B9D4201D1B568DFE7794B9D4260
:1025000008BFF568DAE7AB899805EDD4A86DFFF749
:1025100054FEE9E70023099320238DF82930CDF8F4
:102520000C803023DFF8C0818DF82A304FF001098C
:1025300023469A4613F8012B0AB1252AF9D1BAEBA2
:10254000040B0BD05B46224629463046FFF793FF2B
:10255000013000F0AA80099A5A4409929AF8003092
:10256000002B00F0A28000234FF0FF32CDE90523BD
:102570000AF1010A049307938DF853301A935446D5
:10258000052214F8011B5848FDF74AFE049AD8B9F1
:10259000D10644BF20238DF85330130744BF2B23AB
:1025A0008DF853309AF800302A2B15D0079A5446EC
:1025B00000204FF00A0C214611F8013B303B092B5B
:1025C0004ED9B0B1079214E0A0EB080309FA03F367
:1025D00013430493A246D2E7039B191D1B68039182
:1025E000002BBBBF5B4242F0020207930793B8BFC8
:1025F000049223782E2B0CD163782A2B35D1039BA0
:102600001A1D1B680392002BB8BF4FF0FF33023432
:102610000593DFF8E4A0217803225046FDF700FE81
:1026200040B14023A0EB0A0003FA00F0049B0343EF
:102630000134049314F8011B2C488DF8281006224D
:10264000FDF7EEFD00283FD0294B1BBB039B073352
:1026500023F0070308330393099B3B44099367E77F
:102660000CFB02320C460120A5E700230134059340
:1026700019464FF00A0C204610F8012B303A092A6F
:1026800003D9002BC5D00591C3E70CFB01210446FB
:102690000123F0E703AB00932A46164B04A930460A
:1026A000AFF300800746781CD6D16B6ED90705D4EE
:1026B000AB899A0502D4A86DFFF77FFDAB895B0655
:1026C0003FF512AF099811E703AB00932A46094B77
:1026D00004A9304600F080F8E4E700BF4C30000861
:1026E0006C3000082C3000088C3000089630000850
:1026F0000000000077240008923000082DE9F04720
:10270000164699468A680B69DDF820809342B8BF67
:102710001346336091F8432007460C460AB1013353
:1027200033602368990642BF3368023333602568FB
:1027300015F0060506D104F1190AE36832689B1A00
:10274000AB4226DC94F84320131E226818BF0123F5
:1027500092062BD404F1430249463846C047013063
:102760001ED02368E568326803F00603042B08BF17
:10277000AD1AA36822690CBF25EAE57500259342CE
:10278000C4BF9B1AED1800261A34B5421AD1002096
:1027900008E00123524649463846C047013003D17C
:1027A0004FF0FF30BDE8F0870135C6E7E1185A1C4D
:1027B000302081F84300224494F8451082F84310F9
:1027C0000233C7E70123224649463846C047013055
:1027D000E6D00136D9E700002DE9FF470F7E0C9DBA
:1027E000782F914680460C469A4601F1430207D85D
:1027F000622F0AD8002F00F0D880582F00F0A38055
:1028000004F1420584F842703AE0A7F16303152B06
:10281000F6D801A151F823F0712800088528000896
:1028200001280008012800080128000801280008E4
:102830008528000801280008012800080128000850
:102840000128000891290008B5280008732900080C
:102850000128000801280008B32900080128000801
:10286000B528000801280008012800087B29000875
:102870002B681A1D1B682A6004F1420584F8423057
:102880000123A3E020682968060601F104030AD5A4
:102890000E682B60002E03DA2D23764284F8433035
:1028A0005E480A2319E00E682B6010F0400F18BF35
:1028B00036B2EFE72B682068191D2960010601D5A3
:1028C0001E6802E04606FBD51E8854486F2F0CBFD9
:1028D00008230A23002184F843106568A560002DB1
:1028E000A2BF216821F0040121600EB9002D4DD056
:1028F0001546B6FBF3F103FB1167C75D05F8017DD3
:102900003746BB420E46F4D9082B0BD12368DE07AD
:1029100008D5236961689942DEBF302305F8013C80
:1029200005F1FF35521B2261CDF800A04B4603AAEA
:1029300021464046FFF7E2FE01304CD14FF0FF3018
:1029400004B0BDE8F087354881F8457029682368F0
:1029500051F8046B29601D0614D5DF0744BF43F00E
:10296000200323601EB9236823F020032360102373
:10297000B0E7236843F0200323607823284884F8D5
:102980004530E3E7590648BFB6B2E6E71546BBE770
:102990002B6826686169181D286035061B6801D5FB
:1029A000196002E07006FBD51980002323611546EB
:1029B000BAE72B681A1D2A601D6862680021284644
:1029C000FDF72EFC08B1401B6060636823610023A3
:1029D00084F84330A8E723692A4649464046D04751
:1029E0000130ABD023689B0713D4E068039B984267
:1029F000B8BF1846A4E70123324649464046D047AF
:102A000001309BD00135E36803995B1AAB42F2DCDD
:102A1000EBE7002504F11906F5E700BF9D3000083B
:102A2000AE30000838B5064D0023044608462B603A
:102A3000FEF768FE431C02D12B6803B1236038BD4A
:102A40003002002010B50C46B1F90E1000F0A0F8CD
:102A50000028ABBF636DA3891B1823F48053ACBF60
:102A60006365A38110BD2DE9F0411F468B89DB050D
:102A700005460C46164605D5B1F90E100223002274
:102A800000F068F8A389B4F90E1023F48053A381F1
:102A900032463B462846BDE8F04100F017B810B575
:102AA0000C46B1F90E1000F055F8431CA38915BF70
:102AB000606523F4805343F48053A38118BFA3813E
:102AC00010BDB1F90E1000F013B8000038B5074D75
:102AD00004460846114600222A601A46FEF746FEC2
:102AE000431C02D12B6803B1236038BD30020020A3
:102AF00038B5064D0023044608462B60FEF744FE19
:102B0000431C02D12B6803B1236038BD3002002082
:102B100038B5074D00230446084611462B60FEF7E2
:102B200036FE431C02D12B6803B1236038BD00BFC1
:102B30003002002038B5064D0023044608462B60BD
:102B4000FEF72AFE431C02D12B6803B1236038BD77
:102B50003002002038B5074D0446084611460022D1
:102B60002A601A46FEF71AFE431C02D12B6803B1F5
:102B7000236038BD300200200148FFF71DBB00BFB5
:102B8000240200200148FFF718BB00BF24020020E8
:102B900038B5074D04460846114600222A601A46F9
:102BA000FEF7D4FD431C02D12B6803B1236038BD6E
:102BB00030020020F8B500BFF8BC08BC9E46704744
:0C2BC000F8B500BFF8BC08BC9E4670478A
:102BCC00616464723A3078253032582D76616C75B8
:102BDC00653A3078253038580D0A000074686973EE
:102BEC002069732025732E0D0A00000068656C6C3B
:102BFC006F2071656D752E0D00000000617373659B
:102C0C0072745F6661696C65640000004572726F76
:102C1C00725F48616E646C65720000007465737459
:102C2C0035000000746573743400000074657374AF
:102C3C0033000000746573743200000074657374A3
:102C4C0031000000746573743000000055736167C7
:102C5C00654661756C745F48616E646C65720000EA
:102C6C004275734661756C745F48616E646C657215
:102C7C00000000004D656D4D616E6167655F4861D8
:102C8C006E646C65720000004E4D495F48616E6465
:102C9C006C6572002E2E2F447269766572732F53F9
:102CAC00544D3332463478785F48414C5F447269F6
:102CBC007665722F5372632F73746D33326634786A
:102CCC00785F68616C5F756172742E630000000040
:102CDC002E2E2F447269766572732F53544D3332F6
:102CEC00463478785F48414C5F4472697665722F40
:102CFC005372632F73746D3332663478785F686106
:102D0C006C5F6770696F2E63000000002E2E2F44DD
:102D1C007269766572732F53544D3332463478781A
:102D2C005F48414C5F4472697665722F5372632F12
:102D3C0073746D3332663478785F68616C5F636F7F
:102D4C00727465782E630000000000000102030419
:102D5C00204558455F52455455524E3A20307825FF
:102D6C00303858200D0A0000436F6465205374619D
:102D7C00636B3A5B25303858202D20253038585D50
:102D8C002C2073697A653A25640D0A00436F6465DB
:102D9C002054657874203A5B25303858202D202536
:102DAC003038585D2C2073697A653A25640D0A0019
:102DBC00436F646520537461636B2047726F777443
:102DCC006820446F776E776172643A25640D0A004F
:102DDC0020486172644661756C7420496E666F722E
:102DEC006D6174696F6E2044756D70200D0000006C
:102DFC0020537461636B204672616D652020200D39
:102E0C00000000002052302020203D20307825305A
:102E1C003858200D0A0000002052312020203D207F
:102E2C00307825303858200D0A000000205232200E
:102E3C0020203D20307825303858200D0A00000025
:102E4C002052332020203D20307825303858200D5A
:102E5C000A0000002052342020203D2030782530FC
:102E6C003858200D0A0000002052352020203D202B
:102E7C00307825303858200D0A00000020523620BA
:102E8C0020203D20307825303858200D0A000000D5
:102E9C002052372020203D20307825303858200D06
:102EAC000A0000002052382020203D2030782530A8
:102EBC003858200D0A0000002052392020203D20D7
:102ECC00307825303858200D0A000000205231305F
:102EDC0020203D20307825303858200D0A00000085
:102EEC002052313120203D20307825303858200DAB
:102EFC000A0000002052313220203D20307825304D
:102F0C003858200D0A000000204C522020203D2073
:102F1C00307825303858200D0A000000205043200E
:102F2C0020203D20307825303858200D0A00000034
:102F3C002050535220203D20307825303858200D19
:102F4C000A00000020537461636B2043616C6C3A7F
:102F5C00200000002530385820000000200D000013
:102F6C0020426974322052657475726E20537461FC
:102F7C00636B3A20202020005B5573652050535022
:102F8C005D2E0D005B557365204D53505D2E0D006D
:102F9C0020426974332052657475726E204D6F64D3
:102FAC00653A2020202020005B5573652054687200
:102FBC00656164204D6F64655D2E0D005B55736516
:102FCC002050726F63657373204D6F64655D2E0DB9
:102FDC0000000000204269743420537461636B203C
:102FEC004672616D6520547970653A005B55736566
:102FFC00203820576F726C64204672616D655D2EAF
:10300C000D0000005B557365203236205769726CD9
:10301C0064204672616D655D2E0D0000100000206D
:10302C000000000000000000000000000000000094
:10303C000000000000000000000000000000000084
:10304C000000000000000000000000000000000074
:10305C000000000000000000000000000000000064
:10306C000000000000000000000000000000000054
:10307C000000000000000000000000000000000044
:10308C00232D302B2000686C4C0065666745464745
:10309C0000303132333435363738394142434445C8
:1030AC004600303132333435363738396162636437
:0430BC006566000045
:0830C00030D2FF7F0100000087
:0430C800B501000846
:0430CC009101000866
:1030D00001000000100000000024F4001000002097
:1030E000000000004C3000086C3000082C30000854
:1030F00000000000000000000000000000000000D0
:1031000000000000000000000000000000000000BF
:1031100000000000000000000000000000000000AF
:10312000000000000000000000000000000000009F
:10313000000000000000000000000000000000008F
:0400000508001AF5E0
:00000001FF
