:020000040800F2
:10000000E01F0020B5EA000835EB00081DEB0008F2
:1000100000000000000000000000000000000000E0
:100020000000000000000000000000001FEB0008BE
:1000300037EB00080000000099EB000829EB0008EE
:1000400021EB000821EB000821EB000821EB000860
:10005000DFF810D00EF0CAFE00480047DF000008AD
:10006000AFF30080E01B002013B50C464FF6FF7382
:10007000012269464D480AF091FA00981CBD10B55E
:100080004B494CA00EF0C4FE10BD10B54D4949A01F
:100090000EF0BEFEFFF7F3FF10BD10B54A4945A0B4
:1000A0000EF0B6FEFFF7F1FF10BD10B5474941A0B5
:1000B0000EF0AEFEFFF7F1FF10BD10B544493DA0B4
:1000C0000EF0A6FEFFF7F1FF10BD10B5414939A0B3
:1000D0000EF09EFEFFF7F1FF10BD704770470EF067
:1000E00022F800F0D7F800F007F906E03AA00EF089
:1000F0008FFE4FF47A700EF082F8F7E700B593B0F8
:10010000302107A80EF048FE142102A80EF044FE8C
:1001100000BF002001903448006840F08050324910
:1001200008600846006800F08050019000BF00BFE2
:1001300000BF002001902D48006840F480402B490A
:1001400008600846006800F48040019000BF00BFCE
:100150000220079001200A9010200B9002200D90A1
:1001600000210E9108210F91A821109102211191D7
:100170000421129107A80BF00BFD08B100F062F802
:100180000F20029002200390002004904FF4A05012
:1001900005904FF480500690052102A80CF050F80D
:1001A00008B100F04FF813B000BD00005801002066
:1001B00024EF0008746869732069732025732E0D7D
:1001C0000A0000002AEF000830EF000836EF0008B0
:1001D0003CEF000842EF000868656C6C6F207165A9
:1001E0006D752E0D0A00000040380240007000407E
:1001F0001B491CA00EF00CFE00BFFEE71D4919A014
:100200000EF006FE00BFFEE71B4916A00EF000FE32
:1002100000BFFEE7194913A00EF0FAFD00BFFEE78C
:10022000174910A00EF0F4FD00BFFEE770477047BD
:1002300010B5144804F097FF10BD10B512480BF02C
:10024000FAF910BD114907A00EF0E2FD72B600BF29
:10025000FEE70F4903A00EF0DBFD72B600BFFEE71C
:1002600048EF0008746869732069732025732E0DA8
:100270000A00000054EF00086EEF000880EF00084D
:1002800091EF0008A001002058010020A4EF000811
:10029000B2EF000808B500BF0020009015480068C4
:1002A00040F00400134908600846006800F00400AC
:1002B000009000BF00BF00BF00200090084600680B
:1002C00040F0800008600846006800F08000009060
:1002D00000BF00BF00BF002000900846006840F04B
:1002E000010008600846006800F00100009000BFAF
:1002F00000BF08BD3038024010B5384838490860A2
:100300004FF4E1304860002135488160C1600161EF
:100310000C21416100218161C16109F01AFE08B11F
:10032000FFF790FF10BD10B586B00446142101A858
:100330000EF032FD29492068884238D100BF0020E4
:1003400000902848006840F01000264908600846E0
:10035000006800F01000009000BF00BF00BF002048
:10036000009020481438006840F001001D491439FD
:1003700008600846006800F00100009000BF00BF60
:100380004FF4C060019002200290002003900320EF
:1003900004900720059001A913480CF011FA0022DF
:1003A000114625200DF095FB25200DF0DEFB06B053
:1003B00010BD10B504460949206888420DD109488E
:1003C000006820F01000074908604FF4C06106483B
:1003D0000CF0C3FB25200DF0E4FB10BD0010014024
:1003E00058010020443802400000024008B500BF18
:1003F000002000900E48006840F480400C490860DE
:100400000846006800F48040009000BF00BF00BFB5
:1004100000200090081F006840F08050091F08600D
:100420000846006800F08050009000BF00BF08BD83
:1004300044380240F0B587B004460026002700BFCC
:10044000002000902748006840F00100254908601E
:100450000846006800F00100009000BF00BF01A93D
:1004600002A80CF06EF90CF0E5F846001E48B6FB49
:10047000F0F0471E1D481E49086040F2E7311C4855
:10048000C1604760002101618160816100F092F8E4
:10049000054695B9164800F0D8FA05466DB91920F9
:1004A0000DF063FB102C07D20022214619200DF01D
:1004B00010FB1048046000E00125284607B0F0BD9D
:1004C0000B480068C06820F0010009490968C8604D
:1004D000704707480068C06840F001000449096897
:1004E000C86070474438024040420F00000001409D
:1004F000A00100200400002010B50268FE4B9842C5
:100500000ED0B0F1804F0BD0FC4B984208D0FC4B82
:10051000984205D0FB4B984202D0FB4B984203D146
:1005200022F070024B681A43F34B984220D0B0F18E
:10053000804F1DD0F14B98421AD0F14B984217D002
:10054000F04B984214D0F04B984211D0EF4B9842A8
:100550000ED0EF4B98420BD0EE4B984208D0EE4BAA
:10056000984205D0ED4B984202D0ED4B984203D112
:1005700022F44072CB681A4322F080034C6943EAAC
:10058000040202608B68C3620B688362DA4B984294
:1005900002D0DD4B984201D10B6903630123436113
:1005A000036903F001031BB1036923F00103036135
:1005B00010BD704710B504460CB9012010BDCE49DE
:1005C0002068884233D02068B0F1804F2FD0CB49CB
:1005D000206888422BD0CA492068884227D0C94960
:1005E0002068884223D0CF49206888421FD0CE4956
:1005F000206888421BD0C4492068884217D0C3496C
:100600002068884213D0C249206888420FD0C1496F
:10061000206888420BD0C0492068884207D0BF4973
:100620002068884203D0BE492068884200D104E097
:1006300040F21311BDA0FFF70CFEA06858B1A068EE
:10064000102808D0A068202805D0A068402802D033
:10065000A068602800D104E04FF48A71B3A0FFF7CE
:10066000F8FD206938B12069B0F5807F03D020699A
:10067000B0F5007F00D104E040F21511ABA0FFF708
:10068000E8FD2068B0F1804F03D09E492068884281
:1006900001D1012000E0002048B9E06828B1E068FD
:1006A000B0F5803F01D2012006E0002004E0E068C0
:1006B00008B1012000E0002000B104E04FF48B718C
:1006C0009AA0FFF7C6FDA06910B1A069802800D1EB
:1006D00004E040F2171195A0FFF7BBFD94F83D0030
:1006E00028B9002084F83C002046AFF300800220A7
:1006F00084F83D00211D2068FFF7FEFE012084F8EC
:10070000460000BF84F83E0001213F2001554020F3
:1007100001554120015500BF00BF012084F842006F
:1007200043200155442001554520015500BF0120BB
:1007300084F83D00002041E7704710B504466E493B
:100740002068884233D02068B0F1804F2FD06B49A9
:10075000206888422BD06A492068884227D069499E
:100760002068884223D06F49206888421FD06E4994
:10077000206888421BD064492068884217D06349AA
:100780002068884213D06249206888420FD06149AE
:10079000206888420BD060492068884207D05F49B2
:1007A0002068884203D05E492068884200D104E076
:1007B00040F249115DA0FFF74CFD022084F83D0096
:1007C00000BF2068006A41F21111084050B920684A
:1007D000006A8910084028B92068006820F00100EC
:1007E0002168086000BF2046AFF30080002084F835
:1007F000460000BF84F83E0000213F200155402004
:1008000001554120015500BF00BF002084F842007F
:1008100043200155442001554520015500BF0020CB
:1008200084F83D0000BF84F83C0000BF10BD70B5E7
:10083000044631492068884233D02068B0F1804FA7
:100840002FD02E49206888422BD02D49206888421D
:1008500027D02C492068884223D03249206888421A
:100860001FD03149206888421BD027492068884220
:1008700017D026492068884213D02549206888422D
:100880000FD02449206888420BD023492068884231
:1008900007D022492068884203D021492068884235
:1008A00000D104E040F2951120A0FFF7D2FC94F8AB
:1008B0003D00012801D0012070BD022084F83D00D8
:1008C0000D492068884252D02068B0F1804F4ED048
:1008D0000A49206888424AD009492068884246D09F
:1008E00008492068884242D00749206888423ED0A3
:1008F00006492068884235E00000014000040040BD
:1009000000080040000C004000040140004001408D
:10091000004401400048014000180040001C004015
:100920000020004000100040001400402E2E2F44F4
:100930007269766572732F53544D3332463478782A
:100940005F48414C5F4472697665722F5372632F22
:1009500073746D3332663478785F68616C5F746984
:100960006D2E630003D0F849206888420CD12068BE
:10097000806800F00705062D0CD02068006840F064
:1009800001002168086005E02068006840F001006F
:100990002168086000208FE710B50446EB49206805
:1009A000884233D02068B0F1804F2FD0E8492068CA
:1009B00088422BD0E7492068884227D0E649206842
:1009C000884223D0E549206888421FD0E449206846
:1009D00088421BD0E3492068884217D0E24920684A
:1009E000884213D0E149206888420FD0E04920684E
:1009F00088420BD0D4492068884207D0DD4920685E
:100A0000884203D0DC492068884200D105E04FF4D9
:100A1000DD71AFF2E800FFF71CFC00BF2068006A40
:100A200041F21111084050B92068006A891008404D
:100A300028B92068006820F001002168086000BF24
:100A4000012084F83D00002010BD70B50446BF4968
:100A50002068884233D02068B0F1804F2FD0BC4945
:100A6000206888422BD0BB492068884227D0BA49E9
:100A70002068884223D0B949206888421FD0B849ED
:100A8000206888421BD0B7492068884217D0B649F1
:100A90002068884213D0B549206888420FD0B449F5
:100AA000206888420BD0A8492068884207D0B14905
:100AB0002068884203D0B0492068884200D105E010
:100AC0004FF4E871AFF29C10FFF7C3FB94F83D00C0
:100AD000012801D0012070BD022084F83D0020686B
:100AE000C06840F001002168C860984920688842C9
:100AF0001BD02068B0F1804F17D0954920688842FC
:100B000013D09449206888420FD0934920688842C6
:100B10000BD094492068884207D0934920688842C6
:100B200003D08949206888420CD12068806800F091
:100B30000705062D0CD02068006840F001002168F0
:100B4000086005E02068006840F001002168086046
:100B50000020C0E710B504467C492068884233D0A5
:100B60002068B0F1804F2FD07949206888422BD07F
:100B700078492068884227D077492068884223D066
:100B80007649206888421FD07549206888421BD06A
:100B900074492068884217D073492068884213D06E
:100BA0007249206888420FD07149206888420BD072
:100BB00065492068884207D06E492068884203D082
:100BC0006D492068884200D105E04FF4FC71AFF216
:100BD000A420FFF73EFB2068C06820F001002168D8
:100BE000C86000BF2068006A41F21111084050B986
:100BF0002068006A8910084028B92068006820F041
:100C000001002168086000BF012084F83D00002039
:100C100010BD704770B50546AC6B606AA84204D140
:100C20000120207784F83E001DE0A06AA84205D18B
:100C30000220207701213F20015514E0E06AA842FC
:100C400005D1042020770121402001550BE0206BC5
:100C5000A84205D10820207701214120015502E05A
:100C6000012084F83D002046AFF30080002020776B
:100C700070BD704770B50446A56B2846AFF3008081
:100C800070BD704770B50546AC6B206AC06910B97D
:100C9000012084F83D002046AFF3008070BD2DE9AF
:100CA000F04104460E4615462849206888421BD06C
:100CB0002068B0F1804F17D025492068884213D0B2
:100CC0002449206888420FD02349206888420BD0ED
:100CD00022492068884207D021492068884203D0F1
:100CE00020492068884200D105E040F21321AFF28C
:100CF000C430FFF7AEFA94F83D00022801D1BDE8F8
:100D0000F08194F83D00012807D106B10DB901200A
:100D1000F5E7022084F83D0001E00120EFE71748E5
:100D2000216AC8631648216A0864AFF21710216A65
:100D3000C864216801F12C022B463146206A0CF070
:100D400090FBF8B10120DAE70018004000000140F4
:100D50000004004000080040000C0040001000406B
:100D600000140040000401400040014000440140E4
:100D700000480140001C004000200040850C000895
:100D8000750C00082068C06840F480702168C86055
:100D9000FE49206888421BD02068B0F1804F17D0F0
:100DA000FB492068884213D0FA49206888420FD056
:100DB000F949206888420BD0F8492068884207D05A
:100DC000F7492068884203D0F649206888420CD150
:100DD0002068806800F00707062F0CD020680068A4
:100DE00040F001002168086005E02068006840F0DC
:100DF000010021680860002081E710B50446E3493E
:100E0000206888421BD02068B0F1804F17D0E0499D
:100E10002068884213D0DF49206888420FD0DE491D
:100E2000206888420BD0E0492068884207D0DF491B
:100E30002068884203D0D9492068884200D105E063
:100E400040F25621AFF21C50FFF703FA2068C06849
:100E500020F480702168C860206A0CF0ACFB00BFF1
:100E60002068006A41F21111084050B92068006AF8
:100E70008910084028B92068006820F00100216826
:100E8000086000BF012084F83D00002010BD7047BD
:100E900010B504460CB9012010BDBC492068884239
:100EA00033D02068B0F1804F2FD0B94920688842F4
:100EB0002BD0B8492068884227D0B749206888429B
:100EC00023D0B949206888421FD0B8492068884299
:100ED0001BD0B2492068884217D0B14920688842A7
:100EE00013D0B349206888420FD0B24920688842A5
:100EF0000BD0AC492068884207D0AF4920688842AF
:100F000003D0AE492068884200D105E040F2932129
:100F1000AFF2E850FFF79DF9A06858B1A06810281B
:100F200008D0A068202805D0A068402802D0A0687A
:100F3000602800D105E04FF42571AFF21060FFF793
:100F400088F9206938B12069B0F5807F03D0206925
:100F5000B0F5007F00D105E040F29521AFF234609A
:100F6000FFF777F92068B0F1804F03D08A492068F5
:100F7000884201D1012000E0002048B9E06828B192
:100F8000E068B0F5803F01D2012006E0002004E0D7
:100F9000E06808B1012000E0002000B105E040F267
:100FA0009621AFF27860FFF754F9A06910B1A069FB
:100FB000802800D105E040F29721AFF29060FFF762
:100FC00048F994F83D0028B9002084F83C002046F8
:100FD000AFF30080022084F83D00211D2068FFF758
:100FE0008BFA012084F8460000BF84F83E000121FE
:100FF0003F200155402001554120015500BF00BF51
:10100000012084F842004320015544200155452029
:10101000015500BF012084F83D0000203CE77047E7
:1010200010B5044659492068884233D02068B0F191
:10103000804F2FD05649206888422BD055492068D0
:10104000884227D054492068884223D056492068D6
:1010500088421FD05549206888421BD04F492068DC
:10106000884217D04E492068884213D050492068E2
:1010700088420FD04F49206888420BD049492068E8
:10108000884207D04C492068884203D04B492068E9
:10109000884200D105E040F2C921AFF27070FFF73D
:1010A000D8F8022084F83D0000BF2068006A41F2B1
:1010B0001111084050B92068006A8910084028B909
:1010C0002068006820F001002168086000BF204609
:1010D000AFF30080002084F8460000BF84F83E0093
:1010E00000213F200155402001554120015500BFFE
:1010F00000BF002084F842004320015544200155E0
:101100004520015500BF002084F83D0000BF84F851
:101110003C0000BF10BD2DE9F04104460D461646C7
:101120001A48844220D0B4F1804F1DD01848844220
:101130001AD01848844217D01748844214D0174850
:10114000844211D0164884420ED0194884420BD0F4
:101150001848844208D01348844205D01648844277
:1011600002D01648844200D105E041F69F51AFF607
:101170004400FFF76EF83DB1042D05D0082D03D0D3
:101180000C2D01D03C2D1BD120E0000000000140BF
:101190000004004000080040000C00400004014032
:1011A00000400140001800400010004000140040C2
:1011B0000044014000480140001C00400020004065
:1011C0004FF4ED51AFF69C00FFF743F805F01F0117
:1011D000012000FA01F7206AB8432062206A05F076
:1011E0001F0106FA01F108432062BDE8F08170B5E5
:1011F00004460D46FE492068884207D1002D60D084
:10120000042D5ED0082D5CD00C2D5AD02068B0F192
:10121000804F07D1002D54D0042D52D0082D50D02E
:101220000C2D4ED0F3492068884207D1002D48D0BC
:10123000042D46D0082D44D00C2D42D0EE49206814
:10124000884206D1EDB3042D3BD0082D39D00C2DAA
:1012500037D0EA492068884206D195B3042D30D0B2
:10126000082D2ED00C2D2CD0E5492068884206D1BF
:101270003DB3042D25D0082D23D00C2D21D0E149DC
:101280002068884202D1E5B1042D1AD0DE492068D9
:10129000884200D1ADB1DD492068884200D185B1D6
:1012A000DB492068884202D15DB1042D09D0D949BB
:1012B0002068884200D125B1D7492068884201D1F1
:1012C00005B905E040F21A31AFF6A010FEF7C1FFF4
:1012D00015B994F83E000BE0042D02D13F20005DCB
:1012E00006E0082D02D14020005D01E04120005DB4
:1012F000012801D0012070BD1DB9022084F83E00F4
:101300000EE0042D03D102213F20015508E0082DF5
:1013100003D102214020015502E002214120015564
:10132000012229462068FFF7F6FEB149206888426D
:1013300003D0B3492068884201D1012000E0002099
:1013400028B12068406C40F4004021684864A849F6
:10135000206888421BD02068B0F1804F17D0A54983
:101360002068884213D0A449206888420FD0A3493E
:10137000206888420BD0A2492068884207D0A14942
:101380002068884203D0A249206888420CD1206896
:10139000806800F00706062E0CD02068006840F038
:1013A00001002168086005E02068006840F0010045
:1013B0002168086000209EE770B505460C468C4900
:1013C0002868884207D1002C62D0042C60D0082CF9
:1013D0005ED00C2C5CD02868B0F1804F07D1002C77
:1013E00056D0042C54D0082C52D00C2C50D081490B
:1013F0002868884207D1002C4AD0042C48D0082CF9
:1014000046D00C2C44D07C492868884206D1ECB3E5
:10141000042C3DD0082C3BD00C2C39D077492868BF
:10142000884206D194B3042C32D0082C30D00C2C36
:101430002ED073492868884206D13CB3042C27D0AB
:10144000082C25D00C2C23D06E492868884202D164
:10145000E4B1042C1CD06C492868884200D1ACB19E
:101460006A492868884200D184B16949286888425D
:1014700002D15CB1042C0BD066492868884200D1A7
:1014800024B165492868884203D100E000E004B92E
:1014900005E040F24E31AFF66C30FEF7DAFE002286
:1014A00021462868FFF737FE51492868884203D053
:1014B00053492868884201D1012000E0002090B102
:1014C00000BF2868006A41F21111084050B928682D
:1014D000006A8910084028B92868406C20F4004050
:1014E0002968486400BF00BF2868006A41F21111F2
:1014F000084050B92868006A8910084028B928684F
:10150000006820F001002968086000BF1CB90120B4
:1015100085F83E000EE0042C03D101213F20415507
:1015200008E0082C03D101214020415502E00121AF
:1015300041204155002070BD2DE9F04104460D4683
:1015400000262B492068884207D1002D79D0042D30
:1015500077D0082D75D00C2D73D02068B0F1804F56
:1015600007D1002D6DD0042D6BD0082D69D00C2D26
:1015700067D020492068884207D1002D61D0042D12
:101580005FD0082D5DD00C2D5BD01B4920688842B0
:1015900006D15DB3042D54D0082D52D00C2D50D05F
:1015A00016492068884206D105B3042D49D0082D7C
:1015B00047D00C2D45D012492068884206D1ADB1E4
:1015C000042D3ED0082D3CD00C2D3AD00D4920687A
:1015D000884202D155B1042D33D00B49206888428E
:1015E00000D11DB109492068884217E029E00000B8
:1015F000000001400004004000080040000C0040D2
:101600000004014000400140004401400048014006
:1016100000180040001C00400020004000D185B1AF
:10162000FA492068884202D15DB1042D09D0F849F9
:101630002068884200D125B1F6492068884201D14E
:1016400005B905E04FF45D71AFF62050FEF701FEDD
:1016500015B994F83E000BE0042D02D13F20005D47
:1016600006E0082D02D14020005D01E04120005D30
:10167000012802D00120BDE8F0811DB9022084F8C4
:101680003E000EE0042D03D102213F20015508E069
:10169000082D03D102214020015502E00221412002
:1016A000015535B1042D0BD0082D10D00C2D1CD1B7
:1016B00014E02068C06840F002002168C86016E0AD
:1016C0002068C06840F004002168C8600FE020680E
:1016D000C06840F008002168C86008E02068C06861
:1016E00040F010002168C86001E0012600BF00BF83
:1016F000F6BB012229462068FFF70DFDC649206888
:10170000884203D0C5492068884201D1012000E009
:10171000002028B12068406C40F4004021684864F3
:10172000BD49206888421BD02068B0F1804F17D097
:10173000BB492068884213D0BA49206888420FD03C
:10174000B949206888420BD0B4492068884207D044
:10175000B6492068884203D0AC49206888420ED13F
:101760002068806800F00707062F0ED0206800E090
:101770000BE0006840F001002168086005E0206887
:10178000006840F0010021680860304673E770B5DA
:1017900005460C460026A0492868884207D1002C3F
:1017A00062D0042C60D0082C5ED00C2C5CD0286851
:1017B000B0F1804F07D1002C56D0042C54D0082C07
:1017C00052D00C2C50D096492868884207D1002C62
:1017D0004AD0042C48D0082C46D00C2C44D0914937
:1017E0002868884206D1ECB3042C3DD0082C3BD0AD
:1017F0000C2C39D08C492868884206D194B3042C2B
:1018000032D0082C30D00C2C2ED084492868884245
:1018100006D13CB3042C27D0082C25D00C2C23D087
:1018200082492868884202D1E4B1042C1CD0804946
:101830002868884200D1ACB17E492868884200D12E
:1018400084B172492868884202D15CB1042C0BD063
:101850006F492868884200D124B16E4928688842BF
:1018600003D100E000E004B905E04FF47471AFF675
:101870004470FEF7EEFC34B1042C0BD0082C10D0D1
:101880000C2C1CD114E02868C06820F002002968E4
:10189000C86016E02868C06820F004002968C860A5
:1018A0000FE02868C06820F008002968C86008E0D8
:1018B0002868C06820F010002968C86001E001268F
:1018C00000BF00BFD6BB002221462868FFF723FCDB
:1018D00051492868884203D050492868884201D17C
:1018E000012000E0002090B100BF2868006A41F2AA
:1018F0001111084050B92868006A8910084028B9B9
:101900002868406C20F400402968486400BF00BF8C
:101910002868006A41F21111084050B92868006A2D
:101920008910084028B92868006820F0010029685B
:10193000086000BF1CB9012085F83E000EE0042CB1
:1019400003D101213F20415508E0082C03D101219A
:101950004020415502E0012141204155304670BDF3
:10196000704770B50546AC6B606AA84202D1012091
:10197000207710E0A06AA84202D1022020770AE076
:10198000E06AA84202D10420207704E0206BA8423C
:1019900001D1082020772046AFF300800020207777
:1019A00070BD704770B50546AC6B606AA84207D140
:1019B00001202077E86918BB012084F83E001FE071
:1019C000A06AA84207D102202077E869C0B90121A6
:1019D0003F20015514E0E06AA84207D10420207797
:1019E000E86968B901214020015509E0206BA8424F
:1019F00006D108202077E86910B90121412001555E
:101A00002046AFF300800020207770BD0018004012
:101A1000001C004000200040000001400004014084
:101A20000004004000080040000C0040004001405D
:101A300000440140004801402DE9F04704460D46AE
:101A400016461F464FF00008FB492068884207D120
:101A5000002D60D0042D5ED0082D5CD00C2D5AD006
:101A60002068B0F1804F07D1002D54D0042D52D002
:101A7000082D50D00C2D4ED0F0492068884207D157
:101A8000002D48D0042D46D0082D44D00C2D42D036
:101A9000EB492068884206D1EDB3042D3BD0082DD8
:101AA00039D00C2D37D0E7492068884206D195B34C
:101AB000042D30D0082D2ED00C2D2CD0E2492068DA
:101AC000884206D13DB3042D25D0082D23D00C2DFE
:101AD00021D0DE492068884202D1E5B1042D1AD018
:101AE000DB492068884200D1ADB1DA4920688842DC
:101AF00000D185B1D8492068884202D15DB1042D5A
:101B000009D0D6492068884200D125B1D44920683F
:101B1000884201D105B904E040F21F41D148FEF7E7
:101B200098FB15B994F83E000BE0042D02D13F203C
:101B3000005D06E0082D02D14020005D01E041205B
:101B4000005D022801D1BDE8F08715B994F83E0088
:101B50000BE0042D02D13F20005D06E0082D02D1EC
:101B60004020005D01E04120005D012818D106B150
:101B70000FB90120E7E71DB9022084F83E0011E00B
:101B8000042D03D102213F2001550BE0082D03D184
:101B900002214020015505E002214120015501E0CC
:101BA0000120D0E735B1042D21D0082D3CD00C2DDB
:101BB00073D155E0AC49606AC163AFF25921606AE4
:101BC0000164AFF6AF71606AC164216801F134024B
:101BD0003B463146606A0BF044FC08B10120B2E795
:101BE0002068C06840F400702168C86058E09E49D1
:101BF000A06AC163AFF29521A06A0164AFF6EB71F0
:101C0000A06AC164216801F138023B463146A06AEE
:101C10000BF027FC08B1012095E72068C06840F46C
:101C200080602168C8603BE08F49E06AC163AFF221
:101C3000CD21E06A01648D49E06AC164216801F147
:101C40003C023B463146E06A0BF00BFC08B1012038
:101C500079E72068C06840F400602168C8601FE030
:101C60008149206BC163AFF20531206B01647F496C
:101C7000206BC164216801F140023B463146206B74
:101C80000BF0EFFB08B101205DE72068C06840F46D
:101C900080502168C86003E0FFE74FF0010800BFF3
:101CA00000BFB8F1000F4AD1012229462068FFF792
:101CB00032FA61492068884203D06349206888422B
:101CC00001D1012000E0002028B12068406C40F4E0
:101CD0000040216848645849206888421BD0206829
:101CE000B0F1804F17D055492068884213D054492D
:101CF000206888420FD05349206888420BD052494F
:101D00002068884207D051492068884203D0524950
:101D1000206888420DD12068806800F00709B9F179
:101D2000060F0CD02068006840F0010021680860B0
:101D300005E02068006840F0010021680860404626
:101D400001E770B504460D4600263B4920688842ED
:101D500007D1002D62D0042D60D0082D5ED00C2D4F
:101D60005CD02068B0F1804F07D1002D56D0042DF3
:101D700054D0082D52D00C2D50D0304920688842C4
:101D800007D1002D4AD0042D48D0082D46D00C2D67
:101D900044D02B492068884206D1EDB3042D3DD0B4
:101DA000082D3BD00C2D39D026492068884206D119
:101DB00095B3042D32D0082D30D00C2D2ED02249D1
:101DC0002068884206D13DB3042D27D0082D25D0A8
:101DD0000C2D23D01D492068884202D1E5B1042D85
:101DE0001CD01B492068884200D1ADB11949206838
:101DF000884200D185B118492068884202D15DB17E
:101E0000042D0BD015492068884200D125B1144912
:101E10002068884203D100E000E005B904E040F208
:101E2000C1411048FEF715FA15B3042D2AD0082D2C
:101E300032D00C2D44D139E00000014000040040B4
:101E400000080040000C0040000401400040014038
:101E5000004401400048014000180040001C0040C0
:101E6000002000402C090008A5190008150C0008E6
:101E70002068C06820F400702168C860606A0BF0B8
:101E80009AFB1FE02068C06820F480602168C86069
:101E9000A06A0BF090FB15E02068C06820F4006099
:101EA0002168C860E06A0BF086FB0BE02068C06820
:101EB00020F480502168C860206B0BF07CFB01E0AF
:101EC000012600BF00BFD6BB002229462068FFF7CD
:101ED00022F9F8492068884203D0F74920688842EF
:101EE00001D1012000E0002090B100BF2068006A0D
:101EF00041F21111084050B92068006A8910084069
:101F000028B92068406C20F400402168486400BF74
:101F100000BF2068006A41F21111084050B92068E2
:101F2000006A8910084028B92068006820F0010084
:101F30002168086000BF1DB9012084F83E000EE052
:101F4000042D03D101213F20015508E0082D03D1C4
:101F500001214020015502E0012141200155304678
:101F600070BD704710B504460CB9012010BDD149B1
:101F70002068884233D02068B0F1804F2FD0CF49FD
:101F8000206888422BD0CE492068884227D0CD498E
:101F90002068884223D0CC49206888421FD0CB4992
:101FA000206888421BD0C4492068884217D0C8499D
:101FB0002068884213D0C749206888420FD0C6499C
:101FC000206888420BD0C5492068884207D0C449A0
:101FD0002068884203D0C3492068884200D104E0C9
:101FE00040F22C51C048FEF734F9A06858B1A068FF
:101FF000102808D0A068202805D0A068402802D06A
:10200000A068602800D104E040F22D51B648FEF7E8
:1020100020F9206938B12069B0F5807F03D02069AC
:10202000B0F5007F00D104E040F22E51AE48FEF73B
:1020300010F92068B0F1804F03D0A249206888428F
:1020400001D1012000E0002048B9E06828B1E06833
:10205000B0F5803F01D2012006E0002004E0E068F6
:1020600008B1012000E0002000B104E040F22F514F
:102070009D48FEF7EEF8A06910B1A069802800D154
:1020800004E04FF4A6619848FEF7E3F894F83D00A9
:1020900028B9002084F83C002046AFF300800220DD
:1020A00084F83D00211D2068FEF726FA012084F8FF
:1020B000460000BF84F83E0001213F20015540202A
:1020C00001554120015500BF00BF012084F84200A6
:1020D00043200155442001554520015500BF0120F2
:1020E00084F83D00002041E7704710B5044671496F
:1020F0002068884233D02068B0F1804F2FD06F49DC
:10210000206888422BD06E492068884227D06D49CC
:102110002068884223D06C49206888421FD06B49D0
:10212000206888421BD064492068884217D06849DB
:102130002068884213D06749206888420FD06649DA
:10214000206888420BD065492068884207D06449DE
:102150002068884203D063492068884200D104E0A7
:1021600040F262516048FEF774F8022084F83D00A6
:1021700000BF2068006A41F21111084050B9206880
:10218000006A8910084028B92068006820F0010022
:102190002168086000BF2046AFF30080002084F86B
:1021A000460000BF84F83E0000213F20015540203A
:1021B00001554120015500BF00BF002084F84200B6
:1021C00043200155442001554520015500BF002002
:1021D00084F83D0000BF84F83C0000BF10BD70B51E
:1021E00004460D4633492068884207D1002D60D04F
:1021F000042D5ED0082D5CD00C2D5AD02068B0F193
:10220000804F07D1002D54D0042D52D0082D50D02E
:102210000C2D4ED029492068884207D1002D48D086
:10222000042D46D0082D44D00C2D42D024492068DE
:10223000884206D1EDB3042D3BD0082D39D00C2DAA
:1022400037D020492068884206D195B3042D30D07C
:10225000082D2ED00C2D2CD017492068884206D18D
:102260003DB3042D25D0082D23D00C2D21D01849A5
:102270002068884202D1E5B1042D1AD015492068A2
:10228000884200D1ADB114492068884200D185B19F
:1022900012492068884202D15DB1042D09D010494D
:1022A0002068884200D125B10E49206888421DD19E
:1022B000E5B920E0000001400004014000040040B6
:1022C00000080040000C00400010004000140040D6
:1022D0000040014000440140004801400018004017
:1022E000001C0040002000402C09000840F2B351BF
:1022F000FA48FDF7AEFF15B994F83E000BE0042D47
:1023000002D13F20005D06E0082D02D14020005D93
:1023100001E04120005D012801D0012070BD1DB900
:10232000022084F83E000EE0042D03D102213F205C
:10233000015508E0082D03D102214020015502E09B
:10234000022141200155012229462068FEF7E3FEC3
:10235000E3492068884203D0E2492068884201D1DD
:10236000012000E0002028B12068406C40F40040CB
:1023700021684864DA49206888421BD02068B0F19F
:10238000804F17D0D8492068884213D0D749206899
:1023900088420FD0D649206888420BD0D1492068A6
:1023A000884207D0D3492068884203D0D2492068A8
:1023B00088420CD12068806800F00706062E0CD0F9
:1023C0002068006840F001002168086005E020688E
:1023D000006840F001002168086000209EE770B5A9
:1023E00005460C46BE492868884207D1002C60D0BB
:1023F000042C5ED0082C5CD00C2C5AD02868B0F18C
:10240000804F07D1002C54D0042C52D0082C50D02F
:102410000C2C4ED0B4492868884207D1002C48D0F3
:10242000042C46D0082C44D00C2C42D0AF4928684C
:10243000884206D1ECB3042C3BD0082C39D00C2CAC
:1024400037D0AB492868884206D194B3042C30D0E9
:10245000082C2ED00C2C2CD0A2492868884206D1FA
:102460003CB3042C25D0082C23D00C2C21D0A1491E
:102470002868884202D1E4B1042C1AD09F49286808
:10248000884200D1ACB19E492868884200D184B10D
:1024900099492868884202D15CB1042C09D0994935
:1024A0002868884200D124B197492868884201D120
:1024B00004B904E040F2E7518848FDF7CAFE002263
:1024C00021462868FEF727FE85492868884203D000
:1024D00084492868884201D1012000E0002090B1A1
:1024E00000BF2868006A41F21111084050B92868FD
:1024F000006A8910084028B92868406C20F4004020
:102500002968486400BF00BF2868006A41F21111C1
:10251000084050B92868006A8910084028B928681E
:10252000006820F001002968086000BF1CB9012084
:1025300085F83E000EE0042C03D101213F204155D7
:1025400008E0082C03D101214020415502E001217F
:1025500041204155002070BD2DE9F04104460D4653
:1025600000265F492068884207D1002D62D0042DE3
:1025700060D0082D5ED00C2D5CD02068B0F1804F6B
:1025800007D1002D56D0042D54D0082D52D00C2D3B
:1025900050D055492068884207D1002D4AD0042DDB
:1025A00048D0082D46D00C2D44D050492068884290
:1025B00006D1EDB3042D3DD0082D3BD00C2D39D0E4
:1025C0004B492068884206D195B3042D32D0082D9E
:1025D00030D00C2D2ED043492068884206D13DB31F
:1025E000042D27D0082D25D00C2D23D0414920685B
:1025F000884202D1E5B1042D1CD0404920688842B0
:1026000000D1ADB13E492068884200D185B13A4938
:102610002068884202D15DB1042D0BD03949206871
:10262000884200D125B138492068884203D100E0B2
:1026300000E005B904E040F20D612848FDF709FE0D
:1026400015B994F83E000BE0042D02D13F20005D47
:1026500006E0082D02D14020005D01E04120005D30
:10266000012802D00120BDE8F0811DB9022084F8C4
:102670003E000EE0042D03D102213F20015508E069
:10268000082D03D102214020015502E00221412002
:10269000015535B1042D0BD0082D10D00C2D35D19E
:1026A00014E02068C06840F002002168C8602FE094
:1026B0002068C06840F004002168C86028E02068F5
:1026C000C06840F008002168C86021E02068C06848
:1026D00040F010002168C8601AE000002C090008D2
:1026E00000000140000401400004004000080040D8
:1026F000000C004000400140001800400044014030
:1027000000480140001C004000200040012600BF9E
:1027100000BFEEBB012229462068FEF7FCFCFE4903
:102720002068884203D0FD492068884201D10120F9
:1027300000E0002028B12068406C40F4004021688F
:102740004864F549206888421BD02068B0F1804F6A
:1027500017D0F3492068884213D0F2492068884294
:102760000FD0F149206888420BD0EC49206888429C
:1027700007D0EE492068884203D0ED49206888429E
:102780000ED12068806800F00707062F0ED000E009
:102790000CE02068006840F001002168086005E056
:1027A0002068006840F001002168086030465AE760
:1027B00070B505460C460026D7492868884207D1DF
:1027C000002C60D0042C5ED0082C5CD00C2C5AD08D
:1027D0002868B0F1804F07D1002C54D0042C52D07F
:1027E000082C50D00C2C4ED0CD492868884207D1F7
:1027F000002C48D0042C46D0082C44D00C2C42D0BD
:10280000C8492868884206D1ECB3042C3BD0082C78
:1028100039D00C2C37D0C4492868884206D194B3EB
:10282000042C30D0082C2ED00C2C2CD0BB4928687E
:10283000884206D13CB3042C25D0082C23D00C2C84
:1028400021D0BA492868884202D1E4B1042C1AD0B8
:10285000B8492868884200D1ACB1B7492868884295
:1028600000D184B1B2492868884202D15CB1042CFD
:1028700009D0B2492868884200D124B1B0492868FB
:10288000884201D104B904E040F26961AD48FDF726
:10289000E0FC34B1042C0BD0082C10D00C2C1CD133
:1028A00014E02868C06820F002002968C86016E0BB
:1028B0002868C06820F004002968C8600FE0286814
:1028C000C06820F008002968C86008E02868C0686F
:1028D00020F010002968C86001E0012600BF00BF99
:1028E000D6BB002221462868FEF715FC8A492868D5
:1028F000884203D089492868884201D1012000E03C
:10290000002090B100BF2868006A41F21111084010
:1029100050B92868006A8910084028B92868406CB6
:1029200020F400402968486400BF00BF2868006A9E
:1029300041F21111084050B92868006A8910084016
:1029400028B92868006820F001002968086000BFE5
:102950001CB9012085F83E000EE0042C03D10121B2
:102960003F20415508E0082C03D10121402041556A
:1029700002E0012141204155304670BD2DE9F0476C
:1029800004460D4616461F464FF00008624920686F
:10299000884207D1002D60D0042D5ED0082D5CD078
:1029A0000C2D5AD02068B0F1804F07D1002D54D0A3
:1029B000042D52D0082D50D00C2D4ED058492068EF
:1029C000884207D1002D48D0042D46D0082D44D090
:1029D0000C2D42D053492068884206D1EDB3042D16
:1029E0003BD0082D39D00C2D37D04F492068884274
:1029F00006D195B3042D30D0082D2ED00C2D2CD01F
:102A000046492068884206D13DB3042D25D0082DC3
:102A100023D00C2D21D045492068884202D1E5B150
:102A2000042D1AD043492068884200D1ADB14249F3
:102A30002068884200D185B13D492068884202D192
:102A40005DB1042D09D03D492068884200D125B1EF
:102A50003B492068884201D105B904E04FF4D761B1
:102A60003848FDF7F6FB15B994F83E000BE0042D4D
:102A700002D13F20005D06E0082D02D14020005D1C
:102A800001E04120005D022801D1BDE8F08715B9C1
:102A900094F83E000BE0042D02D13F20005D06E0DB
:102AA000082D02D14020005D01E04120005D012899
:102AB00018D106B10FB90120E7E71DB9022084F84B
:102AC0003E0011E0042D03D102213F2001550BE00F
:102AD000082D03D102214020015505E002214120AB
:102AE000015501E00120D0E735B1042D3ED0082D7D
:102AF00057D00C2D70D170E01349606AC16313493F
:102B0000606A01641249606AC164216801F134029B
:102B10003B463146606A1DE0000001400004014070
:102B20000004004000080040000C0040004001404C
:102B3000001800400044014000480140001C0040D3
:102B4000002000402C090008A5190008631900089E
:102B5000150C00080AF085FC08B1012095E72068F3
:102B6000C06840F400702168C86054E0FD49A06A64
:102B7000C163FD49A06A0164FC49A06AC16421687F
:102B800001F138023B463146A06A0AF06AFC08B1FE
:102B900001207AE72068C06840F480602168C8603E
:102BA00039E0F049E06AC163EF49E06A0164EF4946
:102BB000E06AC164216801F13C023B463146E06AAB
:102BC0000AF04FFC08B101205FE72068C06840F4BC
:102BD00000602168C8601EE01AE0E249206BC16312
:102BE000E149206B0164E149206BC164216801F176
:102BF00040023B463146206B0AF033FC08B101200D
:102C000043E72068C06840F480502168C86002E053
:102C10004FF0010800BF00BFB8F1000F4AD10122F8
:102C200029462068FEF777FAD1492068884203D008
:102C3000D0492068884201D1012000E0002028B15D
:102C40002068406C40F4004021684864C84920680E
:102C500088421BD02068B0F1804F17D0C649206849
:102C6000884213D0C549206888420FD0C4492068E3
:102C700088420BD0BF492068884207D0C1492068EC
:102C8000884203D0C049206888420DD120688068FE
:102C900000F00709B9F1060F0CD02068006840F079
:102CA00001002168086005E02068006840F001002C
:102CB000216808604046E8E670B504460D460026E7
:102CC000AB492068884207D1002D60D0042D5ED02A
:102CD000082D5CD00C2D5AD02068B0F1804F07D160
:102CE000002D54D0042D52D0082D50D00C2D4ED094
:102CF000A1492068884207D1002D48D0042D46D034
:102D0000082D44D00C2D42D09C492068884206D121
:102D1000EDB3042D3BD0082D39D00C2D37D0984978
:102D20002068884206D195B3042D30D0082D2ED0CE
:102D30000C2D2CD08F492068884206D13DB3042D3C
:102D400025D0082D23D00C2D21D08E492068884213
:102D500002D1E5B1042D1AD08C492068884200D1F7
:102D6000ADB18B492068884200D185B18649206881
:102D7000884202D15DB1042D09D08649206888427D
:102D800000D125B184492068884201D105B904E009
:102D900040F259718148FDF75CFA35B1042D0ED02F
:102DA000082D16D00C2D28D11DE02068C06820F415
:102DB00000702168C860606A0AF0FDFB1FE02068AF
:102DC000C06820F480602168C860A06A0AF0F3FB44
:102DD00015E02068C06820F400602168C860E06ADF
:102DE0000AF0E9FB0BE02068C06820F480502168FD
:102DF000C860206B0AF0DFFB01E0012600BF00BFC6
:102E0000D6BB002229462068FEF785F9584920687C
:102E1000884203D057492068884201D1012000E050
:102E2000002090B100BF2068006A41F211110840F3
:102E300050B92068006A8910084028B92068406CA1
:102E400020F400402168486400BF00BF2068006A89
:102E500041F21111084050B92068006A89100840F9
:102E600028B92068006820F001002168086000BFD0
:102E70001DB9012084F83E000EE0042D03D101218C
:102E80003F20015508E0082D03D1012140200155C4
:102E900002E0012141200155304670BD704710B558
:102EA00004460CB9012010BD31492068884233D056
:102EB0002068B0F1804F2FD02F49206888422BD056
:102EC0002E492068884227D02D492068884223D087
:102ED0003349206888421FD03249206888421BD07D
:102EE00024492068884217D026492068884213D098
:102EF0002649206888420FD02549206888420BD097
:102F000021492068884207D022492068884203D09E
:102F100021492068884200D104E040F2C4711F4872
:102F2000FDF797F9A06858B1A068102808D0A068EC
:102F3000202805D0A068402802D0A068602800D1D1
:102F400004E040F2C5711548FDF783F9206938B1F6
:102F50002069B0F5807F03D02069B0F5007F23D1D0
:102F600027E00000A519000863190008150C0008E7
:102F7000000001400004014000040040000800403F
:102F8000000C004000400140001800400044014097
:102F900000480140001C0040002000402C090008AF
:102FA000001000400014004040F2C671FE48FDF7DA
:102FB00050F92068B0F1804F03D0FC492068884266
:102FC00001D1012000E0002048B9E06828B1E068A4
:102FD000B0F5803F01D2012006E0002004E0E06867
:102FE00008B1012000E0002000B104E040F2C77108
:102FF000ED48FDF72EF9A06910B1A069802800D135
:1030000004E04FF4F961E848FDF723F994F83D0036
:1030100028B9002084F83C002046AFF3008002204D
:1030200084F83D00211D2068FDF766FA012084F830
:10303000460000BF84F83E0001213F20015540209A
:1030400001554120015500BF00BF012084F8420016
:1030500043200155442001554520015500BF012062
:1030600084F83D0000201EE7704710B50446D049A3
:103070002068884233D02068B0F1804F2FD0CD49EE
:10308000206888422BD0CC492068884227D0C74985
:103090002068884223D0C949206888421FD0C84987
:1030A000206888421BD0C7492068884217D0C6498B
:1030B0002068884213D0C549206888420FD0C4498F
:1030C000206888420BD0C3492068884207D0C24993
:1030D0002068884203D0C1492068884200D104E0BA
:1030E00040F2FA71B048FDF7B4F8022084F83D00D0
:1030F00000BF2068006A41F21111084050B92068F1
:10310000006A8910084028B92068006820F0010092
:103110002168086000BF2046AFF30080002084F8DB
:10312000460000BF84F83E0000213F2001554020AA
:1031300001554120015500BF00BF002084F8420026
:1031400043200155442001554520015500BF002072
:1031500084F83D0000BF84F83C0000BF10BD2DE99D
:10316000F04105460C4614B995F83E000BE0042CDE
:1031700002D13F20405D06E0082C02D14020405D96
:1031800001E04120405D074614B995F842000BE08C
:10319000042C02D14320405D06E0082C02D14420DB
:1031A000405D01E04520405D8046814928688842B5
:1031B00007D1002C62D0042C60D0082C5ED00C2CDF
:1031C0005CD02868B0F1804F07D1002C56D0042C79
:1031D00054D0082C52D00C2C50D076492868884204
:1031E00007D1002C4AD0042C48D0082C46D00C2CF7
:1031F00044D071492868884206D1ECB3042C3DD0F4
:10320000082C3BD00C2C39D068492868884206D15C
:1032100094B3042C32D0082C30D00C2C2ED0694919
:103220002868884206D13CB3042C27D0082C25D02E
:103230000C2C23D064492868884202D1E4B1042CC4
:103240001CD062492868884200D1ACB16049286826
:10325000884200D184B15F492868884202D15CB1BC
:10326000042C0BD05C492868884200D124B15B490A
:103270002868884203D100E000E004B904E040F689
:103280004D014948FCF7E5FF012F02D1B8F1010FCC
:1032900002D00120BDE8F0811CB9022085F83E0073
:1032A0000EE0042C03D102213F20415508E0082CF8
:1032B00003D102214020415502E002214120415525
:1032C0001CB9022085F842000EE0042C03D1022133
:1032D0004320415508E0082C03D1022144204155E8
:1032E00002E0022145204155012221462868FDF7D0
:1032F00012FF2F49286888421BD02868B0F1804F00
:1033000017D02C492868884213D02B492868884256
:103310000FD02649286888420BD02A49286888425D
:1033200007D029492868884203D02A49286888425A
:103330000CD12868806800F00706062E0CD028689B
:10334000006840F001002968086005E0286800680E
:1033500040F001002968086000209BE770B5054631
:103360000C4613492868884207D1002C7DD0042CD4
:103370007BD0082C79D00C2C77D02868B0F1804F06
:1033800007D1002C71D0042C6FD0082C6DD00C2CE0
:103390006BD008492868884224D1002C65D0042CC1
:1033A00063D0082C61D01BE02C090008000C004001
:1033B00000000140000400400008004000100040F0
:1033C000001400400004014000400140004401405E
:1033D0000048014000180040001C00400020004050
:1033E0000C2C42D0FE492868884206D1ECB3042C4C
:1033F0003BD0082C39D00C2C37D0FA4928688842A9
:1034000006D194B3042C30D0082C2ED00C2C2CD008
:10341000F5492868884206D13CB3042C25D0082CF5
:1034200023D00C2C21D0F1492868884202D1E4B184
:10343000042C1AD0EE492868884200D1ACB1ED497D
:103440002868884200D184B1EB492868884202D1BB
:103450005CB1042C09D0E9492868884200D124B124
:10346000E7492868884201D104B904E040F67D01AB
:10347000E448FCF7EEFE002221462868FDF74BFEEB
:1034800000BF2868006A41F21111084050B928684D
:10349000006A8910084028B92868006820F00100F7
:1034A0002968086000BF1CB9012085F83E000EE0C5
:1034B000042C03D101213F20415508E0082C03D101
:1034C00001214020415502E00121412041551CB914
:1034D000012085F842000EE0042C03D10121432095
:1034E000415508E0082C03D101214420415502E058
:1034F000012145204155002070BD2DE9F0470446CB
:103500000D46002615B994F83E000BE0042D02D1BB
:103510003F20005D06E0082D02D14020005D01E063
:103520004120005D804615B994F842000BE0042D5F
:1035300002D14320005D06E0082D02D14420005D49
:1035400001E04520005D8146AF492068884207D1EF
:10355000002D60D0042D5ED0082D5CD00C2D5AD0EB
:103560002068B0F1804F07D1002D54D0042D52D0E7
:10357000082D50D00C2D4ED0A4492068884207D188
:10358000002D48D0042D46D0082D44D00C2D42D01B
:1035900093492068884206D1EDB3042D3BD0082D15
:1035A00039D00C2D37D08F492068884206D195B389
:1035B000042D30D0082D2ED00C2D2CD08A49206817
:1035C000884206D13DB3042D25D0082D23D00C2DE3
:1035D00021D086492068884202D1E5B1042D1AD055
:1035E00083492068884200D1ADB182492068884271
:1035F00000D185B180492068884202D15DB1042D97
:1036000009D07E492068884200D125B17C492068D4
:10361000884201D105B904E040F6A1017948FCF7E0
:1036200018FEB8F1010F02D1B9F1010F02D001204B
:10363000BDE8F0871DB9022084F83E000EE0042D9D
:1036400003D102213F20015508E0082D03D10221BA
:103650004020015502E00221412001551DB9022000
:1036600084F842000EE0042D03D1022143200155CD
:1036700008E0082D03D102214420015502E0022177
:103680004520015535B1042D0BD0082D10D00C2D3F
:103690001CD114E02068C06840F002002168C860B6
:1036A00016E02068C06840F004002168C8600FE0A0
:1036B0002068C06840F008002168C86008E0206801
:1036C000C06840F010002168C86001E0012600BF1A
:1036D00000BF86BB012229462068FDF71CFD4A4930
:1036E000206888421BD02068B0F1804F17D047492E
:1036F0002068884213D03A49206888420FD039495F
:10370000206888420BD038492068884207D0374962
:103710002068884203D03849206888420CD120684C
:10372000806800F00707062F0CD02068006840F082
:1037300001002168086005E02068006840F0010091
:1037400021680860304673E770B505460C460026D0
:103750002D492868884207D1002C7AD0042C78D0D3
:10376000082C76D00C2C74D02868B0F1804F07D18B
:10377000002C6ED0042C6CD0082C6AD00C2C68D095
:1037800022492868884207D1002C62D0042C60D0DE
:10379000082C5ED00C2C5CD011492868884206D1D8
:1037A000B4B3042C55D0082C53D00C2C51D00D4957
:1037B0002868884206D15CB3042C4AD0082C48D033
:1037C0000C2C46D008492868884206D104B3042C42
:1037D0003FD0082C3DD00C2C3BD00449286818E081
:1037E00000080040000C004000040140004001407F
:1037F000004401400048014000180040001C004007
:10380000002000402C090008000001400004004096
:103810001FE0884202D1E4B1042C1AD0FE49286886
:10382000884200D1ACB1FD492868884200D184B1FA
:10383000FB492868884202D15CB1042C09D0F949BF
:103840002868884200D124B1F7492868884201D10C
:1038500004B904E040F6F901F448FCF7FAFC34B18D
:10386000042C0BD0082C10D00C2C1CD114E0286890
:10387000C06820F002002968C86016E02868C068A7
:1038800020F004002968C8600FE02868C06820F0B4
:1038900008002968C86008E02868C06820F01000A7
:1038A0002968C86001E0012600BF00BF7EBB00227E
:1038B00021462868FDF72FFC00BF2868006A41F206
:1038C0001111084050B92868006A8910084028B9C9
:1038D0002868006820F001002968086000BF1CB952
:1038E000012085F83E000EE0042C03D101213F2089
:1038F000415508E0082C03D101214020415502E048
:103900000121412041551CB9012085F842000EE0FB
:10391000042C03D101214320415508E0082C03D198
:1039200001214420415502E0012145204155304606
:1039300070BD704770B50546AC6B606AA84202D195
:103940000120207710E0A06AA84202D1022020774F
:103950000AE0E06AA84202D10420207704E0206B4C
:10396000A84201D1082020772046AFF30080002034
:10397000207770BD704770B50546AC6B606AA84291
:103980000AD101202077E86900282BD1012084F892
:103990003E0084F8420025E0A06AA84209D1022036
:1039A0002077E869F0B901213F20015543200155F6
:1039B00018E0E06AA84209D104202077E86988B9B4
:1039C000012140200155442001550BE0206BA84205
:1039D00008D108202077E86920B90121412001554C
:1039E000452001552046AFF300800020207770BDB0
:1039F0002DE9F05F04460D4616461F464FF0000BBA
:103A000015B994F83E000BE0042D02D13F20005D73
:103A100006E0082D02D14020005D01E04120005D5C
:103A2000814615B994F842000BE0042D02D14320E1
:103A3000005D06E0082D02D14420005D01E0452034
:103A4000005D82467A492068884207D1002D60D007
:103A5000042D5ED0082D5CD00C2D5AD02068B0F11A
:103A6000804F07D1002D54D0042D52D0082D50D0B6
:103A70000C2D4ED06F492068884207D1002D48D0C8
:103A8000042D46D0082D44D00C2D42D06A49206820
:103A9000884206D1EDB3042D3BD0082D39D00C2D32
:103AA00037D066492068884206D195B3042D30D0BE
:103AB000082D2ED00C2D2CD061492068884206D1CB
:103AC0003DB3042D25D0082D23D00C2D21D05D49E8
:103AD0002068884202D1E5B1042D1AD04E492068F1
:103AE000884200D1ADB14D492068884200D185B1EE
:103AF0004B492068884202D15DB1042D09D0494963
:103B00002068884200D125B147492068884201D108
:103B100005B904E040F645114448FCF79AFB4449D6
:103B20002068884213D02068B0F1804F0FD04149FF
:103B3000206888420BD040492068884207D03F491E
:103B40002068884203D03E492068884200D104E0C2
:103B500040F646113548FCF77CFBB9F1020F02D064
:103B6000BAF1020F02D10220BDE8F09FB9F1010FB6
:103B70002FD1BAF1010F2CD106B10FB90120F3E713
:103B80001DB9022084F83E000EE0042D03D102216D
:103B90003F20015508E0082D03D1022140200155A6
:103BA00002E00221412001551DB9022084F84200A3
:103BB00011E0042D03D10221432001550BE0082D13
:103BC00003D102214420015505E002214520015581
:103BD00001E00120C8E7012229462068FDF79BFA91
:103BE00035B1042D3CD0082D57D00C2D72D172E088
:103BF000AFF27D21606AC163AFF2C721606A0164E0
:103C00001149606AC164226802F134013B463246C0
:103C1000606A09F026FC19E00044014000480140B8
:103C200000180040001C0040002000402C09000843
:103C3000000001400004004000080040000C00406B
:103C40000004014000400140150C000808B10120AB
:103C50008AE72068C06840F400702168C8605AE0B4
:103C6000AFF2ED21A06AC163AFF23731A06A0164FF
:103C7000F949A06AC164226802F138013B46324624
:103C8000A06A09F0EEFB08B101206DE72068C0686A
:103C900040F480602168C8603DE0AFF22531E06A01
:103CA000C163AFF26F31E06A0164EB49E06AC1645D
:103CB000226802F13C013B463246E06A09F0D1FB42
:103CC00008B1012050E72068C06840F40060216816
:103CD000C86020E01CE0AFF26131206BC163AFF23D
:103CE000AB31206B0164DC49206BC164226802F1B6
:103CF00040013B463246206B09F0B3FB08B101207E
:103D000032E72068C06840F480502168C86002E053
:103D10004FF0010B00BF00BFD049206888421BD084
:103D20002068B0F1804F17D0CD492068884213D069
:103D3000CC49206888420FD0CB49206888420BD0FC
:103D4000CA492068884207D0C9492068884203D000
:103D5000C849206888420DD12068806800F00708B3
:103D6000B8F1060F0CD02068006840F0010021680F
:103D7000086005E02068006840F0010021680860E4
:103D80005846F1E670B504460D460026B349206852
:103D9000884207D1002D60D0042D5ED0082D5CD064
:103DA0000C2D5AD02068B0F1804F07D1002D54D08F
:103DB000042D52D0082D50D00C2D4ED0A84920688B
:103DC000884207D1002D48D0042D46D0082D44D07C
:103DD0000C2D42D0A3492068884206D1EDB3042DB2
:103DE0003BD0082D39D00C2D37D09F492068884210
:103DF00006D195B3042D30D0082D2ED00C2D2CD00B
:103E00009A492068884206D13DB3042D25D0082D5B
:103E100023D00C2D21D096492068884202D1E5B1EB
:103E2000042D1AD094492068884200D1ADB193493D
:103E30002068884200D185B18E492068884202D12D
:103E40005DB1042D09D08E492068884200D125B18A
:103E50008C492068884201D105B904E04FF41E6105
:103E60008948FCF7F6F97D492068884213D020681C
:103E7000B0F1804F0FD07A49206888420BD0794941
:103E80002068884207D078492068884203D0774963
:103E90002068884200D104E040F6E1117A48FCF73E
:103EA000D8F9002229462068FDF735F935B1042DEF
:103EB0000ED0082D16D00C2D28D11DE02068C0682A
:103EC00020F400702168C860606A09F074FB1FE08C
:103ED0002068C06820F480602168C860A06A09F08A
:103EE0006AFB15E02068C06820F400602168C860A3
:103EF000E06A09F060FB0BE02068C06820F48050A5
:103F00002168C860206B09F056FB01E0012600BF64
:103F100000BF56BB00BF2068006A41F21111084083
:103F200050B92068006A8910084028B920680068E4
:103F300020F001002168086000BF1DB9012084F84D
:103F40003E000EE0042D03D101213F20015508E081
:103F5000082D03D101214020015502E0012141201B
:103F600001551DB9012084F842000EE0042D03D153
:103F700001214320015508E0082D03D101214420EF
:103F8000015502E0012145200155304670BD7047C2
:103F900070B504460D460CB9012070BD2F4920684C
:103FA000884233D02068B0F1804F2FD02C49206850
:103FB00088422BD02B492068884227D02A49206884
:103FC000884223D03149206888421FD03049206878
:103FD00088421BD025492068884217D02449206890
:103FE000884213D02449206888420FD02349206892
:103FF00088420BD01F492068884207D0204920689A
:10400000884203D01F492068884200D104E040F66E
:104010004D211D48FCF71DF9A06858B1A068102873
:1040200008D0A068202805D0A068402802D0A06849
:10403000602800D104E040F64E211348FCF709F94E
:10404000206938B12069B0F5807F03D02069B0F5D0
:10405000007F1FD123E00000150C00080000014084
:104060000004004000080040000C00400004014033
:104070000040014000180040004401400048014059
:10408000001C0040002000402C09000800100040E7
:104090000014004040F64F21FE48FCF7DAF8082DE6
:1040A00000D005B904E04FF42561FA48FCF7D1F8D7
:1040B0002068B0F1804F03D0F7492068884201D1D1
:1040C000012000E0002048B9E06828B1E068B0F5C0
:1040D000803F01D2012006E0002004E0E06808B142
:1040E000012000E0002000B104E040F65121E94841
:1040F000FCF7AFF8A06910B1A069802800D104E0F6
:1041000040F65221E348FCF7A4F894F83D0028B9A2
:10411000002084F83C002046AFF30080022084F8A1
:104120003D00211D2068FCF7E7F92068006820F0B9
:10413000080021680860206800682843216808603A
:10414000012084F8460084F83E0001213F200155FB
:10415000012084F8420043200155012084F83D00ED
:1041600000201AE7704710B50446CC492068884201
:1041700033D02068B0F1804F2FD0C94920688842E1
:104180002BD0C8492068884227D0C349206888427C
:1041900023D0C549206888421FD0C449206888427E
:1041A0001BD0C3492068884217D0C2492068884282
:1041B00013D0C149206888420FD0C0492068884286
:1041C0000BD0BF492068884207D0BE49206888428A
:1041D00003D0BD492068884200D104E040F68C211C
:1041E000AC48FCF736F8022084F83D0000BF206898
:1041F000006A41F21111084050B92068006A891024
:10420000084028B92068006820F001002168086093
:1042100000BF2046AFF30080002084F8460084F8F9
:104220003E0000213F200155002084F84200432039
:104230000155002084F83D0000BF84F83C0000BF19
:1042400010BD2DE9F0470446894694F83E503F20C2
:10425000065D94F84270432010F80480012D06D1C9
:10426000012E04D1012F02D1B8F1010F02D001209B
:10427000BDE8F087022084F83E0002213F2001556E
:10428000022084F8420043200155012200212068C9
:10429000FCF741FF012204212068FCF73CFF7F4925
:1042A0002068884203D082492068884201D10120D9
:1042B00000E0002028B12068406C40F400402168F4
:1042C00048640020D4E770B504460D46002211462C
:1042D0002068FCF720FF002204212068FCF71BFF68
:1042E0006E492068884203D071492068884201D114
:1042F000012000E0002090B100BF2068006A41F278
:104300001111084050B92068006A8910084028B986
:104310002068406C20F400402168486400BF00BF62
:104320002068006A41F21111084050B92068006A03
:104330008910084028B92068006820F00100216831
:10434000086000BF012084F83E0001213F20015594
:10435000012084F8420043200155002070BD2DE962
:10436000F0470446894694F83E503F20065D94F895
:104370004270432010F80480012D06D1012E04D193
:10438000012F02D1B8F1010F02D00120BDE8F08762
:10439000022084F83E0002213F200155022084F8CB
:1043A0004200432001552068C06840F002002168A7
:1043B000C8602068C06840F004002168C86001221D
:1043C00000212068FCF7A7FE012204212068FCF7E9
:1043D000A2FE32492068884203D0354920688842CD
:1043E00001D1012000E0002028B12068406C40F499
:1043F0000040216848640020C8E770B504460D46B7
:104400002068C06820F002002168C8602068C06889
:1044100020F004002168C860002211462068FCF7E3
:104420007AFE002204212068FCF775FE1B492068F3
:10443000884203D01E492068884201D1012000E053
:10444000002090B100BF2068006A41F211110840BD
:1044500050B92068006A8910084028B92068406C6B
:1044600020F400402168486400BF00BF2068006A53
:1044700041F21111084050B92068006A89100840C3
:1044800028B92068006820F001002168086000BF9A
:1044900001201BE02C090008000C00400000014036
:1044A00000040040000800400010004000140040DC
:1044B0000004014000400140004401400048014028
:1044C00000180040001C00400020004084F83E001E
:1044D00001213F200155012084F84200432001556D
:1044E000002070BD70472DE9F04104460D4614B917
:1044F0000120BDE8F081FA49206888421BD020687D
:10450000B0F1804F17D0F7492068884213D0F649A0
:10451000206888420FD0F549206888420BD0F449C2
:104520002068884207D0F3492068884203D0F249C6
:104530002068884200D104E040F6D831EF48FBF70C
:1045400088FEA06858B1A068102808D0A06820286C
:1045500005D0A068402802D0A068602800D104E0FF
:1045600040F6D931E548FBF774FE206938B120697F
:10457000B0F5807F03D02069B0F5007F00D104E062
:1045800040F6DA31DD48FBF764FEA06910B1A0699E
:10459000802800D104E040F6DB31D848FBF759FE13
:1045A0002868012805D02868022802D02868032836
:1045B00000D104E040F6DC31D048FBF74AFEA868A1
:1045C000012805D0A868022802D0A868032800D1D5
:1045D00004E040F6DD31C948FBF73BFEA86901283D
:1045E00005D0A869022802D0A869032800D104E0F8
:1045F00040F6DE31C148FBF72CFE686810B16868F0
:10460000022800D104E040F6DF31BC48FBF721FE70
:10461000686910B16869022800D104E04FF43E6176
:10462000B648FBF716FEE86840B1E868042805D0F4
:10463000E868082802D0E8680C2800D104E040F6B9
:10464000E131AE48FBF705FEE86940B1E8690428AE
:1046500005D0E869082802D0E8690C2800D104E0F8
:1046600040F6E231A548FBF7F4FD28690F2800D891
:1046700004E040F6E331A148FBF7EBFD286A0F2880
:1046800000D804E040F6E4319C48FBF7E2FD2068E6
:10469000B0F1804F03D095492068884201D10120B4
:1046A00000E0002048B9E06828B1E068B0F5803F3C
:1046B00001D2012006E0002004E0E06808B10120FA
:1046C00000E0002000B104E040F6E5318B48FBF744
:1046D000C0FD94F83D0028B9002084F83C00204635
:1046E000AFF30080022084F83D002068806844F227
:1046F0000701884321688860211D2068FBF7FCFEC4
:104700002068D0F80880206886692068076A2868D1
:1047100040EA080840F203308643A969A86840EAE5
:104720000120064340F60C4086434FF2F0008643DA
:10473000E969E86840EA0120064328690001296A1E
:1047400040EA0130064327F0220727F0880769690D
:10475000686840EA011007432068C0F808802068B4
:10476000866120680762012084F8460084F83E00D4
:1047700001213F200155012084F8420043200155CA
:10478000012084F83D000020B3E6704710B50446D0
:1047900053492068884233D02068B0F1804F2FD031
:1047A0005049206888422BD04F492068884227D042
:1047B0004E492068884223D05149206888421FD042
:1047C0005049206888421BD049492068884217D048
:1047D00048492068884213D04B49206888420FD04E
:1047E0004A49206888420BD043492068884207D054
:1047F00047492068884203D046492068884200D152
:1048000004E040F641413D48FBF723FD022084F8D7
:104810003D0000BF2068006A41F21111084050B904
:104820002068006A8910084028B92068006820F0D4
:1048300001002168086000BF2046AFF3008000201F
:1048400084F8460084F83E0000213F2001550020F6
:1048500084F8420043200155002084F83D0000BF49
:1048600084F83C0000BF10BD2DE9F04704460D461A
:1048700094F83E603F20075D94F84280432010F892
:1048800004901749206888421BD02068B0F1804FFF
:1048900017D014492068884213D0134920688842F1
:1048A0000FD01249206888420BD0114920688842F5
:1048B00007D010492068884203D00F4920688842F9
:1048C00000D104E040F696410C48FBF7C2FC4DBB1A
:1048D000012E02D1B8F1010F1ED00120BDE8F087F2
:1048E000000001400004004000080040000C0040AF
:1048F0000004014000400140001800402C0900085D
:1049000000100040001400400044014000480140F5
:10491000001C004000200040022084F83E0084F883
:10492000420026E0042D0DD1012F02D1B9F1010F73
:1049300002D00120BDE8F08702213F20015543202D
:10494000015516E0012E07D1012F05D1B8F1010F55
:1049500002D1B9F1010F01D00120EBE7022084F868
:104960003E0002213F200155022084F842004320EE
:10497000015515B1042D0CD105E00122002120685C
:10498000FCF7C9FB10E0012204212068FCF7C3FBFF
:104990000AE0012200212068FCF7BDFB012204216E
:1049A0002068FCF7B8FB00BF00BF2068006840F03B
:1049B0000100216808600020BCE770B504460D4680
:1049C000FE49206888421BD02068B0F1804F17D084
:1049D000FB492068884213D0FA49206888420FD0EA
:1049E000F949206888420BD0F8492068884207D0EE
:1049F000F7492068884203D0F6492068884200D1F0
:104A000004E040F6EF41F448FBF723FC15B1042D18
:104A10000CD105E0002211462068FCF77CFB10E079
:104A2000002204212068FCF776FB0AE000221146F0
:104A30002068FCF770FB002204212068FCF76BFB68
:104A400000BF00BF00BF2068006A41F2111108409A
:104A500050B92068006A8910084028B920680068A9
:104A600020F001002168086000BF0DB1042D28D19D
:104A70001DB9012084F83E000EE0042D03D1012170
:104A80003F20015508E0082D03D1012140200155A8
:104A900002E00121412001551DB9012084F84200A6
:104AA0001AE0042D03D101214320015514E0082D03
:104AB00003D10121442001550EE00121452001557B
:104AC0000AE0012084F83E0001213F200155012029
:104AD00084F8420043200155002070BD2DE9F047C5
:104AE00004460D4694F83E603F20075D94F84280EE
:104AF000432010F80490B149206888421BD02068F8
:104B0000B0F1804F17D0AE492068884213D0AD492C
:104B1000206888420FD0AC49206888420BD0AB494E
:104B20002068884207D0AA492068884203D0A94952
:104B30002068884200D104E04FF45361A648FBF797
:104B400088FB6DB9012E02D1B8F1010F02D001200E
:104B5000BDE8F087022084F83E0084F8420025E09A
:104B6000042D0CD1012F02D1B9F1010F01D0012088
:104B7000EEE702213F2001554320015516E0012EAA
:104B800007D1012F05D1B8F1010F02D1B9F1010F01
:104B900001D00120DCE7022084F83E0002213F2002
:104BA0000155022084F842004320015515B1042D1F
:104BB00018D10BE0012200212068FCF7ACFA206834
:104BC000C06840F002002168C86022E00122042190
:104BD0002068FCF7A0FA2068C06840F00400216853
:104BE000C86016E0012200212068FCF794FA012237
:104BF00004212068FCF78FFA2068C06840F00200AA
:104C00002168C8602068C06840F004002168C8605E
:104C100000BF00BF2068006840F001002168086004
:104C2000002095E770B504460D4664492068884227
:104C30001BD02068B0F1804F17D0614920688842AE
:104C400013D06049206888420FD05F4920688842AD
:104C50000BD05E492068884207D05D4920688842B1
:104C600003D05C492068884200D104E040F68F51AF
:104C70005948FBF7EEFA5DB9002211462068FCF7AF
:104C80004AFA2068C06820F002002168C86023E06A
:104C9000042D0BD1002204212068FCF73CFA206887
:104CA000C06820F004002168C86015E000221146A9
:104CB0002068FCF730FA002204212068FCF72BFA68
:104CC0002068C06820F002002168C8602068C068C1
:104CD00020F004002168C86000BF2068006A41F22B
:104CE0001111084050B92068006A8910084028B99D
:104CF0002068006820F001002168086000BF0DB145
:104D0000042D28D11DB9012084F83E000EE0042DA9
:104D100003D101213F20015508E0082D03D10121D5
:104D20004020015502E00121412001551DB901201B
:104D300084F842001AE0042D03D1012143200155DB
:104D400014E0082D03D10121442001550EE001217A
:104D5000452001550AE0012084F83E0001213F2052
:104D60000155012084F8420043200155002070BD08
:104D70002DE9FF5F04460D461E460E9F94F83E80C7
:104D80003F2010F8049094F842A0432010F804B09B
:104D90000A49206888422CD02068B0F1804F28D082
:104DA00007492068884224D006492068884220D0DC
:104DB0000549206888421CD004490FE000000140EA
:104DC0000004004000080040000C004000040140C6
:104DD00000400140001800402C090008206888426B
:104DE00007D0FE492068884203D0FD4920688842E8
:104DF00000D104E040F6D651FA48FBF72AFAE5B9AB
:104E0000B8F1020F02D0BAF1020F03D1022004B0B0
:104E1000BDE8F09FB8F1010F0DD1BAF1010F0AD131
:104E2000029800B10FB90120F1E7022084F83E009A
:104E300084F842004BE00120E9E7042D19D1B9F1D3
:104E4000020F02D0BBF1020F01D10220DFE7B9F15E
:104E5000010F0CD1BBF1010F09D106B10FB901202F
:104E6000D5E702213F200155432001552FE00120C5
:104E7000CDE7B8F1020F08D0B9F1020F05D0BAF1B1
:104E8000020F02D0BBF1020F01D10220BFE7B8F13F
:104E9000010F1AD1B9F1010F17D1BAF1010F14D1D5
:104EA000BBF1010F11D1029808B106B10FB9012071
:104EB000ADE7022084F83E0002213F200155022088
:104EC00084F842004320015501E001209FE715B11D
:104ED000042D4CD125E0C449606AC163C349606AAE
:104EE0000164C349606AC164226802F134013B462F
:104EF000606A029A08F0B5FA08B1012087E72068D5
:104F0000C06840F400702168C86001220021206858
:104F1000FCF701F92068006840F001002168086092
:104F20006AE0B149A06AC163B049A06A0164B049AE
:104F3000A06AC164226802F138013B463246A06A89
:104F400008F08FFA08B1012061E72068C06840F4DA
:104F500080602168C860012204212068FCF7DBF82A
:104F60002068006840F001002168086044E09E4924
:104F7000606AC1639D49606A01649D49606AC16459
:104F8000226802F134013B46606A029A08F069FA2D
:104F900008B101203BE79449A06AC1639349A06A24
:104FA00001649349A06AC164226802F138013B465A
:104FB0003246A06A08F055FA08B1012027E72068B8
:104FC000C06840F400702168C8602068C06840F480
:104FD00080602168C860012200212068FCF79BF8EE
:104FE000012204212068FCF796F82068006840F050
:104FF00001002168086000BF00BF002007E770B50E
:1050000004460D467B49206888421BD02068B0F1D9
:10501000804F17D078492068884213D0774920689C
:1050200088420FD07649206888420BD075492068A5
:10503000884207D069492068884203D068492068BF
:10504000884200D104E040F6A5616648FBF701F90B
:1050500075B9002211462068FCF75DF82068C06829
:1050600020F400702168C860606A08F0A4FA2CE09F
:10507000042D0ED1002204212068FCF74CF8206892
:10508000C06820F480602168C860A06A08F093FAC4
:105090001BE0002211462068FCF73DF800220421A5
:1050A0002068FCF738F82068C06820F40070216898
:1050B000C8602068C06820F480602168C860606AA9
:1050C00008F079FAA06A08F076FA00BF2068006A52
:1050D00041F21111084050B92068006A8910084057
:1050E00028B92068006820F001002168086000BF2E
:1050F0000DB1042D28D11DB9012084F83E000EE029
:10510000042D03D101213F20015508E0082D03D1D2
:1051100001214020015502E00121412001551DB926
:10512000012084F842001AE0042D03D1012143201C
:10513000015514E0082D03D10121442001550EE052
:105140000121452001550AE0012084F83E0001219B
:105150003F200155012084F84200432001550020E2
:1051600070BD7047704770B504462068C5682068F8
:10517000066906F00200022819D105F00200022893
:1051800015D1401F216808610120207720688069BF
:1051900000F0030018B12046AFF3008005E0204680
:1051A000AFF300802046AFF300800020207706F0A8
:1051B0000400042830D105F0040004282CD1C04399
:1051C00021680861022020772068806900F440701F
:1051D000D0B12046AFF300801CE000000040014049
:1051E000001800402C0900087739000835390008FC
:1051F000150C0008000001400004004000080040B9
:10520000000C0040000401402046AFF3008020461F
:10521000AFF300800020207706F00800082819D19D
:1052200005F00800082815D1C04321680861042052
:1052300020772068C06900F0030018B12046AFF362
:10524000008005E02046AFF300802046AFF30080E9
:105250000020207706F01000102819D105F010006A
:10526000102815D1C04321680861082020772068E4
:10527000C06900F4407018B12046AFF3008005E02B
:105280002046AFF300802046AFF300800020207757
:1052900006F0010048B105F0010030B16FF00100E7
:1052A000216808612046AFF3008006F08000802866
:1052B00009D105F08000802805D1C043216808612C
:1052C0002046AFF3008006F04000402809D105F0E9
:1052D0004000402805D1C043216808612046AFF353
:1052E000008006F02000202809D105F020002028A9
:1052F00005D1C043216808612046AFF3008070BD2E
:105300002DE9F04104460D46276A206A20F48050BA
:105310002062D4F80480E66926F4E04626F440765C
:10532000286846EA002627F40057A86847EA0037AD
:10533000F948844202D0F948844210D16869B0F536
:10534000807F01D0686900B904E041F6B431F448C7
:10535000FAF77FFF28F48048686948EA8018C4F8A3
:105360000480E661686820642762BDE8F0812DE969
:10537000F04104460D46266A206A20F480702062BF
:105380006768D4F81C8028F0700828F003082868A3
:1053900040EA080826F40076A86846EA0026DE48B7
:1053A000844200D103E0DD48844212D100BFE868A6
:1053B00010B1E868082800D104E041F66731D84808
:1053C000FAF747FF26F40066E86846EA002626F466
:1053D0008066D148844202D0D048844221D1A86955
:1053E000B0F5007F01D0A86900B904E041F674313E
:1053F000CB48FAF72EFF6869B0F5807F01D0686965
:1054000000B904E041F67531C548FAF722FF27F4E8
:10541000805727F40057686947EA0017A86947EAE8
:1054200000176760C4F81C806868E0632662BDE806
:10543000F0812DE9F04104460D46266A206A20F0ED
:10544000100020626768D4F8188028F4E04828F437
:105450004078286848EA002826F02006A86846EA2E
:105460000016AD48844200D103E0AC48844212D11A
:1054700000BFE86810B1E868082800D104E041F6F0
:105480001C31A748FAF7E5FE26F08006E86846EAF0
:10549000001626F04006A048844202D09F4884426D
:1054A00021D1A869B0F5007F01D0A86900B904E056
:1054B00041F629319A48FAF7CCFE6869B0F5807F49
:1054C00001D0686900B904E041F62A319448FAF73E
:1054D000C0FE27F4806727F40067686947EA800701
:1054E000A86947EA80076760C4F818806868A06305
:1054F0002662BDE8F0812DE9F04104460D46266A9A
:10550000206A20F0010020626768D4F8188028F033
:10551000700828F00308286840EA080826F0020608
:10552000A86806437C48844200D103E07B4884425B
:1055300011D100BFE86810B1E868082800D104E084
:1055400041F6D0217648FAF784FE26F00806E8688E
:10555000064326F004067048844202D06F48844215
:105560001FD1A869B0F5007F01D0A86900B904E097
:1055700041F6DD216A48FAF76CFE6869B0F5807F74
:1055800001D0686900B904E041F6DE216448FAF709
:1055900060FE27F4807727F4007768690743A869DD
:1055A00007436760C4F81880686860632662BDE8D6
:1055B000F0812DE9F04104460D46164600273EB124
:1055C000042E05D0082E03D00C2E01D03C2E00D185
:1055D00004E04FF47D615248FAF73BFE286870B151
:1055E000286810280BD02868202808D02868302880
:1055F00005D02868502802D02868402800D104E04F
:1056000040F6D1714648FAF724FEA86810B1A868A0
:10561000022800D104E040F6D2714148FAF719FEA1
:1056200000BF94F83C00012802D10220BDE8F081BF
:10563000012084F83C0000BF36B1042E3FD0082E74
:1056400068D00C2E67D1A2E03349206888422BD065
:105650002068B0F1804F27D032492068884223D09B
:105660003149206888421FD03049206888421BD0C9
:105670002A492068884217D02D492068884213D0D3
:105680002C49206888420FD02B49206888420BD0D3
:105690002A492068884207D029492068884203D0D7
:1056A00028492068884200D104E040F6DC711C489B
:1056B000FAF7CFFD29462068FFF71DFF8CE0164959
:1056C000206888421BD02068B0F1804F17D0154960
:1056D0002068884213D01449206888420FD01349AB
:1056E000206888420BD00D492068884207D01049B5
:1056F0002068884203D011492068884200D104E024
:1057000040F6E6710648FAF7A4FD29462068FFF73F
:1057100090FE61E018E05DE00000014000040140FF
:105720002C0900080004004000080040000C004064
:105730000040014000440140004801400018004082
:10574000001C004000200040FE492068884213D021
:105750002068B0F1804F0FD0FB49206888420BD001
:10576000FA492068884207D0F9492068884203D066
:10577000F8492068884200D104E04FF47F61F64880
:10578000FAF767FD29462068FFF7F1FD24E0ED49AF
:105790002068884213D02068B0F1804F0FD0EA49CA
:1057A000206888420BD0E9492068884207D0E84940
:1057B0002068884203D0E7492068884200D104E08D
:1057C00040F6FA71E448FAF744FD29462068FFF7ED
:1057D00097FD01E0012700BF00BF00BF002084F853
:1057E0003C0000BF384621E770B50C461546026AFA
:1057F000066A26F480560662C16921F4407141EAC6
:10580000052121F470414FF4704606EA0336314316
:1058100022F420424FF4204606EA04363243C161A6
:10582000026270BD70B50C461546026A066A26F41F
:1058300080760662C16921F00301294321F0F0015D
:10584000F02606EA0316314322F420624FF4206664
:1058500006EA04263243C161026270BD70B50C468F
:105860001546026A066A26F010060662816921F46E
:10587000407141EA052121F470414FF4704606EA77
:105880000336314322F0A002A02606EA0416324372
:105890008161026270BD70B50C461546026A066AE7
:1058A00026F0010606628169A64EB04214D0B0F11E
:1058B000804F11D0A44EB0420ED0A44EB0420BD0B7
:1058C000A34EB04208D0A34EB04205D0A34EB04282
:1058D00002D0A34EB04201D1012600E000261EB145
:1058E00021F00301294301E041F0010121F0F00121
:1058F000F02606EA0316314322F00A0204F00A06F3
:1059000032438161026270BD2DE9F04104460D46CB
:10591000164600278B49206888422BD02068B0F1BA
:10592000804F27D088492068884223D08749206843
:1059300088421FD08649206888421BD0854920684C
:10594000884217D085492068884213D0854920684D
:1059500088420FD08449206888420BD08049206853
:10596000884207D081492068884203D08049206856
:10597000884200D104E041F21D017748FAF769FC42
:10598000286828B12868022802D028680A2800D18F
:1059900004E041F21E017048FAF75BFC68680128D8
:1059A00005D06868022802D06868032800D104E0A6
:1059B00041F21F016848FAF74CFCA86840B1A8689A
:1059C000042805D0A868082802D0A8680C2800D1AF
:1059D00004E04FF481516048FAF73BFCE8680F2877
:1059E00000D804E041F221015B48FAF732FC00BF25
:1059F00094F83C00012802D10220BDE8F08101208A
:105A000084F83C0000BF96B9EB68D5E90012206825
:105A1000FFF741FF2068806920F00C002168886151
:105A200020688069A968084321688861BCE0042E69
:105A300039D14449206888421BD02068B0F1804F9A
:105A400017D041492068884213D0404920688842D5
:105A50000FD03F49206888420BD03E4920688842D9
:105A600007D03E492068884203D03D4920688842DB
:105A700000D104E041F237013748FAF7EAFBEB685E
:105A8000D5E900122068FFF7E9FE2068806920F45C
:105A900040602168886120688069A96840EA012027
:105AA0002168886180E0082E30D12649206888422C
:105AB00013D02068B0F1804F0FD02349206888426E
:105AC0000BD022492068884207D0214920688842AB
:105AD00003D020492068884200D104E041F2470108
