:020000040800F2
:1000000010910020618D000825050008858D0008ED
:100010003D050008490500085505000800000000DE
:100020000000000000000000000000006105000862
:1000300069050008000000006B0500087305000852
:100040007B8D00087B8D00087B8D00087B8D000870
:100050007B8D00087B8D00087B8D00087B8D000860
:100060007B8D00087B8D00087B8D00087B8D000850
:100070007B8D00087B8D00087B8D00087B8D000840
:100080007B8D00087B8D00087B8D00087B8D000830
:100090007B8D00087B8D00087B8D00087B8D000820
:1000A0007B8D00087B8D00087B8D00087B8D000810
:1000B0007B8D00087B8D00087B8D00087B8D000800
:1000C0007B8D00087B8D00087B8D00087B8D0008F0
:1000D0007B8D0008870500087B8D00087B8D00085C
:1000E0007B8D00087B8D00087B8D00087B8D0008D0
:1000F0007B8D00087B8D00087B8D00087B8D0008C0
:100100007B8D00087B8D00087B8D00087B8D0008AF
:100110007B8D00087B8D00087B8D00087B8D00089F
:100120007B8D00087B8D00087B8D00087B8D00088F
:100130007B8D000800000000000000007B8D00089F
:100140007B8D00087B8D00087B8D00087B8D00086F
:100150007B8D00087B8D00087B8D00087B8D00085F
:100160007B8D00087B8D00087B8D00087B8D00084F
:100170007B8D00087B8D000800000000000000005F
:100180007B8D00087B8D0008DFF810D008F090FE12
:10019000004800478F030008AFF300801091002053
:1001A0002C4B19680868B0E8F04F80F30988BFF35A
:1001B0006F8F4FF0000080F311887047000000003F
:1001C00008480068006880F308884FF0000080F35A
:1001D000148862B661B6BFF34F8FBFF36F8F00DF35
:1001E00000BF00BF08ED00E0DFF80C00016841F43B
:1001F00070010160704700BF88ED00E0EFF30980F7
:10020000BFF36F8F134B1A681EF0100F08BF20ED5D
:10021000108A20E9F04F106009B44FF0BF0080F35E
:100220001188BFF34F8FBFF36F8F06F03EFD4FF085
:10023000000080F3118809BC19680868B0E8F04F25
:100240001EF0100F08BFB0EC108A80F30988BFF3CE
:100250006F8F70471C000020EFF30580704700008F
:1002600013B50C464FF6FF73012269467D4800F036
:10027000F7FE00981CBD70B50025002600247A48C2
:10028000006840F010007849086096FBF4F04419CB
:10029000214676A008F01EFE70BD38B5002400206F
:1002A00000907148006840F008006F49086000BF86
:1002B00020680090214670A0009A08F00BFE0424EC
:1002C0002068009021466CA0009A08F003FE0324E9
:1002D00020680090214668A0009A08F0FBFD38BD18
:1002E00010B56C496CA008F0F5FDFFF7D6FF10BD06
:1002F00010B56D4968A008F0EDFDFFF7F1FF10BDE6
:1003000010B56A4964A008F0E5FDFFF7F1FF10BDE4
:1003100010B5674960A008F0DDFDFFF7F1FF10BDE3
:1003200010B564495CA008F0D5FDFFF7F1FF10BDE2
:1003300010B5614958A008F0CDFDFFF7F1FF10BDE1
:1003400000240CE04FF47A7006F056FB5BA008F036
:10035000C1FD032C02DBFFF7EBFF00E0641CF1E7BB
:100360001CB501245C4801210023CA02CDE900101C
:100370005AA15D4806F090F80446012C02D106F01F
:10038000ABFE03E0214659A008F0A4FD1CBD04F01B
:100390002CFC00F023F900F053F904F09BFDFFF76B
:1003A000DFFF06E059A008F095FD4FF47A7004F0E5
:1003B00088FCF7E700B593B0302107A808F04EFDA0
:1003C000142102A808F04AFD00BF00200190534804
:1003D000006840F08050514908600846006800F00D
:1003E0008050019000BF00BF00BF002001904C482A
:1003F000006840F480404A4908600846006800F4FC
:100400008040019000BF00BF0220079001200A90A9
:1004100010200B9002200D9000210E9108210F91C9
:10042000A8211091022111910421129107A802F034
:1004300011F908B100F0ACF80F20029002200390EF
:10044000002004904FF4A05005904FF48050069087
:10045000052102A802F056FC08B100F099F813B08B
:1004600000BD0000A080002014ED00E063203D20CE
:1004700025640D0A00000000616464723A3078253A
:100480003032582D76616C75653A307825303858A1
:100490000D0A00006A93000874686973206973206C
:1004A00025732E0D0A000000709300087693000853
:1004B0007C930008829300088893000868656C6C40
:1004C0006F207468697320697320467265655254A1
:1004D0004F532E0D0A000000000000206D61696E70
:1004E0005F7461736B000000410300086D61696E09
:1004F000207461736B206372656174652066616945
:100500006C6564282564292E0D0A000068656C6CF2
:100510006F2071656D752E0D0A0000004038024095
:1005200000700040214922A008F0D4FC00BFFEE783
:1005300023491FA008F0CEFC00BFFEE721491CA004
:1005400008F0C8FC00BFFEE71F4919A008F0C2FC74
:1005500000BFFEE71D4916A008F0BCFC00BFFEE787
:1005600010B5FFF71DFE10BD704710B5FFF746FE32
:1005700010BD10B507F07CF9012801D008F02CFB64
:1005800004F06EFB10BD10B5114801F0B6FD10BDB2
:10059000104907A008F09EFC72B600BFFEE70E49A6
:1005A00003A008F097FC72B600BFFEE78E93000828
:1005B000746869732069732025732E0D0A0000008A
:1005C0009A930008B4930008C6930008D7930008D4
:1005D000A0800020EA930008F893000808B500BF47
:1005E000002000901548006840F00400134908609E
:1005F0000846006800F00400009000BF00BF00BF84
:10060000002000900846006840F08000086008461E
:10061000006800F08000009000BF00BF00BF002015
:1006200000900846006840F0010008600846006835
:1006300000F00100009000BF00BF08BD303802404C
:1006400010B53848384908604FF4E130486000215F
:1006500035488160C16001610C21416100218161E7
:10066000C16100F0D8F908B1FFF792FF10BD10B5D5
:1006700086B00446142101A808F0F0FB294920683F
:10068000884238D100BF002000902848006840F020
:100690001000264908600846006800F0100000902D
:1006A00000BF00BF00BF0020009020481438006841
:1006B00040F001001D49143908600846006800F048
:1006C0000100009000BF00BF4FF4C0600190022005
:1006D000029000200390032004900720059001A9B8
:1006E000134802F0CFFD00221146252003F053FFEE
:1006F000252003F09CFF06B010BD10B50446094943
:10070000206888420DD10948006820F01000074990
:1007100008604FF4C061064802F081FF252003F015
:10072000A2FF10BD00100140A0800020443802400C
:100730000000024008B500BF002000900E4800688D
:1007400040F480400C4908600846006800F480408E
:10075000009000BF00BF00BF00200090081F00688D
:1007600040F08050091F08600846006800F0805083
:10077000009000BF00BF08BD443802402DE9FC5F77
:100780000446FE496068884200D804E040F675617E
:10079000FBA0FFF704FFE06818B1E068B0F5005F68
:1007A00000D104E040F67661F5A0FFF7F8FE20697D
:1007B00038B12069B0F5806F03D02069B0F5C06F03
:1007C00000D104E040F67761EDA0FFF7E8FE4FF6B8
:1007D000F3716069084010B9606900B104E040F647
:1007E0007861E7A0FFF7DBFE2068006920F4405045
:1007F000E1680843216808612169A06808436169CC
:100800000843E16940EA010A2068C06849F20C61C6
:10081000884340EA0A002168C8602068406920F4E3
:100820004070A169084321684861E4492068884212
:1008300003D0E3492068884203D102F05DFC814681
:1008400002E002F04EFC8146E069B0F5004F70D145
:1008500002206168A0FB015003461920A9FB00712A
:100860002A46384608F0B0FA6421B0FBF1F00701DF
:1008700002206168A0FB015003461920A9FB00B0CB
:1008800001462A46584608F09FFA804602206168D1
:10089000A0FB01511920A9FB00B084462A460B4653
:1008A0005846614608F090FA6421B0FBF1F000EB85
:1008B000C00101EB0010A8EB8000322101EBC00069
:1008C0006421B0FBF1F000F0F80007EB40070220D4
:1008D0006168A0FB015003461920A9FB00B0014646
:1008E0002A46584608F070FA804602206168A0FB4C
:1008F00001511920A9FB00B084462A460B465846F0
:10090000614608F061FA6421B0FBF1F000EBC00130
:1009100001EB0010A8EB8000322101EBC000642144
:10092000B0FBF1F000F007003844216888606FE008
:10093000FFE704206168A0FB015003461920A9FBD2
:10094000007001462A46384608F03EFA83460420E5
:100950006168A0FB015003461920A9FB0070014605
:100960002A46384608F030FA6421B0FBF1F000EB7B
:10097000C00101EB0010ABEB8000322101EB001055
:100980006421B0FBF1F000F0F00B04206168A0FBE3
:1009900001511920A9FB007080462A460B463846B3
:1009A000414608F011FA6421B0FBF1F00BEB001B9B
:1009B00004206168A0FB01511920A9FB007080464A
:1009C0002A460B463846414608F0FEF90746042001
:1009D0006168A0FB01510B461920A9FB00012A46C2
:1009E000CDE9000108F0F0F96421B0FBF1F000EB73
:1009F000C00101EB0010A7EB8000322101EB0010D9
:100A00006421B0FBF1F000F00F00584421688860C9
:100A1000BDE8FC9F704710B504460CB9012010BD1D
:100A2000A06900282AD06549206888420BD0654912
:100A30002068884207D064492068884203D0604912
:100A40002068884200D104E040F273114CA0FFF707
:100A5000A6FDA06958B1A069B0F5807F07D0A06954
:100A6000B0F5007F03D0A069B0F5407F00D123E04E
:100A70004FF4BA7142A0FFF792FD1DE04F49206884
:100A8000884213D04F49206888420FD04E492068D1
:100A900088420BD04D492068884207D04C492068D5
:100AA000884203D046492068884200D104E04FF4D0
:100AB000BC7133A0FFF773FDA06818B1A068B0F552
:100AC000805F00D104E04FF4BD712DA0FFF767FDFA
:100AD000E06918B1E069B0F5004F00D104E040F2E0
:100AE0007B1127A0FFF75BFD94F8410028B9002097
:100AF00084F840002046FFF7BAFD242084F8410026
:100B00002068C06820F400502168C8602046FFF7C4
:100B100035FE2068006920F4904021680861206853
:100B2000406920F02A00216848612068C06840F4CC
:100B300000502168C86000206064202084F84100D3
:100B400084F842000020606300BF68E710B50446E7
:100B50000CB9012010BD19492068884240D01949BC
:100B6000206888423CD018492068884238D017490C
:100B70002068884234D0164920682BE0A037A000B6
:100B80002E2E2F447269766572732F53544D333273
:100B9000463478785F48414C5F4472697665722FBD
:100BA0005372632F73746D3332663478785F686183
:100BB0006C5F756172742E630000000000100140CC
:100BC000001401400044004000480040004C004038
:100BD00000500040884203D0F8492068884200D184
:100BE00005E04FF4DE71AFF26800FFF7D8FCA068B3
:100BF00018B1A068B0F5805F00D105E040F2BD11EA
:100C0000AFF28400FFF7CBFCE06918B1E069B0F502
:100C1000004F00D105E04FF4DF71AFF29C00FFF709
:100C2000BEFC94F8410028B9002084F8400020461A
:100C3000FFF71DFD242084F841002068C06820F4DF
:100C400000502168C8602046FFF798FD20680069C1
:100C500020F49040216808612068406920F022005B
:100C6000216848612068406940F0080021684861B7
:100C70002068C06840F400502168C86000206064AB
:100C8000202084F8410084F842000020606300BF07
:100C900060E770B504460D460CB9012070BDC84927
:100CA0002068884213D0C749206888420FD0C649BF
:100CB000206888420BD0C5492068884207D0C449C3
:100CC0002068884203D0BD492068884200D105E0F1
:100CD00040F20621AFF25810FFF761FC0DB1202D54
:100CE00000D105E040F20921AFF26C10FFF757FC8C
:100CF000A06800B905E040F20A21AFF27C10FFF7CE
:100D00004EFCE06900B905E040F20B21AFF2901013
:100D1000FFF745FC94F8410028B9002084F8400012
:100D20002046FFF7A4FC242084F841002068C06816
:100D300020F400502168C8602046FFF71FFD20689E
:100D4000006920F40060216808612068406920F093
:100D50002A00216848612068006940F480402168C9
:100D600008612068006920F020002168086120687F
:100D700000692843216808612068C06840F4005079
:100D80002168C86000206064202084F8410084F855
:100D900042000020606300BF80E770B504460E4645
:100DA00015460CB9012070BD85492068884213D0D2
:100DB0008449206888420FD08349206888420BD03C
:100DC00082492068884207D081492068884203D040
:100DD0007A492068884200D105E04FF41671AFF2DD
:100DE0006020FFF7DCFB15B1B5F5006F00D105E021
:100DF00040F25B21AFF27820FFF7D1FB0F2E00D835
:100E000005E04FF41771AFF28820FFF7C8FBA06828
:100E100018B1A068B0F5805F00D105E040F25D2117
:100E2000AFF2A420FFF7BBFBE06918B1E069B0F5B1
:100E3000004F00D105E040F25E21AFF2BC20FFF789
:100E4000AEFB94F8410028B9002084F84000204609
:100E5000FFF70DFC242084F841002068C06820F4CE
:100E600000502168C8602046FFF788FC20680069B0
:100E700020F49040216808612068406920F02A0031
:100E8000216848612068006920F00F00216808612E
:100E9000206800693043216808612068C06820F438
:100EA00000602168C8602068C06828432168C86065
:100EB0002068C06840F400502168C8600020606469
:100EC000202084F8410084F842000020606300BFC5
:100ED00069E7704710B504460CB9012010BD3849C8
:100EE0002068884213D03749206888420FD036499D
:100EF000206888420BD035492068884207D03449A1
:100F00002068884203D02D492068884200D105E03E
:100F100040F2A621AFF29830FFF741FB242084F87D
:100F200041002068C06820F400502168C860204655
:100F3000FFF7E3FB0020606484F8410084F842007E
:100F40002063606300BF84F8400000BF00BFC5E7B6
:100F500000BF00BF02680C3252E8002F22F49071EB
:100F600002680C3242E80013002BF3D100BF00BF2F
:100F700000BF0268143252E8002F22F0010102681B
:100F8000143242E80013002BF3D100BF016B01299A
:100F90000ED100BF00BF02680C3252E8002F22F0D1
:100FA000100102680C3242E80013002BF3D100BF9D
:100FB000202180F842100021016370470014014095
:100FC000001001400044004000480040004C004038
:100FD000005000402DE9F84304460D461746984658
:100FE000089E31E0701C70B303F042FEA0EB0800D5
:100FF000B04200D816B90320BDE8F8832068C06865
:1010000000F00400F8B1802D1ED0402D1CD02068C7
:101010000068C0F3C000B0B100BF0020009020689D
:101020000068009020684068009000BF00BF204624
:10103000FFF78EFF0820606400BF002084F84000A6
:1010400000BF0120D8E7FFE7206800682840A842D9
:1010500001D1012000E00020B842C3D00020CBE73E
:101060002DE9F84F04460E46174699464FF0000A00
:1010700094F84100202850D106B117B90120BDE8ED
:10108000F88F00206064212084F8410003F0F0FD17
:101090008246A784E784A068B0F5805F04D1206908
:1010A00010B90025B04602E035464FF000081EE0BA
:1010B0005346002280212046CDF80090FFF78AFF9A
:1010C00020B1202084F841000320D8E745B9B8F8C2
:1010D0000000C0F308002168486008F1020803E03E
:1010E0002878216848606D1CE08C401EE084E08C0C
:1010F0000028DDD15346002240212046CDF8009043
:10110000FFF768FF20B1202084F841000320B6E7F4
:10111000202084F841000020B1E70220AFE72DE94C
:10112000F84F04460E46174699464FF0000A94F8C9
:101130004200202852D106B117B90120BDE8F88F2E
:1011400000206064222084F842000020206303F025
:101150008FFD8246A785E785A068B0F5805F04D142
:10116000206910B90025B04602E035464FF000086E
:101170002CE05346002220212046CDF80090FFF7B6
:1011800029FF20B1202084F842000320D6E745B98A
:1011900020684068C0F30800A8F8000008F10208C1
:1011A00011E0A068B0F5805F03D0A06828B920697D
:1011B00018B920684068287004E02068406800F092
:1011C0007F0028706D1CE08D401EE085E08D0028BA
:1011D000CFD1202084F842000020AFE70220ADE705
:1011E00010B5034693F84100202813D101B10AB984
:1011F000012010BD19629A84DA84002058642120ED
:1012000083F841001868C06840F080001C68E06006
:101210000020EEE70220ECE710B5034699629A85BC
:10122000DA8500205864222083F84200186928B12A
:101230001868C06840F480701C68E06018684069F5
:1012400040F001001C6860611868C06840F0200030
:101250001C68E060002010BD70B504460D461646BF
:1012600094F8420020280BD105B10EB9012070BDC1
:1012700000202063324629462046FFF7CDFFF6E7DF
:101280000220F4E7704700BF00BF02680C3252E84A
:10129000002F22F0C00102680C3242E80013002B3C
:1012A000F3D100BF202180F84110704770B5064689
:1012B0000025B46B20684069C0F3C01594F8410064
:1012C000212805D125B10020E0842046FFF7DBFF6F
:1012D00020684069C0F3801594F84200222805D1A7
:1012E00025B10020E0852046FFF732FE606C40F01B
:1012F000100060642046FFF7C5FF70BD704770B5F1
:101300000446A56B2846FFF7F9FF70BD704770B51E
:101310000546AC6B2868006800F48070F8B90020BE
:10132000E08400BF00BF2168143151E8001F21F0A4
:1013300080002168143141E80002002AF3D100BF87
:1013400000BF00BF21680C3151E8001F41F0400090
:1013500021680C3141E80002002AF3D102E0204666
:10136000FFF7D4FF70BDF7B50446154694F8410069
:10137000202836D1019800B10DB90120FEBD019899
:101380002062A584E58400206064212084F8410067
:10139000FC48A16BC863FC48A16B0864FB48A16BC7
:1013A000C8640020A16B086501AE23681A1D31686E
:1013B0002B46A06B02F0B7FD6FF04000216808607B
:1013C00000BF00BF2168143151E8001F41F08000C8
:1013D0002168143141E80002002AF3D100BF002047
:1013E000CCE70220CAE77047704770B50546AC6B82
:1013F00001206063206B012805D1A08D41082046A3
:10140000FFF7F2FF02E02046FFF7EDFF70BD7047E7
:1014100070B50546AC6B2868006800F48070002841
:1014200042D1E08500BF00BF21680C3151E8001FA8
:1014300021F4807021680C3141E80002002AF3D1C8
:1014400000BF00BF00BF2168143151E8001F21F028
:1014500001002168143141E80002002AF3D100BFE5
:1014600000BF00BF2168143151E8001F21F0400087
:101470002168143141E80002002AF3D100BF202086
:1014800084F84200206B01280ED100BF00BF216804
:101490000C3151E8001F21F0100021680C3141E8A7
:1014A0000002002AF3D100BF00206063206B0128F6
:1014B00004D1A18D2046FFF797FF02E02046FFF7F9
:1014C000A6FF70BD77B581B0044615460298A062AC
:1014D000A58500206064222084F84200AC48E16BBE
:1014E000C863AC48E16B0864A848E16BC86400209D
:1014F000E16B086502AE32682368191D2B46E06B6C
:1015000002F011FD00BF00200090206800680090EC
:1015100020684068009000BF00BF206970B100BF24
:1015200000BF21680C3151E8001F41F48070216830
:101530000C3141E80002002AF3D100BF00BF00BF18
:101540002168143151E8001F41F001002168143175
:1015500041E80002002AF3D100BF00BF00BF2168AC
:10156000143151E8001F41F040002168143141E876
:101570000002002AF3D100BF002004B070BD70B596
:1015800004460D46164694F8420020280BD105B1BA
:101590000EB9012070BD0020206332462946204646
:1015A000FFF790FFF6E70220F4E710B501460022AE
:1015B00008684069C0F3C01291F8410021280FD19A
:1015C00072B100BF00BF0B68143353E8003F23F033
:1015D00080000B68143343E80004002CF3D100BFF3
:1015E00008684069C0F3801291F8420022282DD18A
:1015F00062B300BF00BF0B680C3353E8003F23F415
:1016000080700B680C3343E80004002CF3D100BF5A
:1016100000BF00BF0B68143353E8003F23F0010004
:101620000B68143343E80004002CF3D100BF00BF63
:1016300000BF0B68143353E8003F23F040000B68F1
:10164000143343E80004002CF3D100BF002010BD88
:1016500008B5014691F8410021280ED100BF00BF16
:101660000A68143252E8002F42F080000A681432EF
:1016700042E80003002BF3D100BF91F8420022287A
:1016800039D100BF00200090086800680090086809
:101690004068009000BF00BF086970B100BF00BF84
:1016A0000A680C3252E8002F42F480700A680C324B
:1016B00042E80003002BF3D100BF00BF00BF0A685F
:1016C000143252E8002F42F001000A68143242E856
:1016D0000003002BF3D100BF00BF00BF0A68143223
:1016E00052E8002F42F040000A68143242E800033A
:1016F000002BF3D100BF002008BD70B504460025C3
:1017000020684069C0F3C01594F84100212817D122
:10171000B5B100BF00BF2168143151E8001F21F0AE
:1017200080002168143141E80002002AF3D100BF93
:10173000A06B10B1A06B02F04AFC2046FFF7A3FD9E
:1017400020684069C0F3801594F84200222817D120
:10175000B5B100BF00BF2168143151E8001F21F06E
:1017600040002168143141E80002002AF3D100BF93
:10177000E06B10B1E06B02F02AFC2046FFF7E8FBBB
:10178000002070BD0F130008FF120008AD12000802
:1017900011140008EB1300082DE9F84F04460F461A
:1017A00090461D46DDF828A094F84200202878D104
:1017B00017B1B8F1000F02D10120BDE8F88F002069
:1017C0006064222084F842000120206300206063CE
:1017D00003F04EFA8346A4F82C80A4F82E80A0686B
:1017E000B0F5805F04D1206910B90026B94602E047
:1017F0003E464FF000090020288053E02068006832
:1018000000F01000102813D100BF002000902068C5
:101810000068009020684068009000BF00BF2888E2
:1018200030B102206063202084F842000020C4E729
:101830002068006800F02000202821D146B92068E7
:101840004068C0F30800A9F8000009F1020911E09E
:10185000A068B0F5805F03D0A06828B9206918B9E6
:1018600020684068307004E02068406800F07F0025
:101870003070761C2888401C2880E08D401EE08552
:101880000AF1010070B103F0F3F9A0EB0B00504531
:1018900002D8BAF1000F05D1202084F842000320BD
:1018A0008BE70BE0E08D0028A8D1A08DE18D401AD8
:1018B0002880202084F8420000207EE702207CE778
:1018C000F8B504460E46174694F8420020282ED15B
:1018D00006B10FB90120F8BD01202063002060632C
:1018E0003A4631462046FFF797FC0546EDB9206B96
:1018F000012819D100BF00200090206800680090E6
:1019000020684068009000BF00BF00BF00BF216892
:101910000C3151E8001F41F0100021680C3141E802
:101920000002002AF3D100E001252846D3E7022077
:10193000D1E7F8B504460E46174694F84200202831
:101940002ED106B10FB90120F8BD0120206300207F
:1019500060633A4631462046FFF7B4FD0546EDB9CF
:10196000206B012819D100BF00200090206800687A
:10197000009020684068009000BF00BF00BF00BF1B
:1019800021680C3151E8001F41F0100021680C3132
:1019900041E80002002AF3D100E001252846D3E700
:1019A0000220D1E70146486B704710B5044600BFDE
:1019B00000BF21680C3151E8001F21F4F07021684C
:1019C0000C3141E80002002AF3D100BF00BF00BF84
:1019D0002168143151E8001F21F001002168143101
:1019E00041E80002002AF3D100BF206B01280ED18C
:1019F00000BF00BF21680C3151E8001F21F010002A
:101A000021680C3141E80002002AF3D100BF2068B0
:101A1000406900F08000802820D100BF00BF21680D
:101A2000143151E8001F21F080002168143141E891
:101A30000002002AF3D100BFA06B78B10020A16B97
:101A40000865A06B02F0C3FA40B1A06B02F06BFD19
:101A5000202803D110206064032010BD2068406955
:101A600000F04000402820D100BF00BF21681431A1
:101A700051E8001F21F040002168143141E80002C4
:101A8000002AF3D100BFE06B78B10020E16B08655C
:101A9000E06B02F09CFA40B1E06B02F044FD2028BC
:101AA00003D1102060640320D7E70020E084E085A4
:101AB0006064202084F8420084F841000020206304
:101AC00000BFCAE710B5044600BF00BF21680C3153
:101AD00051E8001F21F0C00021680C3141E80002EC
:101AE000002AF3D100BF2068406900F08000802800
:101AF00020D100BF00BF2168143151E8001F21F040
:101B000080002168143141E80002002AF3D100BFAF
:101B1000A06B78B10020A16B0865A06B02F057FAAA
:101B200040B1A06B02F0FFFC202803D110206064BC
:101B3000032010BD0020E084202084F84100002014
:101B4000F7E710B5044600BF00BF21680C3151E82B
:101B5000001F21F4907021680C3141E80002002A36
:101B6000F3D100BF00BF00BF2168143151E8001F4E
:101B700021F001002168143141E80002002AF3D16C
:101B800000BF206B01280ED100BF00BF21680C31BF
:101B900051E8001F21F0100021680C3141E80002DB
:101BA000002AF3D100BF2068406900F040004028BF
:101BB00020D100BF00BF2168143151E8001F21F07F
:101BC00040002168143141E80002002AF3D100BF2F
:101BD000E06B78B10020E16B0865E06B02F0F7F98B
:101BE00040B1E06B02F09FFC202803D1102060641C
:101BF000032010BD0020E085202084F84200002052
:101C0000206300BFF5E7704770B50546AC6B002058
:101C1000E16B0865A06B18B1A06B006D00B170BDE1
:101C20000020E084E0856064202084F8410084F88E
:101C30004200002020632046FFF7E5FF00BFEEE7EB
:101C400070B50546AC6B0020A16B0865E06B18B160
:101C5000E06B006D00B170BD0020E084E085606441
:101C6000202084F8410084F84200002020632046B0
:101C7000FFF7C9FF00BFEEE770B50446012500BFBE
:101C800000BF21680C3151E8001F21F4F070216879
:101C90000C3141E80002002AF3D100BF00BF00BFB1
:101CA0002168143151E8001F21F00100216814312E
:101CB00041E80002002AF3D100BF206B01280ED1B9
:101CC00000BF00BF21680C3151E8001F21F0100057
:101CD00021680C3141E80002002AF3D100BFA06B5B
:101CE00060B12068406900F08000802803D1FA4884
:101CF000A16B086502E00020A16B0865E06B60B194
:101D00002068406900F04000402803D1F348E16BAF
:101D1000086502E00020E16B08652068406900F07A
:101D20008000802819D100BF00BF2168143151E81C
:101D3000001F21F080002168143141E80002002AD0
:101D4000F3D100BFA06B40B1A06B02F096F918B1BF
:101D50000020A16B086500E000252068406900F0C4
:101D6000400040281AD100BF00BF2168143151E85B
:101D7000001F21F040002168143141E80002002AD0
:101D8000F3D100BFE06B48B1E06B02F076F920B10F
:101D90000020E16B0865012500E00025012D0DD133
:101DA0000020E084E0856064202084F8410084F80D
:101DB0004200002020632046FFF725FF002070BD71
:101DC000704770B50546AC6B0020E084202084F895
:101DD00041002046FFF7F4FF70BD10B5044600BF78
:101DE00000BF21680C3151E8001F21F0C0002168BC
:101DF0000C3141E80002002AF3D100BF206840699D
:101E000000F08000802824D100BF00BF2168143179
:101E100051E8001F21F080002168143141E80002E0
:101E2000002AF3D100BFA06B50B1AD48A16B08658B
:101E3000A06B02F022F9A0B1A06B016D884710E001
:101E40000020E084202084F841002046FFF7B8FFFE
:101E500007E00020E084202084F841002046FFF7BE
:101E6000AFFF002010BD704770B50546AC6B002079
:101E7000E085202084F84200002020632046FFF700
:101E8000F2FF70BD10B5044600BF00BF21680C31E1
:101E900051E8001F21F4907021680C3141E80002E4
:101EA000002AF3D100BF00BF00BF2168143151E800
:101EB000001F21F001002168143141E80002002ACE
:101EC000F3D100BF206B01280ED100BF00BF2168F5
:101ED0000C3151E8001F21F0100021680C3141E85D
:101EE0000002002AF3D100BF2068406900F04000E2
:101EF000402826D100BF00BF2168143151E8001FDF
:101F000021F040002168143141E80002002AF3D199
:101F100000BFE06B50B17348E16B0865E06B02F005
:101F2000ACF8C0B1E06B016D884714E00020E0859B
:101F3000202084F84200002020632046FFF793FF12
:101F400009E00020E085202084F842000020206382
:101F50002046FFF788FF002010BD10B5044620681A
:101F6000C06820F040002168C860202084F841004B
:101F70002046FFF7CBF9002010BD014691F8410043
:101F8000212828D18868B0F5805F0BD1086948B94D
:101F90000A6A1088C0F308000B685860086A801C41
:101FA000086205E00B6A581C086218780B685860D4
:101FB000C88C401E80B2C88458B90868C06820F038
:101FC00080000B68D8600868C06840F040000B686B
:101FD000D860002070470220FCE770B50546AC6B66
:101FE0000020E085E0842046FFF74CF970BDF8B58D
:101FF000044694F8420022287DD1A068B0F5805FA5
:102000000CD1206950B90025A66A20684068C0F349
:1020100008003080A06A801CA06215E0A56A002636
:10202000A068B0F5805F03D0A06828B9206918B90E
:1020300020684068287004E02068406800F07F0055
:102040002870A06A401CA062E08D401E80B2E0852E
:1020500000284ED12068C06820F020002168C860A8
:102060002068C06820F480702168C86020684069DA
:1020700020F0010021684861202084F842000020FF
:102080006063206B01282FD10020206300BF00BFB8
:1020900021680C3151E8001F21F0100021680C313B
:1020A00041E80002002AF3D100BF2068006800F078
:1020B000100010280AD100BF00200090206800689E
:1020C000009020684068009000BF00BFA18D2046AE
:1020D000FFF78AF90BE00EE0411C0008091C00081C
:1020E000C31D0008691E00082046FFF790F9002074
:1020F000F8BD0020FCE70220FAE72DE9F84F04467E
:10210000206805682068C668206847694FF00009A4
:10211000CA4605F00F09B9F1000F0AD105F02000F9
:1021200038B106F0200020B12046FFF760FFBDE87F
:10213000F88FB9F1000F7CD007F0010018B906F450
:102140009070002875D005F0010030B106F4807061
:1021500018B1606C40F00100606405F0040030B11B
:1021600007F0010018B1606C40F00200606405F0F7
:10217000020030B107F0010018B1606C40F00400BB
:10218000606405F0080048B106F0200010B907F0BF
:10219000010018B1606C40F008006064606C0028B9
:1021A00046D005F0200028B106F0200010B12046EE
:1021B000FFF71DFF20684069C0F3801A606C00F0D3
:1021C000080010B9BAF1000F2DD02046FEF7C0FE6E
:1021D0002068406900F04000402820D100BF00BFC7
:1021E0002168143151E8001F21F0400021681431AA
:1021F00041E80002002AF3D100BFE06B50B1F9487A
:10220000E16B0865E06B01F038FF88B1E06B016DB0
:1022100088470DE02046FFF735F809E009E0204641
:10222000FFF730F804E02046FFF72CF80020606448
:102230007DE7206B012878D105F01000002874D0CC
:1022400006F010000028FAD000BF0020009020689F
:102250000068009020684068009000BF00BF2068C0
:10226000406900F04000402860D1E06B00684068A1
:102270001FFA80F8B8F1000F56D0A08D404553DD0D
:10228000A4F82E80E06BC069B0F5807F43D000BF1A
:1022900000BF21680C3151E8001F21F480702168D3
:1022A0000C3141E80002002AF3D100BF00BF00BF9B
:1022B0002168143151E8001F21F001002168143118
:1022C00041E80002002AF3D100BF00BF00BF21682F
:1022D000143151E8001F21F040002168143141E819
:1022E0000002002AF3D100BF202084F84200002021
:1022F000206300BF00BF21680C3151E8001F21F0AE
:10230000100021680C3141E80002002AF3D100BF1F
:10231000E06B01F05CFE02206063A08DE28D801A0C
:1023200081B22046FFF760F801E742E0A08DE18D21
:10233000401A1FFA80F8E08DD0B3B8F1000F37D003
:1023400000BF00BF21680C3151E8001F21F49070DC
:1023500021680C3141E80002002AF3D100BF00BF20
:1023600000BF2168143151E8001F21F001002168ED
:10237000143141E80002002AF3D100BF202084F884
:1023800042000020206300BF00BF21680C3151E8EB
:10239000001F21F0100021680C3141E80002002AE2
:1023A000F3D100BF0220606341462046FFF71CF8CE
:1023B000BDE605F0800030B106F0800018B120467F
:1023C000FFF7DBFDB3E605F0400030B106F040005A
:1023D00018B12046FFF7C1FDA9E600BFA7E610B57A
:1023E000044681492068884213D080492068884289
:1023F0000FD07F49206888420BD07E4920688842F0
:1024000007D07D492068884203D07C4920688842F3
:1024100000D104E040F6C4217948FEF7C0F800BFBF
:1024200094F84000012801D1022010BD012084F859
:10243000400000BF242084F8410000BF00BF216895
:102440000C3151E8001F41F0010021680C3141E8D6
:102450000002002AF3D100BF202084F8410000BF11
:10246000002084F8400000BF00BFDEE710B504463E
:102470005D492068884213D05C49206888420FD0AB
:102480005B49206888420BD05A492068884207D0AF
:1024900059492068884203D058492068884200D1B1
:1024A00004E040F6DF215648FEF779F800BF94F8C3
:1024B0004000012801D1022010BD012084F8400015
:1024C00000BF242084F8410000BF00BF21680C3108
:1024D00051E8001F41F0020021680C3141E8000280
:1024E000002AF3D100BF202084F84100002060635F
:1024F00000BF84F8400000BF00BFDDE710B5044610
:1025000039492068884213D03849206888420FD062
:102510003749206888420BD036492068884207D066
:1025200035492068884203D034492068884200D168
:1025300004E040F6FB213248FEF731F800BF94F882
:102540004000012801D1022010BD012084F8400084
:1025500000BF242084F8410000BF00BF21680C3177
:1025600051E8001F21F0020021680C3141E800020F
:10257000002AF3D100BF202084F8410000206063CE
:1025800000BF84F8400000BF00BFDDE70146002225
:1025900000BF91F84000012801D1022070470120BE
:1025A00081F8400000BF242081F841000868C2681B
:1025B00022F00C0242F008020868C260202081F874
:1025C000410000BF002081F8400000BF00BFE5E7E8
:1025D0000146002200BF91F84000012812D10220DC
:1025E00070470000DB1F000800100140004400405D
:1025F00000480040004C00400050004000140140E2
:10260000800B0008012081F8400000BF242081F8E1
:1026100041000868C26822F00C0242F00402086817
:10262000C260202081F8410000BF002081F84000F6
:1026300000BF00BFD4E701460022002391F84120EB
:1026400091F8423042EA030070470146486C7047F7
:1026500000207047F8B504460CB90120F8BD206889
:102660000F2800D803E0E621FBA0FDF798FF2078B3
:1026700000F00100002870D0606838B16068B0F5E3
:10268000803F03D06068B0F5A02F00D103E0EB21BC
:10269000F1A0FDF784FFFE48006800F00C0004285C
:1026A0000DD0FB48006800F00C00082813D1F84852
:1026B000001F006800F48000B0F5800F0BD1F448D3
:1026C00008380068C0F34040002859D060680028EE
:1026D00056D10120C2E700BF6068B0F5803F08D145
:1026E000EB480838006840F48030E9490839086050
:1026F0001EE06068B0F5A02F0DD1E54808380068ED
:1027000040F48020E249083908600846006840F437
:10271000803008600CE0DE480838006820F4803023
:10272000DB49083908600846006820F4802008600A
:1027300000BF606890B102F09BFA054606E002F027
:1027400097FA401B642801D9032087E7D04808384E
:102750000068C0F340400028F1D011E002F088FA90
:10276000054606E002F084FA401B642801D90320E4
:1027700074E7C74808380068C0F340400028F1D12A
:10278000207800F00200022873D1E06810B1E06800
:10279000012800D104E040F21D11AFA0FDF7FFFEBB
:1027A00020691F2800D804E04FF48F71AAA0FDF71C
:1027B000F6FEB748006800F00C0058B1B448006855
:1027C00000F00C0008281CD1B148001F006800F47C
:1027D0008000B0B9AE4808380068C0F3400020B1AE
:1027E000E068012801D0012038E7A94808380068CE
:1027F00020F0F800216940EAC100A54908390860C5
:1028000037E0E06800B30120A249086002F030FA26
:10281000054606E002F02CFA401B022801D90320ED
:102820001CE79B4808380068C0F340000028F1D03E
:1028300097480838006820F0F800216940EAC10094
:1028400093490839086014E000209249086002F0BA
:102850000FFA054606E002F00BFA401B022801D9E8
:102860000320FBE68A4808380068C0F340000028CF
:10287000F1D1207800F00800082837D1606910B144
:102880006069012800D104E04FF4AF7172A0FDF738
:1028900086FE6069A8B101207F49086002F0E8F96E
:1028A000054606E002F0E4F9401B022801D90320A6
:1028B000D4E677486C300068C0F340000028F1D0BF
:1028C00014E000207449086002F0D2F9054606E0E1
:1028D00002F0CEF9401B022801D90320BEE66C4865
:1028E0006C300068C0F340000028F1D1207800F07F
:1028F0000400042875D10027A06828B1A068012829
:1029000002D0A068052800D104E04FF4C57152A0A0
:10291000FDF745FE5E483830006800F0805090B901
:1029200000BF002000905A483830006840F08050C6
:102930005749383108600846006800F08050009020
:1029400000BF00BF01275548006800F48070B0B98F
:102950005248006840F480705049086002F088F9DD
:10296000054606E002F084F9401B022801D9032045
:1029700074E64A48006800F480700028F2D000BF76
:10298000A068012808D142486830006840F0010082
:102990003F49683108601DE0A06805280DD13C481A
:1029A0006830006840F00400394968310860084622
:1029B000006840F0010008600CE0354868300068AD
:1029C00020F001003249683108600846006820F0B4
:1029D0000400086000BFA068A8B102F049F90546EC
:1029E00009E02FE002F044F9401B41F288318842AF
:1029F00001D9032032E6264868300068C0F3400061
:102A00000028EFD013E002F033F9054608E002F0A9
:102A10002FF9401B41F28831884201D903201DE67D
:102A20001B4868300068C0F340000028EFD1012F38
:102A300007D117483830006820F0805014493831E9
:102A4000086000BFA06928B1A069012802D0A06970
:102A5000022825D12AE000002E2E2F4472697665C7
:102A600072732F53544D3332463478785F48414C5B
:102A70005F4472697665722F5372632F73746D337E
:102A800032663478785F68616C5F7263632E6300CE
:102A90000838024000004742800E47420070004064
:102AA00040F2CD11AFF25000FDF779FDA06900288A
:102AB0007ED0F948006800F00C00082879D0A069A1
:102AC000022877D1E06918B1E069B0F5800F00D134
:102AD00005E04FF4EB71AFF28000FDF760FD206A76
:102AE000022803D3206A3F2800D805E040F2D7111E
:102AF000AFF29C00FDF753FD606A322804D3606A90
:102B0000B0F5D87F00D805E04FF4EC71AFF2B80013
:102B1000FDF745FDA06A022808D0A06A042805D068
:102B2000A06A062802D0A06A082800D105E040F279
:102B3000D911AFF2DC00FDF732FDE06A022803D3C1
:102B4000E06A0F2800D805E04FF4ED71AFF2F8000D
:102B5000FDF725FD0020D149086602F089F80546F9
:102B600006E002F085F8401B022801D9032075E534
:102B7000C94808380068C0F340600028F1D1D4E9A2
:102B800007010843616A40EA81110122A06AC2EB91
:102B9000500041EA00412C20005D41EA0060BE493E
:102BA000091F08600120BD49086602F061F802E0D3
:102BB00055E027E010E0054606E002F059F8401B1A
:102BC000022801D9032049E5B34808380068C0F35A
:102BD00040600028F1D042E00020B049086602F0D1
:102BE00047F8054606E002F043F8401B022801D9E9
:102BF000032033E5A84808380068C0F34060002887
:102C0000F1D12CE0A069012800D127E5A248001FDE
:102C10000668A069012820D006F48001E06981429D
:102C20001BD106F03F01206A814216D147F6C070E1
:102C30003040616AB0EB811F0FD106F440310122B0
:102C4000A06AC2EB5000B1EB004F06D106F07061F4
:102C50002C20005DB1EB006F01D00120FEE40020CC
:102C6000FCE42DE9F047002400250026A1468A480F
:102C7000006800F00C0020B1042805D008283AD1E3
:102C800005E0DFF81C9239E0DFF8189236E0824860
:102C9000001F006800F03F047F48001F006800F438
:102CA000800078B17F487C49091F0968C1F3881109
:102CB000A0FB0170014622460023384606F084F846
:102CC00005460EE076487449091F0968C1F388116A
:102CD000A0FB0170014622460023384606F074F836
:102CE00005466D48001F0068C0F30140401C4600C7
:102CF000B5FBF6F902E0DFF8A89100BF00BF484637
:102D0000BDE8F08770B504460D460CB9012070BDD2
:102D10002068012803D320680F2800D805E040F27E
:102D20005A21AFF2CC20FDF73AFC6DB1012D0BD04A
:102D3000022D09D0032D07D0042D05D0052D03D079
:102D4000062D01D0072D00D105E040F25B21AFF246
:102D5000F820FDF724FC5448006800F00700A84262
:102D600009D251490D700846006800F00700A842DA
:102D700001D00120CBE7207800F0020002283ED1EC
:102D8000207800F00400042805D14348006840F48E
:102D9000E05041490860207800F00800082805D17B
:102DA0003D48006840F460403B490860A068B8B105
:102DB000A068802814D0A068902811D0A068A0280E
:102DC0000ED0A068B0280BD0A068C02808D0A0689A
:102DD000D02805D0A068E02802D0A068F02800D153
:102DE00005E040F27E21AFF29030FDF7D8FB2A4893
:102DF000006820F0F000A1680843274908602078A7
:102E000000F00100002859D0606840B160680128D6
:102E100005D06068022802D06068032800D105E070
:102E200040F28521AFF2D030FDF7B9FB6068012890
:102E300007D1194808380068C0F34040B8B90120EC
:102E400065E76068022802D06068032807D112484D
:102E500008380068C0F3406048B9012057E70E48C1
:102E600008380068C0F3400008B901204FE70A485D
:102E7000006820F00300616808430749086001F01A
:102E8000F7FE064612E001F0F3FE801B41F28831A6
:102E900088420BD903203AE7083802400000474235
:102EA0000024F40000127A00003C0240EC48006864
:102EB00000F00C006168B0EB810FE4D1E9480068D4
:102EC00000F00700A84209D9E6490D7008460068DD
:102ED00000F00700A84201D0012018E7207800F098
:102EE0000400042820D1E06878B1E068B0F5805F84
:102EF0000BD0E068B0F5A05F07D0E068B0F5C05F28
:102F000003D0E068B0F5E05F00D105E040F2C321F6
:102F1000AFF2BC40FDF743FBD148006820F4E0501D
:102F2000E1680843CE490860207800F008000828CE
:102F300021D1206978B12069B0F5805F0BD020697C
:102F4000B0F5A05F07D02069B0F5C05F03D020695D
:102F5000B0F5E05F00D105E040F2CA21AFF20850C1
:102F6000FDF71DFBBE48006820F46040216940EA7F
:102F7000C100BB490860FFF774FEB9490968C1F395
:102F80000311B94A515CC840B8490860B8480068A4
:102F900001F00BFE0020BAE670B586B006460C467E
:102FA00015460EB1012E00D105E040F20B31AFF213
:102FB0005850FDF7F4FA5DB1B5F1806F08D0B5F166
:102FC000A06F05D0B5F1C06F02D0B5F1E06F00D1B0
:102FD00005E04FF44371AFF28050FDF7E0FA002EA8
:102FE00039D144B1B4F5001F05D0B4F5800F02D03B
:102FF000B4F5C00F00D105E04FF44471AFF2A85012
:10300000FDF7CDFA00BF00200090954828300068F9
:1030100040F001009249283108600846006800F03D
:103020000100009000BF00BF8815019002200290AF
:103030000320049000200390059001A98D4800F022
:1030400021F98748006820F0EC6044EA0501084354
:103050008349086038E044B1B4F1804F05D0B4F141
:10306000004F02D0B4F1404F00D105E04FF44A7157
:10307000AFF21C60FDF793FA00BF00200090784883
:103080002830006840F0040075492831086008467F
:10309000006800F00400009000BF00BF48150190D8
:1030A000022002900320049000200390059001A9C3
:1030B000714800F0E7F86A48006820F0784044EA78
:1030C000C50108436649086006B070BD01206B4920
:1030D000C864704700206949C86470476348006845
:1030E000704700B5FFF7FAFF5D490968C1F3822117
:1030F000634A515CC84000BD00B5FFF7EFFF584977
:103100000968C1F342315E4A515CC84000BD0F21DD
:10311000016053490839096801F48021B1F5802F15
:1031200003D14FF4A02141600DE04D4908390968F1
:1031300001F48031B1F5803F03D14FF4803141601B
:1031400001E00021416046490839096801F00101A8
:1031500011B10121C16001E00021C160404908397D
:103160000968C1F3C40101613D496831096801F092
:103170000401042902D1052181600AE0384968313F
:10318000096801F0010111B10121816001E0002114
:10319000816033496C31096801F0010111B10121ED
:1031A000416101E0002141612D490839096801F0C0
:1031B0008071B1F1807F02D10221816101E00121A2
:1031C00081612749091F096801F48002C26124490D
:1031D000091F096801F03F0202622149091F0968BD
:1031E000C1F3881242621E49091F096801F4403187
:1031F00001F58031CA0B82621949091F0968C1F3C0
:103200000362C26270470F220260154A126802F020
:1032100003024260124A126802F0F0028260104A11
:10322000126802F4E052C2600D4A126802F4604271
:10323000D20802610B4A126802F007020A60704766
:10324000704710B50648001D006800F08000802817
:1032500005D1FFF7F5FF80200149891D087010BDD9
:1032600008380240003C02400E9400081000002084
:103270000800002000000240000802400000474211
:103280001E9400082DE9F84306460C464FF000094D
:10329000C8460025F748864217D0F748864214D022
:1032A000F648864211D0F64886420ED0F54886424E
:1032B0000BD0F548864208D0F448864205D0F44841
:1032C000864202D0F348864200D103E0AC21F2A04E
:1032D000FDF765F9208880B220B120686FF30F00F8
:1032E00000B903E0AD21ECA0FDF759F9606830B3F7
:1032F0006068012823D06068112820D06068022807
:103300001DD0606812281AD06068B0F5881F16D0EA
:103310006068B0F5041F12D06068B0F5441F0ED08D
:103320006068B0F5901F0AD06068B0F5081F06D03D
:103330006068B0F5481F02D06068032800D103E040
:10334000AE21D5A0FDF72BF9002763E1012000FA9B
:1033500007F9206800EA0908C8457DD1207900F006
:103360000300012804D0207900F00300022823D1B3
:10337000E06840B1E068012805D0E068022802D08A
:10338000E068032800D103E0C021C3A0FDF707F9DE
:10339000B56879000320884085437900E06888405B
:1033A0000543B56075680120B84085432079C0F3B6
:1033B0000010B84005437560207900F00300032831
:1033C00016D0A06828B1A068012802D0A068022801
:1033D00000D103E0D121B0A0FDF7E1F8F568790054
:1033E0000320884085437900A06888400543F56044
:1033F000207900F0030002287CD1206968B320699D
:1034000009285ED0206940B3206930B3206920B319
:10341000206910B32069012853D02069012850D0B9
:10342000206902284DD0206902284AD0206902284C
:1034300047D02069032844D02069042841D020695E
:1034400004283ED0206904283BD02069052838D0C4
:103450002069052835D001E0DBE032E02069092849
:103460002FD0206906282CD02069092829D020696E
:10347000072826D02069072823D02069072820D0D4
:10348000206908281DD0206908281AD0206908283A
:1034900017D02069092814D02069092811D0206983
:1034A0000A280ED020690A280BD020690C2808D0E1
:1034B00020690C2805D020690C2802D020690F282B
:1034C00000D103E0DE2174A0FDF769F8F90806F1E8
:1034D000200050F821507807C10E0F208840854306
:1034E0007907C90E206988400543F90806F12000D4
:1034F00040F82150356879000320884085432079C1
:1035000000F003007900884005433560606800F4EE
:10351000403000287DD000BF002000906D4800683A
:1035200040F480406B4908600846006800F4804021
:10353000009000BF00BF6848B90850F82150B80794
:10354000010F0F20884085434A48864201D1002060
:1035500023E04948864201D101201EE047488642C7
:1035600001D1022019E04648864201D1032014E02F
:103570004448864201D104200FE04348864201D1ED
:1035800005200AE04148864201D1062005E0404876
:10359000864201D1072000E00820B907090F8840C2
:1035A00005434D48B90840F821504C48056825EAC4
:1035B0000805606800F4801008B145EA080547482E
:1035C0000560001D056825EA0805606800F4001024
:1035D00008B145EA08054148001D05603F48001F45
:1035E000056825EA0805606800F4003008B145EA7E
:1035F00008053A48001F0560001F056825EA080510
:10360000606800F4803008B145EA0805334808389E
:1036100005607F1C102FFFF499AEBDE8F8832DE9FB
:10362000F047044688464FF000090026002711485D
:10363000844217D01048844214D01048844211D0DC
:103640000F4884420ED00F4884420BD00E4884426B
:1036500008D00E48844205D00D48844202D00D485F
:10366000844200D104E04FF497710BA0FCF797FF60
:103670000025C0E0000002400004024000080240B3
:10368000000C0240001002400014024000180240EA
:10369000001C0240002002402E2E2F4472697665E5
:1036A00072732F53544D3332463478785F48414C0F
:1036B0005F4472697665722F5372632F73746D3332
:1036C00032663478785F68616C5F6770696F2E630B
:1036D000000000004438024008380140083C014026
:1036E000012000FA05F908EA09064E457ED1854811
:1036F000A90850F82170A807010F0F208840074043
:103700008148844201D1002023E08048844201D1D5
:1037100001201EE07E48844201D1022019E07D484C
:10372000844201D1032014E07B48844201D104206B
:103730000FE07A48844201D105200AE078488442AB
:1037400001D1062005E07748844201D1072000E03E
:103750000820A907090F8840B84223D172480068A1
:10376000B04371490860081D0068B043091D086036
:103770006D480C300068B0436B490C310860081F7D
:103780000068B043091F0860A807010F0F2000FA66
:1037900001F75C48A90850F82100B8435949AA0824
:1037A00041F8220020686A0003219140884320608C
:1037B000E90804F1200050F821006907CA0E0F2122
:1037C00091408843EA0804F1200141F82200E068B2
:1037D0006A00032191408843E06061680120A840AD
:1037E00081436160A0686A00032100E002E091402B
:1037F0008843A0606D1C102DFFF472AFBDE8F08708
:1038000070B506460C46A0B218B1200C000400B9F1
:1038100005E04FF4BE71AFF28010FCF7C0FE3069D6
:10382000204008B1012500E00025284670BD70B594
:1038300006460C461546A0B218B1200C000400B98B
:1038400005E040F29D11AFF2B010FCF7A8FE0DB1FB
:10385000012D00D105E04FF4CF71AFF2C410FCF799
:103860009EFE0DB1B46101E02004B06170BD70B581
:1038700005460C46A0B218B1200C000400B905E0C2
:103880004FF4DB71AFF2F010FCF789FE6E6924EAA9
:10389000060006EA040140EA0140A86170BD38B59F
:1038A00004460D464FF480300090A8B218B1280CA1
:1038B000000400B905E040F2CF11AFF22420FCF77C
:1038C0006EFE0098284300900098E061E561009842
:1038D000E061E0690090E06900F4803008B1002008
:1038E00038BD0120FCE7704710B504460E4814307F
:1038F0000068204028B10C48143004602046FFF7CF
:10390000F2FF10BD083801400000024000040240F0
:1039100000080240000C0240001002400014024067
:1039200000180240001C0240003C0140014608789B
:1039300010381823B0FBF3F2F848805CC865032AFE
:1039400005D908686FF30900001D886503E0086861
:103950006FF309008865886D7047014600208A6A08
:103960008B69CBB932B1012A0DD0022A03D0032AC8
:1039700010D10EE000BFCB6A03F08073B3F1807FFB
:1039800000D1012007E0CB6AB3F1C07F00D1012054
:1039900001E000E000BF34E08B69B3F5005F1AD1AD
:1039A00032B1012A07D0022A03D0032A11D10AE03A
:1039B00000BF01200EE0CB6A03F08073B3F1807F7B
:1039C00000D1012006E0CB6AB3F1C07F00D1012015
:1039D00000E000BF15E032B1012A05D0022A04D070
:1039E000032A0CD103E000BF00BF012008E0CB6A2E
:1039F00003F08073B3F1807F00D1012000E000BFAD
:103A000000BF70472DE9F0410446002501F030F970
:103A1000074614B90120BDE8F081C14920688842F9
:103A200049D0BF4918312068884244D0BC49303160
:103A3000206888423FD0BA494831206888423AD04D
:103A4000B74960312068884235D0B549783120685F
:103A5000884230D0B2499031206888422BD0B0499A
:103A6000A8312068884226D0AE492068884222D0FA
:103A7000AC491831206888421DD0AA4930312068ED
:103A8000884218D0A74948312068884213D0A549F8
:103A90006031206888420ED0A2497831206888427F
:103AA00009D0A04990312068884204D09D49A831AE
:103AB0002068884200D103E0B7219BA0FCF76FFD8E
:103AC0006068D8B16068B0F1007F17D06068B0F16D
:103AD000806F13D06068B0F1C06F0FD06068B0F134
:103AE000006F0BD06068B0F1206F07D06068B0F154
:103AF000406F03D06068B0F1606F00D103E0B8217F
:103B000089A0FCF74CFDA06828B1A068402802D02D
:103B1000A068802800D103E0B92183A0FCF73FFD15
:103B2000E068B0F5007F01D0E06800B903E0BA2199
:103B30007DA0FCF734FD2069B0F5806F01D02069CD
:103B400000B903E0BB2178A0FCF729FD606938B11A
:103B50006069B0F5006F03D06069B0F5805F00D197
:103B600003E0BC2170A0FCF71AFDA06938B1A06980
:103B7000B0F5005F03D0A069B0F5804F00D103E03D
:103B8000BD2169A0FCF70BFDE06930B1E069B0F53B
:103B9000807F02D0E069202800D103E0BE2162A02E
:103BA000FCF7FDFC206A58B1206AB0F5803F07D0D1
:103BB000206AB0F5003F03D0206AB0F5403F00D145
:103BC00003E0BF2158A0FCF7EAFC606A10B1606A0C
:103BD000042800D103E0C02153A0FCF7E0FC606A98
:103BE000002835D0A06A40B1A06A012805D0A06A9B
:103BF000022802D0A06A032800D103E0C5214AA010
:103C0000FCF7CDFCE06A58B1E06AB0F5000F07D0D0
:103C1000E06AB0F1807F03D0E06AB0F1C07F00D1EC
:103C200003E0C62140A0FCF7BAFC206B58B1206B22
:103C3000B0F5001F07D0206BB0F5800F03D0206BCC
:103C4000B0F5C00F00D103E0C72137A0FCF7A7FCF7
:103C5000022084F8350000BF002084F8340000BF43
:103C60002068006820F00100216808600AE000F088
:103C7000FFFFC01B052805D920206065032084F8BC
:103C80003500C8E62068006800F001000028EED189
:103C90002068056832480540D4E901010843E1681D
:103CA00008432169084361690843A1690843E16940
:103CB0000843216A08430543606A042803D1D4E914
:103CC0000B0108430543206805602068456925F01D
:103CD0000705606A0543606A04280DD1A06A0543A0
:103CE000E06A48B12046FFF738FE28B14020606501
:103CF000012084F835008EE6206845612046FFF7F4
:103D000015FE064694F85C103F208840B060002005
:103D10006065012084F8350000207CE606940008E8
:103D200010600240106402402E2E2F4472697665A6
:103D300072732F53544D3332463478785F48414C78
:103D40005F4472697665722F5372632F73746D339B
:103D500032663478785F68616C5F646D612E6300F1
:103D60003F8010F070B504460CB9012070BD94F886
:103D70003500022800D1F9E7FE492068884249D081
:103D8000FC4918312068884244D0FA493031206813
:103D900088423FD0F7494831206888423AD0F549F7
:103DA00060312068884235D0F249783120688842F5
:103DB00030D0F0499031206888422BD0ED49A831AD
:103DC0002068884226D0EC492068884222D0EA49FF
:103DD0001831206888421DD0E74930312068884278
:103DE00018D0E54948312068884213D0E249603153
:103DF000206888420ED0E04978312068884209D096
:103E0000DD4990312068884204D0DB49A831206820
:103E1000884200D105E040F24711AFF2F400FCF710
:103E2000BEFB2068006820F00100216808600020C7
:103E30002168086021684860216888602168C8603E
:103E4000216808612120216848612046FFF76EFD46
:103E500005460020E06320646064A064E06420659F
:103E600094F85C103F208840A8600020606584F8CA
:103E7000350000BF84F8340000BF00BF76E730B5DE
:103E80000468246824F4802405682C600468636056
:103E90008468402C04D10468A2600468E16003E0F7
:103EA0000468A1600468E26030BD2DE9F041044679
:103EB0000E4617461D464FF000081DB1B5F5803F70
:103EC00000D205E04FF4CE71AFF2A410FCF767FB0F
:103ED00000BF94F83400012802D10220BDE8F0812F
:103EE000012084F8340000BF94F83500012811D176
:103EF000022084F83500002060652B463A463146A2
:103F00002046FFF7BCFF2068006840F001002168F0
:103F1000086006E000BF002084F8340000BF4FF0C6
:103F200002084046DAE72DE9F04704460E461746F8
:103F30001D464FF00008D4F858901DB1B5F5803FEC
:103F400000D205E040F2CB11AFF22420FCF727FBB2
:103F500000BF94F83400012802D10220BDE8F087A8
:103F6000012084F8340000BF94F83500012825D1E1
:103F7000022084F83500002060652B463A46314621
:103F80002046FFF77CFF94F85C103F208840C9F87A
:103F900008002068006840F0160021680860206C66
:103FA00028B12068006840F0080021680860206897
:103FB000006840F001002168086006E000BF0020B2
:103FC00084F8340000BF4FF002084046C6E770B5E1
:103FD0000446A56D00F04CFE064694F83500022814
:103FE00008D08020606500BF002084F8340000BF46
:103FF000012070BD2068006820F01600216808606C
:104000002068406920F0800021684861206C08B970
:10401000A06C28B12068006820F0080021680860C2
:104020002068006820F001002168086010E000F0BE
:104030001FFE801B05280BD920206065032084F813
:10404000350000BF002084F8340000BF0320D0E713
:104050002068006800F001000028E8D194F85C10A6
:104060003F208840A860012084F8350000BF002070
:1040700084F8340000BF00BFBBE7014691F835006B
:10408000022803D08020486501207047052081F870
:1040900035000868006820F001000A681060002000
:1040A000F3E72DE9F05F0446884617464FF0000A13
:1040B00000F0DEFD834694F83500022809D0802008
:1040C000606500BF002084F8340000BF0120BDE817
:1040D000F09F2068006800F4807020B14FF4807079
:1040E00060650120F3E7B8F1000F05D194F85C108A
:1040F000202000FA01F904E094F85C10102000FA86
:1041000001F9A56D2E6848E0781C90B12FB100F040
:10411000AFFDA0EB0B00B8420BD920206065012059
:1041200084F8350000BF002084F8340000BF03206D
:10413000CDE72E6894F85C1008208840304040B1EC
:10414000606D40F00100606594F85C1008208840C4
:10415000A86094F85C1001208840304040B1606D48
:1041600040F00200606594F85C1001208840A8606F
:1041700004E00000106002401064024094F85C10FB
:1041800004208840304040B1606D40F0040060651C
:1041900094F85C1004208840A86006EA090020B961
:1041A000606D00F001000028AED0606DA8B1606DB8
:1041B00000F0010088B12046FFF709FF94F85C1079
:1041C00030208840A860012084F8350000BF00201E
:1041D00084F8340000BF012079E7B8F1000F0CD15A
:1041E00094F85C1030208840A860012084F83500E5
:1041F00000BF002084F8340004E094F85C10102024
:104200008840A860504662E7F8B504460020009058
:10421000C64800684FF41651B0FBF1F7A56D2E6843
:1042200094F85C1008208840304098B120680068FD
:1042300000F0040070B12068006820F004002168DC
:10424000086094F85C1008208840A860606D40F019
:104250000100606594F85C1001208840304068B12E
:104260002068406900F0800040B194F85C100120A3
:104270008840A860606D40F00200606594F85C10B2
:1042800004208840304068B12068006800F00200D7
:1042900040B194F85C1004208840A860606D40F044
:1042A0000400606594F85C1010208840304078B3BA
:1042B0002068006800F0080050B394F85C101020EB
:1042C0008840A8602068006800F4802080B12068E1
:1042D000006800F4002028B9206CC8B12046216C89
:1042E000884715E0A06C98B12046A16C88470FE084
:1042F0002068006800F4807028B92068006820F009
:10430000080021680860206C10B12046216C8847A5
:1043100094F85C10202088403040002865D0206848
:10432000006800F0100000285FD094F85C10202096
:104330008840A86094F83500052828D120680068D6
:1043400020F01600216808602068406920F0800095
:1043500021684861206C08B9A06C28B12068006809
:1043600020F008002168086094F85C103F20884025
:10437000A860012084F8350000BF002084F83400D4
:1043800000BF206D10B12046216D8847F8BD206820
:10439000006800F4802080B12068006800F40020EC
:1043A00028B9606C10B12046616C88471DE0E06B55
:1043B000D8B12046E16B884717E02068006800F418
:1043C000807068B92068006820F0100021680860DB
:1043D000012084F8350000BF002084F8340000BFBD
:1043E000E06B10B12046E16B8847606D38B3606DBB
:1043F00000F00100F0B1052084F835002068006865
:1044000020F001002168086000BF0098401C009067
:10441000B84200D905E02068006800F001000028DB
:10442000F3D100BF012084F8350000BF002084F8DC
:10443000340000BFE06C10B12046E16C884700BF3B
:10444000A4E710B50346002400BF93F83400012808
:1044500001D1022010BD012083F8340000BF93F881
:104460003500012815D1062910D2DFE801F0030537
:1044700007090B0DDA630BE01A6409E05A6407E0E0
:104480009A6405E0DA6403E01A6501E0012400BFE4
:1044900000E0012400BF002083F8340000BF204664
:1044A000D8E70246002300BF92F83400012801D16A
:1044B00002207047012082F8340000BF92F83500D6
:1044C000012824D107291FD2DFE801F004070A0DD3
:1044D000101316000020D06318E00020106415E0CF
:1044E0000020506412E0002090640FE00020D064AF
:1044F0000CE00020106509E00020D06310645064D7
:104500009064D064106501E0012300BF00E0012346
:1045100000BF002082F8340000BF1846C9E70146FA
:1045200091F8350070470146486D70471000002033
:1045300010B5002804DB0A07130EFE4A135406E0E8
:104540000A07140EFC4A00F00F031B1FD45410BDC1
:1045500010B50446072C07D0062C05D0052C03D037
:10456000042C01D0032C00D103E09021F3A0FCF730
:1045700016F800BF04F00701EF4A0C3A10684FF636
:10458000FF021040FC4A024342EA0120EA4A0C3A88
:10459000106000BF10BD2DE9F05F80460C46154647
:1045A0000027102D00D203E0A821E4A0FBF7F7FFBD
:1045B000102C00D203E0A921E0A0FBF7F0FF00F0EF
:1045C000E5FA0746394622462B4601F00700C0F1BE
:1045D000070ABAF1040F02D94FF0040A01E0C0F152
:1045E000070AD14600F1040ABAF1070F02D24FF0D0
:1045F000000A01E0A0F1030AD4464FF0010A0AFACA
:1046000009FAAAF1010A0AEA020A0AFA0CFA4FF0B8
:10461000010B0BFA0CFBABF1010B0BEA030B4AEAA3
:104620000B0631464046FFF783FFBDE8F09F10B50B
:104630000446002C00DB03E0BC21C0A0FBF7AFFF69
:10464000204600280DDB00BF00BF00F01F02012143
:1046500091404209920002F1E022C2F8001100BF2D
:1046600000BF00BF10BD10B50446002C00DB03E006
:10467000CC21B2A0FBF793FF204600280BDB00F013
:104680001F0201219140BD4A430942F82310BFF3A4
:104690004F8FBFF36F8F00BF10BD00BFBFF34F8FB1
:1046A000A5480C38006800F4E060B3490843001DD9
:1046B000A1490C390860BFF34F8F00BF00BF00BF96
:1046C000FDE770B504462546681EB0F1807F01D332
:1046D00001200FE0681E4FF0E02148610F214FF0EC
:1046E000FF30FFF725FF00204FF0E0218861072011
:1046F0000861002070BDBFF35F8F8F480C300068E9
:1047000020F480308C490C31086000208A497C31CB
:104710000860704740F00101874A7C321160864989
:104720000C31096841F48031834A0C321160BFF3C7
:104730004F8FBFF36F8F704710B504466078A0B1FC
:104740006078012811D0607802280ED060780328A4
:104750000BD06078042808D06078052805D06078F0
:10476000062802D06078072800D104E040F22D111D
:1047700072A0FBF714FF2078012801D0207800B93F
:1047800004E04FF497716DA0FBF709FF60786A4968
:1047900080310860207800287ED0207B10B1207BFB
:1047A000012800D104E04FF49B7164A0FBF7F7FEF1
:1047B000E07A70B1E07A01280BD0E07A022808D0C4
:1047C000E07A032805D0E07A052802D0E07A0628AE
:1047D00000D104E040F2371158A0FBF7E0FEA07AC8
:1047E00028B1A07A012802D0A07A022800D104E0E2
:1047F0004FF49C7151A0FBF7D2FE607B012801D0E1
:10480000607B00B904E040F239114CA0FBF7C7FE11
:10481000A07B012801D0A07B00B904E04FF49D717A
:1048200046A0FBF7BCFEE07B012801D0E07B00B98D
:1048300004E040F23B1141A0FBF7B1FE607AFF2893
:1048400000DA04E04FF49E713CA0FBF7A8FE207A4A
:10485000042852D0207A05284FD0207A06284CD040
:10486000207A072849D0207A082846D0207A0928BB
:1048700043D0207A0A2840D0207A0B283DD0207AD5
:104880000C283AD0207A0D2837D0207A0E2834D040
:10489000207A0F2831D000E07CE0207A10282CD03C
:1048A000207A112829D0207A122826D0207A13289D
:1048B00023D0207A142820D0207A15281DD0207AE1
:1048C00016281AD0207A172817D0207A182814D042
:1048D000207A192811D0207A1A280ED0207A1B2885
:1048E0000BD0207A1C2808D0207A1D2805D0207AE9
:1048F0001E2802D0207A1F2800D104E040F23D118A
:104900000EA0FBF74CFE0C49843160680860207BE8
:104910000007E17A40EA0160A17A40EAC140617B88
:1049200040EA8140A17B40EA4140E17B40EA01400E
:10493000617A25E000E400E018ED00E02E2E2F441F
:104940007269766572732F53544D333246347878DA
:104950005F48414C5F4472697665722F5372632FD2
:1049600073746D3332663478785F68616C5F636F3F
:10497000727465782E6300000000FA0580E100E0A3
:1049800040EA0120217A40EA410021780843824927
:10499000086005E000208049091F0860091D0860C3
:1049A00010BD40BF20BF704710B500F0EFF810BD3C
:1049B0002DE9F04705460C4616461F46072C07D042
:1049C000062C05D0052C03D0042C01D0032C00D1DB
:1049D00005E04FF4BF71AFF29C00FBF7E0FD284605
:1049E000002803DB6D4B1B5C1B0908E06A4B883B0E
:1049F00000F00F0CACF1040C13F80C301B09194635
:104A0000224602F00700C0F10708B8F1040F02D9EE
:104A10004FF0040801E0C0F10708C44600F10408A3
:104A2000B8F1070F02D24FF0000801E0A0F103082F
:104A3000434621FA03F84FF0010909FA0CF9A9F1EC
:104A4000010908EA0908C6F800804FF0010808FAD1
:104A500003F8A8F1010808EA0108C7F8008000BFC0
:104A6000BDE8F08710B50446002C00DB05E040F2FD
:104A70008D11AFF23810FBF792FD2046002807DBBE
:104A800000F01F0201219140454A430942F82310DA
:104A900000BF10BD10B50446002C00DB05E040F25D
:104AA0009F11AFF26810FBF77AFD204600280DDB5E
:104AB0003B49420951F8221000F01F0301229A409D
:104AC000114009B1012102E0002100E00021084667
:104AD00010BD10B50446002C00DB05E040F2AF111C
:104AE000AFF2A810FBF75BFD2046002808DB00F0C2
:104AF0001F02012191402A4A8032430942F82310C3
:104B000000BF10BD10B50446002C00DB05E04FF4DB
:104B1000E071AFF2D810FBF742FD204600280DDB14
:104B20002049420951F8221000F01F0301229A4047
:104B3000114009B1012102E0002100E000210846F6
:104B400010BD10B50446042C00D004B905E040F2B5
:104B5000D111AFF21820FBF722FD042C08D14FF041
:104B6000E020006940F004004FF0E021086107E018
:104B70004FF0E020006920F004004FF0E0210861D0
:104B800010BD704710B5FFF7FCFF10BD0248943808
:104B90000068C0F302207047A0ED00E000E400E0F0
:104BA00000E200E000E300E0704770B504467B4897
:104BB00000784FF47A71B1FBF0F079490968B1FBE4
:104BC000F0F52846FFF77DFD08B1012070BD102CDF
:104BD00007D200222146501EFFF7DDFC7148046019
:104BE00001E00120F2E70020F0E710B56E48006810
:104BF00040F400706C4908600846006840F480602A
:104C000008600846006840F4807008600320FFF7E1
:104C10009FFC0F20FFF7C9FFFBF78CFD002010BDA4
:104C2000704710B56148624908600020086061481B
:104C3000091D0860002008605F485D491039086060
:104C400000200860C120091D0860002008600120C4
:104C5000091D086000200860FFF7E2FF002010BD7A
:104C6000564800684D49097808445449086070471F
:104C70005248006870474B480068704770B504465A
:104C80000025642C03D00A2C01D0012C00D104E0B3
:104C90004FF4AD714AA0FBF782FC40480078A04277
:104CA0000AD03E48067804703E480068FFF77DFF52
:104CB00005460DB139480670284670BD3748007862
:104CC000704770B50446FFF7D3FF06462546681CBB
:104CD00010B132480078054400BFFFF7C9FF801BC0
:104CE000A842FAD370BD4FF0E020006920F0020026
:104CF0004FF0E021086170474FF0E020006940F07C
:104D000002004FF0E021086170473A4870473A4886
:104D10000068000C704738480068C0F30B0070470B
:104D20003548406840F001003349486070473248D8
:104D3000406820F001003049486070472E484068C4
:104D400040F002002C49486070472B48406820F032
:104D500002002949486070472748406840F0040035
:104D60002549486070472448406820F004002249E3
:104D700048607047012021490860704700201F49A2
:104D8000086070471E48006870471D48001D006895
:104D900070471B4808300068704700000C00002076
:104DA0001000002008000020003C0240FFC9FEF671
:104DB0002038024033797704FF116020040000207E
:104DC0002E2E2F447269766572732F53544D3332F1
:104DD000463478785F48414C5F4472697665722F3B
:104DE0005372632F73746D3332663478785F686101
:104DF0006C2E630000020801002004E0000427423A
:104E0000107AFF1F2D48006840F470002B4908609D
:104E1000704770B500200022022300240221284D93
:104E20002D6805F00C0020B1042806D0082834D1E4
:104E300007E0244D244E356033E0244D224E35608A
:104E40002FE01F4D2D1F2D68C5F380541C4D2D1FC5
:104E50002D6805F03F0154B11C4DB5FBF1F5184E1E
:104E6000361F3668C6F3881605FB06F209E0154DB5
:104E7000B5FBF1F5124E361F3668C6F3881605FBF2
:104E800006F20F4D2D1F2D68C5F301456D1C6B00FB
:104E9000B2FBF3F50C4E356003E00A4D0A4E356067
:104EA00000BF00BF064D2D68C5F30315084E705DA9
:104EB000054D2D68C540044E356070BD88ED00E09D
:104EC000083802400024F4001000002000127A008C
:104ED0000E94000810B5A648A6490860A6490844E3
:104EE000A6490860A248A44942180B460146A4A05E
:104EF00003F0F0FFAB48AC4942180B460146ABA0AB
:104F000003F0E8FF0121B2A003F0E4FF10BD18B5E3
:104F1000014600200090002200BF04E031F810306C
:104F20002DF81030401C0228F8D3BDF80000BDF861
:104F3000023040EA0342104618BD014601F47842AF
:104F40004FF4784000EA1143B2F5704F02D0B2F549
:104F5000784F01D101207047B3F5704F02D0B3F5FF
:104F6000784F01D10120F6E70020F4E710B50446A0
:104F700021469FA003F0AEFF204600F00FFA10BDBF
:104F80002DE9F05F8046894615469A4600260024A2
:104F9000A3460027B8F1000F02D0B9F1000F03D1EA
:104FA0006FF00100BDE8F09F0DB1554502D96FF0DB
:104FB0000200F7E72F4623E03C687A48844203D397
:104FC00079490844A04200D219E004F0010000B978
:104FD00015E0641E241F04F0010000B10FE020461C
:104FE000FFF795FF83465846FFF7A7FF00B906E095
:104FF00048F82640761C4E4500D304E000BF3F1D14
:105000000FB15745D8D900BF3046CBE705460F460C
:105010004FF0000800262C4601CC7B49086001CCEB
:10502000486001CC886001CCC86001CC086101CC2B
:10503000486101CC886101CCC86101CC086202CC16
:105040007148416202CC816202CCC16202CC016330
:1050500002CC416302CC81632168C16369A003F083
:1050600039FF6AA003F036FF70A003F033FF6648F3
:10507000016A73A003F02EFF6348416A75A003F034
:1050800029FF6148816A78A003F024FF5E48C16A65
:105090007AA003F01FFF5C4801687DA003F01AFFAF
:1050A000594841687FA003F015FF5748816882A0E6
:1050B00003F010FF5448C16884A003F00BFF52486E
:1050C000016987A003F006FF4F48416989A003F0FA
:1050D00001FF4D4881698CA003F0FCFE4A48C1697C
:1050E0008EA003F0F7FE4848016B91A003F0F2FE9A
:1050F0004548416B93A003F0EDFE4348816B96A0B9
:1051000003F0E8FE4048C16B98A003F0E3FE3DA029
:1051100003F0E0FE3846FFF729FF10261448164931
:10512000431805EB860240219548FFF729FF80468A
:1051300094A003F0CFFE3448816B96A003F0CAFE22
:10514000002606E08E4850F8261092A003F0C2FE1A
:10515000761C4645F6DB2BA003F0BCFE00BFFEE745
:1051600000BFEFF3088070470148034908447047C7
:105170001089002014000020000800001800002002
:10518000436F646520537461636B3A5B2530385814
:10519000202D20253038585D2C2073697A653A25FA
:1051A000640D0A000000000848940000436F646525
:1051B0002054657874203A5B25303858202D2025FE
:1051C0003038585D2C2073697A653A25640D0A00E1
:1051D000436F646520537461636B2047726F77740B
:1051E0006820446F776E776172643A25640D0A0017
:1051F000204558455F52455455524E3A2030782547
:10520000303858200D0A0000E880002020486172E4
:10521000644661756C7420496E666F726D61746965
:105220006F6E2044756D70200D0A0000205374616C
:10523000636B204672616D652020200D0A0000001E
:105240002052302020203D20307825303858200D45
:105250000A0000002052312020203D2030782530E7
:105260003858200D0A0000002052322020203D2016
:10527000307825303858200D0A00000020523320A5
:1052800020203D20307825303858200D0A000000BD
:105290002052342020203D20307825303858200DF1
:1052A0000A0000002052352020203D203078253093
:1052B0003858200D0A0000002052362020203D20C2
:1052C000307825303858200D0A0000002052372051
:1052D00020203D20307825303858200D0A0000006D
:1052E0002052382020203D20307825303858200D9D
:1052F0000A0000002052392020203D20307825303F
:105300003858200D0A0000002052313020203D2066
:10531000307825303858200D0A00000020523131F5
:1053200020203D20307825303858200D0A0000001C
:105330002052313220203D20307825303858200D41
:105340000A000000204C522020203D2030782530DB
:105350003858200D0A0000002050432020203D2016
:10536000307825303858200D0A0000002050535264
:1053700020203D20307825303858200D0A000000CC
:105380002881002020537461636B2043616C6C3A68
:1053900020000000253038582000000010B50446D9
:1053A00016A003F097FD16A003F094FD04F004008E
:1053B00018B11AA003F08EFD02E01FA003F08AFDD1
:1053C00024A003F087FD04F0080018B128A003F022
:1053D00081FD02E02DA003F07DFD33A003F07AFDF6
:1053E00004F0100018B137A003F074FD02E03CA0F7
:1053F00003F070FD01A003F06DFD10BD200D0A004B
:1054000020426974322052657475726E2053746143
:10541000636B2053656C6563743A20005B5573655C
:1054200020505350202020202020202020202020E9
:105430002020205D2E0D0A005B557365204D5350D2
:105440002020202020202020202020202020205D1F
:105450002E0D0A0020426974332052657475726EF5
:10546000204D6F64652053656C6563743A2020009D
:105470005B55736520546872656164204D6F646587
:10548000202020202020205D2E0D0A005B55736512
:105490002050726F63657373204D6F646520202008
:1054A0002020205D2E0D0A002042697434205374A0
:1054B00061636B204672616D6520547970653A2096
:1054C000202020005B557365203820576F726C6474
:1054D000204672616D6520202020205D2E0D0A007F
:1054E0005B55736520323620576F726C64204672AC
:1054F000616D65202020205D2E0D0A0000F108015D
:1055000041604FF0FF31816000F10801C16001612D
:105510000022426182610021016070470021016127
:10552000704742684A6093688B60936859609160E5
:10553000086103685B1C0360704710B502460B6886
:105540005C1C0CB9106907E002F1080000E040683B
:10555000446824689C42FAD944684C604C68A16055
:10556000886041600A611468641C146010BD0146C3
:105570000A69D1E901309860D1E9010358605068A7
:10558000884201D188685060002008611068401E80
:1055900010601068704700002DE9F04105460E4686
:1055A00001272C46002C41D0E06C00283ED0B91ECB
:1055B000E06CB1FBF0F0216D884237D303F0EFFAD5
:1055C000D4E91312206801FB0200A0600020A0644F
:1055D00020686060E06C401E226D216800FB0211B3
:1055E000E160FF2084F8540084F855009EB92069DA
:1055F00008B9012000E00020A8B904F1100001F072
:10560000A3FF80B14FF08050FA490860BFF34F8F7D
:10561000BFF36F8F07E004F11000FFF76FFF04F195
:105620002C00FFF76BFF03F0C9FA00E000273846B3
:10563000BDE8F0812DE9F04106460D461746984633
:10564000069C0DB9246000E02760E6642565012111
:105650002046FFF7A1FF0020A065BDE8F0812DE9FD
:10566000F84380460D4616461C46DDF8209000277C
:10567000B8F1000F0FD074B106B165B106B955B9D4
:105680002746012087F856004B46324629464046B9
:105690000097FFF7CFFF3846BDE8F88330B50346E3
:1056A00014461A4692F85650012D05D109B11568D5
:1056B0000D602260012000E0002030BD2DE9F8439C
:1056C00005460E4617460024F5B1601EB0FBF5F006
:1056D000B04219D305FB06F010F15D0F14D805FB9D
:1056E00006F909F15C0003F0CDF8044664B1A04668
:1056F00008F15C08002084F856003B4642463146DB
:1057000028460094FFF796FF2046BDE8F8832DE970
:10571000F04104460F4615464FF00008A66C206D78
:1057200048B9206800282CD1A06802F017F98046FB
:105730000020A06025E07DB93946226D606803F045
:1057400074FB216D606808446060D4E901018842FF
:1057500017D32068606014E03946226DE06803F0DA
:1057600064FB216DE068411AE1602168E0688842CD
:1057700003D2216DA068411AE160022D01D106B16A
:10578000761E701CA0644046BDE8F081F1B500981B
:10579000846D0026A06CE16C884222D294F95550A9
:1057A000002269462046FFF7B2FF0646681C60B932
:1057B000E06A08B9012000E0002088B904F12C005B
:1057C00001F0C2FE60B101260AE000BF01F0CFFC8B
:1057D0000746BD4203D2681C40B284F8550000BFA2
:1057E00000BF3046F8BD70B5044603F0D8F994F90F
:1057F000555019E0A06D30B12046FFF7C7FF88B1C2
:1058000001F0DCFF0EE0E06A08B9012000E00020B2
:1058100038B904F12C0001F097FE18B101F0CEFF69
:1058200000E003E0681E45B2002DE3DC00BFFF206E
:1058300084F8550003F0C2F903F0B1F994F954501B
:1058400010E0206908B9012000E0002048B904F107
:10585000100001F079FE08B101F0B0FF681E45B2FA
:1058600000E001E0002DECDC00BFFF2084F85400D4
:1058700003F0A4F970BD70B5054603F090F9A86C6B
:10588000E96C884201D1012400E0002403F096F97C
:10589000204670BD2DE9FF4782B0074688461D4669
:1058A0004FF000093C4600BF03F079F9A06CE16CB1
:1058B000884201D3022D3ED1D4F848A02A46414661
:1058C0002046FFF724FF0646A06D88B1022D02D1C5
:1058D000BAF1000F29D12046FFF758FF28B34FF047
:1058E000805044490860BFF34F8FBFF36F8F1CE0B7
:1058F000E06A08B9012000E0002068B904F12C003A
:1059000001F022FE88B14FF080503A490860BFF3A1
:105910004F8FBFF36F8F08E03EB14FF08050354995
:105920000860BFF34F8FBFF36F8F03F047F901207B
:1059300006B0BDE8F087049818B903F03FF90020DD
:10594000F6E7B9F1000F04D1684601F0F8FE4FF018
:10595000010903F033F901F013F803F020F994F989
:105960005400401C10B9002084F8540094F95500EC
:10597000401C10B9002084F8550003F01FF904A959
:10598000684601F0E3FEF8B92046FFF774FFA8B1BE
:1059900004F11000049901F07DFD2046FFF723FF7C
:1059A00000F0F1FE00287FF47FAF4FF080501149E6
:1059B0000860BFF34F8FBFF36F8F75E72046FFF787
:1059C00012FF00F0E0FE6FE72046FFF70CFF00F04B
:1059D000DAFE0020ACE710B5044654B10020A06008
:1059E00020600021E16000231A4619462046FFF797
:1059F00051FF10BD04ED00E02DE9F0410446012601
:105A00000027224600210120FFF758FE05462846C0
:105A1000FFF7E1FF2846BDE8F0812DE9F843044691
:105A20000D4601274FF000082B46002211460120A9
:105A30000094FFF714FE06463046FFF7CCFF3046D1
:105A4000BDE8F88370B505462C4601F001FFA1685A
:105A500088420CD1E068401EE060E06828B900236D
:105A60001A4619462046FFF715FF012600E00026DA
:105A7000304670BD0146CA6A22B18A6B1268C2F113
:105A8000050000E00020704770B5054603F087F878
:105A9000A86C08B9012400E0002403F08FF8204628
:105AA00070BD2DE9F34182B0054600272C46B8466B
:105AB00000BF03F074F8A66CFEB1701EA0642068ED
:105AC00010B902F003F8A060206908B9012000E0D5
:105AD000002060B904F1100001F036FD38B14FF03C
