:020000041000EA
:1000000000001038B13A0010053B0010213B0010F1
:10001000053B0010053B0010053B0010053B0010A0
:10002000000000000000000000000000793A00100D
:10003000053B001000000000313A0010B9380010F4
:10004000053B0010053B0010053B0010053B001070
:10005000053B0010053B0010053B0010053B001060
:10006000053B0010053B00100000000000000000F0
:100070000000000000000000000000000000000080
:100080000000000000000000000000000000000070
:100090000000000000000000000000000000000060
:1000A0000000000000000000000000000000000050
:1007C00010B5054C237833B9044B13B1044800E04D
:1007D00000BF0123237010BD50040038000000004A
:1007E0005460001008B5034B1BB10349034800E0F7
:1007F00000BF08BD00000000540400385460001021
:1008000000B583B00B4B01930123009300234FF4F9
:1008100000620949094802F067F8012806D001463C
:10082000074801F077F903B05DF804FB02F098FC8B
:10083000F9E700BF6C040038685A00104109001045
:10084000745A001030B5C1B04FF480720021684670
:1008500003F00CFA01F01EFB044601F01FFB0346F7
:1008600022464021684601F0C9F9051E04DB0B4809
:1008700001F050F900240AE02946094801F04AF93C
:100880000AE05DF82410074801F044F90134AC4255
:10089000F7DB054801F05EF941B030BDB05A0010F9
:1008A000945A0010C05A0010C85A001008B50449E4
:1008B000044801F02FF9FFF7C5FF01F083FB08BDE5
:1008C0003C5B0010CC5A001008B50349034801F006
:1008D00021F9FFF7EBFF08BD345B0010CC5A001084
:1008E00008B50349034801F015F9FFF7EDFF08BD0E
:1008F0002C5B0010CC5A001008B50349034801F0E6
:1009000009F9FFF7EDFF08BD245B0010CC5A001079
:1009100008B50349034801F0FDF8FFF7EDFF08BDF6
:100920001C5B0010CC5A001008B50349034801F0C5
:10093000F1F8FFF7EDFF08BD145B0010CC5A001072
:1009400010B5002401E0FFF7EFFF4FF47A7002F0DA
:10095000A5F9034801F0FEF8022CF4DC0134F4E7B9
:10096000DC5A001010B501F005F9094801F0F2F861
:1009700001F092F9074801F095FAFFF741FF0021D5
:1009800000BF4C1C044801F0C5F82146F8E700BF41
:10099000F85A001011200010005B0010064B074AA7
:1009A0009A60D3F8882042F47002C3F88820044B80
:1009B000044A1A60704700BF00ED00E0000000101C
:1009C0000000003840787D0170470146002007E0B4
:1009D00000EB8000531C0B60137803EB40003038B1
:1009E0000A681378303BDBB2092BF1D970472DE947
:1009F000F04F83B005460E4693461F46DDF830A003
:100A00000D9CDDF838900F9B13F0030F19D1A04611
:100A10000192C84509D202F1010B3B463146202024
:100A2000A84708F101085A46F3E7DDF804B008E0EA
:100A3000013C02F101083B4631461AF80400A84780
:100A40004246002CF4D10F9B13F0020F03D1104645
:100A500003B0BDE8F08FA2EB0B034B45F7D2541C5B
:100A60003B4631462020A8472246F4E72DE9F043D3
:100A700085B00C9D0D9C9DF83890DDF83C80DDF82C
:100A800040E0119F129E16F0020F21D17FB116F0A7
:100A9000010F0CD0B9F1000F02D116F00C0F06D0E7
:100AA000013F04E04FF0300C05F804C001347445F8
:100AB00001D21F2CF6D916F0010F09D0BC4207D283
:100AC0001F2C05D84FF0300C05F804C00134F2E7B4
:100AD00016F0100F17D016F4806F04D11CB17445B6
:100AE00024D0BC4222D0B8F1100F2BD0B8F1100F97
:100AF00033D0B8F1020F3BD01F2C04D84FF0300C8C
:100B000005F804C001341F2C07D8B9F1000F37D005
:100B10004FF02D0C05F804C00134039602970194A0
:100B20000095FFF764FF05B0BDE8F083B4F1010C58
:100B300006D0B8F1100F01D06446D4E7023CD2E7EA
:100B40006446D0E716F0200FD0D11F2CCED84FF03E
:100B5000780C05F804C00134CEE716F0200FC8D099
:100B60001F2CC6D84FF0580C05F804C00134C3E759
:100B70001F2CC1D84FF0620C05F804C00134BBE74C
:100B800016F0040F05D04FF02B0C05F804C001340B
:100B9000C3E716F0080FC0D04FF0200C05F804C0D2
:100BA0000134BAE7F0B591B0169C189D1B9E0CB9A4
:100BB00026F0100616F4806E16D064B34FF0000EC7
:100BC00012E00CF1300C5FFA8CFC0EF101070EF113
:100BD000400EEE440EF820CCB4FBF5FCAC421BD327
:100BE0001F2F19D8BE466446B4FBF5FC05FB1C4C10
:100BF0005FFA8CFCBCF1090FE3D916F0200F08D086
:100C00004127BC445FFA8CFCACF10A0C5FFA8CFC07
:100C1000DBE76127F5E7274606961A9C0594199CA1
:100C2000049403959DF85C400294019708AC0094ED
:100C3000FFF71CFF11B0F0BD2DE9F04F95B0099002
:100C40000A910B929B461E9D1F9E229FDDF88C8071
:100C5000DDF898A055EA060301D12AF0100A1AF42B
:100C600080641FD055EA060330D000241AE003F157
:100C70003002D2B204F1010904F150030DEB030478
:100C800004F8202C3A4643462846314603F050FDEE
:100C9000BD4276EB08031BD3B9F11F0F18D84C46A1
:100CA00005460E463A4643462846314603F040FD87
:100CB000D3B2092BDBD91AF0200F05D041221A44F8
:100CC000D2B20A3AD2B2D5E76122F8E74FF0000972
:100CD000CDF818A0259B0593249B049303979DF8BA
:100CE00080300293CDF804900CAB00935B460B9AD6
:100CF0000A990998FFF7BAFE15B0BDE8F08F000019
:100D00002DE9F04F2DED028B91B082460C469346B3
:100D10001D46DDE91C231046194603F08FFC002810
:100D200000F007814FF0FF32B14BDDE91C0103F009
:100D3000ADFC002840F0FD804FF0FF326FF48013CF
:100D4000DDE91C0103F084FC002840F0F280002261
:100D50000023DDE91C0103F07BFC002840F0FE804D
:100D60009DED1C7B8DED067B209B13F480630F9320
:100D700001D106231E93DDE906010246C1F30A50A4
:100D8000C1F31303904643F07F5949F44019A0F290
:100D9000FF3003F081F984A3D3E9002303F0E6F9DF
:100DA00083A3D3E9002303F02BF806460F46002265
:100DB000904B4046494603F021F87FA3D3E9002336
:100DC00003F0D4F902460B463046394603F018F8D2
:100DD00003F066FC064603F05FF98046894678A377
:100DE000D3E9002303F0C2F90022834B03F008F893
:100DF00003F056FC074674A3D3E900234046494656
:100E000003F0B4F980468946384603F045F970A3EB
:100E1000D3E9002303F0AAF902460B4640464946AF
:100E200002F0ECFF8046894602460B4603F09EF92D
:100E3000CDE90A0107F2FF3700210022CDE90812AF
:100E40003B0509930023089342464B4640464946DA
:100E500002F0D6FFCDE90C0142464B4600204FF090
:100E6000804102F0CBFF804689460022634BDDE9DA
:100E70000A0103F0A5FA0022614B02F0C1FF02460D
:100E80000B46DDE90A0103F09BFA00225D4B02F0FC
:100E9000B7FF02460B46DDE90A0103F091FA02466C
:100EA0000B464046494602F0ABFF02460B46DDE9E1
:100EB0000C0103F085FA0022534B02F0A1FFDDE99B
:100EC000082303F053F98046894649EC188BDDE985
:100ED000062303F0DBFB40B1013E0022484B4046B5
:100EE000494603F06DFA41EC180B06F16303C62B7B
:100EF0003FD80427209B13F4006F44D036A3D3E9D6
:100F00000023DDE906894046494603F0B5FB002889
:100F10003FD033A3D3E900234046494603F098FB72
:100F2000002836D01E9BB34225DD9E1B731E1E93E8
:100F300023E0209B04931F9B03931E9B02939DED34
:100F40001C7B8DED007B2B465A462146504600F017
:100F5000CFF811B0BDEC028BBDE8F08F9FED227B86
:100F60008DED067B1C9B06931D9B03F100430793AD
:100F7000FAE60527BEE700231E93209B43F4806317
:100F8000209300273E461F9B9F423FD2A3EB0708BA
:100F90003EE01E9B002BF6D00F9B002BF3D01E9B38
:100FA000013B1E93EFE700BFFB799F501344D33FF3
:100FB000B3C8608B288AC63F61436F63A787D23F5F
:100FC00071A379094F930A401655B5BBB16B024026
:100FD000EF39FAFE422EE63F2D431CEBE2361A3F74
:100FE0000000000080842E4100000000000000008E
:100FF000FFFFEF7F0000F83F0000E03F00002C40C3
:1010000000002440000018400000F03F4FF00008AE
:10101000209B13F0020902D00FB14FF000083EB13F
:1010200053EC182BDDE9060103F0CAF9CDE90601FE
:1010300000220023DDE91C0103F00AFB00283DD15A
:10104000209B23F400630493CDF80C801E9B029335
:101050009DED067B8DED007B2B465A462146504682
:1010600000F046F8002F3FF474AF209B13F0200FE0
:101070002CD04FF0450C00F101082B4602462146CA
:101080006046D04786EAE673A3EBE6730522059235
:10109000013F0497002203920A220292F00F01906E
:1010A00000932B46424621465046FFF77BFDB9F19F
:1010B000000F3FF44EAF02461F9F10E0DDE906012E
:1010C000024601F10043CDE90623B9E74FF0650C74
:1010D000D1E7561C2B4621462020D0473246A2EBB2
:1010E0000B03BB42F5D3104633E700BF00000000FE
:1010F0002DE9F04F2DED028B95B007900A919246A5
:101100009B46DDE92089229D42464B4640464946A2
:1011100003F094FA002840D04FF0FF326FF48013B0
:101120004046494603F094FA002845D14FF0FF327B
:101130009F4B4046494603F0A9FA00284BD198A39B
:10114000D3E900234046494603F0A0FA00285AD1CB
:1011500095A3D3E900234046494603F079FA0028D5
:1011600051D1002200234046494603F071FA00287D
:1011700057D100230B93249B13F4806F5CD0002481
:101180001F2C5BD8092D59D904F150036B44302230
:1011900003F8202C013D0134F2E7249B0393239BA9
:1011A000029303230193834B00935B4652460A99B3
:1011B0000798FFF71CFC2CE1249B0393239B0293CD
:1011C000042301937C4B00935B4652460A9907988F
:1011D000FFF70DFC1DE1249B13F004030FD0774AA9
:1011E0007BB10423249903912399029101930092E6
:1011F0005B4652460A990798FFF7F9FB09E1704AE6
:10120000EEE70323EEE7249B0493239B03930295CD
:10121000CDE900895B4652460A990798FFF770FDB1
:10122000F7E042464B460020002102F0E7FD8046F1
:10123000894601230B939EE70625A0E740464946D1
:1012400003F02EFA064602F027FF02460B46404600
:10125000494602F0D3FD5B4B03EBC50393ED008BD6
:1012600053EC182B02F082FF02460B46CDE908230F
:1012700003F03EFA074602F0FFFE02460B46DDE9A8
:10128000080102F0BBFD02460B46CDE9082300220F
:101290004D4B03F0FBF950B30137384602F0ECFE3A
:1012A00002460B4651EC180B03F0DCF908B101368D
:1012B000002755BB304602F0EFFE02460B46404683
:1012C000494602F09BFD0746884600223E4B03F04C
:1012D000BFF938B100223C4B3846414603F0D6F9FD
:1012E000002842D016F0010F3FD001363DE0002229
:1012F000354BDDE9080103F0ABF90028D9D117B16E
:1013000017F0010FD5D00137D3E71F2C17D8013DB7
:101310002E4BA3FB0723DB08194603EB8303A7EB44
:101320004303621C303304F150000DEB000404F859
:10133000203C092F02D90F461446E6E714461F2C1D
:101340000AD86B1E45B104F150026A44302102F8FC
:10135000201C1D460134F2E71F2C06D804F150036F
:101360006B442E2203F8202C01341F2C33D8184A4A
:1013700082FB0632F317C3EBA2031A4603EB830387
:10138000A6EB4303611C303304F150000DEB000465
:1013900004F8203C1646EAB10C46E6E7AFF30080BD
:1013A0000000000065CDCD410000000065CDCDC13D
:1013B000FFFFEF7F505B0010545B0010485B001094
:1013C000445B0010605B00100000E03FCDCCCCCC53
:1013D000676666660C46249B03F00303012B1DD051
:1013E0001F2C09D80B9B002B35D004F150036B4404
:1013F0002D2203F8202C0134249B0393239B02937A
:1014000001940CAB00935B4652460A990798FFF78C
:10141000EEFA15B0BDEC028BBDE8F08F239BB3B1A3
:101420000B9B1BB9249B13F00C0F12D0239B013B89
:101430002393194606E004F150036B44302203F86D
:10144000202C01348C42CBD21F2CF4D9C8E723992D
:10145000F8E72399F6E7249B13F0040F07D004F173
:1014600050036B442B2203F8202C0134C4E7249B47
:1014700013F0080FC0D004F150036B44202203F88E
:10148000202C0134B8E700BF2DE9F04F8FB007469C
:1014900016460D938846002900F0248300240D9BF6
:1014A0001878002800F02083252809D0651C3346D1
:1014B00022464146B8470D9B01330D932C46EEE77B
:1014C00001330D9300250D9B1978A1F12002102AFC
:1014D0000AD8DFE802F03809093D090909090909B4
:1014E0000933092E09092900A1F13003DBB2092BC8
:1014F00033D92A2936D000230A930D9B1A782E2A35
:1015000040D04FF0000B0D9A1378683B122B77D820
:10151000DFE803F06476D37656767676767676765E
:10152000727676767676D80045F0010501330D9314
:10153000C9E745F0020501330D93C4E745F0040502
:1015400001330D93BFE745F0080501330D93BAE76A
:1015500045F0100501330D93B5E70DA8FFF735FAF7
:101560000A90CAE7189B1A1D18921868002804DB15
:101570000A900D9B01330D93BFE745F002054342EE
:101580000A93F6E745F480655A1C0D925A78A2F149
:101590003003DBB2092B04D92A2A07D04FF0000B05
:1015A000B1E70DA8FFF711FA8346ACE7189B1A1DA7
:1015B00018921B6823EAE37B0D9B01330D93A2E78E
:1015C00045F48071531C0D9352786C2A01D00D465E
:1015D00016E045F4407501330D9311E045F08001AC
:1015E000531C0D935278682A01D00D4608E045F04F
:1015F000C00501330D9303E045F4807501320D926F
:101600000D9B1878A0F12503532B00F26182DFE8CF
:1016100013F054025F025F025F025F025F025F022B
:101620005F025F025F025F025F025F025F025F02B2
:101630005F025F025F025F025F025F025F025F02A2
:101640005F025F025F025F025F025F025F025F0292
:101650005F027401540174015F025F025F025F0266
:101660005F025F025F025F025F025F025F025F0272
:101670005F025F025F025F025E005F025F025F0265
:101680005F025F025F025F025F025F025E009B011A
:101690005E007401540174015F025E005F025F022C
:1016A0005F025F025F025E0039025F025F02D401E7
:1016B0005F025E005F025F025E0045F4007501326A
:1016C0000D929DE745F4807501320D9298E77828D8
:1016D00009D058283AD06F283AD062283AD025F05D
:1016E00010050A2300E01023582835D0692803D0BC
:1016F000642801D025F00C0515F4806F01D025F089
:10170000010569282BD0642829D015F4007F40F00A
:10171000968015F4807F40F0AE8015F0400F00F009
:10172000BF80189A111D1891127805950A99049195
:10173000CDF80CB002930023019300923346224669
:1017400041463846FFF72EFA044629E01023CBE73E
:101750000823C9E70223C7E745F02005C6E715F4CB
:10176000007F21D115F4807F42D115F0400F58D071
:10177000189A111D1891127882EAE271A1EBE271B8
:1017800005950A980490CDF80CB00293D20F0192FF
:1017900000913346224641463846FFF703FA044695
:1017A0000D9B01330D937AE6189A073222F0070257
:1017B00002F108011891516812680846002913DBEC
:1017C00008950A9D0795CDF818B00493002305935A
:1017D000C90F029100920190334622464146384695
:1017E000FFF72AFA0446DBE7524261EB4100E7E7E4
:1017F000189A111D1891126882EAE271A1EBE27148
:1018000005950A980490CDF80CB00293D20F01927E
:1018100000913346224641463846FFF7C3F9044655
:10182000BEE715F0800F05D0189A111D1891B2F976
:101830000020A1E7189A111D189112689CE7189AC8
:10184000073222F0070202F10801189108950A995F
:101850000791CDF818B00021049305910291D2E9C7
:101860000023CDE900233346224641463846FFF7A0
:10187000E3F9044694E7189A111D189105950A9901
:101880000491CDF80CB002930023019313680093E8
:101890003346224641463846FFF784F904467FE73F
:1018A00015F0800F04D0189A111D189112883CE78A
:1018B000189A111D1891126837E746281AD0189BFC
:1018C000073323F0070303F10802189204950A9ADC
:1018D0000392CDF808B0D3E90023CDE900233346C5
:1018E000224641463846FFF703FC04460D9B013370
:1018F0000D93D4E545F02005E1E7672801D047289E
:1019000001D145F40065452801D0472801D145F0B3
:101910002005189B073323F0070303F108021892F0
:1019200004950A9A0392CDF808B0D3E90023CDE9D3
:1019300000233346224641463846FFF7E1F9044684
:101940000D9B01330D93AAE515F002051FD04FF052
:1019500001091898031D189304F1010A3346224621
:1019600041460078B847BDB90D9B01330D935446ED
:1019700095E502F1010A334641462020B8474B461F
:10198000524603F101099B45F3D81446E1E70123D0
:10199000DDF828B02246F4E75246DDF828A006E03C
:1019A000551C334641462020B847A1462A4609F136
:1019B0000104CA45F4D89246D6E7189B1A1D18921E
:1019C000D3F800A0BBF1000F1ED14FF0FF33D1467A
:1019D00002E009F10109134699F8002012B15A1EDC
:1019E000002BF6D1A9EB0A0915F480630B9302D002
:1019F000D94528BFD94615F002030C9306D02246DC
:101A00005C46B3460B9E1DE05B46E0E722460A9C1F
:101A10004B4607E002F10109334641462020B84712
:101A20002B464A465D1C9C42F4D8A9465C46B34608
:101A30000B9E07E01C460AF1010A551C5B46414615
:101A4000B8472A469AF8000020B1002EF3D0631E52
:101A5000002CEFD114465E460C9B1BB90D9B013345
:101A60000D931CE5DDF828A006E0551C33464146E1
:101A70002020B847A1462A4609F10104CA45F4D8F6
:101A80001446EBE745F02105189B1A1D18921B68B8
:101A9000059508220492CDF80CB010220292002283
:101AA000019200933346224641463846FFF77AF8C2
:101AB00004460D9B01330D93F1E4651C3346224629
:101AC00041462520B8470D9B01330D932C46E6E493
:101AD000651C334622464146B8470D9B01330D93A2
:101AE0002C46DCE4074FD9E4B44201D3721E00E077
:101AF0002246334641460020B84720460FB0BDE895
:101B0000F08F00BFC909001000B9704708B500F098
:101B100017F808BD0FB400B585B006AA52F8043B0B
:101B2000039200924FF0FF3202A90448FFF7ACFC89
:101B300005B05DF804EB04B0704700BF091B00104E
:101B4000034B9B6913F0200FFAD1014B18607047CB
:101B50000000204038B50546002402E0FFF7F0FF02
:101B60000134285D0028F9D10A20FFF7E9FF20465B
:101B700038BD0000074B28225A620B229A6260226D
:101B8000DA6240F201321A630A225A6001229A6034
:101B9000704700BF0000204082B00023019307E09F
:101BA00030F8131002AA02EB430222F8041C01339E
:101BB000012BF5D9BDF80600BDF8043043EA00401A
:101BC00002B0704700F47843000C00F47840B3F59D
:101BD000704F0AD0B3F5784F09D0B0F5704F08D0E8
:101BE000B0F5784F07D000207047012070470120E2
:101BF0007047012070470120704700002DE9F8432D
:101C000048B30F4614461D46804639B34AB39A423C
:101C10002AD8002600E00434D4B1AC4218D8226897
:101C200013489042F7D8134B9342F4D312F0010FAC
:101C3000F1D0A2F10509EED04846FFF7ADFFFFF75E
:101C4000C1FF0028E7D048F826900136BE42E2D313
:101C50003046BDE8F8836FF00106F9E76FF0010642
:101C6000F6E76FF00206F3E76FF00206F0E700BF59
:101C7000000000105860001010B5044601460348EB
:101C8000FFF748FF204600F017F910BDB05B0010C9
:101C900008B500F08FF908BD08B50A490A4B19606C
:101CA0000A4A0B4B1A60531A0A48FFF733FF0A49D6
:101CB0000A4A531A0A48FFF72DFF01210948FFF786
:101CC00029FF08BD00F00F3870850038000010387B
:101CD00074850038C85B00100000001058600010C8
:101CE000EC5B0010105C0010F8B505460E4603686A
:101CF0004E4C2360436863608368A360C368E360FD
:101D000003692361436963618369A361C369E36113
:101D1000036A2362436A6362836AA362C36AE362FB
:101D2000036B2363436B6363836BA363C36BE363E3
:101D30003F4F3846FFF70EFF3E48FFF70BFF3E4888
:101D4000FFF708FF216A3D48FFF7E4FE616A3C485F
:101D5000FFF7E0FEA16A3B48FFF7DCFEE16A3A4884
:101D6000FFF7D8FE21683948FFF7D4FE616838488C
:101D7000FFF7D0FEA1683748FFF7CCFEE168364890
:101D8000FFF7C8FE21693548FFF7C4FE6169344892
:101D9000FFF7C0FEA1693348FFF7BCFEE169324896
:101DA000FFF7B8FE216B3148FFF7B4FE616B304896
:101DB000FFF7B0FEA16B2F48FFF7ACFEE16B2E489A
:101DC000FFF7A8FE3846FFF7C5FE3046FFF754FF81
:101DD0003046FFF75DFF90B1284B1C68284B05F19A
:101DE000400240212748A04705462748FFF792FEBA
:101DF0000E4B996B2548FFF78DFE00240FE0244B16
:101E00001C6800232A4640211E48A0470546ECE7EF
:101E10001C4B53F824101D48FFF77CFE0134A542EB
:101E2000F6DC0348FFF796FEFEE700BF7885003832
:101E30004C5C0010305C0010505C0010645C0010C2
:101E4000785C00108C5C0010A05C0010B45C00108A
:101E5000C85C0010DC5C0010F05C0010045D001039
:101E6000185D00102C5D0010405D0010545D0010E6
:101E7000685D00107C5D0010905D0010040000386B
:101E80000000103870840038A45D0010C05A0010A3
:101E900008000038EFF308807047000000487047E2
:101EA0000000103818B1034A10600020704702206B
:101EB000704700BF0800003810B504462A48FFF7F5
:101EC00049FE2A48FFF726FE14F0010F33D02848B8
:101ED000FFF740FE2748FFF71DFE14F0040F2ED039
:101EE0002548FFF737FE2548FFF714FE14F0080FCA
:101EF00029D02348FFF72EFE2248FFF70BFE14F0EF
:101F0000100F24D02048FFF725FE2048FFF702FEDF
:101F100014F0200F1FD01E48FFF71CFE1D48FFF7CE
:101F2000F9FD14F0400F1AD01B48FFF713FE0E48BE
:101F3000FFF710FE10BD1948FFF70CFECAE718485E
:101F4000FFF708FECFE71748FFF704FED4E716486F
:101F5000FFF700FED9E71548FFF7FCFDDEE7144860
:101F6000FFF7F8FDE3E700BFB45D0010B85D0010B7
:101F7000D85D0010105E0010305E0010685E00102A
:101F8000885E0010C05E0010E05E0010185F001058
:101F9000385F0010705F0010905F0010F45D00105B
:101FA0004C5E0010A45E0010FC5E0010545F001038
:101FB000AC5F001010F0040F01D00020704701202A
:101FC0007047000030B583B0002401940E4A536975
:101FD00043F00803536123680193019A0B4D214696
:101FE0002846FFF797FD63680193019A042128466C
:101FF000FFF790FDD4F803300193019A032128469E
:10200000FFF788FD03B030BD00ED00E0C85F0010B1
:1020100070B58CB004460E4615462C22002101A84E
:1020200001F024FE04B30EB315B301F011F805233B
:10203000012201A900F0B2FF02990E48FFF76AFDE4
:1020400029460D48FFF766FD08990C48FFF762FD29
:102050000A990B48FFF75EFD0A9B2A463146204647
:10206000FFF7CCFD0CB070BD0020FBE70020F9E7C6
:102070000020F7E7E45F0010F85F00101060001028
:102080002860001000F1080343604FF0FF328260C7
:10209000C3600361002343618361036070470023D1
:1020A0000361704730B40D68B5F1FF3F11D000F106
:1020B00008031C465B681A68AA42FAD963684B6039
:1020C00099608C606160086103680133036030BC13
:1020D00070470469F2E70369416882688A60416871
:1020E00051605A68824205D00022026118680138A6
:1020F0001860704782685A60F6E710B5044601F030
:10210000BFFBA36C23B9012401F0C8FB204610BD1E
:102110000024F9E770B504461546866C026D5AB97D
:1021200003681BB100200136A66470BD806800F012
:1021300095FF0023A360F6E76DB9406801F020FD2C
:10214000226D636813446360A268934219D32368C5
:1021500063602846E7E7C06801F012FD226D514236
:10216000E3689B1AE3602268934202D2A3680B449F
:10217000E360022D01D00020D5E726B1013E00200A
:10218000D1E72846CFE70020CDE70346026D6AB1CC
:1021900010B50846D9681144D9609C68A14201D3A2
:1021A0001968D960D96801F0EBFC10BD704770B5B3
:1021B00082B00190846DA26CE36C9A4203D3002537
:1021C000284602B070BD94F8556076B2002201A98D
:1021D0002046FFF79FFF0546B6F1FF3F0AD1E36AAD
:1021E000002BEDD004F12C0000F0F2FD0028E7D028
:1021F0000125E5E700F0E6FB8642E1D2013676B242
:1022000084F85560DCE738B5054601F039FB95F8F0
:10221000554064B208E0EB6AB3B105F12C0000F060
:10222000D7FD70B9013C64B2002C0DDDAB6D002B05
:10223000F1D02846FFF7BBFF0028F3D000F084FE62
:10224000F0E700F081FEEDE7FF2385F8553001F05F
:1022500025FB01F015FB95F8544064B201E0013C08
:1022600064B2002C0ADD2B6943B105F1100000F0C7
:10227000AFFD0028F3D000F067FEF0E7FF2385F8FC
:10228000543001F00BFB38BD00283CD038B50D466A
:102290000446C36C002B38D0026D0021A3FB02233F
:1022A00013B919B1002031E00121FAE701F0E8FA91
:1022B0002368E26C216D01FB0230A0600020A06465
:1022C0006360013A02FB0133E360FF2384F854307A
:1022D00084F8553075B923691BB901F0DFFA012084
:1022E00014E004F1100000F073FD0028F5D001F0B7
:1022F000BBFAF2E704F11000FFF7C4FE04F12C0072
:10230000FFF7C0FEE9E700207047002038BD38B570
:102310001D46049C0B4659B92460E06423650121E5
:102320002046FFF7B1FF84F860500023A36538BD55
:102330002260F2E7B8B110B582B01C468446A3B162
:1023400002B1A1B15AB1012384F8563000949DF82E
:1023500010306046FFF7DBFF204602B010BD0029B9
:10236000F1D01046F9E7002070471846F5E7002045
:10237000F3E7F0B585B004460F460192002636E03B
:1023800039462046FFF701FF013DA564236923B9C3
:1023900001F084FA012005B0F0BD04F1100000F056
:1023A00017FD0028F4D001F05FFAF1E701F076FAAA
:1023B0000020F0E702A800F07DFD012621E00023C7
:1023C00084F8543029E0002384F855302BE020466F
:1023D000FFF719FF00F0CAFB09E02046FFF713FFE3
:1023E00000F0C4FB2046FFF788FE002837D101F03B
:1023F00047FAA56C002DC3D1019B002BD6D0002E2F
:10240000D8D001F04BFA00F0CFFA01F039FA94F885
:1024100054305BB2B3F1FF3FD1D094F855305BB28A
:10242000B3F1FF3FCFD001F039FA01A902A800F0C3
:102430004DFD0028D1D12046FFF75FFE0028C6D011
:10244000019904F12C0000F097FC2046FFF7DBFE19
:1024500000F08CFB0028CAD101F006FAC7E7002083
:1024600099E770B504460D46164601F009FA94F84E
:1024700054305BB2B3F1FF3F0DD094F855305BB2EE
:10248000B3F1FF3F0BD001F009FAA36C5BB120461A
:10249000FFF7B9FE70BD002384F85430EDE7002348
:1024A00084F85530EFE73246294604F12C0000F05D
:1024B00071FCECE70A4B1B6803B10123094A12685F
:1024C000D06A50B9084A1268012A07D833B9074BB5
:1024D0001868074B1B68C01A70470020704700BF80
:1024E000608A0038B8850038C4850038148B0038FD
:1024F000788B0038002301E0013001330278A52AEF
:10250000FAD0980870470000074B1B681B6823B976
:10251000064B4FF0FF321A607047034B1B68DB68B5
:102520001A68024B1A607047BC850038148B00385B
:102530002DE9F04780460D4617469946089EDDF87E
:1025400024A00A9C9200A521206B01F08FFB236B35
:1025500007F18042013A03EB820727F0070767651E
:102560009DB14FF0000CBCF11F0F0BD815F80C20DB
:1025700004EB0C0383F8342015F80C3013B10CF184
:10258000010CF0E7002384F85330042E00D9042610
:10259000E6622666201DFFF782FD04F11800FFF7B2
:1025A0007EFD2461C6F10506A66164624B46424683
:1025B000216B384601F09CF92060BAF1000F01D080
:1025C000CAF80040BDE8F0872DE9F04385B00D9EC4
:1025D0000E9CF4B10546894690461F46DEB1742232
:1025E0000021204601F042FB2663022384F871306B
:1025F0000023039302940F9B01930C9B00933B4693
:10260000424649462846FFF793FF204605B0BDE8FD
:10261000F0832046FAE73046F8E7000038B500249A
:1026200007E0C4EBC40293000E481844FFF72AFDEC
:102630000134042CF5D90C4D2846FFF723FD0B4C33
:102640002046FFF71FFD0A48FFF71CFD0948FFF76A
:1026500019FD0948FFF716FD084B1D60084B1C606B
:1026600038BD00BFC4850038648A0038808A0038CD
:10267000208B00385C8B0038408B0038BC850038DC
:10268000C085003810B5044601F0FAF8274A1368EF
:1026900001331360264B1B685BB1264B1B686BB97B
:1026A000234B1B68DA6AE36A9A4207D8204B1C6006
:1026B00004E01F4B1C601368012B30D01E4A1368C6
:1026C00001331360A365E36A1C4A1268934201D97F
:1026D0001A4A13601A4AC3EBC30302EB83035B6815
:1026E000A3609868E060211D41609960E36AC3EBD4
:1026F000C30102EB8100606152F821100131C3EB8C
:10270000C30342F8231001F0C9F80A4B1B682BB130
:10271000074B1B68DA6AE36A9A4203D310BDFFF7DE
:102720007DFFCBE701F0A0F8F8E700BF5086003846
:10273000B88500383C8B00385C880038608A0038E7
:10274000C48500382DE9F04385B006460F4615468E
:102750009846900000F042FF814610B3742000F0CC
:102760003DFF0446C8B17422002101F07FFAC4F88D
:10277000309074B1002384F87130039302940D9B60
:1027800001930C9B009343462A4639463046FFF797
:10279000CFFE204605B0BDE8F083484600F088FF34
:1027A000E7E70446F5E710B5044690F8713013B139
:1027B000012B07D010BD006B00F07AFF204600F01F
:1027C00077FFF7E700F074FFF4E700000F4B1B689A
:1027D000D3B110B501F054F80D4BDB68DC68201D57
:1027E000FFF779FC0B4A1368013B1360074A136833
:1027F000013B136001F052F82046FFF7D4FF034B72
:102800001B68002BE6D110BD704700BF548600380E
:102810005C8B0038508600382DE9F04104460D46A7
:10282000214B1E68214B1F68214BD3F80080214BA0
:102830001A68002182F8721018680430FFF74BFC08
:10284000B4F1FF3F0DD034441A4B1B685C60A642C4
:102850001DD9184B196804314046FFF723FCBDE829
:10286000F081002DEFD0144A5168124B1868816036
:1028700018688C68C4601868043060601868043098
:1028800088601B685A61136801331360E7E7094BDE
:10289000196804313846FFF705FC084B1B68A34252
:1028A000DDD9064B1C60DAE7788B0038BC85003830
:1028B000C0850038B8850038408B0038148B00384C
:1028C00010B586B00024059405AC03940A9C0294CC
:1028D000099C0194089C0094FFF776FE08B1FFF76D
:1028E000D1FE059806B010BD10B582B0059C0194CC
:1028F000049C0094FFF726FF20B1FFF7C3FE0120E0
:1029000002B010BD4FF0FF30FAE70000204B1B680B
:10291000834230D02DE9F041044600F0B1FF6569F3
:10292000A66A1C4B1F681C4BD3F8008000F0B6FF52
:102930001A4B9E4221D0BD4222D0454522D0184B91
:102940009D4205D0174B9D4220D095B1012015E046
:10295000A36A4BB1022011E0E21892F87020D2B2C3
:10296000012A11D0013300E00023002BF4DD032005
:1029700004E0042002E0002070470120BDE8F0815F
:102980000220FBE70220F9E70220F7E70420F5E741
:10299000B8850038BC850038C0850038208B0038E9
:1029A000408B00385C8B0038024A13680133136097
:1029B000704700BF58880038014B1868704700BF47
:1029C000788B0038014B1868704700BF508600387C
:1029D00010B504460A4B1B6803440A4A12689A421F
:1029E00004D0074B186804441C6010BD00F048FF79
:1029F000054A13680133136000F050FF013CF0E713
:102A0000788B0038148B00381C8B00384C4B1B68BB
:102A1000002B40F08D8070B54A4B1C6801341C605F
:102A2000A4B1494B1B68A3421DD90020474B1B682A
:102A3000DB6AC3EBC3039A00454B9B58012B00D9BB
:102A40000120444B1B68002B78D170BD424A1168AD
:102A5000424B186810601960414A136801331360D3
:102A6000FFF752FDDDE7002037E0374B4FF0FF3234
:102A70001A60DBE7344B1A60D8E7D968516042E04E
:102A800000219962116801391160DA6A35490968D3
:102A90008A4201D933490A602D49C2EBC2024FEA8A
:102AA000820C8C44DCF804209A609668DE607560C5
:102AB0009560DA6AC2EBC20C4FEA8C054E195E6172
:102AC0004D5901354FEA8C0C41F80C50DA6A1F4B16
:102AD0001B68DB6A9A4200D901201F4B1B681B68E8
:102AE000002BC2D01C4B1B68DB68DB685A68944221
:102AF000C0D35A699D68D968A9609D684D605168C6
:102B00001D1DA942B9D00021596111680139116018
:102B10009A6A002AB9D0DE69196AB160DE694E602E
:102B2000566803F118018E42AAD1196A5160A7E7CD
:102B30000D4A13680133136000207047012084E7B9
:102B400058880038788B0038148B0038B8850038E6
:102B5000C4850038F08B0038BC850038C08500384B
:102B6000188B0038608A00381C8B003810B500F0D4
:102B700087FE424B1A68013A1A601B68002B77D116
:102B80003F4B1B683BB9002473E0196A516015E0A4
:102B9000D968516021E000233A4A1268002A4AD0DD
:102BA000384BDB68DB689A6AD869196A8160D86932
:102BB0004860506803F118018842E6D0002199620C
:102BC0001168013911605A699868D96881609868FC
:102BD00048605168181D8142DAD00021596111689E
:102BE00001391160DA6A284909688A4201D92649FF
:102BF0000A602649C2EBC20201EB820252689A6067
:102C00009468DC6060609060DA6AC2EBC20001EB3D
:102C100080045C6151F820000130C2EBC20241F82F
:102C20002200D96A1A4A1268D26A9142B4D9194A62
:102C300001211160B0E70BB1FFF766FC164B1C6871
:102C400054B9144B1C68A4B1114B1B6800F00CFE66
:102C500001240EE0013C07D0FFF7D8FE0028F9D090
:102C60000C4B01221A60F5E70B4B00221A60E8E7D3
:102C7000002400F013FE204610BD00BF5888003825
:102C800050860038208B0038608A0038C4850038B0
:102C9000B8850038F08B00381C8B003810B548B16F
:102CA0000446FFF781FE00212046FFF7B5FDFFF740
:102CB0005DFF08B900F0D8FD10BD000008B503E0C5
:102CC000FFF7F8FB012808D8FFF780FD084B1B68C9
:102CD000012BF5D900F0C8FDF2E7FFF765FEFFF71D
:102CE000E9FB012801D900F017FDFFF73FFFEBE7F3
:102CF000C48500381B4B1B681BB11B4B01221A609B
:102D00007047194B00221A60184B1B6800E0013B0A
:102D1000C3EBC3018A0016498A58002AF7D0C3EBD7
:102D2000C30082000A44506840685060C3EBC30C83
:102D30004FEA8C020832114488420CD0C3EBC30224
:102D400091000B4A0A445268D1680A4A1160074947
:102D50000B601368704762469100054A0A44D168C7
:102D60005160EBE758880038F08B0038608A0038F3
:102D7000C4850038B885003810B50C46044B196876
:102D80001831FFF78FF901212046FFF745FD10BDEF
:102D9000B885003870B50346084659680B4C25685D
:102DA000E96125688E682E6225681835756025688A
:102DB00018358D6021688B621968013119601146E0
:102DC0000AB14FF0FF30FFF727FD70BDB88500381E
:102DD00010B5C368DC68A36AE169226A8A60E169A8
:102DE00051605A6804F118018A4242D00022A2625E
:102DF0001A68013A1A60294B1B68002B3FD163699E
:102E0000A168E2688A60A16851605A68211D8A42FF
:102E100032D0002262611A68013A1A60E36A204ADD
:102E20001268934201D91E4A13601E4AC3EBC303C2
:102E300002EB83035B68A3609868E060416099607F
:102E4000E36AC3EBC30102EB8100606152F8211019
:102E50000131C3EBC30342F82310FFF755FBE26ACD
:102E6000114B1B68DB6A9A4215D901200F4B186081
:102E700010BD226A5A60B9E7E2685A60C9E70C4B94
:102E80005A68E2619068206241609160A3621A68AA
:102E900001321A60E3E70020EAE700BF58880038F3
:102EA000608A0038C4850038B8850038F08B003857
:102EB000208B0038034B1B680360034B1B68436087
:102EC000704700BF188B0038788B0038F8B504467F
:102ED0000D4600F0D5FC194B1A686368D01A1849E2
:102EE000096891F8721049B1154B1B68002283F8EC
:102EF0007220012400F0D2FC2046F8BD2968B1F10F
:102F0000FF3F18D00F4E36682768B74205D093426E
:102F100003D800232B600124ECE7814203D800236F
:102F20002B600124E6E79B1A0B442B602046FFF739
:102F3000C1FF0024DEE70024DCE700BF788B003807
:102F4000B8850038188B0038014B01221A60704791
:102F5000F08B00380C4B1B6873B90C4B1B686BB9BA
:102F60000B4B1B6863B90B4B1A680B4B1B68013B7F
:102F70009A4207D001207047002070470020704718
:102F80000020704702207047208B0038F08B0038FB
:102F90001C8B0038408B00385086003870B50C46CA
:102FA0001646054630B3256005F134026260EA6AD0
:102FB00022612A6BE2612A6822626A6D6262AA6DEE
:102FC000A2602A6E62610022A261052B32D01E4AE5
:102FD0001268AA4211D02373032B11D000F050FCC9
:102FE000AA6A1A4B9A4222D000F058FC3EBB00233A
:102FF000A36270BD144A1568D5E700232373F5E773
:10300000FFF7D2FCAB6A3BB102232373FFF7AEFD9F
:10301000E4E702232373F9E70023002BF6DCEA1828
:1030200092F87020D2B2012AF3D00133F5E70123E0
:103030002373D9E72846FFF769FC2073D6E7286B8E
:10304000FFF758FAA062D4E7B8850038208B003823
:10305000014B1868704700BFB8850038002834D08D
:1030600038B50446436E013B4366C16A026E914225
:103070002DD00BB1002038BD051D2846FFF72BF8D9
:10308000236EE362C3F10502A261124A1268934201
:1030900001D9104A1360104AC3EBC30302EB830348
:1030A0005B68A3609968E1604D609D60E36AC3EB73
:1030B000C30102EB8100606152F821100131C3EBC2
:1030C000C30342F823100120D5E7002070470020F9
:1030D000D1E700BF608A0038C4850038034B036025
:1030E000034B0B6080231360704700BFA08A003839
:1030F0005886003830B591B000231F2B09DC154AE3
:10310000D25C03F14001694401F8202C0AB101337B
:10311000F3E70024002C02DD012011B030BD0025B2
:103120000595069507AA06A905A8FFF7D7FF059BF1
:103130000293069B019300952B46079A08A906481F
:10314000FFF7BEFB054B43F8240008B10134E1E76B
:103150000020E2E740600010BD2C00109C8A00387F
:1031600008B5FFF7C7FF012804D0012805D00A4B96
:103170001B6808BD00F0A6F9F7E700F047FC074B15
:103180004FF0FF321A60064B01221A60054B0022F5
:103190001A6000F0F5FBEAE70C000038148B0038E9
:1031A0003C8B0038788B0038034B0360034B0B607B
:1031B00080231360704700BF7C8B00386088003824
:1031C000064B1A6813682BB90123036023B9D3682F
:1031D000186870470023F8E700207047F48B003828
:1031E00008B54160006191420CD8D21A83699A42B5
:1031F00001D3012008BD011D094B1868FEF752FFDD
:103200000020F7E79A4201D2994206D2011D054BF0
:103210001868FEF747FF0020ECE70120EAE700BF4F
:10322000F88B0038F48B003870B504460D4616460E
:1032300004E0A3691D44236A20469847A1692B46F0
:10324000324629442046FFF7CBFF0028F1D170BD5C
:1032500070B505460E460D4B1B68DB68DC68201D0B
:10326000FEF739FF94F8283013F0040F07D123F04C
:10327000010384F82830236A2046984770BD3246FF
:1032800029462046FFF7D0FFF5E700BFF48B003852
:1032900008B505E0DB684FF0FF311868FFF7D8FF8D
:1032A000054B1B681A68002AF4D1044A10680249C9
:1032B0000860136008BD00BFF48B0038F88B00383D
:1032C00038B50546FFF778FB0446074B1B68834279
:1032D00005D800232B60044B1C60204638BDFFF747
:1032E000D7FF01232B60F6E7D48C003870B582B08D
:1032F00006460C46FFF758FB01A8FFF7E1FF019BCC
:1033000003BB05460CB9B04210D224B10F4A126873
:10331000126892B901242246711B0D4B1868FFF701
:10332000A0F8FFF723FC50B102B070BDFFF71EFC00
:1033300029463046FFF78CFFF6E71C46EBE700F026
:1033400093FAF1E7FFF712FCEEE700BFF88B0038C5
:103350003C8D003830B587B000230293039304936B
:10336000059302E0029B002B0FDA002202A9364BE4
:103370001868FEF7FEFF002864D0029B002BF1DAEC
:1033800005990498039B9847ECE7049C636913B183
:10339000201DFEF7A0FE01A8FFF792FF0546029B45
:1033A000013B082BE1D8DFE803F0050529303F0594
:1033B0000529300094F8283043F0010384F82830C0
:1033C000039BA169024619442046FFF709FF002824
:1033D000CBD094F8283013F0040F07D123F0010369
:1033E00084F82830236A20469847BEE7A3692A4616
:1033F000039919442046FFF717FFF3E794F82830A4
:1034000023F0010384F82830AFE794F8283043F024
:10341000010384F828300399A16103460246014460
:103420002046FFF7DDFEA0E794F8283013F0020FE6
:1034300004D023F0010384F8283096E7204600F0FA
:1034400037F992E707B030BD3C8D003800B583B046
:1034500001A8FFF7B5FE0199FFF748FFFFF77AFFD4
:10346000F6E7000030B583B000F00AFA0E4B1B6897
:103470001BB100F013FA03B030BD0C4D2846FEF727
:1034800001FE0B4C2046FEF7FDFD0A4B1D600A4B6A
:103490001C6000230093094B094A10210A20FEF703
:1034A00049FF014B1860E4E73C8D00389C8C0038E4
:1034B000B88C0038F48B0038F88B0038D88C003882
:1034C000FC8B003810B588B0FFF7CCFF104B1B68A1
:1034D000D3B100240594069407AA06A905A8FFF70E
:1034E00063FE059B0293069B0193042300932346EE
:1034F000079A08490848FFF7E3F9084B186008B134
:10350000012002E0204600E0002008B010BD00BF0E
:103510003C8D0038486000104D340010408D00385C
:10352000104A12F0070F1AD0D11D21F00701C1F582
:10353000004313440A460C480260002141601344D2
:10354000083B23F007030948036059601960991A82
:1035500051601360064B1960064B196070474FF4B9
:103560000043E8E770040038588D0038448D003877
:103570004C8D0038488D0038164B1A461B68834224
:10358000FBD3516802EB010C844509D0416800EB84
:10359000010C634509D00360904219D01060704758
:1035A0004068014451601046F0E710B40A4C2468AA
:1035B000A3420BD05B681944416013681B68036029
:1035C000904200D010605DF8044B70470460F7E74C
:1035D000704700BF588D0038448D003870B50446E0
:1035E00070B110F1090F0AD8083414F0070307D09E
:1035F000C3F10803DA43A24212D31C4400E00024C2
:10360000FFF7D2F9254B1B6863B1002C3EDB002C81
:103610003ED0234B1E68A6423CD322490B6806E0ED
:103620000024EDE7FFF77CFFEFE7194613465A68E1
:10363000A24202D21A68002AF7D1184A12689A42A6
:103640002AD00D6808351A680A605868001B1028CF
:1036500005D91A1950605C60086818510A605968E9
:10366000761A0F48066010480068864201D20E485C
:10367000066041F00041596000221A600B4A13684D
:1036800001331360FFF772FA284670BD0025F9E791
:103690000025F7E70025F5E70025F3E7448D00381E
:1036A000488D0038588D00384C8D0038508D0038CA
:1036B00008B338B50446A0F1080550F8043C002BC7
:1036C00002DA50F8082C02B138BD23F0004340F86C
:1036D000043CFFF769F954F8041C074A13680B44CB
:1036E00013602846FFF748FF044A1368013313604C
:1036F000FFF73CFAE8E77047488D0038548D0038F2
:1037000000B583B00023019300F080F9019B002BEA
:10371000FCD003B05DF804FB10B5414B1C6884423B
:1037200000D3044672B6BFF34F8FBFF36F8FFFF71E
:1037300011FC08B962B610BD4FF0E02306221A61F1
:103740009B690BB9374B1B68601E364A126802FB37
:1037500000334FF0E022D2F8042D12F0806F08D031
:103760004FF0E0224FF00071C2F8041D2D4A12689C
:103770009B1A2D4A12689A4200D29B1A4FF0E022FF
:10378000536100219161116941F00101116124B17E
:10379000BFF34F8F30BFBFF36F8F62B6BFF34F8F52
:1037A000BFF36F8F72B6BFF34F8FBFF36F8F4FF0C2
:1037B000E02206211161126912F4803F1FD0194ADC
:1037C00011684FF0E0229269D31A0B44013B164A6C
:1037D00012689A4201D2994200D24B1E4FF0E02269
:1037E00053614FF0E02300229A6107221A610D4ACB
:1037F0001268013A5A61FFF7EBF862B69BE74FF0A7
:10380000E0218B69074A126802FB04F4E01AB0FB5E
:10381000F2F000FB02221C1B14444C61E1E700BFE4
:10382000688D0038648D0038608D00380B4B44F68D
:1038300020621A600A4B40F246321A60094B5E223F
:103840001A604FF0E02304221A6100229A6144F6C4
:103850001F625A6107221A61704700BF648D0038E9
:10386000688D0038608D00384FF0E0234FF08052B3
:10387000C3F8042DBFF34F8FBFF36F8F7047000065
:1038800008B500F0C3F8044A136801331360BFF3AE
:103890004F8FBFF36F8F08BD1000003808B5054B80
:1038A0001A68013A1A601B6803B108BD002000F0D5
:1038B000B8F8FAE71000003810B500F0A7F8044691
:1038C000FFF7A4F828B14FF0E0234FF08052C3F87F
:1038D000042D204600F0A5F810BD08B5836913F843
:1038E000023C662B00D008BD00F06AF8FBE7000040
:1038F00010B44FF0807440F8044C40F8082C1F4A74
:1039000040F80C2C4FF0123240F8102C4FF00332DC
:1039100040F8142C4FF0023240F8182C4FF00132CE
:1039200040F81C2C40F8203C4FF0113340F8243C68
:103930004FF0103340F8283C4FF0093340F82C3C4E
:103940004FF0083340F8303C4FF0073340F8343C38
:103950004FF0063340F8383C4FF0053340F83C3C1C
:103960004FF0043340F8403C6FF0020340F8443C11
:1039700040F8481C48385DF8044B70470137001088
:1039800010B54FF0E023D3F8202D42F47F02C3F8A6
:10399000202DD3F8202D42F07F42C3F8202D0024A3
:1039A000C3F81C4DFFF742FF044B1C6000F01EF8EB
:1039B000FFF7A0F9FFF7A4FE204610BD1000003865
:1039C000094A1168086806C881F30B88022181F34F
:1039D0001488203080F30988BFF36F8F4FF0000008
:1039E00080F3118810470000B88500380648006849
:1039F000006880F3088862B661B6BFF34F8FBFF3EB
:103A00006F8F66DF00BF000008ED00E0EFF311806C
:103A10004FF0BF0181F31188BFF34F8FBFF36F8F5A
:103A2000704780F31188BFF34F8FBFF36F8F7047DC
:103A3000EFF30980EFF30B82734620E9FC0F0D4A88
:103A4000116808604FF0BF0080F31188BFF34F8FFB
:103A5000BFF36F8FFFF74EF94FF0000080F311882E
:103A6000044A11680868B0E8FC0F82F30B8880F301
:103A700009881847B88500381EF0040F0CBFEFF313
:103A80000880EFF30980014908470000DB38001087
:103A90000120704708B500F06DF8162303604FF061
:103AA000FF3008BD08B54FF0FF31FFF7F3FFFEE729
:103AB000154880F30988154880F30A8880F30B883D
:103AC000FCF76CFF124C134DAC420ADA21686268B5
:103AD000A3689B00043BA2BFC858D050FAE70C343F
:103AE000F2E70D4B0D4CA34209DA19685A689200AF
:103AF0000020043AA4BF8850FBE70833F3E7FCF743
:103B000031FFFEE7FEE700000000103800F00F383C
:103B1000306100103C6100103C6100103C610010FD
:103B200072B6114B1968114B1A681EF0040F0AD1B6
:103B3000EFF3088088420FDB90420DDC2DE9F00F97
:103B4000EFF3088009E0EFF30980EFF30B8188427F
:103B500002DB20E9F00F00E000BF7146044ABFF32A
:103B60004F8F62B6104700007085003874850038AA
:103B7000E91C0010014B1868704700BF14000038A2
:103B8000844641EA000313F0030349D1403A23D3AA
:103B90000B6803604B6843608B688360CB68C360CD
:103BA0000B6903614B6943618B698361CB69C361B5
:103BB0000B6A03624B6A43628B6A8362CB6AC3629D
:103BC0000B6B03634B6B43638B6B8363CB6BC36385
:103BD00040304031403ADBD230320BD30B680360C7
:103BE0004B6843608B688360CB68C36010301031D2
:103BF000103AF3D20C3205D351F8043B40F8043BA1
:103C0000043AF9D2043208D0D2071CBF11F8013BA4
:103C100000F8013B01D30B8803806046704700BF6A
:103C2000082A13D38B07B1D010F00303AED0C3F131
:103C30000403D21ADB071CBF11F8013B00F8013B5B
:103C4000A4D331F8023B20F8023B9FE7043AD9D3D2
:103C5000013A11F8013B00F8013BF9D20B780370EF
:103C60004B7843708B7883706046704770B58607D9
:103C700048D0541E002A3FD0CAB2034601E0013C9E
:103C80003AD303F8012B9D07F9D1032C2DD9CDB2DE
:103C90000F2C45EA052545EA054536D9A4F1100C57
:103CA00003F1200E03F110022CF00F064FEA1C1C4A
:103CB000B64442E9045542E9025510327245F8D142
:103CC0000CF1010214F00C0F04F00F0C03EB0212C4
:103CD00013D0ACF1040323F003030433134442F87C
:103CE000045B9342FBD10CF003042CB1CAB21C4418
:103CF00003F8012B9C42FBD170BD64461346002C97
:103D0000F4D1F9E703461446BFE71A46A446E0E7B4
:103D1000024B13B1024800F005B8704700000000E4
:103D2000313D0010002301461A46184600F01AB82B
:103D300038B5084B084D5B1B9C1007D0043B1D4455
:103D4000013C55F804399847002CF9D1BDE83840BA
:103D500001F084BE500400384C040038704700BFA6
:103D6000704700BF2DE9F047DFF884A0064698466B
:103D70000F46DAF800009146FFF7F0FF1B4B1B6877
:103D8000D3F8484134B365681F2D28DC5EB96B1C3D
:103D90000235DAF80000636044F82570FFF7E0FFB1
:103DA0000020BDE8F08704EB85010123022EC1F855
:103DB000889003FA05F3D4F8882142EA0302C4F894
:103DC0008821C1F80881E2D1D4F88C211343C4F8CA
:103DD0008C31DCE703F5A674C3F84841D3E7DAF881
:103DE0000000FFF7BDFF4FF0FF30DAE75060001032
:103DF0004004003881F0004102E000BF83F000433E
:103E000030B54FEA41044FEA430594EA050F08BF75
:103E100090EA020F1FBF54EA000C55EA020C7FEA39
:103E2000645C7FEA655C00F0E2804FEA5454D4EBB6
:103E30005555B8BF6D420CDD2C4480EA020281EA80
:103E4000030382EA000083EA010180EA020281EAB8
:103E50000303362D88BF30BD11F0004F4FEA01310A
:103E60004FF4801C4CEA113102D0404261EB410119
:103E700013F0004F4FEA03334CEA133302D052429F
:103E800063EB430394EA050F00F0A780A4F101045B
:103E9000D5F1200E0DDB02FA0EFC22FA05F2801895
:103EA00041F1000103FA0EF2801843FA05F359417B
:103EB0000EE0A5F120050EF1200E012A03FA0EFCFA
:103EC00028BF4CF0020C43FA05F3C01851EBE37124
:103ED00001F0004507D54FF0000EDCF1000C7EEB41
:103EE00000006EEB0101B1F5801F1BD3B1F5001F7F
:103EF0000CD349085FEA30004FEA3C0C04F101049E
:103F00004FEA445212F5800F80F09A80BCF1004FC6
:103F100008BF5FEA500C50F1000041EB045141EA48
:103F2000050130BD5FEA4C0C404141EB0101013C11
:103F300028BFB1F5801FE9D291F0000F04BF014600
:103F40000020B1FA81F308BF2033A3F10B03B3F1D2
:103F500020020CDA0C3208DD02F1140CC2F10C0262
:103F600001FA0CF021FA02F10CE002F11402D8BFC0
:103F7000C2F1200C01FA02F120FA0CFCDCBF41EA8C
:103F80000C019040E41AA2BF01EB0451294330BD5B
:103F90006FEA04041F3C1CDA0C340EDC04F1140438
:103FA000C4F1200220FA04F001FA02F340EA03000F
:103FB00021FA04F345EA030130BDC4F10C04C4F155
:103FC000200220FA02F001FA04F340EA0300294635
:103FD00030BD21FA04F0294630BD94F0000F83F47F
:103FE000801306BF81F480110134013D4EE77FEA62
:103FF000645C18BF7FEA655C29D094EA050F08BFAE
:1040000090EA020F05D054EA000C04BF194610468E
:1040100030BD91EA030F1EBF0021002030BD5FEAD2
:10402000545C05D14000494128BF41F0004130BDFA
:1040300014F580043CBF01F5801130BD01F000454E
:1040400045F0FE4141F470014FF0000030BD7FEAC1
:10405000645C1ABF194610467FEA655C1CBF0B46BC
:10406000024650EA013406BF52EA033591EA030FD3
:1040700041F4002130BD00BF90F0000F04BF0021CB
:10408000704730B54FF4806404F132044FF00005FE
:104090004FF0000150E700BF90F0000F04BF002177
:1040A000704730B54FF4806404F1320410F00045DD
:1040B00048BF40424FF000013EE700BF42004FEAD8
:1040C000E2014FEA31014FEA02701FBF12F07F4355
:1040D00093F07F4F81F06051704732F07F4208BF0C
:1040E000704793F07F4F04BF41F40021704730B513
:1040F0004FF4607401F0004521F000411CE700BF5F
:1041000050EA010208BF704730B54FF000050AE0E1
:1041100050EA010208BF704730B511F0004502D5E2
:10412000404261EB41014FF4806404F132045FEAE4
:10413000915C3FF4D8AE4FF003025FEADC0C18BF8D
:1041400003325FEADC0C18BF033202EBDC02C2F17F
:10415000200300FA03FC20FA02F001FA03FE40EA11
:104160000E0021FA02F11444BDE600BF70B54FF015
:10417000FF0C4CF4E06C1CEA11541DBF1CEA1355F3
:1041800094EA0C0F95EA0C0F00F0DEF82C4481EA5B
:10419000030621EA4C5123EA4C5350EA013518BF7B
:1041A00052EA033541F4801143F4801338D0A0FB68
:1041B00002CE4FF00005E1FB02E506F00042E0FB15
:1041C00003E54FF00006E1FB03569CF0000F18BF1B
:1041D0004EF0010EA4F1FF04B6F5007F64F54074C3
:1041E00004D25FEA4E0E6D4146EB060642EAC62156
:1041F00041EA55514FEAC52040EA5E504FEACE2EC3
:10420000B4F1FD0C88BFBCF5E06F1ED8BEF1004FC5
:1042100008BF5FEA500E50F1000041EB045170BD41
:1042200006F0004646EA010140EA020081EA030185
:10423000B4EB5C04C2BFD4EB0C0541EA045170BD81
:1042400041F480114FF0000E013C00F3AB8014F1FB
:10425000360FDEBF002001F0004170BDC4F1000444
:10426000203C35DA0C341BDC04F11404C4F12005C5
:1042700000FA05F320FA04F001FA05F240EA020020
:1042800001F0004221F0004110EBD37021FA04F656
:1042900042EB06015EEA430E08BF20EAD37070BD10
:1042A000C4F10C04C4F1200500FA04F320FA05F06F
:1042B00001FA04F240EA020001F0004110EBD37071
:1042C00041F100015EEA430E08BF20EAD37070BDE1
:1042D000C4F1200500FA05F24EEA020E20FA04F3BA
:1042E00001FA05F243EA020321FA04F001F0004169
:1042F00021FA04F220EA020000EBD3705EEA430EDA
:1043000008BF20EAD37070BD94F0000F0FD101F008
:104310000046400041EB010111F4801F08BF013C41
:10432000F7D041EA060195F0000F18BF704703F07F
:104330000046520043EB030313F4801F08BF013D06
:10434000F7D043EA0603704794EA0C0F0CEA1355C2
:1043500018BF95EA0C0F0CD050EA410618BF52EA7C
:104360004306D1D181EA030101F000414FF0000082
:1043700070BD50EA410606BF1046194652EA430690
:1043800019D094EA0C0F02D150EA013613D195EA04
:104390000C0F05D152EA03361CBF104619460AD14C
:1043A00081EA030101F0004141F0FE4141F4700156
:1043B0004FF0000070BD41F0FE4141F4780170BD46
:1043C00070B54FF0FF0C4CF4E06C1CEA11541DBFAB
:1043D0001CEA135594EA0C0F95EA0C0F00F0A7F8AD
:1043E000A4EB050481EA030E52EA03354FEA0131DA
:1043F00000F088804FEA03334FF0805545EA1313ED
:1044000043EA12634FEA022245EA111545EA1065B4
:104410004FEA00260EF000419D4208BF964244F14B
:10442000FD0404F5407402D25B084FEA3202B61A6A
:1044300065EB03055B084FEA32024FF480104FF43E
:10444000002CB6EB020E75EB030E22BFB61A7546B2
:1044500040EA0C005B084FEA3202B6EB020E75EB45
:10446000030E22BFB61A754640EA5C005B084FEAAD
:104470003202B6EB020E75EB030E22BFB61A75467A
:1044800040EA9C005B084FEA3202B6EB020E75EB85
:10449000030E22BFB61A754640EADC0055EA060E46
:1044A00018D04FEA051545EA16754FEA06164FEA89
:1044B000C30343EA52734FEAC2025FEA1C1CC0D135
:1044C00011F4801F0BD141EA00014FF000004FF0C2
:1044D000004CB6E711F4801F04BF01430020B4F183
:1044E000FD0C88BFBCF5E06F3FF6AFAEB5EB030C3B
:1044F00004BFB6EB020C5FEA500C50F1000041EB38
:10450000045170BD0EF0004E4EEA113114EB5C0404
:10451000C2BFD4EB0C0541EA045170BD41F48011D7
:104520004FF0000E013C90E645EA060E8DE60CEADF
:10453000135594EA0C0F08BF95EA0C0F3FF43BAFFC
:1045400094EA0C0F0AD150EA01347FF434AF95EAB3
:104550000C0F7FF425AF104619462CE795EA0C0F97
:1045600006D152EA03353FF4FDAE1046194622E764
:1045700050EA410618BF52EA43067FF4C5AE50EA3E
:1045800041047FF40DAF52EA43057FF4EBAE12E72E
:104590004FF0FF3C06E000BF4FF0010C02E000BF0F
:1045A0004FF0010C4DF804CD4FEA410C7FEA6C5CF2
:1045B0004FEA430C18BF7FEA6C5C1BD001B050EA95
:1045C000410C0CBF52EA430C91EA030F02BF90EA80
:1045D000020F0020704710F1000F91EA030F58BF3F
:1045E000994208BF90422CBFD8176FEAE37040F0A1
:1045F000010070474FEA410C7FEA6C5C02D150EA3F
:10460000013C07D14FEA430C7FEA6C5CD6D152EAF9
:10461000033CD3D05DF8040B704700BF84461046BE
:1046200062468C461946634600E000BF01B5FFF7BD
:10463000B7FF002848BF10F1000F01BD4DF808ED8D
:10464000FFF7F4FF0CBF012000205DF808FB00BF5E
:104650004DF808EDFFF7EAFF34BF012000205DF8B8
:1046600008FB00BF4DF808EDFFF7E0FF94BF012005
:1046700000205DF808FB00BF4DF808EDFFF7CEFF06
:1046800094BF012000205DF808FB00BF4DF808ED45
:10469000FFF7C4FF34BF012000205DF808FB00BF16
:1046A0004FEA410212F5001215D211D56FF478735A
:1046B000B3EB625212D94FEAC12343F0004343EAFD
:1046C000505311F0004F23FA02F018BF40427047D8
:1046D0004FF00000704750EA013005D111F0004062
:1046E00008BF6FF0004070474FF00000704700BFF8
:1046F0004A0011D212F5001211D20DD56FF4787361
:10470000B3EB62520ED44FEAC12343F0004343EAB5
:10471000505323FA02F070474FF00000704750EA00
:10472000013002D14FF0FF3070474FF0000070476A
:1047300053B94AB9002908BF00281CBF4FF0FF3108
:104740004FF0FF3001F034B9ADF1080C6DE904CE43
:1047500000F006F8DDF804E0DDE9022304B070475C
:104760002DE9F04F099D04460F46002B48D18A429F
:10477000944661D9B2FA82F343B1C3F120019F405C
:1047800002FA03FC9C4020FA01F10F434FEA1C415E
:104790001FFA8CFE220CB7FBF1F601FB167706FB25
:1047A0000EF042EA0742904208D91CEB020206F1E1
:1047B000FF3702D2904200F237813E46121AA4B26D
:1047C000B2FBF1F001FB102200FB0EFE44EA0244B2
:1047D000A64508D91CEB040400F1FF3202D2A6451D
:1047E00000F21C81104640EA0640A4EB0E040026AD
:1047F0001DB1DC400023C5E900433146BDE8F08F20
:104800008B4209D9002D00F0FD800026C5E900018A
:1048100030463146BDE8F08FB3FA83F6002E4BD117
:104820008B42C0F0F280824240F2EF803046002D91
:10483000E3D0C5E90047E0E702B9FFDEB2FA82F350
:10484000002B40F09D80891A4FEA124E97B2012644
:10485000200CB1FBFEF20EFB121140EA014107FBF6
:1048600002F088420FD91CEB010102F1FF382CBF86
:104870004FF001094FF00009884203D9B9F1000F48
:1048800000F0CF804246091AA4B2B1FBFEF00EFB45
:10489000101100FB07F744EA0144A74208D91CEBBA
:1048A000040400F1FF3102D2A74200F2B4800846AE
:1048B000E41B40EA02409BE7C6F12007B34001FA3F
:1048C00006F422FA07FCF940B2404CEA030C20FA45
:1048D00007F34FEA1C491C431FFA8CFE00FA06F34B
:1048E000200CB1FBF9F809FB181140EA014108FB63
:1048F0000EF088420FD91CEB010108F1FF3A2CBFE2
:104900004FF0010B4FF0000B884203D9BBF1000FB1
:1049100000F08D80D046091AA4B2B1FBF9F009FB72
:10492000101100FB0EFE44EA01418E4507D91CEB35
:10493000010100F1FF3401D28E457FD8204640EAC4
:104940000840A1EB0E01A0FB029841454C46C6462B
:1049500002D306D14B4504D20138B9EB020468EB0F
:104960000C0E002D70D01A1B61EB0E0122FA06F31B
:1049700001FA07F7F14000261F43C5E900713CE743
:1049800002FA03FCC3F1200001FA03F221FA00F657
:104990004FEA1C4E24FA00F11FFA8CF79C40114399
:1049A000B6FBFEF00A0C0EFB106642EA064200FB64
:1049B00007F696420ED91CEB020200F1FF382CBF1D
:1049C0004FF001094FF00009964202D9B9F1000FEA
:1049D00031D04046921B89B2B2FBFEF60EFB162286
:1049E00041EA024106FB07F28A4207D91CEB0101AA
:1049F00006F1FF3801D28A4223D84646891A46EA90
:104A0000004625E72E462846F7E6841A61EB0303A5
:104A100001201F460BE76444023849E7644402382A
:104A2000E1E6023A61442EE7023E6244C6E6A8F19E
:104A3000020861446FE702386244CBE70238614400
:104A40007DE7023E6144D9E72E46D6E603685A0068
:104A50004CBF43F0004323F000431844704700BFAD
:104A60002DE9F04739B301F1FF38064617464FF0FC
:104A70000009454619EB050148BF0131491006EB15
:104A8000C10ACC005046FFF7E1FF083488450346D1
:104A900006EB040009D0BB4209D8FFF7D7FF013865
:104AA00001F10109B842E5D307E0BB4205D98945C8
:104AB00001F1FF35DED14FF0000A5046BDE8F08726
:104AC000012807D0022807D00028044B14BF00207B
:104AD000184670470248704702487047D15100108D
:104AE000D5510010D9510010234B30B5044683B086
:104AF0008D1E43B301A9284600E000BFF0B1019923
:104B00002A46FFF7ADFF0146C0B1FFF79FFF4B6894
:104B1000A064012B2CD0002B01F1040024DBFFF753
:104B200095FF0023C4E913030368002B11DBFFF793
:104B30008DFF03460020236103B030BD0023092010
:104B4000236103B030BD0D480D49091AC910019108
:104B5000D6E7C3F30360FFF7B3FF0028206114BF5B
:104B60000020092003B030BD0123C4E91303DBE7B3
:104B7000002305202361DFE70000000070600010C3
:104B8000306100100368DA0710B5044606D49B07AD
:104B900000F1480009D500F08FFC2368590709D5BA
:104BA0001A070ED5DB0613D510BD00F07DFC236877
:104BB0005907F5D404F1D00000F086FC23681A07E9
:104BC000F0D404F5A87000F087FC2368DB06EBD472
:104BD00004F5E870BDE8104000F0C2BC0920704741
:104BE0000346006800B11844704700BF704700BF1B
:104BF00070B504460E46316C2046FFF775FF05463A
:104C000098B9D6F840C03246236921460120C4F83D
:104C100014C098470828EED0072806D12846316CE2
:104C2000FFF7E4FF301D00F033FC00F0C3FE00BFCF
:104C30002DE9F04701F1040CADF5747DC768064617
:104C4000D0F8188014460DF1140E04AD4FF0000991
:104C5000BCE80F00AEE80F00BCE80F00AEE80F00A4
:104C6000BCE80F00AEE80F009CE80F008EE80F00D4
:104C7000C5F8009023E02B6C4FF4F07229467CA815
:104C80007361FEF77DFF7CAA314633695046984731
:104C90008A9B2146814603933246039C334601207A
:104CA0006C64CDE90058B8470446E8B94FF4F07297
:104CB0007CA92846FEF764FFB9F1080F1BD109341F
:104CC000296C3046FFF710FF81465FFA84FA00280E
:104CD000D1D0AC6B334632464AF010016C640120EF
:104CE000CDE90058B84708B14FF0090948460DF51D
:104CF000747DBDE8F087B9F1070FF5D12046296C26
:104D0000FFF774FF05A800F0C3FB00BF406C7047BD
:104D1000F0B5CB6BF9B001F1040C0E460B6401AC9D
:104D200005464FF0FF37BCE80F000FC4BCE80F008A
:104D30000FC4BCE80F000FC49CE80F0084E80F000C
:104D4000009706E02B696A462946984708280446DA
:104D500008D110992846FFF7C7FE0028F2D0092095
:104D600079B0F0BD6846FFF70DFF062CF7D131464C
:104D70002846FFF73DFF00BF10B4DC6BC160194649
:104D8000826100221C6410BC52E700BF70B5436909
:104D9000C6680B64AEB903690A4604460D4601466F
:104DA00002209847072805D008280FD12946204619
:104DB000FFF71EFF3046296CFFF718FF281D00F093
:104DC00067FB0122FFF734FF00F0F4FD00F0F2FD75
:104DD000C2682AB1D1F83CC00022C1F840C027E720
:104DE00096E700BF704700BF836801460BB1012002
:104DF00018477047012915D00CD88BB90F2A94BFDA
:104E00000021012161B900EB820208465368009A33
:104E1000136070470339012994BF012002207047B5
:104E2000022070470846704710B584B000230A4638
:104E300003AC19460094FFF7DDFF039804B010BDE2
:104E4000012915D00CD88BB90F2A94BF002101215C
:104E500061B9009B00EB820208461B6853607047F3
:104E60000339012994BF01200220704702207047B6
:104E70000846704710B584B0002303AC03920A467D
:104E800019460094FFF7DCFF04B010BDF0B5D36BFA
:104E9000ADF50F7D141D064613640DF15C0C0D4637
:104EA0004FF0FF370FCCACE80F000FCCACE80F0091
:104EB0000FCCACE80F0094E80F008CE80F001697B9
:104EC00010E0FFF7D7FF294616A8B047034616AAF9
:104ED0006946082083B9049B9847052804460CD0EE
:104EE00009280AD026996846FFF7FEFD03466A4660
:104EF0000C2116A8002BE4D0092416A8FFF742FEC7
:104F000020460DF50F7DF0BD2DE9F04FCC6C89B03A
:104F10001E460D4654F8043B174600F0030806945D
:104F2000002E7FD01A0C1B048DF81D20D2B20593E1
:104F3000022304EB82048DF81C30B8F1020F2B6DB4
:104F400008BFAC6B13F0010308D005A9384600F088
:104F5000A1FB90BB082009B0BDE8F08FD4F800A0F9
:104F6000BAF1000FF1D0019300F008030293022E72
:104F700054D0B4F800A0043434F8029CAB6C29F08F
:104F8000010B0F2138469B44FFF74EFF834518D88D
:104F90002AF001039B44834513D94FEA49030AF0E1
:104FA000010A03F0020343EA0A03012B00F0BF8069
:104FB000022B00F08980002B4DD0092009B0BDE8FC
:104FC000F08F4FEA49030AF0010A03F0020343EAB3
:104FD0000A03012B3AD0022B2AD0002BEDD1043446
:104FE000D4F800A0BAF1000FC1D105A9384600F0ED
:104FF00051FB0028E1D1019B002BABD00F2138469B
:10500000FFF712FF0E2102463846FFF733FF3846FE
:105010006E4A0F21FFF72EFF0720CFE7D4F8049048
:105020000834ABE71B0205930323ADF81C3084E77B
:10503000236823F0004BB8F1000F21D1002B00DAD8
:1050400004340BF1010B04EB8B04C9E7B8F1000F3A
:1050500020D10834C4E7B8F1000FC0D02046043492
:10506000FFF7F4FC0646AC63284600E000BF0028CA
:10507000A3D0384632460F21FFF7FCFE07209DE7FC
:10508000D5F820900D213846FFF7CEFE814579D026
:105090002368D3E7D5F820900D213846FFF7C4FEEA
:1050A0008145D6D1AB6A9C42D3D120460F21FFF770
:1050B000CDFC02463846FFF7DDFE38462A46002181
:1050C000FFF7D8FE072079E7236823F0004BB8F1FB
:1050D000000FD5D1029A12B1BBF1000FAED105F18C
:1050E0005803CDF80C8004F1040AB0464FF00009D3
:1050F0001E460DE0504604960022FFF771FD04ABFA
:10510000014628460AF1040A00E000BF00284AD1FF
:10511000D94509F10109EDD10D213846FFF784FE8B
:10512000049B024606202A62C5E9093446E7B8F125
:10513000000FAFD163682268991C4FEAD2723FF426
:105140003CAF05F158010133049131D0201DFFF728
:1051500047FD04AB0146284600E000BF00283FF4AD
:1051600078AF81460D213846FFF75EFEB9F1020F98
:10517000286222D12B46049A43F82C2F6B6206201A
:10518000AC621BE7AB6A9C4282D104230022C5F8C3
:1051900028B0C5E90B23E3186B632368002B0FDBF2
:1051A000012301934DE746462368DDF80C8045E76F
:1051B0000D213846FFF738FE2862049B6B62DEE75C
:1051C0000BF101000F2104EB800070E700000000EC
:1051D000002399E6012397E6022395E62DE9F043A3
:1051E0000646C3B015461C46042900F2C280DFE81B
:1051F00001F0A359C02C0300002C40F0BA80102A03
:1052000000F2B7800368DF0600F1B78020AF3846B0
:1052100000F0B0F9B46B394600234FF0010C0CFAE2
:1052200003F2204601332A4203D050F8042B0446EF
:105230000A60042B01F10401F1D13846B46300F097
:105240008FF9002043B0BDE8F083032C40F091803B
:105250001FFA82F8140C08EB1245102D00F2898019
:1052600003681A0700F1CD8020AF384600F056F9E8
:10527000B56B07EBC401B8F1000F0BD00B4601EB87
:10528000C8014FEAC808E81A1A5843F8042B8B42A1
:10529000FAD145443846B56300F01EF9002043B00A
:1052A000BDE8F08304F0FB034FEA124895B2012BEE
:1052B0005FD1012C08EB050958D0B9F1200F58D85F
:1052C000B8F10F0F75D9052CA94600F0A480002D68
:1052D0004FD1B36B65B320AF4FF0000907EBC807A0
:1052E00003EBC505043F53F8041B9D4247F8041F18
:1052F000F9D1B9F1000F0FD06F46414603EBC90554
:10530000102938BF102107EBC101843953F8040B71
:105310009D4241F8040FF9D1012C7AD0B8F10F0F5A
:10532000B5636AD9B9F1000F02D0684600F0CCF835
:10533000002043B0BDE8F083DCB9876B23461FFA39
:1053400082FC0120341D00FA03F13A4611EA0C0FE9
:1053500004D052F8041B174644F823100133102BD5
:10536000F1D115F40050E3D1B76303E0B9F1100FA8
:105370000BD9022043B0BDE8F08323F0100300F501
:10538000E870336000F0F6F840E7B8F10F0FF0D89E
:105390000368D80750D420AF384600F089F8B36BC3
:1053A000002D99D11D4604353846B56300F07CF8D0
:1053B000BEE7B9F1100F58D9052CDAD13368A9F13D
:1053C0001009DD0709D523F00103304643F002033D
:1053D00040F8483B00F074F83368590721D420A8FE
:1053E00000F06EF86F46C8F11005384600F070F80E
:1053F000002DB36B81DD20AF70E720A800F05CF8D2
:1054000090E723F0080300F5A870336000F086F8F9
:105410002AE720AFC7E7002D3FF45BAF33685A0798
:10542000E0D523F00403304640F8D03B00F050F8BC
:10543000B8F10F0FD6D8D2E723F00303304640F877
:10544000483B00F035F8012CA5D0B8F10F0F3FF61E
:1054500040AF20AF384600F033F8B36B002D7FF437
:105460003BAF384600F028F862E73368D907EAD541
:10547000052CE1D123F00103304620AF43F00203B5
:1054800040F8483B00F01CF8384600F019F8E4E713
:1054900000F1340191E838009C46A6464CF8045DC2
:1054A00090E8FF0FE54600BD90EC210B704700BF70
:1054B00080EC210B704700BF90EC200B704700BFC1
:1054C00080EC200B704700BFD0EC200B704700BF72
:1054D000C0EC200B704700BFF0EC0201F0EC0211B1
:1054E000F0EC0221F0EC0231F0EC0241F0EC025160
:1054F000F0EC0261F0EC0271F0EC0281F0EC029150
:10550000F0EC02A1F0EC02B1F0EC02C1F0EC02D13F
:10551000F0EC02E1F0EC02F1704700BFE0EC0201B8
:10552000E0EC0211E0EC0221E0EC0231E0EC02419F
:10553000E0EC0251E0EC0261E0EC0271E0EC02818F
:10554000E0EC0291E0EC02A1E0EC02B1E0EC02C17F
:10555000E0EC02D1E0EC02E1E0EC02F1704700BFC8
:10556000B0FC0181B0FC0191B0FC01A1B0FC01B123
:10557000704700BFA0FC0181A0FC0191A0FC01A12B
:10558000A0FC01B1704700BFEC4600B52DE900500A
:105590002DE9FF1F4FF000032DE90C0001A9FFF7D3
:1055A000B7FBDDF840E012B0704700BFEC4600B535
:1055B0002DE900502DE9FF1F4FF000032DE90C00ED
:1055C00001A9FFF7E3FBDDF840E012B0704700BF30
:1055D000EC4600B52DE900502DE9FF1F4FF0000308
:1055E0002DE90C0001A9FFF7F3FBDDF840E012B054
:1055F000704700BFEC4600B52DE900502DE9FF1FB4
:105600004FF000032DE90C0001ABFFF7B5FBDDF80F
:1056100040E012B0704700BFEC4600B52DE90050E5
:105620002DE9FF1F4FF000032DE90C0001AAFFF741
:105630002DFCDDF840E012B0704700BF027A03464F
:105640008AB9427AB2B14168013A4FF0030C10B402
:1056500042720C1D086883F808C002025C60000EEC
:1056600010BC1A6070470068013A1A720202000EFC
:105670001A607047B020704710B584B000230C2228
:1056800003AC19460094FFF7B5FB039804B010BDB6
:10569000F2E700BF2DE9F0434FF0000885B0064661
:1056A0000D462846FFF7CAFFB028044600F0BC802C
:1056B000070620D500F0F003802B4ED0902B37D07A
:1056C000A02B61D0B02B76D0C02B00F08D8000F0E5
:1056D000F803D02B0BD100F007020523012130463F
:1056E000013242F40022FFF779FD0028D9D00920C9
:1056F00005B0BDE8F08383000DF10C090D223046A2
:10570000DBB2CDF800901F1D00231946FFF772FB96
:10571000039B60064FF00D023046CDF800904CBF61
:10572000DF1BFF18002303971946FFF789FBB8E733
:1057300000F00D030D2BDAD003AF002300F00F02B1
:10574000304619460097FFF755FB00230D223046DF
:1057500019460097FFF774FBA3E724022846FFF7DA
:105760006DFF2043B0F5004FC1D004010023304647
:10577000A2B21946FFF732FD0028B8D114F4004F49
:1057800018BF4FF001088CE7C2430107304602F012
:1057900007034FF47F6242FA03F24FF0000302F472
:1057A0007F62194648BF42F48042FFF717FD002888
:1057B0003FF477AF9BE7B1283BD0B22800F0A1803F
:1057C000B32841D000F0FC03B42B90D000F00702C6
:1057D00001231A4442F4002219463046FFF7FEFC2A
:1057E00000283FF45EAF82E7C62851D0C72862D0B8
:1057F00000F0F803C02B71D0C82876D0C9287FF4F8
:1058000076AF2846FFF71AFF020300F00F0002F4FC
:10581000702201300243012105233046FFF7DEFCF0
:1058200000283FF43EAF62E7B8F1000F1FD0002020
:105830005EE72846FFF702FF024600283FF457AF15
:1058400010F0F003C8D052E72846FFF7F7FE00F04B
:105850000F0302033046013302F470221A4301237E
:105860001946FFF7BBFC00283FF41BAF3FE703AC32
:1058700043460E22414630460094FFF7BBFA4346AA
:105880000F22304641460094FFF7DAFA40462FE7F0
:105890002846FFF7D3FE00F00F0302033046013322
:1058A00002F470221A4303231946FFF797FC0028DD
:1058B0003FF4F7AE1BE72846FFF7C0FE024600287C
:1058C0003FF415AF10F0F0037FF411AF0421304620
:1058D000FFF784FC00283FF4E4AE08E700F00F0275
:1058E0000323013242F4202276E72846FFF7A6FE82
:1058F00000F0F00200F00F031032013343EA0232ED
:1059000089E700230DF10C090D2230461946CDF828
:105910000090FFF76FFA2846FFF790FE02064FF05F
:1059200002040BD500F07F00039BA040073418440D
:1059300003902846FFF782FE0306F3D4039B00F092
:105940007F02CDF800903046A24003F501731A445F
:105950000023039219460D22FFF772FAA1E600BF59
:10596000C26C0B464FF0030C1846083252F8043C48
:1059700000B585B0029201A91A0E8DF80CC01B0269
:105980008DF80D200193FFF785FE05B05DF804FB4F
:1059900008B5FFF77DFE806C08BD00BF08B5FFF7B6
:1059A00077FEC06CC379023300EB830008BD00BFF3
:1059B000704700BF062008B500F004F80120FEF78C
:1059C00071F800BF38B51F28144B1D6820D8D5F8D2
:1059D000DC22044662B152F820304BB1012B15D0C5
:1059E000591C0FD0002542F820509847284638BD52
:1059F000284600F02BF8224601462846BDE83840EC
:105A000000F00EB8162301202B6038BD002038BDF1
:105A100016234FF0FF302B6038BD00BF1400003854
:105A200070B50C460346084D0026204611461C461C
:105A30002E60FEF72FF8431C00D070BD2B68002BA2
:105A4000FBD0236070BD00BF708D0038FEF720B81A
:105A5000F8B500BFF8BC08BC9E467047F8B500BF5B
:105A6000F8BC08BC9E4670476D61696E5F746173D7
:105A70006B0000006D61696E207461736B2063724E
:105A800065617465206661696C6564282564292EEA
:105A90000D0A000043616C6C537461636B20647584
:105AA0006D70206572726F723A2025640D0A0000D5
:105AB00043616C6C537461636B3A5B2000000000BF
:105AC00025303858200000005D200D00746869738F
:105AD0002069732025732E0D0A00000068656C6C28
:105AE0006F2074686973206973204672656552542B
:105AF0004F532E0D0000000053746172740D0000AE
:105B000068656C6C6F20776F726C64202D20256443
:105B10002E0D0A007465737435000000746573748B
:105B2000340000007465737433000000746573748E
:105B30003200000074657374310000007465737482
:105B400030000000666E6900666E692B0000000080
:105B50006E616E00666E692D00000000000000009E
:105B6000000000000000F03F0000000000002440A2
:105B700000000000000059400000000000408F407D
:105B8000000000000088C34000000000006AF840E8
:105B90000000000080842E4100000000D01263410C
:105BA0000000000084D797410000000065CDCD4182
:105BB000204558455F52455455524E3A203078257D
:105BC000303858200D0A0000436F6465205374611B
:105BD000636B3A5B25303858202D20253038585DCE
:105BE0002C2073697A653A25640D0A00436F646559
:105BF0002054657874203A5B25303858202D2025B4
:105C00003038585D2C2073697A653A25640D0A0096
:105C1000436F646520537461636B2047726F7774C0
:105C20006820446F776E776172643A25640D0A00CC
:105C300020486172644661756C7420496E666F72AB
:105C40006D6174696F6E2044756D70200D000000E9
:105C500020537461636B204672616D652020200DB6
:105C6000000000002052302020203D2030782530D8
:105C70003858200D0A0000002052312020203D20FD
:105C8000307825303858200D0A000000205232208C
:105C900020203D20307825303858200D0A000000A3
:105CA0002052332020203D20307825303858200DD8
:105CB0000A0000002052342020203D20307825307A
:105CC0003858200D0A0000002052352020203D20A9
:105CD000307825303858200D0A0000002052362038
:105CE00020203D20307825303858200D0A00000053
:105CF0002052372020203D20307825303858200D84
:105D00000A0000002052382020203D203078253025
:105D10003858200D0A0000002052392020203D2054
:105D2000307825303858200D0A00000020523130DC
:105D300020203D20307825303858200D0A00000002
:105D40002052313120203D20307825303858200D28
:105D50000A0000002052313220203D2030782530CA
:105D60003858200D0A000000204C522020203D20F1
:105D7000307825303858200D0A000000205043208C
:105D800020203D20307825303858200D0A000000B2
:105D90002050535220203D20307825303858200D97
:105DA0000A00000020537461636B2043616C6C3AFD
:105DB00020000000200D000020426974302045784A
:105DC00063657074205365637572697479205374C8
:105DD0006174653A000000005B557365205365638C
:105DE00075726974792053746174652E2E2E2E5D40
:105DF0002E0D00005B557365204E6F742053656354
:105E000075726974792053746174655D2E0D00009C
:105E1000204269743220537461636B20506F696E45
:105E2000742053656C6563742E2E2E3A00000000BA
:105E30005B557365205053502E2E2E2E2E2E2E2E57
:105E40002E2E2E2E2E2E2E5D2E0D00005B557365F0
:105E5000204D53502E2E2E2E2E2E2E2E2E2E2E2E0A
:105E60002E2E2E5D2E0D00002042697433205072BC
:105E70006F63204D6F6465204265666F72652049CF
:105E800052512E3A000000005B5573652054687231
:105E9000656164204D6F64652E2E2E2E2E2E2E5D94
:105EA0002E0D00005B5573652050726F6365737330
:105EB000204D6F64652E2E2E2E2E2E5D2E0D000091
:105EC000204269743420537461636B204672616DA3
:105ED0006520547970652E2E2E2E2E3A000000007B
:105EE0005B557365205374616E6461726420467201
:105EF000616D652E2E2E2E5D2E0D00005B55736597
:105F000020457874656E646564204672616D652E07
:105F10002E2E2E5D2E0D0000204269743520446522
:105F20006661756C742043616C6C2052756C652ED3
:105F30002E2E2E3A000000005B55736520446566E6
:105F400061756C742052756C652E2E2E2E2E2E5D72
:105F50002E0D00005B557365204E6F7420446566FE
:105F600061756C742052756C652E2E5D2E0D0000CF
:105F700020426974362053656375726974792053C1
:105F80007461636B2E2E2E2E2E2E2E3A00000000F2
:105F90005B5573652053656375726974792053741A
:105FA00061636B2E2E2E2E5D2E0D00005B557365EA
:105FB000204E6F7420536563757269747920537431
:105FC00061636B5D2E0D0000616464723A30782568
:105FD0003032582D76616C75653A307825303858F6
:105FE0000D0A00002043757272656E745461736B04
:105FF0003A2025732E0D0A0020537461636B2050E4
:106000006F696E743A203078253038582E0D0A00AA
:1060100020537461636B2053746172743A2030783A
:10602000253038582E0D0A0020537461636B2046CA
:10603000756C6C733A203078253038582E0D0A0074
:1060400049444C4500000000546D722053766300B3
:086050001800003800000000F8
:1060580008B10181B0B000840000000008B10181DE
:08606800B0B00084000000004C
:1060700040DAFF7FB0B0B080A8DAFF7F01000000F7
:1060800068EAFF7FB0A90280FCEAFF7FB0B0A88079
:106090004CEBFF7F0100000058EBFF7FB0B0AA80FF
:1060A00090EBFF7FAE73B28064ECFF7F01000000D5
:1060B00060ECFF7FAB3F3880C0ECFF7F0100000049
:1060C000CCECFF7FB0B0AA8008EDFF7F010000009C
:1060D000BCEDFF7FAB0EB28030EEFF7FB0AF08802B
:1060E000F0F0FF7F01000000F4F0FF7FAD3F028081
:1060F000A0F3FF7F0100000080F5FF7FB0A80380C0
:1061000090F5FF7F010000008CF5FF7FB0AD0480AB
:1061100050F8FF7F0084048078F8FF7F3CFFFF7F0A
:106120007CF8FF7F40FFFF7F88F8FF7F01000000C1
:0C6130003C610010000000381401000069
:10613C0040787D01FD1B0010FD1B001004000000C9
:10614C00AAAAAAAA1800003800000000040300380C
:10615C006C030038D403003800000000000000007D
:10616C000000000000000000000000000000000023
:10617C000000000000000000000000000000000013
:10618C000000000000000000000000000000000003
:10619C0000000000000000000000000000000000F3
:1061AC0000000000000000000000000000000000E3
:1061BC0000000000000000000000000000000000D3
:1061CC0000000000000000000000000000000000C3
:1061DC0000000000000000000000000000000000B3
