:020000041000EA
:1000000000001038D51F001029200010AD2000106E
:100010002920001029200010B120001029200010F4
:100020000000000000000000000000002920001077
:1000300029200010000000004D210010A120001018
:10004000292000102920001029200010292000104C
:10005000292000102920001029200010292000103C
:1000600029200010292000100000000000000000DE
:100070000000000000000000000000000000000080
:100080000000000000000000000000000000000070
:100090000000000000000000000000000000000060
:1000A0000000000000000000000000000000000050
:1007C00010B5054C237833B9044B13B1044800E04D
:1007D00000BF0123237010BD74000038000000002A
:1007E0002040001008B5034B1BB10349034800E04B
:1007F00000BF08BD00000000780000382040001055
:1008000010B501F0FBF8054801F0E8F8002100BF41
:100810004C1C034801F0C2F82146F8E73C3F0010A9
:10082000443F0010064B074A9A60D3F8882042F4F0
:100830007002C3F88820044B044A1A60704700BF56
:1008400000ED00E0000000100000003840787D015D
:1008500070470146002007E000EB8000531C0B604E
:10086000137803EB400030380A681378303BDBB272
:10087000092BF1D970472DE9F04F83B005460E469C
:1008800093461F46DDF830A00D9CDDF838900F9B95
:1008900013F0030F19D1A0460192C84509D202F105
:1008A000010B3B4631462020A84708F101085A4673
:1008B000F3E7DDF804B008E0013C02F101083B4633
:1008C00031461AF80400A8474246002CF4D10F9B89
:1008D00013F0020F03D1104603B0BDE8F08FA2EB76
:1008E0000B034B45F7D2541C3B4631462020A8470A
:1008F0002246F4E72DE9F04385B00C9D0D9C9DF850
:100900003890DDF83C80DDF840E0119F129E16F033
:10091000020F21D17FB116F0010F0CD0B9F1000FF9
:1009200002D116F00C0F06D0013F04E04FF0300C5E
:1009300005F804C00134744501D21F2CF6D916F015
:10094000010F09D0BC4207D21F2C05D84FF0300C44
:1009500005F804C00134F2E716F0100F17D016F4B2
:10096000806F04D11CB1744524D0BC4222D0B8F1B0
:10097000100F2BD0B8F1100F33D0B8F1020F3BD0CD
:100980001F2C04D84FF0300C05F804C001341F2C84
:1009900007D8B9F1000F37D04FF02D0C05F804C07F
:1009A00001340396029701940095FFF764FF05B0A8
:1009B000BDE8F083B4F1010C06D0B8F1100F01D0FE
:1009C0006446D4E7023CD2E76446D0E716F0200F35
:1009D000D0D11F2CCED84FF0780C05F804C00134CC
:1009E000CEE716F0200FC8D01F2CC6D84FF0580CF9
:1009F00005F804C00134C3E71F2CC1D84FF0620CC6
:100A000005F804C00134BBE716F0040F05D04FF021
:100A10002B0C05F804C00134C3E716F0080FC0D052
:100A20004FF0200C05F804C00134BAE7F0B591B0DE
:100A3000169C189D1B9E0CB926F0100616F4806EAD
:100A400016D064B34FF0000E12E00CF1300C5FFAD8
:100A50008CFC0EF101070EF1400EEE440EF820CC96
:100A6000B4FBF5FCAC421BD31F2F19D8BE4664461D
:100A7000B4FBF5FC05FB1C4C5FFA8CFCBCF1090FC8
:100A8000E3D916F0200F08D04127BC445FFA8CFC54
:100A9000ACF10A0C5FFA8CFCDBE76127F5E727462F
:100AA00006961A9C0594199C049403959DF85C4045
:100AB0000294019708AC0094FFF71CFF11B0F0BD41
:100AC0002DE9F04F95B009900A910B929B461E9D1F
:100AD0001F9E229FDDF88C80DDF898A055EA060362
:100AE00001D12AF0100A1AF480641FD055EA0603D7
:100AF00030D000241AE003F13002D2B204F101092F
:100B000004F150030DEB030404F8202C3A4643464D
:100B10002846314602F0C4F8BD4276EB08031BD3E9
:100B2000B9F11F0F18D84C4605460E463A464346C3
:100B30002846314602F0B4F8D3B2092BDBD91AF0BB
:100B4000200F05D041221A44D2B20A3AD2B2D5E7D8
:100B50006122F8E74FF00009CDF818A0259B059316
:100B6000249B049303979DF880300293CDF8049062
:100B70000CAB00935B460B9A0A990998FFF7BAFEF3
:100B800015B0BDE8F08F00002DE9F04F2DED028B80
:100B900091B082460C4693461D46DDE91C23104663
:100BA000194602F003F8002800F007814FF0FF32E9
:100BB000B14BDDE91C0102F021F8002840F0FD8076
:100BC0004FF0FF326FF48013DDE91C0101F0F8FFF4
:100BD000002840F0F28000220023DDE91C0101F032
:100BE000EFFF002840F0FE809DED1C7B8DED067B25
:100BF000209B13F480630F9301D106231E93DDE93C
:100C000006010246C1F30A50C1F31303904643F0B4
:100C10007F5949F44019A0F2FF3001F0F5FC84A39C
:100C2000D3E9002301F05AFD83A3D3E9002301F0A7
:100C30009FFB06460F460022904B4046494601F076
:100C400095FB7FA3D3E9002301F048FD02460B4644
:100C50003046394601F08CFB01F0DAFF064601F020
:100C6000D3FC8046894678A3D3E9002301F036FD02
:100C70000022834B01F07CFB01F0CAFF074674A3FE
:100C8000D3E900234046494601F028FD80468946C5
:100C9000384601F0B9FC70A3D3E9002301F01EFD32
:100CA00002460B464046494601F060FB80468946B5
:100CB00002460B4601F012FDCDE90A0107F2FF37AB
:100CC00000210022CDE908123B0509930023089377
:100CD00042464B464046494601F04AFBCDE90C01ED
:100CE00042464B4600204FF0804101F03FFB8046DA
:100CF00089460022634BDDE90A0101F019FE00225A
:100D0000614B01F035FB02460B46DDE90A0101F0BB
:100D10000FFE00225D4B01F02BFB02460B46DDE986
:100D20000A0101F005FE02460B464046494601F025
:100D30001FFB02460B46DDE90C0101F0F9FD002224
:100D4000534B01F015FBDDE9082301F0C7FC804699
:100D5000894649EC188BDDE9062301F04FFF40B1CD
:100D6000013E0022484B4046494601F0E1FD41EC7E
:100D7000180B06F16303C62B3FD80427209B13F4FE
:100D8000006F44D036A3D3E90023DDE9068940464D
:100D9000494601F029FF00283FD033A3D3E90023BF
:100DA0004046494601F00CFF002836D01E9BB34256
:100DB00025DD9E1B731E1E9323E0209B04931F9B27
:100DC00003931E9B02939DED1C7B8DED007B2B46B8
:100DD0005A462146504600F0CFF811B0BDEC028BC8
:100DE000BDE8F08F9FED227B8DED067B1C9B06936B
:100DF0001D9B03F100430793FAE60527BEE7002396
:100E00001E93209B43F48063209300273E461F9B44
:100E10009F423FD2A3EB07083EE01E9B002BF6D07B
:100E20000F9B002BF3D01E9B013B1E93EFE700BFEF
:100E3000FB799F501344D33FB3C8608B288AC63FC9
:100E400061436F63A787D23F71A379094F930A402B
:100E50001655B5BBB16B0240EF39FAFE422EE63FA4
:100E60002D431CEBE2361A3F0000000080842E4127
:100E70000000000000000000FFFFEF7F0000F83FCF
:100E80000000E03F00002C4000002440000018401B
:100E90000000F03F4FF00008209B13F0020902D041
:100EA0000FB14FF000083EB153EC182BDDE90601FD
:100EB00001F03EFDCDE9060100220023DDE91C0121
:100EC00001F07EFE00283DD1209B23F400630493B3
:100ED000CDF80C801E9B02939DED067B8DED007B73
:100EE0002B465A462146504600F046F8002F3FF464
:100EF00074AF209B13F0200F2CD04FF0450C00F165
:100F000001082B46024621466046D04786EAE67332
:100F1000A3EBE67305220592013F0497002203929A
:100F20000A220292F00F019000932B46424621467E
:100F30005046FFF77BFDB9F1000F3FF44EAF02467C
:100F40001F9F10E0DDE90601024601F10043CDE9F3
:100F50000623B9E74FF0650CD1E7561C2B46214616
:100F60002020D0473246A2EB0B03BB42F5D31046FC
:100F700033E700BF000000002DE9F04F2DED028B9C
:100F800095B007900A9192469B46DDE92089229D03
:100F900042464B464046494601F008FE002840D0F4
:100FA0004FF0FF326FF480134046494601F008FECF
:100FB000002845D14FF0FF329F4B4046494601F093
:100FC0001DFE00284BD198A3D3E900234046494693
:100FD00001F014FE00285AD195A3D3E9002340461E
:100FE000494601F0EDFD002851D100220023404682
:100FF000494601F0E5FD002857D100230B93249BBF
:1010000013F4806F5CD000241F2C5BD8092D59D9B4
:1010100004F150036B44302203F8202C013D0134CD
:10102000F2E7249B0393239B029303230193834BB7
:1010300000935B4652460A990798FFF71CFC2CE187
:10104000249B0393239B0293042301937C4B0093E3
:101050005B4652460A990798FFF70DFC1DE1249B59
:1010600013F004030FD0774A7BB104232499039132
:1010700023990291019300925B4652460A99079880
:10108000FFF7F9FB09E1704AEEE70323EEE7249B43
:101090000493239B03930295CDE900895B46524656
:1010A0000A990798FFF770FDF7E042464B4600208B
:1010B000002101F05BF98046894601230B939EE7EE
:1010C0000625A0E74046494601F0A2FD064601F08C
:1010D0009BFA02460B464046494601F047F95B4BF6
:1010E00003EBC50393ED008B53EC182B01F0F6FADC
:1010F00002460B46CDE9082301F0B2FD074601F098
:1011000073FA02460B46DDE9080101F02FF90246A9
:101110000B46CDE9082300224D4B01F06FFD50B383
:101120000137384601F060FA02460B4651EC180BC5
:1011300001F050FD08B10136002755BB304601F0E3
:1011400063FA02460B464046494601F00FF907464E
:10115000884600223E4B01F033FD38B100223C4B63
:101160003846414601F04AFD002842D016F0010FF2
:101170003FD001363DE00022354BDDE9080101F0AA
:101180001FFD0028D9D117B117F0010FD5D00137B5
:10119000D3E71F2C17D8013D2E4BA3FB0723DB08F9
:1011A000194603EB8303A7EB4303621C303304F1BE
:1011B00050000DEB000404F8203C092F02D90F4623
:1011C0001446E6E714461F2C0AD86B1E45B104F1FD
:1011D00050026A44302102F8201C1D460134F2E717
:1011E0001F2C06D804F150036B442E2203F8202C48
:1011F00001341F2C33D8184A82FB0632F317C3EB95
:10120000A2031A4603EB8303A6EB4303611C3033AE
:1012100004F150000DEB000404F8203C1646EAB13E
:101220000C46E6E7AFF300800000000065CDCD413D
:101230000000000065CDCDC1FFFFEF7F643F0010CF
:10124000683F00105C3F0010583F0010703F0010D6
:101250000000E03FCDCCCCCC676666660C46249B94
:1012600003F00303012B1DD01F2C09D80B9B002B6F
:1012700035D004F150036B442D2203F8202C0134A7
:10128000249B0393239B029301940CAB00935B4636
:1012900052460A990798FFF7EEFA15B0BDEC028B9B
:1012A000BDE8F08F239BB3B10B9B1BB9249B13F0BC
:1012B0000C0F12D0239B013B2393194606E004F147
:1012C00050036B44302203F8202C01348C42CBD2E3
:1012D0001F2CF4D9C8E72399F8E72399F6E7249B54
:1012E00013F0040F07D004F150036B442B2203F8D2
:1012F000202C0134C4E7249B13F0080FC0D004F164
:1013000050036B44202203F8202C0134B8E700BFBF
:101310002DE9F04F8FB0074616460D9388460029F9
:1013200000F0248300240D9B1878002800F020830F
:10133000252809D0651C334622464146B8470D9BF7
:1013400001330D932C46EEE701330D9300250D9BE1
:101350001978A1F12002102A0AD8DFE802F0380932
:10136000093D0909090909090933092E0909290053
:10137000A1F13003DBB2092B33D92A2936D000235F
:101380000A930D9B1A782E2A40D04FF0000B0D9A2D
:101390001378683B122B77D8DFE803F06476D376B6
:1013A0005676767676767676727676767676D80015
:1013B00045F0010501330D93C9E745F002050133FE
:1013C0000D93C4E745F0040501330D93BFE745F0E5
:1013D000080501330D93BAE745F0100501330D936D
:1013E000B5E70DA8FFF735FA0A90CAE7189B1A1D52
:1013F00018921868002804DB0A900D9B01330D93A6
:10140000BFE745F0020543420A93F6E745F48065DD
:101410005A1C0D925A78A2F13003DBB2092B04D981
:101420002A2A07D04FF0000BB1E70DA8FFF711FAF9
:101430008346ACE7189B1A1D18921B6823EAE37BCE
:101440000D9B01330D93A2E745F48071531C0D935E
:1014500052786C2A01D00D4616E045F440750133F0
:101460000D9311E045F08001531C0D935278682ACA
:1014700001D00D4608E045F0C00501330D9303E0AF
:1014800045F4807501320D920D9B1878A0F125036B
:10149000532B00F26182DFE813F054025F025F0217
:1014A0005F025F025F025F025F025F025F025F0234
:1014B0005F025F025F025F025F025F025F025F0224
:1014C0005F025F025F025F025F025F025F025F0214
:1014D0005F025F025F025F025F02740154017401E8
:1014E0005F025F025F025F025F025F025F025F02F4
:1014F0005F025F025F025F025F025F025F025F02E4
:101500005E005F025F025F025F025F025F025F02D6
:101510005F025F025E009B015E0074015401740172
:101520005F025E005F025F025F025F025F025E00B9
:1015300039025F025F02D4015F025E005F025F0258
:101540005E0045F4007501320D929DE745F480750B
:1015500001320D9298E7782809D058283AD06F28A0
:101560003AD062283AD025F010050A2300E0102373
:10157000582835D0692803D0642801D025F00C05FF
:1015800015F4806F01D025F0010569282BD064285F
:1015900029D015F4007F40F0968015F4807F40F04C
:1015A000AE8015F0400F00F0BF80189A111D189101
:1015B000127805950A990491CDF80CB00293002396
:1015C000019300923346224641463846FFF72EFAF1
:1015D000044629E01023CBE70823C9E70223C7E725
:1015E00045F02005C6E715F4007F21D115F4807F72
:1015F00042D115F0400F58D0189A111D1891127849
:1016000082EAE271A1EBE27105950A980490CDF8A7
:101610000CB00293D20F019200913346224641460C
:101620003846FFF703FA04460D9B01330D937AE623
:10163000189A073222F0070202F108011891516846
:1016400012680846002913DB08950A9D0795CDF816
:1016500018B0049300230593C90F029100920190E2
:101660003346224641463846FFF72AFA0446DBE76E
:10167000524261EB4100E7E7189A111D1891126878
:1016800082EAE271A1EBE27105950A980490CDF827
:101690000CB00293D20F019200913346224641468C
:1016A0003846FFF7C3F90446BEE715F0800F05D0B2
:1016B000189A111D1891B2F90020A1E7189A111D6E
:1016C000189112689CE7189A073222F0070202F17B
:1016D0000801189108950A990791CDF818B00021D2
:1016E000049305910291D2E90023CDE9002333460A
:1016F000224641463846FFF7E3F9044694E7189A34
:10170000111D189105950A990491CDF80CB002931A
:10171000002301931368009333462246414638461E
:10172000FFF784F904467FE715F0800F04D0189A7C
:10173000111D189112883CE7189A111D1891126812
:1017400037E746281AD0189B073323F0070303F125
:101750000802189204950A9A0392CDF808B0D3E9CA
:101760000023CDE900233346224641463846FFF7A1
:1017700003FC04460D9B01330D93D4E545F0200591
:10178000E1E7672801D0472801D145F400654528E5
:1017900001D0472801D145F02005189B073323F0DD
:1017A000070303F10802189204950A9A0392CDF8F0
:1017B00008B0D3E90023CDE9002333462246414651
:1017C0003846FFF7E1F904460D9B01330D93AAE576
:1017D00015F002051FD04FF001091898031D18934A
:1017E00004F1010A3346224641460078B847BDB9A4
:1017F0000D9B01330D93544695E502F1010A3346E2
:1018000041462020B8474B46524603F101099B450B
:10181000F3D81446E1E70123DDF828B02246F4E7C7
:101820005246DDF828A006E0551C334641462020EC
:10183000B847A1462A4609F10104CA45F4D89246A0
:10184000D6E7189B1A1D1892D3F800A0BBF1000F21
:101850001ED14FF0FF33D14602E009F101091346D2
:1018600099F8002012B15A1E002BF6D1A9EB0A09F3
:1018700015F480630B9302D0D94528BFD94615F0E3
:1018800002030C9306D022465C46B3460B9E1DE035
:101890005B46E0E722460A9C4B4607E002F101095D
:1018A000334641462020B8472B464A465D1C9C42A1
:1018B000F4D8A9465C46B3460B9E07E01C460AF1E5
:1018C000010A551C5B464146B8472A469AF8000073
:1018D00020B1002EF3D0631E002CEFD114465E46DB
:1018E0000C9B1BB90D9B01330D931CE5DDF828A063
:1018F00006E0551C334641462020B847A1462A46FB
:1019000009F10104CA45F4D81446EBE745F0210576
:10191000189B1A1D18921B68059508220492CDF891
:101920000CB010220292002201920093334622460C
:1019300041463846FFF77AF804460D9B01330D9374
:10194000F1E4651C3346224641462520B8470D9BED
:1019500001330D932C46E6E4651C3346224641468E
:10196000B8470D9B01330D932C46DCE4074FD9E4B7
:10197000B44201D3721E00E02246334641460020A5
:10198000B84720460FB0BDE8F08F00BF51080010E7
:1019900000B9704708B500F017F808BD0FB400B5DE
:1019A00085B006AA52F8043B039200924FF0FF3232
:1019B00002A90448FFF7ACFC05B05DF804EB04B0E5
:1019C000704700BF91190010034B9B6913F0200F63
:1019D000FAD1014B186070470000204038B5054629
:1019E000002402E0FFF7F0FF0134285D0028F9D160
:1019F0000A20FFF7E9FF204638BD0000074B2822E8
:101A00005A620B229A626022DA6240F201321A6351
:101A10000A225A6001229A60704700BF00002040ED
:101A2000EFF3108372B618B101681F4A914202D0D9
:101A300083F310887047C1680029F9D070B4D0F8DA
:101A4000CC60EEB183F3108802E01146032B0DD970
:101A5000731A9B105C0801EB840251F82450D0F8F3
:101A6000D440A542F1D01646F0E7043213689C42F8
:101A7000FBD0EFF3108372B604680B498C4203D09D
:101A800083F3108870BC7047C1689142F8D2D0F8D7
:101A9000CC109142F4D91468D0F8D4108C42EFD015
:101AA000C0F8CC20ECE700BF4452485410B5EFF327
:101AB000108472B6034B1B6803B1984784F31088F7
:101AC00010BD00BF9400003810B50446436E13B13A
:101AD0004C3000F057FAEFF3108372B61CB1216856
:101AE0009D4A91421FD083F31088236B002B00F096
:101AF000F980636B002B40F0F1802363E26A974921
:101B00000B6801330B60D4F8A4300133C4F8A4305F
:101B1000934B53F82230002B35D05A6A14625C6222
:101B200062622362DEE0A268D4F8CC108A4201D25D
:101B3000C4F8CC20E1680868D4F8D420904204D1DD
:101B40002069D0F80100824218D083F31088204623
:101B5000FFF7ACFFEFF3108372B6D4F8CC2052F845
:101B6000041CD4F8D4209142BDD083F310882046C1
:101B7000FFF756FFEFF3108372B6B4E7D4F8CC202A
:101B80009142EAD9E1E7764B43F82240246264624D
:101B9000012303FA02F1734803680B430360724B9D
:101BA0001B68934240F29E806F4B1A606F4B1B681C
:101BB000002B4ED0D96B914240F29480EFF3058216
:101BC0006B4909680A4347D16A490A6801320A60C9
:101BD000D3F8AC200132C3F8AC20C3F8B840634B53
:101BE0001C60654B1B68654A52F82320A2420CD04A
:101BF0000133614A1360072B02D9134600221A6091
:101C00005D4B1A685D4B43F82240EFF3108372B6C8
:101C10001CB12168504A914230D083F31088584B50
:101C20001B68002B40F09780564A136801331360FD
:101C30004FF0E0234FF08052C3F8042DEFF30583FB
:101C4000002B40F08880EFF3108362B683F3108896
:101C500081E0464B1C6045E0EFF30581444A126881
:101C60000A43B2F1F03FB8D247490A6801320A602C
:101C7000D3F8B0200132C3F8B020AEE7A268D4F8A0
:101C8000CC108A4201D2C4F8CC20E2681068D4F8A3
:101C9000D410884204D12069D0F80100814218D0C4
:101CA00083F310882046FFF701FFEFF3108372B62D
:101CB000D4F8CC2052F8041CD4F8D4209142ACD0F3
:101CC00083F310882046FFF7ABFEEFF3108372B664
:101CD000A3E7D4F8CC108A42EAD9E1E70023636392
:101CE00003232363244B1B68244A52F823201F49F3
:101CF0000C68A2420CD001331F4A1360072B02D993
:101D0000134600221A601C4B1A681C4B43F82240F1
:101D10001E4B1B689C421ED0EFF3108372B61CB1A1
:101D200021680D4A914233D083F31088144B1B680D
:101D30008BB9144A1368013313604FF0E0234FF05E
:101D40008052C3F8042DEFF3058323B9EFF310831A
:101D500062B683F3108810BD44524854D000003856
:101D6000E000003860010038A00000389C00003816
:101D700004000038D4000038A4000038A80000385F
:101D8000DC000038CC000038C8000038980000386B
:101D9000A268D4F8CC108A4201D2C4F8CC20E16801
:101DA0000868D4F8D420904204D12069D0F801000A
:101DB000824218D083F310882046FFF777FEEFF3B6
:101DC000108372B6D4F8CC2052F8041CD4F8D42076
:101DD0009142A9D083F310882046FFF721FEEFF34C
:101DE000108372B6A0E7D4F8CC209142EAD9E1E79B
:101DF00038B5564B1C68EFF3108372B61CB12168DE
:101E0000534A91420DD083F31088EFF3108172B6DC
:101E1000504B00221A60A4B3236BABB381F310883C
:101E200038BDA268D4F8CC108A4201D2C4F8CC20C4
:101E3000E1680868D4F8D420904204D12069D0F831
:101E40000100824218D083F310882046FFF72EFE4F
:101E5000EFF3108372B6D4F8CC2052F8041CD4F8F7
:101E6000D4209142CFD083F310882046FFF7D8FDCD
:101E7000EFF3108372B6C6E7D4F8CC209142EAD9CA
:101E8000E1E781F31088CBE7E369A361324A13608D
:101E9000236AA34206D0E26AE06B824205D081F356
:101EA0001088BDE781F31088BAE72C4840F822304B
:101EB0002B4B1B6850F823502A4B1D60D4F8BC30C4
:101EC0000133C4F8BC30284A13680133136081F32E
:101ED0001088002DA4D0EFF3108372B629681C4A35
:101EE000914202D083F310889AE7AA68D5F8CC1003
:101EF0008A4201D2C5F8CC20E9680868D4F8D42019
:101F0000904204D12869D0F80100824218D083F3AE
:101F100010882846FFF7CAFDEFF3108372B6D5F894
:101F2000CC2052F8041CD4F8D4209142DAD083F3A8
:101F300010882846FFF774FDEFF3108372B6D1E7DF
:101F4000D5F8CC209142EAD9E1E700BF98000038EB
:101F5000445248547001003858020038E0000038FC
:101F6000A00000389C000038D800003810B5EFF30E
:101F7000108472B60248FFF7A7FD84F3108810BDE5
:101F800080010038836953B10269904208D04169E9
:101F900051610A611968814208D00023836170474A
:101FA0001A688242F9D100221A60F6E793611A603A
:101FB000F3E70120704708B500F076F916230360B7
:101FC0004FF0FF3008BD08B54FF0FF31FFF7F3FFCA
:101FD000FEE70000154880F30988154880F30A8859
:101FE00080F30B88FEF71EFC124C134DAC420ADA4C
:101FF00021686268A3689B00043BA2BFC858D05008
:10200000FAE70C34F2E70D4B0D4CA34209DA1968DC
:102010005A6892000020043AA4BF8850FBE70833B6
:10202000F3E7FEF7EDFBFEE7FEE7000000001038E7
:1020300000F00F38FC40001008410010084100106B
:102040000841001072B62C482C4901F104010160CE
:102050004FF0E0202A49C0F8081D2A48016841F0E5
:102060000101016028482649096801604FF0E0201D
:102070004EF65F2141614FF0070101614FF0000111
:10208000C0F8181D4FF07F41C0F81C1D1F49C0F853
:10209000201D7047FFF7FEBF01B5BDE80140704746
:1020A00001B500F0A5F8BDE801407047FFF7FEBF9D
:1020B00072B61748016811F4801FFED00160154800
:1020C000016821F0010101601348006801B5FFF7C4
:1020D000EDFCBDE801404FF000010F4801600F48E2
:1020E0004FF080510160BFF34F8F62B6704700BF61
:1020F000FFF7FEBFFFF7FEBF90000038000010386A
:1021000000000010001000E0640100380000FF40F3
:1021100028ED00E034EF00E09800003804ED00E026
:102120004FF000002E4A1060EFF3148020F00400FE
:1021300080F3148862B64FF080504FF0E021C1F870
:10214000040DBFF34F8FBFF36F8FFEE72548264A7C
:102150004FF00003016891B10360EFF3098C2CE9A3
:10216000F00F1EF0100F01D12CED108A1F4C4CF80F
:1021700004EDC1F808C025680DB18D61236072B609
:102180001168D1B1016062B64F68184C8D6907F1D2
:1021900001074F602560D1F80CC08CF30B88D1F893
:1021A00008C05CF804EB1EF0100F01D1BCEC108AE3
:1021B000BCE8F00F8CF30988704772B611680160B3
:1021C00009B962B6F9E74FF000674FF0E028C8F8A8
:1021D000047D62B6D8E700BFB0EE400A7047000049
:1021E000DC000038980000389C00003858020038A5
:1021F0002249086800F101000860214B1A683AB1D1
:10220000A2F101021A601AB91E4B4FF001001860CA
:102210001D490868026822B11C4B4FF001021A6088
:1022200008E000F104001A4B1A68904201D1194BE2
:1022300018680860134B1A6812B914490868C8B1C5
:1022400001B51249086808B1FFF790FE0D4B1A68F6
:1022500072B1FFF7CDFD1048016849B90F48016818
:102260000F4A13680F484FF08052994200D0026025
:10227000BDE80140BFF34F8F704700007C0100387C
:102280005802003870010038680100386C010038CD
:102290007401003878010038DC00003898000038FC
:1022A0009C00003804ED00E0014B1868704700BF47
:1022B00008000038062008B500F038F80120FFF7C4
:1022C00082FE0A44431E914200D1704710B511F8B6
:1022D000014B914203F8014FF9D110BD1F2938B5C8
:1022E00004460D4604D9162303604FF0FF3038BD75
:1022F000426C12B152F821304BB9204600F030F850
:102300002A4601462046BDE8384000F017B8012BA8
:102310000AD0591C03D1162303600120E7E70024EB
:10232000284642F8254098470020E0E7024B014646
:102330001868FFF7D3BF00BF0800003838B5002386
:10234000064D0446084611462B60FFF734FE431C39
:1023500002D12B6803B1236038BD00BF5C02003896
:10236000FFF727BE81F0004102E000BF83F0004389
:1023700030B54FEA41044FEA430594EA050F08BF20
:1023800090EA020F1FBF54EA000C55EA020C7FEAE4
:10239000645C7FEA655C00F0E2804FEA5454D4EB61
:1023A0005555B8BF6D420CDD2C4480EA020281EA2B
:1023B000030382EA000083EA010180EA020281EA63
:1023C0000303362D88BF30BD11F0004F4FEA0131B5
:1023D0004FF4801C4CEA113102D0404261EB4101C4
:1023E00013F0004F4FEA03334CEA133302D052424A
:1023F00063EB430394EA050F00F0A780A4F1010406
:10240000D5F1200E0DDB02FA0EFC22FA05F280183F
:1024100041F1000103FA0EF2801843FA05F3594125
:102420000EE0A5F120050EF1200E012A03FA0EFCA4
:1024300028BF4CF0020C43FA05F3C01851EBE371CE
:1024400001F0004507D54FF0000EDCF1000C7EEBEB
:1024500000006EEB0101B1F5801F1BD3B1F5001F29
:102460000CD349085FEA30004FEA3C0C04F1010448
:102470004FEA445212F5800F80F09A80BCF1004F71
:1024800008BF5FEA500C50F1000041EB045141EAF3
:10249000050130BD5FEA4C0C404141EB0101013CBC
:1024A00028BFB1F5801FE9D291F0000F04BF0146AB
:1024B0000020B1FA81F308BF2033A3F10B03B3F17D
:1024C00020020CDA0C3208DD02F1140CC2F10C020D
:1024D00001FA0CF021FA02F10CE002F11402D8BF6B
:1024E000C2F1200C01FA02F120FA0CFCDCBF41EA37
:1024F0000C019040E41AA2BF01EB0451294330BD06
:102500006FEA04041F3C1CDA0C340EDC04F11404E2
:10251000C4F1200220FA04F001FA02F340EA0300B9
:1025200021FA04F345EA030130BDC4F10C04C4F1FF
:10253000200220FA02F001FA04F340EA03002946DF
:1025400030BD21FA04F0294630BD94F0000F83F429
:10255000801306BF81F480110134013D4EE77FEA0C
:10256000645C18BF7FEA655C29D094EA050F08BF58
:1025700090EA020F05D054EA000C04BF1946104639
:1025800030BD91EA030F1EBF0021002030BD5FEA7D
:10259000545C05D14000494128BF41F0004130BDA5
:1025A00014F580043CBF01F5801130BD01F00045F9
:1025B00045F0FE4141F470014FF0000030BD7FEA6C
:1025C000645C1ABF194610467FEA655C1CBF0B4667
:1025D000024650EA013406BF52EA033591EA030F7E
:1025E00041F4002130BD00BF90F0000F04BF002176
:1025F000704730B54FF4806404F132044FF00005A9
:102600004FF0000150E700BF90F0000F04BF002121
:10261000704730B54FF4806404F1320410F0004587
:1026200048BF40424FF000013EE700BF42004FEA82
:10263000E2014FEA31014FEA02701FBF12F07F43FF
:1026400093F07F4F81F06051704732F07F4208BFB6
:10265000704793F07F4F04BF41F40021704730B5BD
:102660004FF4607401F0004521F000411CE700BF09
:1026700050EA010208BF704730B54FF000050AE08C
:1026800050EA010208BF704730B511F0004502D58D
:10269000404261EB41014FF4806404F132045FEA8F
:1026A000915C3FF4D8AE4FF003025FEADC0C18BF38
:1026B00003325FEADC0C18BF033202EBDC02C2F12A
:1026C000200300FA03FC20FA02F001FA03FE40EABC
:1026D0000E0021FA02F11444BDE600BF70B54FF0C0
:1026E000FF0C4CF4E06C1CEA11541DBF1CEA13559E
:1026F00094EA0C0F95EA0C0F00F0DEF82C4481EA06
:10270000030621EA4C5123EA4C5350EA013518BF25
:1027100052EA033541F4801143F4801338D0A0FB12
:1027200002CE4FF00005E1FB02E506F00042E0FBBF
:1027300003E54FF00006E1FB03569CF0000F18BFC5
:102740004EF0010EA4F1FF04B6F5007F64F540746D
:1027500004D25FEA4E0E6D4146EB060642EAC62100
:1027600041EA55514FEAC52040EA5E504FEACE2E6D
:10277000B4F1FD0C88BFBCF5E06F1ED8BEF1004F70
:1027800008BF5FEA500E50F1000041EB045170BDEC
:1027900006F0004646EA010140EA020081EA030130
:1027A000B4EB5C04C2BFD4EB0C0541EA045170BD2C
:1027B00041F480114FF0000E013C00F3AB8014F1A6
:1027C000360FDEBF002001F0004170BDC4F10004EF
:1027D000203C35DA0C341BDC04F11404C4F1200570
:1027E00000FA05F320FA04F001FA05F240EA0200CB
:1027F00001F0004221F0004110EBD37021FA04F601
:1028000042EB06015EEA430E08BF20EAD37070BDBA
:10281000C4F10C04C4F1200500FA04F320FA05F019
:1028200001FA04F240EA020001F0004110EBD3701B
:1028300041F100015EEA430E08BF20EAD37070BD8B
:10284000C4F1200500FA05F24EEA020E20FA04F364
:1028500001FA05F243EA020321FA04F001F0004113
:1028600021FA04F220EA020000EBD3705EEA430E84
:1028700008BF20EAD37070BD94F0000F0FD101F0B3
:102880000046400041EB010111F4801F08BF013CEC
:10289000F7D041EA060195F0000F18BF704703F02A
:1028A0000046520043EB030313F4801F08BF013DB1
:1028B000F7D043EA0603704794EA0C0F0CEA13556D
:1028C00018BF95EA0C0F0CD050EA410618BF52EA27
:1028D0004306D1D181EA030101F000414FF000002D
:1028E00070BD50EA410606BF1046194652EA43063B
:1028F00019D094EA0C0F02D150EA013613D195EAAF
:102900000C0F05D152EA03361CBF104619460AD1F6
:1029100081EA030101F0004141F0FE4141F4700100
:102920004FF0000070BD41F0FE4141F4780170BDF0
:1029300070B54FF0FF0C4CF4E06C1CEA11541DBF55
:102940001CEA135594EA0C0F95EA0C0F00F0A7F857
:10295000A4EB050481EA030E52EA03354FEA013184
:1029600000F088804FEA03334FF0805545EA131397
:1029700043EA12634FEA022245EA111545EA10655F
:102980004FEA00260EF000419D4208BF964244F1F6
:10299000FD0404F5407402D25B084FEA3202B61A15
:1029A00065EB03055B084FEA32024FF480104FF4E9
:1029B000002CB6EB020E75EB030E22BFB61A75465D
:1029C00040EA0C005B084FEA3202B6EB020E75EBF0
:1029D000030E22BFB61A754640EA5C005B084FEA58
:1029E0003202B6EB020E75EB030E22BFB61A754625
:1029F00040EA9C005B084FEA3202B6EB020E75EB30
:102A0000030E22BFB61A754640EADC0055EA060EF0
:102A100018D04FEA051545EA16754FEA06164FEA33
:102A2000C30343EA52734FEAC2025FEA1C1CC0D1DF
:102A300011F4801F0BD141EA00014FF000004FF06C
:102A4000004CB6E711F4801F04BF01430020B4F12D
:102A5000FD0C88BFBCF5E06F3FF6AFAEB5EB030CE5
:102A600004BFB6EB020C5FEA500C50F1000041EBE2
:102A7000045170BD0EF0004E4EEA113114EB5C04AF
:102A8000C2BFD4EB0C0541EA045170BD41F4801182
:102A90004FF0000E013C90E645EA060E8DE60CEA8A
:102AA000135594EA0C0F08BF95EA0C0F3FF43BAFA7
:102AB00094EA0C0F0AD150EA01347FF434AF95EA5E
:102AC0000C0F7FF425AF104619462CE795EA0C0F42
:102AD00006D152EA03353FF4FDAE1046194622E70F
:102AE00050EA410618BF52EA43067FF4C5AE50EAE9
:102AF00041047FF40DAF52EA43057FF4EBAE12E7D9
:102B00004FF0FF3C06E000BF4FF0010C02E000BFB9
:102B10004FF0010C4DF804CD4FEA410C7FEA6C5C9C
:102B20004FEA430C18BF7FEA6C5C1BD001B050EA3F
:102B3000410C0CBF52EA430C91EA030F02BF90EA2A
:102B4000020F0020704710F1000F91EA030F58BFE9
:102B5000994208BF90422CBFD8176FEAE37040F04B
:102B6000010070474FEA410C7FEA6C5C02D150EAE9
:102B7000013C07D14FEA430C7FEA6C5CD6D152EAA4
:102B8000033CD3D05DF8040B704700BF8446104669
:102B900062468C461946634600E000BF01B5FFF768
:102BA000B7FF002848BF10F1000F01BD4DF808ED38
:102BB000FFF7F4FF0CBF012000205DF808FB00BF09
:102BC0004DF808EDFFF7EAFF34BF012000205DF863
:102BD00008FB00BF4DF808EDFFF7E0FF94BF0120B0
:102BE00000205DF808FB00BF4DF808EDFFF7CEFFB1
:102BF00094BF012000205DF808FB00BF4DF808EDF0
:102C0000FFF7C4FF34BF012000205DF808FB00BFC0
:102C10004FEA410212F5001215D211D56FF4787304
:102C2000B3EB625212D94FEAC12343F0004343EAA7
:102C3000505311F0004F23FA02F018BF4042704782
:102C40004FF00000704750EA013005D111F000400C
:102C500008BF6FF0004070474FF00000704700BFA2
:102C60004A0011D212F5001211D20DD56FF478730B
:102C7000B3EB62520ED44FEAC12343F0004343EA60
:102C8000505323FA02F070474FF00000704750EAAB
:102C9000013002D14FF0FF3070474FF00000704715
:102CA00053B94AB9002908BF00281CBF4FF0FF31B3
:102CB0004FF0FF3001F034B9ADF1080C6DE904CEEE
:102CC00000F006F8DDF804E0DDE9022304B0704707
:102CD0002DE9F04F099D04460F46002B48D18A424A
:102CE000944661D9B2FA82F343B1C3F120019F4007
:102CF00002FA03FC9C4020FA01F10F434FEA1C4109
:102D00001FFA8CFE220CB7FBF1F601FB167706FBCF
:102D10000EF042EA0742904208D91CEB020206F18B
:102D2000FF3702D2904200F237813E46121AA4B217
:102D3000B2FBF1F001FB102200FB0EFE44EA02445C
:102D4000A64508D91CEB040400F1FF3202D2A645C7
:102D500000F21C81104640EA0640A4EB0E04002657
:102D60001DB1DC400023C5E900433146BDE8F08FCA
:102D70008B4209D9002D00F0FD800026C5E9000135
:102D800030463146BDE8F08FB3FA83F6002E4BD1C2
:102D90008B42C0F0F280824240F2EF803046002D3C
:102DA000E3D0C5E90047E0E702B9FFDEB2FA82F3FB
:102DB000002B40F09D80891A4FEA124E97B20126EF
:102DC000200CB1FBFEF20EFB121140EA014107FBA1
:102DD00002F088420FD91CEB010102F1FF382CBF31
:102DE0004FF001094FF00009884203D9B9F1000FF3
:102DF00000F0CF804246091AA4B2B1FBFEF00EFBF0
:102E0000101100FB07F744EA0144A74208D91CEB64
:102E1000040400F1FF3102D2A74200F2B480084658
:102E2000E41B40EA02409BE7C6F12007B34001FAE9
:102E300006F422FA07FCF940B2404CEA030C20FAEF
:102E400007F34FEA1C491C431FFA8CFE00FA06F3F5
:102E5000200CB1FBF9F809FB181140EA014108FB0D
:102E60000EF088420FD91CEB010108F1FF3A2CBF8C
:102E70004FF0010B4FF0000B884203D9BBF1000F5C
:102E800000F08D80D046091AA4B2B1FBF9F009FB1D
:102E9000101100FB0EFE44EA01418E4507D91CEBE0
:102EA000010100F1FF3401D28E457FD8204640EA6F
:102EB0000840A1EB0E01A0FB029841454C46C646D6
:102EC00002D306D14B4504D20138B9EB020468EBBA
:102ED0000C0E002D70D01A1B61EB0E0122FA06F3C6
:102EE00001FA07F7F14000261F43C5E900713CE7EE
:102EF00002FA03FCC3F1200001FA03F221FA00F602
:102F00004FEA1C4E24FA00F11FFA8CF79C40114343
:102F1000B6FBFEF00A0C0EFB106642EA064200FB0E
:102F200007F696420ED91CEB020200F1FF382CBFC7
:102F30004FF001094FF00009964202D9B9F1000F94
:102F400031D04046921B89B2B2FBFEF60EFB162230
:102F500041EA024106FB07F28A4207D91CEB010154
:102F600006F1FF3801D28A4223D84646891A46EA3A
:102F7000004625E72E462846F7E6841A61EB030350
:102F800001201F460BE76444023849E764440238D5
:102F9000E1E6023A61442EE7023E6244C6E6A8F149
:102FA000020861446FE702386244CBE702386144AB
:102FB0007DE7023E6144D9E72E46D6E603685A0013
:102FC0004CBF43F0004323F000431844704700BF58
:102FD0002DE9F04739B301F1FF38064617464FF0A7
:102FE0000009454619EB050148BF0131491006EBC0
:102FF000C10ACC005046FFF7E1FF0834884503467C
:1030000006EB040009D0BB4209D8FFF7D7FF01380F
:1030100001F10109B842E5D307E0BB4205D9894572
:1030200001F1FF35DED14FF0000A5046BDE8F087D0
:10303000012807D0022807D00028044B14BF002025
:1030400018467047024870470248704741370010E1
:103050004537001049370010234B30B5044683B084
:103060008D1E43B301A9284600E000BFF0B10199CD
:103070002A46FFF7ADFF0146C0B1FFF79FFF4B683F
:10308000A064012B2CD0002B01F1040024DBFFF7FE
:1030900095FF0023C4E913030368002B11DBFFF73E
:1030A0008DFF03460020236103B030BD00230920BB
:1030B000236103B030BD0D480D49091AC9100191B3
:1030C000D6E7C3F30360FFF7B3FF0028206114BF06
:1030D0000020092003B030BD0123C4E91303DBE75E
:1030E000002305202361DFE7000000003C400010C2
:1030F000FC4000100368DA0710B5044606D49B07AD
:1031000000F1480009D500F08FFC2368590709D564
:103110001A070ED5DB0613D510BD00F07DFC236821
:103120005907F5D404F1D00000F086FC23681A0793
:10313000F0D404F5A87000F087FC2368DB06EBD41C
:1031400004F5E870BDE8104000F0C2BC09207047EB
:103150000346006800B11844704700BF704700BFC5
:1031600070B504460E46316C2046FFF775FF0546E4
:1031700098B9D6F840C03246236921460120C4F8E8
:1031800014C098470828EED0072806D12846316C8D
:10319000FFF7E4FF301D00F033FCFFF78BF800BFB2
:1031A0002DE9F04701F1040CADF5747DC7680646C2
:1031B000D0F8188014460DF1140E04AD4FF000093C
:1031C000BCE80F00AEE80F00BCE80F00AEE80F004F
:1031D000BCE80F00AEE80F009CE80F008EE80F007F
:1031E000C5F8009023E02B6C4FF4F07229467CA8C0
:1031F0007361FFF766F87CAA3146336950469847F9
:103200008A9B2146814603933246039C3346012024
:103210006C64CDE90058B8470446E8B94FF4F07241
:103220007CA92846FFF74DF8B9F1080F1BD10934E6
:10323000296C3046FFF710FF81465FFA84FA0028B8
:10324000D1D0AC6B334632464AF010016C64012099
:10325000CDE90058B84708B14FF0090948460DF5C7
:10326000747DBDE8F087B9F1070FF5D12046296CD0
:10327000FFF774FF05A800F0C3FB00BF406C704768
:10328000F0B5CB6BF9B001F1040C0E460B6401AC48
:1032900005464FF0FF37BCE80F000FC4BCE80F0035
:1032A0000FC4BCE80F000FC49CE80F0084E80F00B7
:1032B000009706E02B696A46294698470828044685
:1032C00008D110992846FFF7C7FE0028F2D0092040
:1032D00079B0F0BD6846FFF70DFF062CF7D13146F7
:1032E0002846FFF73DFF00BF10B4DC6BC1601946F4
:1032F000826100221C6410BC52E700BF70B54369B4
:10330000C6680B64AEB903690A4604460D46014619
:1033100002209847072805D008280FD129462046C3
:10332000FFF71EFF3046296CFFF718FF281D00F03D
:1033300067FB0122FFF734FFFEF7BCFFFEF7BAFF81
:10334000C2682AB1D1F83CC00022C1F840C027E7CA
:1033500096E700BF704700BF836801460BB10120AC
:1033600018477047012915D00CD88BB90F2A94BF84
:103370000021012161B900EB820208465368009ADE
:10338000136070470339012994BF01200220704760
:10339000022070470846704710B584B000230A46E3
:1033A00003AC19460094FFF7DDFF039804B010BD8D
:1033B000012915D00CD88BB90F2A94BF0021012107
:1033C00061B9009B00EB820208461B68536070479E
:1033D0000339012994BF0120022070470220704761
:1033E0000846704710B584B0002303AC03920A4628
:1033F00019460094FFF7DCFF04B010BDF0B5D36BA5
:10340000ADF50F7D141D064613640DF15C0C0D46E1
:103410004FF0FF370FCCACE80F000FCCACE80F003B
:103420000FCCACE80F0094E80F008CE80F00169763
:1034300010E0FFF7D7FF294616A8B047034616AAA3
:103440006946082083B9049B9847052804460CD098
:1034500009280AD026996846FFF7FEFD03466A460A
:103460000C2116A8002BE4D0092416A8FFF742FE71
:1034700020460DF50F7DF0BD2DE9F04FCC6C89B0E5
:103480001E460D4654F8043B174600F00308069408
:10349000002E7FD01A0C1B048DF81D20D2B205938C
:1034A000022304EB82048DF81C30B8F1020F2B6D5F
:1034B00008BFAC6B13F0010308D005A9384600F033
:1034C000A1FB90BB082009B0BDE8F08FD4F800A0A4
:1034D000BAF1000FF1D0019300F008030293022E1D
:1034E00054D0B4F800A0043434F8029CAB6C29F03A
:1034F000010B0F2138469B44FFF74EFF834518D838
:103500002AF001039B44834513D94FEA49030AF08B
:10351000010A03F0020343EA0A03012B00F0BF8013
:10352000022B00F08980002B4DD0092009B0BDE8A6
:10353000F08F4FEA49030AF0010A03F0020343EA5D
:103540000A03012B3AD0022B2AD0002BEDD10434F0
:10355000D4F800A0BAF1000FC1D105A9384600F097
:1035600051FB0028E1D1019B002BABD00F21384645
:10357000FFF712FF0E2102463846FFF733FF3846A9
:103580006E4A0F21FFF72EFF0720CFE7D4F80490F3
:103590000834ABE71B0205930323ADF81C3084E726
:1035A000236823F0004BB8F1000F21D1002B00DA83
:1035B00004340BF1010B04EB8B04C9E7B8F1000FE5
:1035C00020D10834C4E7B8F1000FC0D0204604343D
:1035D000FFF7F4FC0646AC63284600E000BF002875
:1035E000A3D0384632460F21FFF7FCFE07209DE7A7
:1035F000D5F820900D213846FFF7CEFE814579D0D1
:103600002368D3E7D5F820900D213846FFF7C4FE94
:103610008145D6D1AB6A9C42D3D120460F21FFF71A
:10362000CDFC02463846FFF7DDFE38462A4600212B
:10363000FFF7D8FE072079E7236823F0004BB8F1A5
:10364000000FD5D1029A12B1BBF1000FAED105F136
:103650005803CDF80C8004F1040AB0464FF000097D
:103660001E460DE0504604960022FFF771FD04ABA4
:10367000014628460AF1040A00E000BF00284AD1AA
:10368000D94509F10109EDD10D213846FFF784FE36
:10369000049B024606202A62C5E9093446E7B8F1D0
:1036A000000FAFD163682268991C4FEAD2723FF4D1
:1036B0003CAF05F158010133049131D0201DFFF7D3
:1036C00047FD04AB0146284600E000BF00283FF458
:1036D00078AF81460D213846FFF75EFEB9F1020F43
:1036E000286222D12B46049A43F82C2F6B620620C5
:1036F000AC621BE7AB6A9C4282D104230022C5F86E
:1037000028B0C5E90B23E3186B632368002B0FDB9C
:10371000012301934DE746462368DDF80C8045E719
:103720000D213846FFF738FE2862049B6B62DEE706
:103730000BF101000F2104EB800070E70000000096
:10374000002399E6012397E6022395E62DE9F0434D
:103750000646C3B015461C46042900F2C280DFE8C5
:1037600001F0A359C02C0300002C40F0BA80102AAD
:1037700000F2B7800368DF0600F1B78020AF38465B
:1037800000F0B0F9B46B394600234FF0010C0CFA8D
:1037900003F2204601332A4203D050F8042B04469A
:1037A0000A60042B01F10401F1D13846B46300F042
:1037B0008FF9002043B0BDE8F083032C40F09180E6
:1037C0001FFA82F8140C08EB1245102D00F28980C4
:1037D00003681A0700F1CD8020AF384600F056F993
:1037E000B56B07EBC401B8F1000F0BD00B4601EB32
:1037F000C8014FEAC808E81A1A5843F8042B8B424C
:10380000FAD145443846B56300F01EF9002043B0B4
:10381000BDE8F08304F0FB034FEA124895B2012B98
:103820005FD1012C08EB050958D0B9F1200F58D809
:10383000B8F10F0F75D9052CA94600F0A480002D12
:103840004FD1B36B65B320AF4FF0000907EBC8074A
:1038500003EBC505043F53F8041B9D4247F8041FC2
:10386000F9D1B9F1000F0FD06F46414603EBC905FE
:10387000102938BF102107EBC101843953F8040B1C
:103880009D4241F8040FF9D1012C7AD0B8F10F0F05
:10389000B5636AD9B9F1000F02D0684600F0CCF8E0
:1038A000002043B0BDE8F083DCB9876B23461FFAE4
:1038B00082FC0120341D00FA03F13A4611EA0C0F94
:1038C00004D052F8041B174644F823100133102B80
:1038D000F1D115F40050E3D1B76303E0B9F1100F53
:1038E0000BD9022043B0BDE8F08323F0100300F5AC
:1038F000E870336000F0F6F840E7B8F10F0FF0D849
:103900000368D80750D420AF384600F089F8B36B6D
:10391000002D99D11D4604353846B56300F07CF87A
:10392000BEE7B9F1100F58D9052CDAD13368A9F1E7
:103930001009DD0709D523F00103304643F00203E7
:1039400040F8483B00F074F83368590721D420A8A8
:1039500000F06EF86F46C8F11005384600F070F8B8
:10396000002DB36B81DD20AF70E720A800F05CF87C
:1039700090E723F0080300F5A870336000F086F8A4
:103980002AE720AFC7E7002D3FF45BAF33685A0743
:10399000E0D523F00403304640F8D03B00F050F867
:1039A000B8F10F0FD6D8D2E723F00303304640F822
:1039B000483B00F035F8012CA5D0B8F10F0F3FF6C9
:1039C00040AF20AF384600F033F8B36B002D7FF4E2
:1039D0003BAF384600F028F862E73368D907EAD5EC
:1039E000052CE1D123F00103304620AF43F0020360
:1039F00040F8483B00F01CF8384600F019F8E4E7BE
:103A000000F1340191E838009C46A6464CF8045D6C
:103A100090E8FF0FE54600BD90EC210B704700BF1A
:103A200080EC210B704700BF90EC200B704700BF6B
:103A300080EC200B704700BFD0EC200B704700BF1C
:103A4000C0EC200B704700BFF0EC0201F0EC02115B
:103A5000F0EC0221F0EC0231F0EC0241F0EC02510A
:103A6000F0EC0261F0EC0271F0EC0281F0EC0291FA
:103A7000F0EC02A1F0EC02B1F0EC02C1F0EC02D1EA
:103A8000F0EC02E1F0EC02F1704700BFE0EC020163
:103A9000E0EC0211E0EC0221E0EC0231E0EC02414A
:103AA000E0EC0251E0EC0261E0EC0271E0EC02813A
:103AB000E0EC0291E0EC02A1E0EC02B1E0EC02C12A
:103AC000E0EC02D1E0EC02E1E0EC02F1704700BF73
:103AD000B0FC0181B0FC0191B0FC01A1B0FC01B1CE
:103AE000704700BFA0FC0181A0FC0191A0FC01A1D6
:103AF000A0FC01B1704700BFEC4600B52DE90050B5
:103B00002DE9FF1F4FF000032DE90C0001A9FFF77D
:103B1000B7FBDDF840E012B0704700BFEC4600B5DF
:103B20002DE900502DE9FF1F4FF000032DE90C0097
:103B300001A9FFF7E3FBDDF840E012B0704700BFDA
:103B4000EC4600B52DE900502DE9FF1F4FF00003B2
:103B50002DE90C0001A9FFF7F3FBDDF840E012B0FE
:103B6000704700BFEC4600B52DE900502DE9FF1F5E
:103B70004FF000032DE90C0001ABFFF7B5FBDDF8BA
:103B800040E012B0704700BFEC4600B52DE9005090
:103B90002DE9FF1F4FF000032DE90C0001AAFFF7EC
:103BA0002DFCDDF840E012B0704700BF027A0346FA
:103BB0008AB9427AB2B14168013A4FF0030C10B4AD
:103BC00042720C1D086883F808C002025C60000E97
:103BD00010BC1A6070470068013A1A720202000EA7
:103BE0001A607047B020704710B584B000230C22D3
:103BF00003AC19460094FFF7B5FB039804B010BD61
:103C0000F2E700BF2DE9F0434FF0000885B006460B
:103C10000D462846FFF7CAFFB028044600F0BC80D6
:103C2000070620D500F0F003802B4ED0902B37D024
:103C3000A02B61D0B02B76D0C02B00F08D8000F08F
:103C4000F803D02B0BD100F00702052301213046E9
:103C5000013242F40022FFF779FD0028D9D0092073
:103C600005B0BDE8F08383000DF10C090D2230464C
:103C7000DBB2CDF800901F1D00231946FFF772FB41
:103C8000039B60064FF00D023046CDF800904CBF0C
:103C9000DF1BFF18002303971946FFF789FBB8E7DE
:103CA00000F00D030D2BDAD003AF002300F00F025C
:103CB000304619460097FFF755FB00230D2230468A
:103CC00019460097FFF774FBA3E724022846FFF785
:103CD0006DFF2043B0F5004FC1D0040100233046F2
:103CE000A2B21946FFF732FD0028B8D114F4004FF4
:103CF00018BF4FF001088CE7C2430107304602F0BD
:103D000007034FF47F6242FA03F24FF0000302F41C
:103D10007F62194648BF42F48042FFF717FD002832
:103D20003FF477AF9BE7B1283BD0B22800F0A180E9
:103D3000B32841D000F0FC03B42B90D000F0070270
:103D400001231A4442F4002219463046FFF7FEFCD4
:103D500000283FF45EAF82E7C62851D0C72862D062
:103D600000F0F803C02B71D0C82876D0C9287FF4A2
:103D700076AF2846FFF71AFF020300F00F0002F4A7
:103D8000702201300243012105233046FFF7DEFC9B
:103D900000283FF43EAF62E7B8F1000F1FD00020CB
:103DA0005EE72846FFF702FF024600283FF457AFC0
:103DB00010F0F003C8D052E72846FFF7F7FE00F0F6
:103DC0000F0302033046013302F470221A43012329
:103DD0001946FFF7BBFC00283FF41BAF3FE703ACDD
:103DE00043460E22414630460094FFF7BBFA434655
:103DF0000F22304641460094FFF7DAFA40462FE79B
:103E00002846FFF7D3FE00F00F03020330460133CC
:103E100002F470221A4303231946FFF797FC002887
:103E20003FF4F7AE1BE72846FFF7C0FE0246002826
:103E30003FF415AF10F0F0037FF411AF04213046CA
:103E4000FFF784FC00283FF4E4AE08E700F00F021F
:103E50000323013242F4202276E72846FFF7A6FE2C
:103E600000F0F00200F00F031032013343EA023297
:103E700089E700230DF10C090D2230461946CDF8D3
:103E80000090FFF76FFA2846FFF790FE02064FF00A
:103E900002040BD500F07F00039BA04007341844B8
:103EA00003902846FFF782FE0306F3D4039B00F03D
:103EB0007F02CDF800903046A24003F501731A440A
:103EC0000023039219460D22FFF772FAA1E600BF04
:103ED000C26C0B464FF0030C1846083252F8043CF3
:103EE00000B585B0029201A91A0E8DF80CC01B0214
:103EF0008DF80D200193FFF785FE05B05DF804FBFA
:103F000008B5FFF77DFE806C08BD00BF08B5FFF760
:103F100077FEC06CC379023300EB830008BD00BF9D
:103F2000704700BFF8B500BFF8BC08BC9E4670479C
:103F3000F8B500BFF8BC08BC9E4670475374617268
:103F4000740D000068656C6C6F20776F726C642074
:103F50002D2025642E0D0A00666E6900666E692BA1
:103F6000000000006E616E00666E692D00000000AA
:103F7000000000000000F03F0000000000002440AE
:103F800000000000000059400000000000408F4089
:103F9000000000000088C34000000000006AF840F4
:103FA0000000000080842E4100000000D012634118
:103FB0000000000084D797410000000065CDCD418E
:103FC00000000000000000000000000000000000F1
:103FD00000000000000000000000000000000000E1
:103FE00000000000000000000000000000000000D1
:103FF00000000000000000000000000000000000C1
:1040000000000000000000000000000000000000B0
:1040100000000000000000000000000000000000A0
:04402000000000009C
:1040240008B10181B0B000840000000008B1018132
:08403400B0B0008400000000A0
:10403C0098DFFF7FB0B0B08000E0FF7F0100000090
:10404C000CF0FF7FB0A90280A0F0FF7FB0B0A88079
:10405C00F0F0FF7F01000000FCF0FF7FB0B0AA8001
:10406C0034F1FF7FAE73B28008F2FF7F01000000D5
:10407C0004F2FF7FAB3F388064F2FF7F0100000049
:10408C0070F2FF7FB0B0AA80ACF2FF7F010000009D
:10409C0060F3FF7FAB0EB280D4F3FF7FB0AF08802C
:1040AC0094F6FF7F0100000098F6FF7FAD3F028081
:1040BC0044F9FF7F0100000024FBFF7FB0A80380C0
:1040CC0034FBFF7F0100000030FBFF7FB0AD0480AC
:1040DC00F4FDFF7F008404801CFEFF7F3CFFFF7F0C
:1040EC0020FEFF7F40FFFF7F2CFEFF7F01000000C2
:0C40FC0008410010000000381D0000000A
:1041080040787D01F0F0F0F00C000038000000006D
:10411800E03F001000400010C03F00100000000009
:104128000000000000000000000000000000000087
:104138000000000000000000000000000000000077
:104148000000000000000000000000000000000067
:104158000000000000000000000000000000000057
:10416800000000000000000000000000E50700104B
:04417800C10700106B
:0400000510001FD5F3
:00000001FF
