:020000041000EA
:1000000000001038B92E00100D2F0010912F001095
:100010000D2F00100D2F0010952F00100D2F001028
:100020000000000000000000000000000D2F001084
:100030000D2F00100000000035300010852F00103B
:100040000D2F00100D2F00100D2F00100D2F001080
:100050000D2F00100D2F00100D2F00100D2F001070
:100060000D2F00100D2F00100000000000000000F8
:100070000000000000000000000000000000000080
:100080000000000000000000000000000000000070
:100090000000000000000000000000000000000060
:1000A0000000000000000000000000000000000050
:1007C00010B5054C237833B9044B13B1044800E04D
:1007D00000BF0123237010BD74000038000000002A
:1007E000944F001008B5034B1BB10349034800E0C8
:1007F00000BF08BD0000000078000038944F0010D2
:1008000010B500214C1C044801F014F94FF47A7023
:1008100001F09CFB2146F5E7744E001030B58BB01B
:1008200000240994144D342300934FF48053134A49
:100830001349284602F022FA23464FF4806209A9A0
:10084000284602F0D1F9D4230693012305930A2206
:100850000492039302934FF480630193099B0093E6
:100860002346084A0849094802F072FA099802F03A
:10087000A7F90BB030BD00BF9010003890000038D1
:10088000884E001001080010904E0010C41000386F
:1008900010B501F0FFF8064801F0ECF801F068FA35
:1008A000002100BF4C1C034801F0C4F82146F8E7C2
:1008B000984E0010A04E0010064B074A9A60D3F8DD
:1008C000882042F47002C3F88820044B044A1A605E
:1008D000704700BF00ED00E000000010000000388D
:1008E00040787D0170470146002007E000EB800062
:1008F000531C0B60137803EB400030380A68137800
:10090000303BDBB2092BF1D970472DE9F04F83B0B2
:1009100005460E4693461F46DDF830A00D9CDDF8D7
:1009200038900F9B13F0030F19D1A0460192C845D0
:1009300009D202F1010B3B4631462020A84708F1BD
:1009400001085A46F3E7DDF804B008E0013C02F183
:1009500001083B4631461AF80400A8474246002CDD
:10096000F4D10F9B13F0020F03D1104603B0BDE882
:10097000F08FA2EB0B034B45F7D2541C3B4631469C
:100980002020A8472246F4E72DE9F04385B00C9DCE
:100990000D9C9DF83890DDF83C80DDF840E0119F1B
:1009A000129E16F0020F21D17FB116F0010F0CD06C
:1009B000B9F1000F02D116F00C0F06D0013F04E090
:1009C0004FF0300C05F804C00134744501D21F2CDF
:1009D000F6D916F0010F09D0BC4207D21F2C05D85A
:1009E0004FF0300C05F804C00134F2E716F0100F98
:1009F00017D016F4806F04D11CB1744524D0BC42CA
:100A000022D0B8F1100F2BD0B8F1100F33D0B8F1BD
:100A1000020F3BD01F2C04D84FF0300C05F804C057
:100A200001341F2C07D8B9F1000F37D04FF02D0C2F
:100A300005F804C001340396029701940095FFF76E
:100A400064FF05B0BDE8F083B4F1010C06D0B8F145
:100A5000100F01D06446D4E7023CD2E76446D0E7E9
:100A600016F0200FD0D11F2CCED84FF0780C05F8FF
:100A700004C00134CEE716F0200FC8D01F2CC6D812
:100A80004FF0580C05F804C00134C3E71F2CC1D83F
:100A90004FF0620C05F804C00134BBE716F0040FF8
:100AA00005D04FF02B0C05F804C00134C3E716F055
:100AB000080FC0D04FF0200C05F804C00134BAE78D
:100AC000F0B591B0169C189D1B9E0CB926F010062F
:100AD00016F4806E16D064B34FF0000E12E00CF1E5
:100AE000300C5FFA8CFC0EF101070EF1400EEE4463
:100AF0000EF820CCB4FBF5FCAC421BD31F2F19D849
:100B0000BE466446B4FBF5FC05FB1C4C5FFA8CFC4E
:100B1000BCF1090FE3D916F0200F08D04127BC44DF
:100B20005FFA8CFCACF10A0C5FFA8CFCDBE7612706
:100B3000F5E7274606961A9C0594199C049403959C
:100B40009DF85C400294019708AC0094FFF71CFFED
:100B500011B0F0BD2DE9F04F95B009900A910B92BC
:100B60009B461E9D1F9E229FDDF88C80DDF898A07D
:100B700055EA060301D12AF0100A1AF480641FD046
:100B800055EA060330D000241AE003F13002D2B255
:100B900004F1010904F150030DEB030404F8202CC7
:100BA0003A4643462846314602F0BEFFBD4276EB48
:100BB00008031BD3B9F11F0F18D84C4605460E4643
:100BC0003A4643462846314602F0AEFFD3B2092BDF
:100BD000DBD91AF0200F05D041221A44D2B20A3ACA
:100BE000D2B2D5E76122F8E74FF00009CDF818A09E
:100BF000259B0593249B049303979DF880300293D3
:100C0000CDF804900CAB00935B460B9A0A990998B7
:100C1000FFF7BAFE15B0BDE8F08F0000000000003D
:100C20002DE9F04F2DED028B91B082460C46934694
:100C30001D46DDE91C231046194602F0FBFE002884
:100C400000F007814FF0FF32B14BDDE91C0102F0EB
:100C500019FF002840F0FD804FF0FF326FF4801341
:100C6000DDE91C0102F0F0FE002840F0F2800022D5
:100C70000023DDE91C0102F0E7FE002840F0FE80C1
:100C80009DED1C7B8DED067B209B13F480630F9301
:100C900001D106231E93DDE906010246C1F30A5085
:100CA000C1F31303904643F07F5949F44019A0F271
:100CB000FF3002F0EDFB84A3D3E9002302F052FCE5
:100CC00083A3D3E9002302F097FA06460F460022D9
:100CD000904B4046494602F08DFA7FA3D3E90023AA
:100CE00002F040FC02460B463046394602F084FAD8
:100CF00002F0D2FE064602F0CBFB8046894678A37E
:100D0000D3E9002302F02EFC0022834B02F074FA98
:100D100002F0C2FE074674A3D3E9002340464946C9
:100D200002F020FC80468946384602F0B1FB70A3F1
:100D3000D3E9002302F016FC02460B464046494622
:100D400002F058FA8046894602460B4602F00AFC39
:100D5000CDE90A0107F2FF3700210022CDE9081290
:100D60003B0509930023089342464B4640464946BB
:100D700002F042FACDE90C0142464B4600204FF00A
:100D8000804102F037FA804689460022634BDDE954
:100D90000A0102F011FD0022614B02F02DFA024619
:100DA0000B46DDE90A0102F007FD00225D4B02F06F
:100DB00023FA02460B46DDE90A0102F0FDFC024679
:100DC0000B464046494602F017FA02460B46DDE95B
:100DD0000C0102F0F1FC0022534B02F00DFADDE9A8
:100DE000082302F0BFFB8046894649EC188BDDE9F9
:100DF000062302F047FE40B1013E0022484B404628
:100E0000494602F0D9FC41EC180B06F16303C62BEE
:100E10003FD80427209B13F4006F44D036A3D3E9B6
:100E20000023DDE906894046494602F021FE0028FC
:100E30003FD033A3D3E900234046494602F004FEE5
:100E4000002836D01E9BB34225DD9E1B731E1E93C9
:100E500023E0209B04931F9B03931E9B02939DED15
:100E60001C7B8DED007B2B465A462146504600F0F8
:100E7000CFF811B0BDEC028BBDE8F08F9FED227B67
:100E80008DED067B1C9B06931D9B03F1004307938E
:100E9000FAE60527BEE700231E93209B43F48063F8
:100EA000209300273E461F9B9F423FD2A3EB07089B
:100EB0003EE01E9B002BF6D00F9B002BF3D01E9B19
:100EC000013B1E93EFE700BFFB799F501344D33FD4
:100ED000B3C8608B288AC63F61436F63A787D23F40
:100EE00071A379094F930A401655B5BBB16B024007
:100EF000EF39FAFE422EE63F2D431CEBE2361A3F55
:100F00000000000080842E4100000000000000006E
:100F1000FFFFEF7F0000F83F0000E03F00002C40A3
:100F200000002440000018400000F03F4FF000088F
:100F3000209B13F0020902D00FB14FF000083EB120
:100F400053EC182BDDE9060102F036FCCDE9060171
:100F500000220023DDE91C0102F076FD00283DD1CE
:100F6000209B23F400630493CDF80C801E9B029316
:100F70009DED067B8DED007B2B465A462146504663
:100F800000F046F8002F3FF474AF209B13F0200FC1
:100F90002CD04FF0450C00F101082B4602462146AB
:100FA0006046D04786EAE673A3EBE6730522059216
:100FB000013F0497002203920A220292F00F01904F
:100FC00000932B46424621465046FFF779FDB9F182
:100FD000000F3FF44EAF02461F9F10E0DDE906010F
:100FE000024601F10043CDE90623B9E74FF0650C55
:100FF000D1E7561C2B4621462020D0473246A2EB93
:101000000B03BB42F5D3104633E700BF00000000DE
:101010002DE9F04F2DED028B95B007900A91924685
:101020009B46DDE92089229D42464B464046494683
:1010300002F000FD002840D04FF0FF326FF4801323
:101040004046494602F000FD002845D14FF0FF32EE
:101050009F4B4046494602F015FD00284BD198A30E
:10106000D3E900234046494602F00CFD00285AD13E
:1010700095A3D3E900234046494602F0E5FC002849
:1010800051D1002200234046494602F0DDFC0028F1
:1010900057D100230B93249B13F4806F5CD0002462
:1010A0001F2C5BD8092D59D904F150036B44302211
:1010B00003F8202C013D0134F2E7249B0393239B8A
:1010C000029303230193834B00935B4652460A9994
:1010D0000798FFF71AFC2CE1249B0393239B0293B0
:1010E000042301937C4B00935B4652460A99079870
:1010F000FFF70BFC1DE1249B13F004030FD0774A8C
:101100007BB10423249903912399029101930092C6
:101110005B4652460A990798FFF7F7FB09E1704AC8
:10112000EEE70323EEE7249B0493239B03930295AE
:10113000CDE900895B4652460A990798FFF770FD92
:10114000F7E042464B460020002102F053F880466B
:10115000894601230B939EE70625A0E740464946B2
:1011600002F09AFC064602F093F902460B4640460E
:10117000494602F03FF85B4B03EBC50393ED008B50
:1011800053EC182B02F0EEF902460B46CDE908238A
:1011900002F0AAFC074602F06BF902460B46DDE9B5
:1011A000080102F027F802460B46CDE90823002289
:1011B0004D4B02F067FC50B30137384602F058F946
:1011C00002460B4651EC180B02F048FC08B1013600
:1011D000002755BB304602F05BF902460B464046FD
:1011E000494602F007F80746884600223E4B02F0C7
:1011F0002BFC38B100223C4B3846414602F042FC01
:10120000002842D016F0010F3FD001363DE0002209
:10121000354BDDE9080102F017FC0028D9D117B1E0
:1012200017F0010FD5D00137D3E71F2C17D8013D98
:101230002E4BA3FB0723DB08194603EB8303A7EB25
:101240004303621C303304F150000DEB000404F83A
:10125000203C092F02D90F461446E6E714461F2CFE
:101260000AD86B1E45B104F150026A44302102F8DD
:10127000201C1D460134F2E71F2C06D804F1500350
:101280006B442E2203F8202C01341F2C33D8184A2B
:1012900082FB0632F317C3EBA2031A4603EB830368
:1012A000A6EB4303611C303304F150000DEB000446
:1012B00004F8203C1646EAB10C46E6E7AFF300809E
:1012C0000000000065CDCD410000000065CDCDC11E
:1012D000FFFFEF7FC04E0010C44E0010B84E00104C
:1012E000B44E0010D04E00100000E03FCDCCCCCC6E
:1012F000676666660C46249B03F00303012B1DD032
:101300001F2C09D80B9B002B35D004F150036B44E4
:101310002D2203F8202C0134249B0393239B02935A
:1013200001940CAB00935B4652460A990798FFF76D
:10133000ECFA15B0BDEC028BBDE8F08F239BB3B186
:101340000B9B1BB9249B13F00C0F12D0239B013B6A
:101350002393194606E004F150036B44302203F84E
:10136000202C01348C42CBD21F2CF4D9C8E723990E
:10137000F8E72399F6E7249B13F0040F07D004F154
:1013800050036B442B2203F8202C0134C4E7249B28
:1013900013F0080FC0D004F150036B44202203F86F
:1013A000202C0134B8E700BF2DE9F04F8FB007467D
:1013B00016460D938846002900F0248300240D9BD7
:1013C0001878002800F02083252809D0651C3346B2
:1013D00022464146B8470D9B01330D932C46EEE75C
:1013E00001330D9300250D9B1978A1F12002102ADD
:1013F0000AD8DFE802F03809093D09090909090995
:101400000933092E09092900A1F13003DBB2092BA8
:1014100033D92A2936D000230A930D9B1A782E2A15
:1014200040D04FF0000B0D9A1378683B122B77D801
:10143000DFE803F06476D37656767676767676763F
:10144000727676767676D80045F0010501330D93F5
:10145000C9E745F0020501330D93C4E745F00405E3
:1014600001330D93BFE745F0080501330D93BAE74B
:1014700045F0100501330D93B5E70DA8FFF733FADA
:101480000A90CAE7189B1A1D18921868002804DBF6
:101490000A900D9B01330D93BFE745F002054342CF
:1014A0000A93F6E745F480655A1C0D925A78A2F12A
:1014B0003003DBB2092B04D92A2A07D04FF0000BE6
:1014C000B1E70DA8FFF70FFA8346ACE7189B1A1D8A
:1014D00018921B6823EAE37B0D9B01330D93A2E76F
:1014E00045F48071531C0D9352786C2A01D00D463F
:1014F00016E045F4407501330D9311E045F080018D
:10150000531C0D935278682A01D00D4608E045F02F
:10151000C00501330D9303E045F4807501320D924F
:101520000D9B1878A0F12503532B00F26182DFE8B0
:1015300013F054025F025F025F025F025F025F020C
:101540005F025F025F025F025F025F025F025F0293
:101550005F025F025F025F025F025F025F025F0283
:101560005F025F025F025F025F025F025F025F0273
:101570005F027401540174015F025F025F025F0247
:101580005F025F025F025F025F025F025F025F0253
:101590005F025F025F025F025E005F025F025F0246
:1015A0005F025F025F025F025F025F025E009B01FB
:1015B0005E007401540174015F025E005F025F020D
:1015C0005F025F025F025E0039025F025F02D401C8
:1015D0005F025E005F025F025E0045F4007501324B
:1015E0000D929DE745F4807501320D9298E77828B9
:1015F00009D058283AD06F283AD062283AD025F03E
:1016000010050A2300E01023582835D0692803D09C
:10161000642801D025F00C0515F4806F01D025F069
:10162000010569282BD0642829D015F4007F40F0EB
:10163000968015F4807F40F0AE8015F0400F00F0EA
:10164000BF80189A111D1891127805950A99049176
:10165000CDF80CB00293002301930092334622464A
:1016600041463846FFF72CFA044629E01023CBE721
:101670000823C9E70223C7E745F02005C6E715F4AC
:10168000007F21D115F4807F42D115F0400F58D052
:10169000189A111D1891127882EAE271A1EBE27199
:1016A00005950A980490CDF80CB00293D20F0192E0
:1016B00000913346224641463846FFF701FA044678
:1016C0000D9B01330D937AE6189A073222F0070238
:1016D00002F108011891516812680846002913DBCD
:1016E00008950A9D0795CDF818B00493002305933B
:1016F000C90F029100920190334622464146384676
:10170000FFF728FA0446DBE7524261EB4100E7E7C6
:10171000189A111D1891126882EAE271A1EBE27128
:1017200005950A980490CDF80CB00293D20F01925F
:1017300000913346224641463846FFF7C1F9044638
:10174000BEE715F0800F05D0189A111D1891B2F957
:101750000020A1E7189A111D189112689CE7189AA9
:10176000073222F0070202F10801189108950A9940
:101770000791CDF818B00021049305910291D2E9A8
:101780000023CDE900233346224641463846FFF781
:10179000E1F9044694E7189A111D189105950A99E4
:1017A0000491CDF80CB002930023019313680093C9
:1017B0003346224641463846FFF782F904467FE722
:1017C00015F0800F04D0189A111D189112883CE76B
:1017D000189A111D1891126837E746281AD0189BDD
:1017E000073323F0070303F10802189204950A9ABD
:1017F0000392CDF808B0D3E90023CDE900233346A6
:10180000224641463846FFF703FC04460D9B013350
:101810000D93D4E545F02005E1E7672801D047287E
:1018200001D145F40065452801D0472801D145F094
:101830002005189B073323F0070303F108021892D1
:1018400004950A9A0392CDF808B0D3E90023CDE9B4
:1018500000233346224641463846FFF7E1F9044665
:101860000D9B01330D93AAE515F002051FD04FF033
:1018700001091898031D189304F1010A3346224602
:1018800041460078B847BDB90D9B01330D935446CE
:1018900095E502F1010A334641462020B8474B4600
:1018A000524603F101099B45F3D81446E1E70123B1
:1018B000DDF828B02246F4E75246DDF828A006E01D
:1018C000551C334641462020B847A1462A4609F117
:1018D0000104CA45F4D89246D6E7189B1A1D1892FF
:1018E000D3F800A0BBF1000F1ED14FF0FF33D1465B
:1018F00002E009F10109134699F8002012B15A1EBD
:10190000002BF6D1A9EB0A0915F480630B9302D0E2
:10191000D94528BFD94615F002030C9306D02246BC
:101920005C46B3460B9E1DE05B46E0E722460A9C00
:101930004B4607E002F10109334641462020B847F3
:101940002B464A465D1C9C42F4D8A9465C46B346E9
:101950000B9E07E01C460AF1010A551C5B464146F6
:10196000B8472A469AF8000020B1002EF3D0631E33
:10197000002CEFD114465E460C9B1BB90D9B013326
:101980000D931CE5DDF828A006E0551C33464146C2
:101990002020B847A1462A4609F10104CA45F4D8D7
:1019A0001446EBE745F02105189B1A1D18921B6899
:1019B000059508220492CDF80CB010220292002264
:1019C000019200933346224641463846FFF778F8A5
:1019D00004460D9B01330D93F1E4651C334622460A
:1019E00041462520B8470D9B01330D932C46E6E474
:1019F000651C334622464146B8470D9B01330D9383
:101A00002C46DCE4074FD9E4B44201D3721E00E057
:101A10002246334641460020B84720460FB0BDE875
:101A2000F08F00BFE508001000B9704708B500F05E
:101A300017F808BD0FB400B585B006AA52F8043BEC
:101A4000039200924FF0FF3202A90448FFF7ACFC6A
:101A500005B05DF804EB04B0704700BF291A001010
:101A6000034B9B6913F0200FFAD1014B18607047AC
:101A70000000204038B50546002402E0FFF7F0FFE3
:101A80000134285D0028F9D10A20FFF7E9FF20463C
:101A900038BD0000074B28225A620B229A6260224E
:101AA000DA6240F201321A630A225A6001229A6015
:101AB000704700BF0000204010B50346EFF31084CC
:101AC00072B6011F50F8042C106AB0B1516A013986
:101AD000516261B9116200228266C16F0B60C0F869
:101AE000842000F02DFB84F31088002010BD016FCE
:101AF0001162426F4A671167EDE7106943F8040C01
:101B0000116193680133936084F31088EDE700005E
:101B10002DE9F843044688469946033222F003072C
:101B2000EFF3108572B6224B1E68266285F310888B
:101B30003946204600F0A2F8EFF3108572B610B9CE
:101B4000236AB342F1D1C8F8000020B185F31088B0
:101B50000020BDE8F883B9F1000F25D0154B1B68B4
:101B6000BBB9154BB366F466C6F87C80B767A36A49
:101B70005A1CA2628BB966623667766709233363A3
:101B80004946304600F06EFC85F31088D6F8840094
:101B9000DFE785F310881020DBE7636A33675A6F4D
:101BA000726716675E67E9E785F310881020D0E753
:101BB000B411003808120038BD1B001008B5C26E01
:101BC00000238366936A013B936223B95362036BDC
:101BD000092B09D008BD036F416F59670B67516A24
:101BE0008142F4D15362F2E71023C0F8843000F050
:101BF000A7FAEFE7F8B504460F4616461D4634220D
:101C0000002101F0EBFA25F003036760A661E361B0
:101C100026616661A3F10802A2600222E2603344F9
:101C200043F8044CA3F1080243F8086C32600F4BF0
:101C3000736000232362EFF3108272B60C4B2360B3
:101C40000C4B1B6853B90C490C60E46224630133EC
:101C500008490B6082F310880020F8BD0649096826
:101C6000086B0C63C4622063E162F0E7EEEEFFFFF5
:101C700045545942981100389C110038F0B5EFF3E3
:101C8000108C72B68268C3689C1E02EBC4028A4242
:101C900007D9324A15680562426901334FF0000ED8
:101CA0002DE08CF3108800204FE0BEF1000F02D130
:101CB00042614FF0010E1768BC1A083CA14227D9B7
:101CC000274C7E68A64203D03A68EBB1013B1BE08B
:101CD0003C681460C468013CC4604469BC4213D1D0
:101CE000426111E08CF31088EFF3108C72B6046A35
:101CF000AC4203D04269C368013305624BB1184C52
:101D00005768A742D1D01268002BEBD0013BE9E71E
:101D10002346F3B15C1A132C0BD901F10803D41834
:101D20001568D5500E4B6360C3680133C3601460FF
:101D30000B4650608168CB1A083B8360436993422D
:101D400004D08CF3108802F10800F0BD13684361E1
:101D5000F7E78CF310880020F7E700BFB4110038D4
:101D6000EEEEFFFF08B500F0BFF800F0BFFD08BDC4
:101D700010B50F4B1B6813F10F3F0CD10C4C4FF0FB
:101D8000F03323600B4B1868FEF748FD00232360F7
:101D900001F03AF910BD064B4FF0F0321A6001F035
:101DA000C3F8FFF7DFFF044A136801331360E5E768
:101DB00004000038A0110038081200382DE9F84F4F
:101DC00004468A4691469846DDF828B00B9D0C9F44
:101DD0002A46EF21584601F001FA25F003031E1FA1
:101DE0000BF1030525F00305AB4501D0A3F108066F
:101DF000D4220021204601F0F1F9C4F828A0C4F84B
:101E00004490C4F84880E5606661E762C4F8907069
:101E10000E9BA361E3612023C4F89830013E354452
:101E200025610D9B9F4224D003232363274B6365C9
:101E3000A4652749204601F04FF9A368C4F8CC30C7
:101E4000EFF3108572B6234B2360234B1B68A3B9B5
:101E5000224A1460C4F88840C4F88C4001331E4AFA
:101E600013600F9B012B15D085F310880020BDE86F
:101E7000F88FE763C4F89470D6E7184A1268D2F86E
:101E80008C10C2F88C40C1F88840C4F88C10C4F89B
:101E90008820E3E7EFF30582114B1B681343B3F18E
:101EA000F03F06D30F4B1E6876B1F76BF36AF3630E
:101EB00001E000273E46204600F042F985F31088F5
:101EC000002ED3D0F763D1E70027F4E7992800105C
:101ED000091F001044524854AC110038B0110038AA
:101EE00004000038B8110038044B20221A60044A5C
:101EF0001168044B0B431360704700BFBC110038DE
:101F0000A4110038000E5EC138B50E4B1C68636C1E
:101F1000A06C98470C4B1B680BB120469847EFF319
:101F2000108572B601232363EFF3148323F00403B7
:101F300083F314880021204600F094FA85F310887A
:101F400038BD00BFB4110038C011003838B5EFF308
:101F5000108572B6164B1C6864B1EFF30583154A01
:101F6000126813430AD1144B9C420BD070B985F30D
:101F7000108806E085F31088132002E085F31088AE
:101F8000132038BD85F310881320FAE70B4B1B682C
:101F90001BB185F310881320F3E704232363014664
:101FA000204600F05FFA85F31088D4F88400E8E753
:101FB000B411003804000038481300380812003803
:101FC000EFF3108372B618B101681F4A914202D034
:101FD00083F310887047C1680029F9D030B4D0F875
:101FE000CC50F5B183F3108802E01146032B0DD9D4
:101FF0006B1A9B104FEA530C01EB8C0251F82C40EA
:10200000B4F1EF3FF1D01546F0E704321368B3F1B5
:10201000EF3FFAD0EFF3108372B604680A498C429E
:1020200003D083F3108830BC7047C1689142F8D266
:10203000D0F8CC109142F4D91168B1F1EF3FF0D053
:10204000C0F8CC20EDE700BF4452485410B5EFF380
:10205000108472B6034B1B6803B1984784F3108851
:1020600010BD00BFA81100382F4B1B68002B59D1A1
:1020700010B52E4B1B682E4A1468A3421DD0EFF3F7
:10208000108372B61CB121682A4A914216D083F39C
:102090001088002C41D0284A1368013313604FF098
:1020A000E0234FF08052C3F8042DEFF3058323B9EA
:1020B000EFF3108362B683F3108810BDA268D4F8E2
:1020C000CC108A4201D2C4F8CC20E2681168B1F188
:1020D000EF3F05D12169D1F80110B1F1EF3F17D0E1
:1020E00083F310882046FFF7B1FFEFF3108372B639
:1020F000D4F8CC2052F8042CB2F1EF3FC7D083F3D0
:1021000010882046FFF75CFFEFF3108372B6BEE73E
:10211000D4F8CC108A42EBD9E2E7084A13680133BD
:102120001360BCE7704700BF08120038B4110038D4
:10213000B811003844524854F0110038E811003802
:1021400010B50446436E13B14C3000F043FCEFF37E
:10215000108372B61CB121689C4A91421ED083F351
:102160001088236B002B00F0F680636B002B40F08F
:10217000EE802363E26A96490B6801330B60D4F862
:10218000A4300133C4F8A430924B53F82230A3B3E7
:102190005A6A14625C6262622362DCE0A268D4F86C
:1021A000CC108A4201D2C4F8CC20E2681168B1F1A7
:1021B000EF3F05D12169D1F80110B1F1EF3F17D000
:1021C00083F310882046FFF741FFEFF3108372B6C8
:1021D000D4F8CC2052F8042CB2F1EF3FBFD083F3F7
:1021E00010882046FFF7ECFEEFF3108372B6B6E7D7
:1021F000D4F8CC108A42EBD9E2E7764B43F8224080
:1022000024626462012303FA02F1734803680B43FA
:102210000360724B1B68934240F29D806F4B1A60C3
:102220006F4B1B68002B4ED0D96B914240F29380CC
:10223000EFF305826B4909680A4347D16A490A6886
:1022400001320A60D3F8AC200132C3F8AC20C3F8E5
:10225000B840634B1C60654B1B68654A52F82320ED
:10226000A2420CD00133614A1360072B02D91346F6
:1022700000221A605D4B1A685D4B43F82240EFF371
:10228000108372B61CB12168504A914230D083F35A
:102290001088584B1B68002B40F09680564A1368F4
:1022A000013313604FF0E0234FF08052C3F8042D48
:1022B000EFF30583002B40F08780EFF3108362B6C5
:1022C00083F3108880E0464B1C6044E0EFF3058107
:1022D000444A12680A43B2F1F03FB8D247490A684B
:1022E00001320A60D3F8B0200132C3F8B020AEE763
:1022F000A268D4F8CC108A4201D2C4F8CC20E2689B
:102300001168B1F1EF3F05D12169D1F80110B1F1A8
:10231000EF3F17D083F310882046FFF797FEEFF3C7
:10232000108372B6D4F8CC2052F8042CB2F1EF3FEF
:10233000ADD083F310882046FFF742FEEFF3108301
:1023400072B6A4E7D4F8CC108A42EBD9E2E70023B6
:10235000636303232363254B1B68254A52F823201C
:102360001F490C68A2420CD00133204A1360072B8E
:1023700002D9134600221A601C4B1A681C4B43F802
:1023800022401F4B1B689C421ED0EFF3108372B695
:102390001CB121680D4A914234D083F31088154B4B
:1023A0001B688BB9144A1368013313604FF0E023A4
:1023B0004FF08052C3F8042DEFF3058323B9EFF3F8
:1023C000108362B683F3108810BD00BF4452485496
:1023D000F41100380C1200388C120038BC1100388F
:1023E000B811003804000038F8110038C411003862
:1023F000C811003808120038F0110038EC1100380C
:10240000B4110038A268D4F8CC108A4201D2C4F8C2
:10241000CC20E2681168B1F1EF3F05D12169D1F814
:102420000110B1F1EF3F17D083F310882046FFF77A
:102430000DFEEFF3108372B6D4F8CC2052F8042CC2
:10244000B2F1EF3FA9D083F310882046FFF7B8FD23
:10245000EFF3108372B6A0E7D4F8CC108A42EBD920
:10246000E2E700BF70B50446A04B1E68864260D00C
:10247000EFF3108372B61CB121689D4A914265D07A
:1024800083F31088D4F8A8300133C4F8A830994AEF
:10249000136801331360E26A236A9C4200F08A8069
:1024A000616A59620B62944951F82210A1427DD0B1
:1024B000924B1D68A54200F0AE80914B1B68914A7B
:1024C00052F8232095420CD001338D4A1360072B1C
:1024D00002D9134600221A60894B1A68894B43F8C7
:1024E0002250B54224D0EFF3108372B625B129688B
:1024F0007F4A914200F0C48083F31088824B1B68AE
:10250000B3B97E4B1B68002B00F0EA807F4A13684A
:10251000013313604FF0E0234FF08052C3F8042DD5
:10252000EFF3058323B9EFF3108362B683F31088CA
:1025300070BD11B1B1F1FF3F03D1E269744B1A6074
:1025400096E740F84C1F00F019FAF6E7A268D4F8B5
:10255000CC108A4201D2C4F8CC20E2681168B1F1F3
:10256000EF3F05D12169D1F80110B1F1EF3F18D04B
:1025700083F310882046FFF769FDEFF3108372B6EE
:10258000D4F8CC2052F8042CB2F1EF3F3FF478AFEE
:1025900083F310882046FFF713FDEFF3108372B624
:1025A0006EE7D4F8CC108A42EAD9E1E7524941F803
:1025B00022307DE7504B002143F822100123934045
:1025C00054490A6822EA03020A6032B192FAA2F27E
:1025D000B2FA82F2504B1A606AE74F4B20221A601F
:1025E000464B00221A60484B1B68002BA0D14B4A77
:1025F0001368013313604FF0E0234FF08052C3F8AB
:10260000042DEFF30583002B92D1EFF3108362B614
:1026100083F310888CE7404B1A68374B53F822201D
:10262000364B1A60364B1B68364951F823108A42E4
:102630000CD0013332490B60072B02D90B46002125
:1026400019602F4B19682F4B43F821202E4B1B6824
:10265000002B7FF46DAF2D4A1368013313604FF0E8
:10266000E0234FF08052C3F8042DEFF30583002BD5
:102670007FF45EAFEFF3108362B683F3108857E701
:10268000AA68D5F8CC108A4201D2C5F8CC20EA68F5
:102690001168B1F1EF3F05D12969D1F80110B1F10D
:1026A000EF3F18D083F310882846FFF7CFFCEFF3F5
:1026B000108372B6D5F8CC2052F8042CB2F1EF3F5B
:1026C0003FF41AAF83F310882846FFF779FCEFF345
:1026D000108372B610E7D5F8CC108A42EAD9E1E748
:1026E0000E4A13680133136014E700BFB4110038B9
:1026F00044524854FC1100380C120038B81100380C
:10270000C4110038C811003808120038F011003820
:102710001C2400388C120038BC110038E811003835
:1027200038B5554B1C68EFF3108372B61CB12168A5
:10273000524A91420DD083F31088EFF3108172B6A4
:102740004F4B00221A609CB3236BA3B381F3108814
:1027500038BDA268D4F8CC108A4201D2C4F8CC208B
:10276000E2681168B1F1EF3F05D12169D1F801109C
:10277000B1F1EF3F17D083F310882046FFF766FCD6
:10278000EFF3108372B6D4F8CC2052F8042CB2F1D7
:10279000EF3FD0D083F310882046FFF711FCEFF312
:1027A000108372B6C7E7D4F8CC108A42EBD9E2E7BF
:1027B00081F31088CCE7E369A361324A1360236A8E
:1027C000A34206D0E26AE06B824205D081F3108812
:1027D000BEE781F31088BBE72B4840F822302B4B33
:1027E0001B6850F823502A4B1D60D4F8BC300133CD
:1027F000C4F8BC30274A13680133136081F3108892
:10280000002DA5D0EFF3108372B629681B4A9142C0
:1028100002D083F310889BE7AA68D5F8CC108A42CF
:1028200001D2C5F8CC20EA681168B1F1EF3F05D1BB
:102830002969D1F80110B1F1EF3F17D083F3108867
:102840002846FFF703FCEFF3108372B6D5F8CC20CF
:1028500052F8042CB2F1EF3FDBD083F31088284606
:10286000FFF7AEFBEFF3108372B6D2E7D5F8CC10CA
:102870008A42EBD9E2E700BFB41100384452485411
:102880009C1200381C2400380C120038BC1100388F
:10289000B81100380012003810B5EFF3108472B68A
:1028A000036B042B0FD00A4A136801331360D0F86E
:1028B000C4300133C0F8C430836E0BB10021984797
:1028C00084F3108810BDFFF73BFC84F31088F9E710
:1028D0000412003810B5EFF3108472B60248FFF707
:1028E0002FFC84F3108810BD4813003800B587B062
:1028F000164B174A1360174A1360174A03F17C01FD
:10290000116080331360154B154A1A60154B4FF454
:1029100080521A60144B05221A60134B1B68002268
:1029200005920492039302930E4B1B6801930B4B89
:102930001B6800930D4B0E4A0E490F48FFF73EFAF5
:102940000028EAD107B05DF804FB00BFA4120038EC
:10295000281300389412003824130038401300382C
:102960001C1400383C130038381300384D495441CA
:10297000052A0010204F001048130038036823B1C7
:10298000B3F1FF3F01D0826902B17047202B15D807
:10299000013B0D4A126802EB83030C4A12689A420B
:1029A00003D89B1A0A4A126813441A6842B1516943
:1029B00008615061026141618361E6E71F23E8E736
:1029C000006140611860F7E7941200382413003862
:1029D00028130038836953B10269904208D04169D5
:1029E00051610A611968814208D0002383617047F0
:1029F0001A688242F9D100221A60F6E793611A60E0
:102A0000F3E70000634B984200D07047F0B583B005
:102A100000279EE0604B1A68604B1A60AEE001929E
:102A20002AE02368203B2360C4F818D02461009476
:102A300000255B4B1C6086F310880DB13846A84713
:102A4000EFF3108272B6564B00211960009BA3422F
:102A500043D082F31088EFF3108672B6019C002CED
:102A60006CD02369002200929C42D8D062695A61DE
:102A7000136101AA9A6101932368202B10D9494A56
:102A8000136801331360A268474B9A42C9D054F8C7
:102A9000082C404B9A42C4D1636B01336363C0E797
:102AA000424A136801331360A5683F4B9D4204D02E
:102AB00054F8082C374B9A4208D0E76863682360C3
:102AC00043B1C4F818D024610094B2E7236B0133FA
:102AD0002363F2E70023A361ABE765B134490B68D8
:102AE00001330B60A168304B994204D054F8081CA4
:102AF000284B994218D02168202919D80139274B31
:102B00001B6803EB81032B490968994203D85B1AC0
:102B1000214909680B44196861B1486904614C6135
:102B200021616061A36194E7A36A0133A362E2E7D4
:102B30001F21E4E7246164611C60F3E71E4B1B68FE
:102B40002BBB1E48032303630021FFF78BFC86F396
:102B50001088EFF3108172B6104B1A681368019356
:102B60000BB101A89861002313600C4A1368043369
:102B70001360104A126893423FF44CAF0E4B002290
:102B80001A6081F31088EFF3108672B666E786F359
:102B90001088DEE74D49544128130038941200385C
:102BA000A01200382C130038992800103013003878
:102BB00034130038241300389812003848130038B2
:102BC00060B108B550F8043C53B11968054B9942FF
:102BD00001D0032008BDFEF76FFFFBE7032070471D
:102BE0000320F7E7434F4C4210B5844660B31F48BB
:102BF000DCF80040844213D0022078B9EFF3058E50
:102C00001B4C246854EA0E0408D0EFF3058E184CD0
:102C1000246844EA0E04B4F1F03F25D300B310BD9C
:102C2000A1B1AAB1DCF81C00904213D32BB1EFF391
:102C300005800F4C246820430ED10E4804680E48CE
:102C400084420BD00020D8E70220D6E70320D4E747
:102C50000520D2E70520D0E70420CEE71320DDE7EA
:102C60006046FEF755FFDAE71320D8E7455459428E
:102C700004000038B411003848130038002850D040
:102C80002DE9F8438946174698460646089B342B9B
:102C900002D00220BDE8F883EFF3108172B6264A15
:102CA00013680133136081F31088244B1C680020E3
:102CB000234D2D68854204D9B44202D0E46A013024
:102CC000F6E7EFF3108172B61B4A1368013B1360FD
:102CD00081F31088FFF7C8F9B44224D02FB3B8F1BC
:102CE000630F24D9174B1A68174B9A4217D000204C
:102CF000EFF30583154A1268134307D0EFF30582FB
:102D0000124B1B681343B3F1F03F12D30028C1D11B
:102D100043463A4649463046FEF76CFFBAE7132071
:102D2000E6E7022070470220B4E70320B2E705205F
:102D3000B0E71320AEE700BF081200389C1100383E
:102D400098110038B41100384813003804000038D6
:102D50002DE9F04786B00E9E00287ED08946904629
:102D60009A460746149BD42B03D00E2006B0BDE82C
:102D7000F087EFF3108172B6414A13680133136094
:102D800081F310883F4B1C680F9B5A1E3244002071
:102D9000014602E0D4F8884001303B4B1B68834277
:102DA00012D9BC4210D079B9E568B54204D823697C
:102DB000B34201D9012100269542EBD82369934201
:102DC000E8D901210026E5E7EFF3108172B62C4A1D
:102DD0001368013B136081F31088FFF745F9BC428B
:102DE0003DD0002E3DD0B8F1000F3CD00F9BB3F585
:102DF000806F3AD3109B1F2B39D8119A934238D346
:102E0000139B012B37D8214B1A68214B9A4222D0B1
:102E10000020EFF305831F4A1268134307D0EFF336
:102E200005821C4B1B681343B3F1F03F25D30028E8
:102E30009CD1139B0593129B0493119B0393109BAE
:102E400002930F9B019300965346424649463846EB
:102E5000FEF7B4FF8AE71320DBE70E2086E70E209B
:102E600084E7032082E7032080E705207EE70F2028
:102E70007CE718207AE7102078E7132076E700BF78
:102E800008120038B0110038AC110038B411003805
:102E900048130038040000380120704708B500F0DE
:102EA00097F9162303604FF0FF3008BD08B54FF0C7
:102EB000FF31FFF7F3FFFEE7154880F30988154857
:102EC00080F30A8880F30B88FDF7F6FC124C134D53
:102ED000AC420ADA21686268A3689B00043BA2BF87
:102EE000C858D050FAE70C34F2E70D4B0D4CA34212
:102EF00009DA19685A6892000020043AA4BF885081
:102F0000FBE70833F3E7FDF7C3FCFEE7FEE700004D
:102F10000000103800F00F38705000107C50001086
:102F20007C5000107C50001072B62C482C4901F1E6
:102F3000040101604FF0E0202A49C0F8081D2A482A
:102F4000016841F0010101602848264909680160D3
:102F50004FF0E020264941614FF0070101614FF039
:102F60000001C0F8181D4FF07F41C0F81C1D214919
:102F7000C0F8201D704700BFFFF7FEBF01B5BDE8D8
:102F80000140704701B500F0C7F8BDE80140704747
:102F9000FFF7FEBF72B61848016811F4801FFED01B
:102FA00001601648016821F00101016014480068C1
:102FB00001B5FFF74BF8BDE801404FF000011048A4
:102FC000016010484FF080510160BFF34F8F62B62F
:102FD000704700BFFFF7FEBFFFF7FEBFA01100382C
:102FE0000000103800000010001000E090120038BF
:102FF0003F9002000000FF4028ED00E034EF00E0C9
:10300000B411003804ED00E04FF000002E4A1060CB
:10301000EFF3148020F0040080F3148862B64FF0C0
:1030200080504FF0E021C1F8040DBFF34F8FBFF384
:103030006F8FFEE72548264A4FF00003016891B1E3
:103040000360EFF3098C2CE9F00F1EF0100F01D193
:103050002CED108A1F4C4CF804EDC1F808C025680F
:103060000DB18D61236072B61168D1B1016062B695
:103070004F68184C8D6907F101074F602560D1F842
:103080000CC08CF30B88D1F808C05CF804EB1EF080
:10309000100F01D1BCEC108ABCE8F00F8CF309884A
:1030A000704772B61168016009B962B6F9E74FF06E
:1030B00000674FF0E028C8F8047D62B6D8E700BF8B
:1030C000B0EE400A7047000008120038B411003812
:1030D000B81100381C240038026922F00702A2F15E
:1030E00044026FF0020313604FF0000353609360DB
:1030F000D360136153619361D3611362536293622E
:10310000D362136353634FF0FF339363D1634FF084
:1031100080731364826070472249086800F10100DF
:103120000860214B1A683AB1A2F101021A601AB97B
:103130001E4B4FF0010018601D490868026822B15B
:103140001C4B4FF001021A6008E000F104001A4B1A
:103150001A68904201D1194B18680860134B1A681D
:1031600012B914490868C8B101B51249086808B114
:10317000FFF7B0FB0D4B1A6872B1FFF7D1FA104898
:10318000016849B90F4801680F4A13680F484FF0AA
:103190008052994200D00260BDE80140BFF34F8FDA
:1031A00070470000441300381C2400389C1200387B
:1031B000941200389812003824130038281300386D
:1031C00008120038B4110038B811003804ED00E0DE
:1031D000014B1868704700BF0800003802440346DE
:1031E000934200D1704703F8011BF9E781F00041D9
:1031F00002E000BF83F0004330B54FEA41044FEADC
:10320000430594EA050F08BF90EA020F1FBF54EA76
:10321000000C55EA020C7FEA645C7FEA655C00F012
:10322000E2804FEA5454D4EB5555B8BF6D420CDDE3
:103230002C4480EA020281EA030382EA000083EA66
:10324000010180EA020281EA0303362D88BF30BD06
:1032500011F0004F4FEA01314FF4801C4CEA11315C
:1032600002D0404261EB410113F0004F4FEA0333BB
:103270004CEA133302D0524263EB430394EA050F46
:1032800000F0A780A4F10104D5F1200E0DDB02FAB5
:103290000EFC22FA05F2801841F1000103FA0EF249
:1032A000801843FA05F359410EE0A5F120050EF10F
:1032B000200E012A03FA0EFC28BF4CF0020C43FA40
:1032C00005F3C01851EBE37101F0004507D54FF04D
:1032D000000EDCF1000C7EEB00006EEB0101B1F59D
:1032E000801F1BD3B1F5001F0CD349085FEA3000E3
:1032F0004FEA3C0C04F101044FEA445212F5800FEE
:1033000080F09A80BCF1004F08BF5FEA500C50F18A
:10331000000041EB045141EA050130BD5FEA4C0C6D
:10332000404141EB0101013C28BFB1F5801FE9D2CA
:1033300091F0000F04BF01460020B1FA81F308BFED
:103340002033A3F10B03B3F120020CDA0C3208DDB9
:1033500002F1140CC2F10C0201FA0CF021FA02F194
:103360000CE002F11402D8BFC2F1200C01FA02F104
:1033700020FA0CFCDCBF41EA0C019040E41AA2BF29
:1033800001EB0451294330BD6FEA04041F3C1CDAF1
:103390000C340EDC04F11404C4F1200220FA04F011
:1033A00001FA02F340EA030021FA04F345EA0301BB
:1033B00030BDC4F10C04C4F1200220FA02F001FA7D
:1033C00004F340EA0300294630BD21FA04F02946FF
:1033D00030BD94F0000F83F4801306BF81F4801198
:1033E0000134013D4EE77FEA645C18BF7FEA655C0B
:1033F00029D094EA050F08BF90EA020F05D054EADD
:10340000000C04BF1946104630BD91EA030F1EBFE1
:103410000021002030BD5FEA545C05D140004941E5
:1034200028BF41F0004130BD14F580043CBF01F5D8
:10343000801130BD01F0004545F0FE4141F47001BE
:103440004FF0000030BD7FEA645C1ABF1946104699
:103450007FEA655C1CBF0B46024650EA013406BF9A
:1034600052EA033591EA030F41F4002130BD00BF59
:1034700090F0000F04BF0021704730B54FF4806416
:1034800004F132044FF000054FF0000150E700BF97
:1034900090F0000F04BF0021704730B54FF48064F6
:1034A00004F1320410F0004548BF40424FF00001E3
:1034B0003EE700BF42004FEAE2014FEA31014FEA26
:1034C00002701FBF12F07F4393F07F4F81F0605175
:1034D000704732F07F4208BF704793F07F4F04BFC0
:1034E00041F40021704730B54FF4607401F000459D
:1034F00021F000411CE700BF50EA010208BF7047FD
:1035000030B54FF000050AE050EA010208BF7047ED
:1035100030B511F0004502D5404261EB41014FF456
:10352000806404F132045FEA915C3FF4D8AE4FF05E
:1035300003025FEADC0C18BF03325FEADC0C18BF41
:10354000033202EBDC02C2F1200300FA03FC20FA92
:1035500002F001FA03FE40EA0E0021FA02F11444DF
:10356000BDE600BF70B54FF0FF0C4CF4E06C1CEAF8
:1035700011541DBF1CEA135594EA0C0F95EA0C0F69
:1035800000F0DEF82C4481EA030621EA4C5123EADC
:103590004C5350EA013518BF52EA033541F480110B
:1035A00043F4801338D0A0FB02CE4FF00005E1FBBE
:1035B00002E506F00042E0FB03E54FF00006E1FB08
:1035C00003569CF0000F18BF4EF0010EA4F1FF044B
:1035D000B6F5007F64F5407404D25FEA4E0E6D418B
:1035E00046EB060642EAC62141EA55514FEAC5209C
:1035F00040EA5E504FEACE2EB4F1FD0C88BFBCF518
:10360000E06F1ED8BEF1004F08BF5FEA500E50F1C8
:10361000000041EB045170BD06F0004646EA01018E
:1036200040EA020081EA0301B4EB5C04C2BFD4EBC0
:103630000C0541EA045170BD41F480114FF0000EB9
:10364000013C00F3AB8014F1360FDEBF002001F027
:10365000004170BDC4F10004203C35DA0C341BDCA1
:1036600004F11404C4F1200500FA05F320FA04F073
:1036700001FA05F240EA020001F0004221F00041A7
:1036800010EBD37021FA04F642EB06015EEA430E1A
:1036900008BF20EAD37070BDC4F10C04C4F120054A
:1036A00000FA04F320FA05F001FA04F240EA0200FD
:1036B00001F0004110EBD37041F100015EEA430ECE
:1036C00008BF20EAD37070BDC4F1200500FA05F2EE
:1036D0004EEA020E20FA04F301FA05F243EA02036D
:1036E00021FA04F001F0004121FA04F220EA02007C
:1036F00000EBD3705EEA430E08BF20EAD37070BDC2
:1037000094F0000F0FD101F00046400041EB0101A1
:1037100011F4801F08BF013CF7D041EA060195F083
:10372000000F18BF704703F00046520043EB03033D
:1037300013F4801F08BF013DF7D043EA060370472A
:1037400094EA0C0F0CEA135518BF95EA0C0F0CD035
:1037500050EA410618BF52EA4306D1D181EA03017B
:1037600001F000414FF0000070BD50EA410606BF75
:103770001046194652EA430619D094EA0C0F02D1BA
:1037800050EA013613D195EA0C0F05D152EA0336FF
:103790001CBF104619460AD181EA030101F000411D
:1037A00041F0FE4141F470014FF0000070BD41F066
:1037B000FE4141F4780170BD70B54FF0FF0C4CF440
:1037C000E06C1CEA11541DBF1CEA135594EA0C0F5F
:1037D00095EA0C0F00F0A7F8A4EB050481EA030EAC
:1037E00052EA03354FEA013100F088804FEA033393
:1037F0004FF0805545EA131343EA12634FEA022261
:1038000045EA111545EA10654FEA00260EF0004121
:103810009D4208BF964244F1FD0404F5407402D273
:103820005B084FEA3202B61A65EB03055B084FEA04
:1038300032024FF480104FF4002CB6EB020E75EB01
:10384000030E22BFB61A754640EA0C005B084FEA29
:103850003202B6EB020E75EB030E22BFB61A7546A6
:1038600040EA5C005B084FEA3202B6EB020E75EBF1
:10387000030E22BFB61A754640EA9C005B084FEA69
:103880003202B6EB020E75EB030E22BFB61A754676
:1038900040EADC0055EA060E18D04FEA051545EA65
:1038A00016754FEA06164FEAC30343EA52734FEA0E
:1038B000C2025FEA1C1CC0D111F4801F0BD141EA87
:1038C00000014FF000004FF0004CB6E711F4801FEC
:1038D00004BF01430020B4F1FD0C88BFBCF5E06FCC
:1038E0003FF6AFAEB5EB030C04BFB6EB020C5FEADC
:1038F000500C50F1000041EB045170BD0EF0004E31
:103900004EEA113114EB5C04C2BFD4EB0C0541EA62
:10391000045170BD41F480114FF0000E013C90E65F
:1039200045EA060E8DE60CEA135594EA0C0F08BF23
:1039300095EA0C0F3FF43BAF94EA0C0F0AD150EA22
:1039400001347FF434AF95EA0C0F7FF425AF1046B5
:1039500019462CE795EA0C0F06D152EA03353FF4DD
:10396000FDAE1046194622E750EA410618BF52EA5A
:1039700043067FF4C5AE50EA41047FF40DAF52EA2E
:1039800043057FF4EBAE12E74FF0FF3C06E000BFCB
:103990004FF0010C02E000BF4FF0010C4DF804CDD8
:1039A0004FEA410C7FEA6C5C4FEA430C18BF7FEA98
:1039B0006C5C1BD001B050EA410C0CBF52EA430CC6
:1039C00091EA030F02BF90EA020F0020704710F146
:1039D000000F91EA030F58BF994208BF90422CBFD5
:1039E000D8176FEAE37040F0010070474FEA410CCE
:1039F0007FEA6C5C02D150EA013C07D14FEA430CEC
:103A00007FEA6C5CD6D152EA033CD3D05DF8040B5C
:103A1000704700BF8446104662468C46194663468E
:103A200000E000BF01B5FFF7B7FF002848BF10F165
:103A3000000F01BD4DF808EDFFF7F4FF0CBF0120AA
:103A400000205DF808FB00BF4DF808EDFFF7EAFF26
:103A500034BF012000205DF808FB00BF4DF808EDE1
:103A6000FFF7E0FF94BF012000205DF808FB00BFD6
:103A70004DF808EDFFF7CEFF94BF012000205DF860
:103A800008FB00BF4DF808EDFFF7C4FF34BF01206D
:103A900000205DF808FB00BF4FEA410212F500125A
:103AA00015D211D56FF47873B3EB625212D94FEA85
:103AB000C12343F0004343EA505311F0004F23FA6F
:103AC00002F018BF404270474FF00000704750EAC4
:103AD000013005D111F0004008BF6FF00040704781
:103AE0004FF00000704700BF4A0011D212F50012DB
:103AF00011D20DD56FF47873B3EB62520ED44FEA46
:103B0000C12343F0004343EA505323FA02F07047C5
:103B10004FF00000704750EA013002D14FF0FF3003
:103B200070474FF00000704753B94AB9002908BFE9
:103B300000281CBF4FF0FF314FF0FF3001F034B9C7
:103B4000ADF1080C6DE904CE00F006F8DDF804E0F4
:103B5000DDE9022304B070472DE9F04F099D0446CA
:103B60000F46002B48D18A42944661D9B2FA82F3BB
:103B700043B1C3F120019F4002FA03FC9C4020FAAC
:103B800001F10F434FEA1C411FFA8CFE220CB7FBD8
:103B9000F1F601FB167706FB0EF042EA074290426F
:103BA00008D91CEB020206F1FF3702D2904200F264
:103BB00037813E46121AA4B2B2FBF1F001FB10228B
:103BC00000FB0EFE44EA0244A64508D91CEB04049F
:103BD00000F1FF3202D2A64500F21C81104640EAF5
:103BE0000640A4EB0E0400261DB1DC400023C5E90D
:103BF00000433146BDE8F08F8B4209D9002D00F01B
:103C0000FD800026C5E9000130463146BDE8F08F51
:103C1000B3FA83F6002E4BD18B42C0F0F280824281
:103C200040F2EF803046002DE3D0C5E90047E0E7E1
:103C300002B9FFDEB2FA82F3002B40F09D80891AB0
:103C40004FEA124E97B20126200CB1FBFEF20EFB9A
:103C5000121140EA014107FB02F088420FD91CEB28
:103C6000010102F1FF382CBF4FF001094FF00009AC
:103C7000884203D9B9F1000F00F0CF804246091AFB
:103C8000A4B2B1FBFEF00EFB101100FB07F744EAF3
:103C90000144A74208D91CEB040400F1FF3102D211
:103CA000A74200F2B4800846E41B40EA02409BE7CA
:103CB000C6F12007B34001FA06F422FA07FCF940E6
:103CC000B2404CEA030C20FA07F34FEA1C491C43AC
:103CD0001FFA8CFE00FA06F3200CB1FBF9F809FB81
:103CE000181140EA014108FB0EF088420FD91CEB85
:103CF000010108F1FF3A2CBF4FF0010B4FF0000B10
:103D0000884203D9BBF1000F00F08D80D046091A1C
:103D1000A4B2B1FBF9F009FB101100FB0EFE44EA5E
:103D200001418E4507D91CEB010100F1FF3401D29E
:103D30008E457FD8204640EA0840A1EB0E01A0FB4B
:103D4000029841454C46C64602D306D14B4504D2A3
:103D50000138B9EB020468EB0C0E002D70D01A1B71
:103D600061EB0E0122FA06F301FA07F7F140002693
:103D70001F43C5E900713CE702FA03FCC3F12000D0
:103D800001FA03F221FA00F64FEA1C4E24FA00F180
:103D90001FFA8CF79C401143B6FBFEF00A0C0EFB99
:103DA000106642EA064200FB07F696420ED91CEB6B
:103DB000020200F1FF382CBF4FF001094FF000095B
:103DC000964202D9B9F1000F31D04046921B89B218
:103DD000B2FBFEF60EFB162241EA024106FB07F299
:103DE0008A4207D91CEB010106F1FF3801D28A4251
:103DF00023D84646891A46EA004625E72E46284635
:103E0000F7E6841A61EB030301201F460BE76444C5
:103E1000023849E764440238E1E6023A61442EE799
:103E2000023E6244C6E6A8F1020861446FE7023828
:103E30006244CBE7023861447DE7023E6144D9E742
:103E40002E46D6E603685A004CBF43F0004323F0E9
:103E500000431844704700BF2DE9F04739B301F122
:103E6000FF38064617464FF00009454619EB050195
:103E700048BF0131491006EBC10ACC005046FFF79C
:103E8000E1FF08348845034606EB040009D0BB4235
:103E900009D8FFF7D7FF013801F10109B842E5D38E
:103EA00007E0BB4205D9894501F1FF35DED14FF06E
:103EB000000A5046BDE8F087012807D0022807D045
:103EC0000028044B14BF0020184670470248704772
:103ED00002487047C9450010CD450010D14500107B
:103EE000234B30B5044683B08D1E43B301A9284649
:103EF00000E000BFF0B101992A46FFF7ADFF01468F
:103F0000C0B1FFF79FFF4B68A064012B2CD0002BA2
:103F100001F1040024DBFFF795FF0023C4E913033C
:103F20000368002B11DBFFF78DFF034600202361A0
:103F300003B030BD00230920236103B030BD0D481C
:103F40000D49091AC9100191D6E7C3F30360FFF7C1
:103F5000B3FF0028206114BF0020092003B030BD4A
:103F60000123C4E91303DBE7002305202361DFE716
:103F700000000000B04F0010705000100368DA0716
:103F800010B5044606D49B0700F1480009D500F09F
:103F90008FFC2368590709D51A070ED5DB0613D500
:103FA00010BD00F07DFC23685907F5D404F1D00062
:103FB00000F086FC23681A07F0D404F5A87000F01E
:103FC00087FC2368DB06EBD404F5E870BDE81040FD
:103FD00000F0C2BC092070470346006800B11844D5
:103FE000704700BF704700BF70B504460E46316C85
:103FF0002046FFF775FF054698B9D6F840C032460F
:10400000236921460120C4F814C098470828EED03F
:10401000072806D12846316CFFF7E4FF301D00F079
:1040200033FC00F0C3FE00BF2DE9F04701F1040CA2
:10403000ADF5747DC7680646D0F8188014460DF1BA
:10404000140E04AD4FF00009BCE80F00AEE80F00FD
:10405000BCE80F00AEE80F00BCE80F00AEE80F00B0
:104060009CE80F008EE80F00C5F8009023E02B6C51
:104070004FF4F07229467CA8736100F09EFE7CAA82
:1040800031463369504698478A9B214681460393BF
:104090003246039C334601206C64CDE90058B84792
:1040A0000446E8B94FF4F0727CA9284600F085FE7A
:1040B000B9F1080F1BD10934296C3046FFF710FF06
:1040C00081465FFA84FA0028D1D0AC6B3346324681
:1040D0004AF010016C640120CDE90058B84708B1DE
:1040E0004FF0090948460DF5747DBDE8F087B9F138
:1040F000070FF5D12046296CFFF774FF05A800F0E3
:10410000C3FB00BF406C7047F0B5CB6BF9B001F159
:10411000040C0E460B6401AC05464FF0FF37BCE8BB
:104120000F000FC4BCE80F000FC4BCE80F000FC4A1
:104130009CE80F0084E80F00009706E02B696A46B0
:10414000294698470828044608D110992846FFF7C1
:10415000C7FE0028F2D0092079B0F0BD6846FFF70D
:104160000DFF062CF7D131462846FFF73DFF00BF73
:1041700010B4DC6BC1601946826100221C6410BC63
:1041800052E700BF70B54369C6680B64AEB90369F6
:104190000A4604460D46014602209847072805D0E6
:1041A00008280FD129462046FFF71EFF3046296C0C
:1041B000FFF718FF281D00F067FB0122FFF734FF0F
:1041C00000F0F4FD00F0F2FDC2682AB1D1F83CC065
:1041D0000022C1F840C027E796E700BF704700BF44
:1041E000836801460BB1012018477047012915D09B
:1041F0000CD88BB90F2A94BF0021012161B900EBC3
:10420000820208465368009A1360704703390129F7
:1042100094BF012002207047022070470846704773
:1042200010B584B000230A4603AC19460094FFF78A
:10423000DDFF039804B010BD012915D00CD88BB94F
:104240000F2A94BF0021012161B9009B00EB82027B
:1042500008461B68536070470339012994BF012049
:1042600002207047022070470846704710B584B09E
:10427000002303AC03920A4619460094FFF7DCFFC3
:1042800004B010BDF0B5D36BADF50F7D141D06461F
:1042900013640DF15C0C0D464FF0FF370FCCACE80A
:1042A0000F000FCCACE80F000FCCACE80F0094E887
:1042B0000F008CE80F00169710E0FFF7D7FF294694
:1042C00016A8B047034616AA6946082083B9049B7E
:1042D0009847052804460CD009280AD02699684634
:1042E000FFF7FEFD03466A460C2116A8002BE4D01A
:1042F000092416A8FFF742FE20460DF50F7DF0BDFC
:104300002DE9F04FCC6C89B01E460D4654F8043BA5
:10431000174600F003080694002E7FD01A0C1B04E9
:104320008DF81D20D2B20593022304EB82048DF890
:104330001C30B8F1020F2B6D08BFAC6B13F00103FA
:1043400008D005A9384600F0A1FB90BB082009B0B1
:10435000BDE8F08FD4F800A0BAF1000FF1D00193BE
:1043600000F008030293022E54D0B4F800A00434E5
:1043700034F8029CAB6C29F0010B0F2138469B44AA
:10438000FFF74EFF834518D82AF001039B4483456D
:1043900013D94FEA49030AF0010A03F0020343EA82
:1043A0000A03012B00F0BF80022B00F08980002B54
:1043B0004DD0092009B0BDE8F08F4FEA49030AF05B
:1043C000010A03F0020343EA0A03012B3AD0022B4D
:1043D0002AD0002BEDD10434D4F800A0BAF1000F9C
:1043E000C1D105A9384600F051FB0028E1D1019B5D
:1043F000002BABD00F213846FFF712FF0E210246EB
:104400003846FFF733FF38466E4A0F21FFF72EFF7D
:104410000720CFE7D4F804900834ABE71B020593DC
:104420000323ADF81C3084E7236823F0004BB8F178
:10443000000F21D1002B00DA04340BF1010B04EB47
:104440008B04C9E7B8F1000F20D10834C4E7B8F1F4
:10445000000FC0D020460434FFF7F4FC0646AC63DE
:10446000284600E000BF0028A3D0384632460F217E
:10447000FFF7FCFE07209DE7D5F820900D21384678
:10448000FFF7CEFE814579D02368D3E7D5F8209099
:104490000D213846FFF7C4FE8145D6D1AB6A9C4258
:1044A000D3D120460F21FFF7CDFC02463846FFF757
:1044B000DDFE38462A460021FFF7D8FE072079E7BF
:1044C000236823F0004BB8F1000FD5D1029A12B146
:1044D000BBF1000FAED105F15803CDF80C8004F10B
:1044E000040AB0464FF000091E460DE050460496FF
:1044F0000022FFF771FD04AB014628460AF1040AC9
:1045000000E000BF00284AD1D94509F10109EDD1E9
:104510000D213846FFF784FE049B024606202A62DE
:10452000C5E9093446E7B8F1000FAFD163682268E6
:10453000991C4FEAD2723FF43CAF05F158010133A8
:10454000049131D0201DFFF747FD04AB01462846FA
:1045500000E000BF00283FF478AF81460D213846C7
:10456000FFF75EFEB9F1020F286222D12B46049AB2
:1045700043F82C2F6B620620AC621BE7AB6A9C42AF
:1045800082D104230022C5F828B0C5E90B23E31823
:104590006B632368002B0FDB012301934DE7464635
:1045A0002368DDF80C8045E70D213846FFF738FE1B
:1045B0002862049B6B62DEE70BF101000F2104EB24
:1045C000800070E700000000002399E6012397E6D1
:1045D000022395E62DE9F0430646C3B015461C4676
:1045E000042900F2C280DFE801F0A359C02C0300C7
:1045F000002C40F0BA80102A00F2B7800368DF0672
:1046000000F1B78020AF384600F0B0F9B46B3946FE
:1046100000234FF0010C0CFA03F2204601332A422A
:1046200003D050F8042B04460A60042B01F1040166
:10463000F1D13846B46300F08FF9002043B0BDE8F3
:10464000F083032C40F091801FFA82F8140C08EBE1
:104650001245102D00F2898003681A0700F1CD8001
:1046600020AF384600F056F9B56B07EBC401B8F13E
:10467000000F0BD00B4601EBC8014FEAC808E81A3F
:104680001A5843F8042B8B42FAD145443846B56397
:1046900000F01EF9002043B0BDE8F08304F0FB03F6
:1046A0004FEA124895B2012B5FD1012C08EB0509A6
:1046B00058D0B9F1200F58D8B8F10F0F75D9052C83
:1046C000A94600F0A480002D4FD1B36B65B320AF95
:1046D0004FF0000907EBC80703EBC505043F53F88B
:1046E000041B9D4247F8041FF9D1B9F1000F0FD008
:1046F0006F46414603EBC905102938BF102107EB6F
:10470000C101843953F8040B9D4241F8040FF9D1DB
:10471000012C7AD0B8F10F0FB5636AD9B9F1000F47
:1047200002D0684600F0CCF8002043B0BDE8F0832A
:10473000DCB9876B23461FFA82FC0120341D00FA86
:1047400003F13A4611EA0C0F04D052F8041B174645
:1047500044F823100133102BF1D115F40050E3D1AC
:10476000B76303E0B9F1100F0BD9022043B0BDE8E5
:10477000F08323F0100300F5E870336000F0F6F8E2
:1047800040E7B8F10F0FF0D80368D80750D420AF36
:10479000384600F089F8B36B002D99D11D460435D9
:1047A0003846B56300F07CF8BEE7B9F1100F58D970
:1047B000052CDAD13368A9F11009DD0709D523F0FA
:1047C0000103304643F0020340F8483B00F074F820
:1047D0003368590721D420A800F06EF86F46C8F15D
:1047E0001005384600F070F8002DB36B81DD20AF66
:1047F00070E720A800F05CF890E723F0080300F5CC
:10480000A870336000F086F82AE720AFC7E7002DD4
:104810003FF45BAF33685A07E0D523F0040330461A
:1048200040F8D03B00F050F8B8F10F0FD6D8D2E7DF
:1048300023F00303304640F8483B00F035F8012CE4
:10484000A5D0B8F10F0F3FF640AF20AF384600F0CB
:1048500033F8B36B002D7FF43BAF384600F028F8F7
:1048600062E73368D907EAD5052CE1D123F00103CB
:10487000304620AF43F0020340F8483B00F01CF8FC
:10488000384600F019F8E4E700F1340191E8380007
:104890009C46A6464CF8045D90E8FF0FE54600BD37
:1048A00090EC210B704700BF80EC210B704700BFDC
:1048B00090EC200B704700BF80EC200B704700BFCE
:1048C000D0EC200B704700BFC0EC200B704700BF3E
:1048D000F0EC0201F0EC0211F0EC0221F0EC0231FC
:1048E000F0EC0241F0EC0251F0EC0261F0EC0271EC
:1048F000F0EC0281F0EC0291F0EC02A1F0EC02B1DC
:10490000F0EC02C1F0EC02D1F0EC02E1F0EC02F1CB
:10491000704700BFE0EC0201E0EC0211E0EC022184
:10492000E0EC0231E0EC0241E0EC0251E0EC02612B
:10493000E0EC0271E0EC0281E0EC0291E0EC02A11B
:10494000E0EC02B1E0EC02C1E0EC02D1E0EC02E10B
:10495000E0EC02F1704700BFB0FC0181B0FC0191B6
:10496000B0FC01A1B0FC01B1704700BFA0FC018107
:10497000A0FC0191A0FC01A1A0FC01B1704700BF07
:10498000EC4600B52DE900502DE9FF1F4FF0000364
:104990002DE90C0001A9FFF7B7FBDDF840E012B0EC
:1049A000704700BFEC4600B52DE900502DE9FF1F10
:1049B0004FF000032DE90C0001A9FFF7E3FBDDF840
:1049C00040E012B0704700BFEC4600B52DE9005042
:1049D0002DE9FF1F4FF000032DE90C0001A9FFF79F
:1049E000F3FBDDF840E012B0704700BFEC4600B5C5
:1049F0002DE900502DE9FF1F4FF000032DE90C00B9
:104A000001ABFFF7B5FBDDF840E012B0704700BF27
:104A1000EC4600B52DE900502DE9FF1F4FF00003D3
:104A20002DE90C0001AAFFF72DFCDDF840E012B0E3
:104A3000704700BF027A03468AB9427AB2B1416830
:104A4000013A4FF0030C10B442720C1D086883F851
:104A500008C002025C60000E10BC1A60704700685B
:104A6000013A1A720202000E1A607047B0207047B5
:104A700010B584B000230C2203AC19460094FFF754
:104A8000B5FB039804B010BDF2E700BF2DE9F04379
:104A90004FF0000885B006460D462846FFF7CAFFCE
:104AA000B028044600F0BC80070620D500F0F003D3
:104AB000802B4ED0902B37D0A02B61D0B02B76D04E
:104AC000C02B00F08D8000F0F803D02B0BD100F04C
:104AD0000702052301213046013242F40022FFF78C
:104AE00079FD0028D9D0092005B0BDE8F083830006
:104AF0000DF10C090D223046DBB2CDF800901F1DE0
:104B000000231946FFF772FB039B60064FF00D026E
:104B10003046CDF800904CBFDF1BFF1800230397F1
:104B20001946FFF789FBB8E700F00D030D2BDAD02B
:104B300003AF002300F00F02304619460097FFF73D
:104B400055FB00230D22304619460097FFF774FBF2
:104B5000A3E724022846FFF76DFF2043B0F5004F7E
:104B6000C1D0040100233046A2B21946FFF732FD3E
:104B70000028B8D114F4004F18BF4FF001088CE79B
:104B8000C2430107304602F007034FF47F6242FA46
:104B900003F24FF0000302F47F62194648BF42F46B
:104BA0008042FFF717FD00283FF477AF9BE7B1285D
:104BB0003BD0B22800F0A180B32841D000F0FC0324
:104BC000B42B90D000F0070201231A4442F40022D3
:104BD00019463046FFF7FEFC00283FF45EAF82E73F
:104BE000C62851D0C72862D000F0F803C02B71D07E
:104BF000C82876D0C9287FF476AF2846FFF71AFF79
:104C0000020300F00F0002F4702201300243012180
:104C100005233046FFF7DEFC00283FF43EAF62E795
:104C2000B8F1000F1FD000205EE72846FFF702FF13
:104C3000024600283FF457AF10F0F003C8D052E707
:104C40002846FFF7F7FE00F00F030203304601335A
:104C500002F470221A4301231946FFF7BBFC002817
:104C60003FF41BAF3FE703AC43460E2241463046BC
:104C70000094FFF7BBFA43460F22304641460094AA
:104C8000FFF7DAFA40462FE72846FFF7D3FE00F099
:104C90000F0302033046013302F470221A43032348
:104CA0001946FFF797FC00283FF4F7AE1BE72846AC
:104CB000FFF7C0FE024600283FF415AF10F0F003E6
:104CC0007FF411AF04213046FFF784FC00283FF445
:104CD000E4AE08E700F00F020323013242F4202281
:104CE00076E72846FFF7A6FE00F0F00200F00F037B
:104CF0001032013343EA023289E700230DF10C0937
:104D00000D2230461946CDF80090FFF76FFA28467D
:104D1000FFF790FE02064FF002040BD500F07F0073
:104D2000039BA0400734184403902846FFF782FEF7
:104D30000306F3D4039B00F07F02CDF800903046C9
:104D4000A24003F501731A440023039219460D2271
:104D5000FFF772FAA1E600BFC26C0B464FF0030CDE
:104D60001846083252F8043C00B585B0029201A9F9
:104D70001A0E8DF80CC01B028DF80D200193FFF761
:104D800085FE05B05DF804FB08B5FFF77DFE806C7D
:104D900008BD00BF08B5FFF777FEC06CC3790233CA
:104DA00000EB830008BD00BF704700BF062008B5B8
:104DB00000F038F80120FEF779F80A44431E9142CA
:104DC00000D1704710B511F8014B914203F8014F23
:104DD000F9D110BD1F2938B504460D4604D9162354
:104DE00003604FF0FF3038BD426C12B152F82130F1
:104DF0004BB9204600F030F82A4601462046BDE86F
:104E0000384000F017B8012B0AD0591C03D11623E3
:104E100003600120E7E70024284642F82540984730
:104E20000020E0E7024B01461868FFF7D3BF00BF40
:104E30000800003838B50023064D044608461146E0
:104E40002B60FEF72BF8431C02D12B6803B12360C3
:104E500038BD00BF20240038FEF71EB8F8B500BFEB
:104E6000F8BC08BC9E467047F8B500BFF8BC08BC4B
:104E70009E46704768656C6C6F20746872656164EB
:104E8000782025640D0A000074785F706F6F6C00E5
:104E900074785F7461736B0053746172740D0000F9
:104EA00068656C6C6F20776F726C64202D202564B0
:104EB0002E0D0A00666E6900666E692B0000000008
:104EC0006E616E00666E692D00000000000000003B
:104ED000000000000000F03F00000000000024403F
:104EE00000000000000059400000000000408F401A
:104EF000000000000088C34000000000006AF84085
:104F00000000000080842E4100000000D0126341A8
:104F10000000000084D797410000000065CDCD411E
:104F200053797374656D2054696D6572205468728D
:104F30006561640000000000000000000000000047
:104F40000000000000000000000000000000000061
:104F50000000000000000000000000000000000051
:104F60000000000000000000000000000000000041
:104F70000000000000000000000000000000000031
:104F80000000000000000000000000000000000021
:084F9000000000000000000019
:104F980008B10181B0B000840000000008B10181AF
:084FA800B0B00084000000001D
:104FB00008DFFF7FB0B0B08070DFFF7F010000002E
:104FC00020EFFF7FB0A90280B4EFFF7FB0B0A880D0
:104FD00004F0FF7F0100000010F0FF7FB0B0AA8056
:104FE00048F0FF7FAE73B2801CF1FF7F010000002C
:104FF00018F1FF7FAB3F388078F1FF7F01000000A0
:1050000084F1FF7FB0B0AA80C0F1FF7F01000000F3
:1050100074F2FF7FAB0EB280E8F2FF7FB0AF088082
:10502000A8F5FF7F01000000ACF5FF7FAD3F0280D7
:1050300058F8FF7F0100000038FAFF7FB0A8038016
:1050400048FAFF7F0100000044FAFF7FB0AD048002
:1050500008FDFF7F0084048030FDFF7F3CFFFF7F61
:1050600034FDFF7F40FFFF7F40FDFF7F0100000018
:0C5070007C500010000000381D00000003
:10507C0040787D01F0F0F0F00C00003800000000EA
:10508C00544F0010744F0010344F001000000000FB
:10509C000000000000000000000000000000000004
:1050AC0000000000000000000000000000000000F4
:1050BC0000000000000000000000000000000000E4
:1050CC0000000000000000000000000000000000D4
:1050DC00000000000000000000000000E5070010C8
:0450EC00C1070010E8
:0400000510002EB900
:00000001FF
