:020000041000EA
:10000000B89800385102001059020010790200100F
:100010005D0200105F020010610200106302001018
:10002000000000000000000000000000C9090010EE
:10003000670200100000000081090010E1090010B3
:100040006D0200106D0200106D0200106D020010B4
:100050006D0200106D0200100000000000000000A2
:10006000000000006D0200106D0200106D02001013
:100070006D02001000000000000000000000000001
:100080000000000000000000000000000000000070
:100090000000000000000000000000000000000060
:1000A0000000000000000000000000000000000050
:1000B0000000000000000000000000000000000040
:1000C0006D0200106D0200106D0200106D02001034
:1000D0006D0200106D0200106D0200106D02001024
:1000E0006D0200106D0200106D0200106D02001014
:1000F0006D0200106D0200106D0200106D02001004
:100100006D0200106D0200106D0200106D020010F3
:100110006D0200106D0200106D0200106D020010E3
:100120006D0200106D0200106D0200106D020010D3
:100130006D0200106D0200106D0200106D020010C3
:100140006D0200106D0200106D0200106D020010B3
:100150006D0200106D0200106D0200106D020010A3
:100160006D0200106D0200106D0200106D02001093
:100170006D0200106D0200106D0200106D02001083
:100180006D0200106D0200106D0200106D02001073
:100190006D0200106D0200106D0200106D02001063
:1001A0006D0200106D0200106D0200106D02001053
:1001B0006D0200106D0200106D0200106D02001043
:1001C0006D0200106D0200106D0200106D02001033
:1001D0006D0200106D0200106D0200106D02001023
:1001E0006D0200106D0200106D0200106D02001013
:1001F0006D0200106D0200106D0200106D02001003
:100200006D0200106D0200106D0200106D020010F2
:100210006D0200106D0200106D0200106D020010E2
:100220006D0200106D0200106D0200106D020010D2
:100230006D0200106D0200106D020010DFF80CD08E
:1002400000F086FB00480047F12D0010B8980038F8
:100250000748804707480047FEE7FEE7FEE7FEE75E
:10026000FEE7FEE7FEE7FEE7FEE7FEE7FEE700004B
:10027000110A00103D02001072B60E4B19680E4BA9
:100280001A681EF0040F0AD1EFF3088088420ADBD7
:10029000904208DC2DE9F00FEFF3088004E0EFF363
:1002A000098020E9F00F00BF7146BFF34F8F62B69F
:1002B00002F0B0FB50010038540100382DE9F05F26
:1002C0000546002092469B468846064681464024C5
:1002D0001BE0284641464746224600F0B9FA5346FD
:1002E0005A46C01A914110D311461846224600F0D2
:1002F000A0FA2D1A67EB01084F4622460120002183
:1003000000F097FA17EB00094E41201EA4F10104FA
:10031000DFDC484631462A464346BDE8F09F40EAC6
:1003200001039B0703D009E008C9121F08C0042A73
:10033000FAD203E011F8013B00F8013B521EF9D25A
:100340007047D2B201E000F8012B491EFBD2704782
:100350000022F6E710B513460A4604461946FFF791
:10036000F0FF204610BD2DE9FE4F804681EA0300D4
:10037000C00F0C46009021F0004123F00045B8EB7F
:100380000200A94105D24046214690461C460B4634
:10039000024623F00040104347D0270DC7F30A0060
:1003A000C3F30A510290401A019040286BDAC3F35C
:1003B000130040F4801B0098924620B10023D2EB3A
:1003C000030A63EB0B0B01985946C0F140025046FB
:1003D00000F02FFA06460D4650465946019A00F0A5
:1003E00047FA10EB08006141002487EA115284EAC1
:1003F000E7731A4340D0009A62B3019A012A4FEA88
:10040000075215DC001B61EB02014FF0004202EACB
:100410000752CDE90042001C41F5801132462B46BF
:1004200000F047FA03B0BDE8F08F40462146F9E7F7
:10043000001B61EB0201001C41F5801300185B41B9
:100440002018A2F5001747EB030140EAD570B61952
:100450006D4111E06D084FEA360645EAC0754FEA76
:100460000752001B61EB0201001C41F58011490895
:100470004FEA30000019514132462B4603B0BDE827
:10048000F04F00F007BA0098012240000023D0EBA3
:10049000020263EBE073009821464FEAE074B8EB88
:1004A000000061EB0401E9E783F000435BE781F0C2
:1004B000004158E72DE9FE4F81EA030404F00044AF
:1004C00021F0004100944FF0000B23F0004350EA6C
:1004D00001045ED052EA03045BD0C3F30A54C1F3B3
:1004E0000A552C44A4F2F3340194A0FB0254C1F346
:1004F000130141F48011C3F3130343F4801301FB90
:10050000024400FB034E840A970A44EA815447EAF6
:100510008357A4FB076802958D0A05FB07854FEA00
:10052000932C04FB0C542705029D4FEA065847EA1A
:100530001637B5EB08056EEB070C870E920E47EAEF
:10054000811742EA8312A7FB0201B6EB0B0164EBB1
:1005500000042B0D43EA0C335E1844EB1C50DA46C2
:100560005146E7FB0201C5F313044FEA0B3343EA9C
:1005700014534FEA0432019C43EA0603A4F10C042D
:100580000294009CCDE900B400F093F903B0BDE8FB
:10059000F08F00200146F9E72DE9F04D81EA0304D0
:1005A00004F0004B21F0004514464FF0000A23F000
:1005B000004150EA050220D054EA01021DD0C5F3E3
:1005C0000A570246C5F31303C1F31300C1F30A56D9
:1005D00040F4801543F48013A7EB0608101BD646A1
:1005E00008F2FD3873EB050002D308F1010801E0C1
:1005F00092185B41B8F1000F03DA00200146BDE814
:10060000F08D00204FF48011064684460EE0171B43
:1006100073EB050705D3121B63EB050306434CEA96
:10062000010C49084FEA300092185B4150EA01077B
:10063000EDD152EA030012D082EA040083EA0501F8
:10064000084305D0101BAB4106D20122002306E06F
:1006500000224FF0004302E06FF0010253101AEB4A
:1006600006004CEB085110EB0A0041EB0B01BDE812
:10067000F04D00F00FB930B5041E71F1000404DB39
:100680004FF00044404264EB0101141E73F100047A
:1006900005DB1C464FF00043524263EB0403801A13
:1006A000994101D3012030BD002030BD30B5041E7A
:1006B00071F1000404DB4FF00044404264EB01019F
:1006C000141E73F1000405DB1C464FF00043524238
:1006D00063EB0403101A8B4101D2012030BD0020CE
:1006E00030BD30B5041E71F1000404DB4FF000444E
:1006F000404264EB0101141E73F1000405DB1C464B
:100700004FF00043524263EB0403101A8B4101D3B4
:10071000012030BD002030BD30B5041E71F1000451
:1007200004DB4FF00044404264EB0101141E73F1FE
:10073000000405DB1C464FF00043524263EB040308
:10074000801A994101D2012030BD002030BD30B562
:10075000041E71F1000404DB4FF00044404264EBDE
:100760000101141E73F1000405DB1C464FF0004329
:10077000524263EB040342404B401A4301D0002035
:1007800030BD012030BD0EB5C10F80EAE0700844D5
:10079000CA07002140F233438DE80E000A460B469B
:1007A00000F087F803B000BD0EB540F2334102916E
:1007B0000021CDE900110A460B4600F07AF803B09B
:1007C00000BD70B5C1F30A5201F000450024C1F329
:1007D000130140F2FF3341F480119A4201DA002004
:1007E00070BD40F233439A42A2F2334203DC5242DC
:1007F00000F02EF800E090402C43F1D0404270BD54
:10080000C1F30A5210B5C1F3130140F2FF3341F4B2
:1008100080119A4201DA002010BD40F233439A421F
:10082000A2F2334203DC524200F012F810BD9040B5
:1008300010BD202A04DB203A00FA02F100207047A4
:100840009140C2F1200320FA03F31943904070470E
:10085000202A04DB203A21FA02F00021704721FA15
:1008600002F3D040C2F1200291400843194670477C
:10087000202A06DBCB17203A41FA02F043EAE07364
:1008800006E041FA02F3D040C2F120029140084351
:100890001946704710B5141E73F1000408DA401CA5
:1008A00041F1000192185B411A4301D120F001008F
:1008B00010BD2DE9F04D92469B4611B1B1FA81F27F
:1008C00002E0B0FA80F220329046FFF7B2FF044611
:1008D0000F4640EA0A0041EA0B0153465A460843D4
:1008E00013D0114653EA010019D0C8F14002504616
:1008F000FFF7AEFF05460E46504659464246FFF703
:1009000098FF084305D0012004E020463946BDE8A1
:10091000F08D0020054346EAE0762C4337430A98E1
:100920006305E40AA0EB08000022FD0A44EA4754EC
:100930000A3002D500200146E9E701051019694196
:10094000DDE9084500196941BDE8F04DA2E7000066
:100950001CB509480090094801900546009C06E036
:10096000E06840F0010394E8070098471034AC4277
:10097000F6D3FFF767FC0000205D0010405D00101B
:10098000EFF30980EFF30B82734620E9FC0F0D4A69
:10099000116808604FF0BF0080F31188BFF34F8FDC
:1009A000BFF36F8F04F0B2F84FF0000080F31188AE
:1009B000044A11680868B0E8FC0F82F30B8880F3E2
:1009C000098818475C0200381EF0040F0CBFEFF3D3
:1009D0000880EFF30980014908470000D145001065
:1009E00080B582B003F0D4FC019004F00BFB40B161
:1009F000FFE74EF60451CEF200014FF08050086040
:100A000000E0FFE7019803F025FD02B080BD000083
:100A100040F20000C1F200004EF60851CEF2000193
:100A200008604EF68851CEF20001086840F470006C
:100A3000086040F20001C3F6000147F64000C0F232
:100A40007D1008607047000080B582B001900020E2
:100A50000090FFE701980068007800F0F5FD68B1AC
:100A6000FFE7009800EB8001019B1868421C1A60A8
:100A7000007800EB410030380090EBE7009802B0BE
:100A800080BD00000000000070B5BCB0DDF808C1FA
:100A9000DDF804C1DDF800C13A90399138923793FE
:100AA0008DED340B349A359B10461946FFF74FFEF7
:100AB000A0B1FFE7349835999FEDE90B53EC102B6B
:100AC000FFF72AFE50B9FFE7349835999FEDE60B02
:100AD00053EC102BFFF705FEA8B9FFE73A983999B8
:100AE000389A379B9DED340BDDF800C1419C429D47
:100AF000EE46CEF80850CEF80440CEF800C000F024
:100B0000E3FA3B90C7E29DED340B51EC100B9FEDE7
:100B1000D80B53EC102BFFF7C9FD002818BF01209C
:100B20008DF8CF009DF8CF00C00778B1FFE79DEDAD
:100B3000340B8DED240B9DF8970080F080008DF82C
:100B400097009DED240B8DED340BFFE79DF8090117
:100B50004007002803D4FFE706204090FFE79DED03
:100B6000340B8DED300B3198C0F30A50A0F2FF30FA
:100B70002F90319840F2FF3161F31F5031902F9840
:100B8000FFF701FE41EC100B9FEDBB1B53EC112B4B
:100B900051EC100BFFF78EFC41EC100B51EC100BDD
:100BA0009FEDB70B53EC102BFFF7DDFB41EC100B67
:100BB0008DED140B9DED300B9FEDB31B53EC112B02
:100BC00051EC100BFFF7CFFB41EC100B51EC100B6D
:100BD0009FEDAF0B53EC102BFFF76CFC9DED140B4E
:100BE00041EC110B51EC110B53EC102BFFF7BBFB3D
:100BF00041EC100B51EC100BFFF7E3FD2E902E98FB
:100C0000FFF7C1FD41EC100B9FEDA31B53EC112B23
:100C100051EC100BFFF74EFC41EC100B51EC100B9C
:100C20009FED9F0B53EC102BFFF79DFB41EC100B3E
:100C300051EC100BFFF7C5FD2F902E98FFF7A3FD89
:100C400041EC100B8DED160B2F98FFF79CFD41EC3E
:100C5000100B9FED951B53EC112B51EC100BFFF774
:100C600029FC9DED160B41EC110B8DED181B9FED32
:100C7000901B53EC112B51EC100BFFF71BFC9DED5F
:100C8000180B41EC110B51EC110B53EC102BFFF72F
:100C90006AFB41EC100B8DED2C0B9DED2C0B53ECF6
:100CA000102B10461946FFF705FC41EC100B8DED9B
:100CB0002A0B2F9800F2FF3000050021309131906F
:100CC0009DED2C0B53EC102B1B931A9210461946DA
:100CD000FFF749FB1A9A1B9B41EC100B8DED200B83
:100CE0009FED750B51EC100BFFF7DEFB41EC100B89
:100CF0008DED1E0B9DED2A0B9FED711B53EC112BFF
:100D000051EC100B1D911C90FFF746FC41EC100BB1
:100D100051EC100B9FED6C0B53EC102BFFF723FBEA
:100D200002461C980B461D9943EC102B53EC102BDC
:100D3000FFF732FC41EC100B51EC100B9FEDDA0B7E
:100D400053EC102BFFF70FFB02461C980B461D9926
:100D500043EC102B53EC102BFFF71EFC9DED1E1BDC
:100D600041EC100B51EC110B53EC102BFFF7FBFA7D
:100D70009DED200B41EC110B53EC112B51EC100BA2
:100D8000FFF70AFC41EC100B51EC100B9FEDC80B68
:100D900053EC102BFFF7E7FA41EC110B9DED300BF4
:100DA00053EC112B51EC100BFFF784FB41EC100BB3
:100DB0008DED300B34983599309A319BFFF791FCCB
:100DC00090B9FFE72E9801382E909DED300B9FEDE6
:100DD000B41B53EC112B51EC100BFFF7DDFB41EC76
:100DE000100B8DED300BFFE72E9900206329139037
:100DF00008DCFFE72E99002011F1640FC8BF012025
:100E00001390FFE71398C1070520002918BF04209D
:100E100029909DF809010007002873D5FFE7349851
:100E200035999FEDA50B53EC102BFFF73FFC0028E5
:100E300059D1FFE7349835999FEDA10B53EC102B56
:100E4000FFF74FFC00284ED1FFE740982E998842CB
:100E50003EDDFFE740992E98C043084440903AE0B9
:100E6000FFFFFFFFFFFFEF7FFFFFFFFFFFFFEFFF32
:100E70000000000000000000FB799F501344D33FA6
:100E8000B3C8608B288AC63F000000000000F8BF8E
:100E900061436F63A787D23F71A379094F930A40DB
:100EA000000000000000E03FEF39FAFE422EE6BFEE
:100EB0001655B5BBB16B02400000000000000040B9
:100EC0000000000000002C40000000000000244052
:100ED00000204090FFE7429840F48060429000205C
:100EE00029902E900DE0409850B1FFE79DF8090140
:100EF0004007002804D5FFE7409801384090FFE7FD
:100F0000FFE7FFE74198289041982999884205D941
:100F1000FFE729992898401A289002E0002028909D
:100F2000FFE79DF808018007002806D5FFE729980C
:100F300018B1FFE700202890FFE72E9878B1FFE76F
:100F40009DED300B9DED341B51EC110B53EC102B30
:100F5000FFF722FB41EC100B8DED340BFFE73898C7
:100F600027903A980F9039981090389811903798A8
:100F700012909DF8CF00C00778B1FFE79DED340BCC
:100F80008DED220B9DF88F0080F080008DF88F0092
:100F90009DED220B8DED0C0B04E09DED340B8DEDE2
:100FA0000C0BFFE7129B119A10990F989DED0C0BFB
:100FB000DDF800C1289CDDF808E12EF40065EE465E
:100FC000CEF80850CEF80440CEF800C000F07CF80F
:100FD0003890299800285BD0FFE7DDF8E8C04298F8
:100FE00081066520002948BF45203999389A531C4D
:100FF0003893379BE0473A98089039980990389889
:101000000A9037980B902E98B0F1FF3F04DCFFE771
:101010002E984042079002E02E980790FFE70B9B26
:101020000A9A09990898DDF81CC02E9CDDF8A4E006
:10103000AEF10105EE460526CEF81460CEF810504C
:101040000025CEF80C500A25CEF80850E40FCEF853
:101050000440CEF800C000F02DFC38909DF8080147
:101060008007002813D5FFE7FFE738982799401A33
:10107000419988420AD2FFE7DDF8E8C03999389AE9
:10108000501C3890379B2020E047EEE7FFE7FFE752
:1010900038983B90FFE73B983CB070BD00BF00BF65
:1010A0000000000000002440000000000000184084
:1010B000000000000000F03F2D431CEBE2361A3F19
:1010C0000000000080842E4170B5A8B0DDF8B8C0E3
:1010D000DDF8B4C0DDF8B0C02690259124922393AA
:1010E0008DED200B0020179015901490209A219BD5
:1010F00010461946FFF72BFBD0B9FFE72698259934
:10110000249A239BDDF8B4C02E9CEE46CEF80C400A
:10111000CEF808C04FF0030CCEF804C045F6081C0A
:10112000C1F2000CCEF800C000F004FD279082E26E
:10113000209821999FEDD60B53EC102BFFF7D1FA95
:10114000D0B9FFE726982599249A239BDDF8B4C0EF
:101150002E9CEE46CEF80C40CEF808C04FF0040CA2
:10116000CEF804C045F6FF0CC1F2000CCEF800C06A
:1011700000F0E0FC27905EE2209821999FEDC60BDD
:1011800053EC102BFFF777FA30BBFFE72698259931
:10119000249A239B2E9E06F0040E45F6FA04C1F213
:1011A000000445F6041CC1F2000CBEF1000F18BF8C
:1011B000A4460324BEF1000F18BF04242D9DEE4663
:1011C000CEF80C60CEF80850CEF80440CEF800C03F
:1011D00000F0B0FC27902EE2209821999FEDB00BF3
:1011E00053EC102BFFF798FA50B9FFE7209821999C
:1011F0009FEDAD0B53EC102BFFF773FAA8B9FFE787
:1012000026982599249A239B9DED200BDDF8B0C0EC
:101210002D9C2E9DEE46CEF80850CEF80440CEF818
:1012200000C0FFF731FC279005E200208DF84F0049
:10123000209821999FED9E0B53EC102BFFF751FA4C
:1012400090B9FFE701208DF84F009DED200B9FED39
:10125000981B51EC110B53EC102BFFF725F941ECC7
:10126000100B8DED200BFFE79DF8B900400700281B
:1012700003D4FFE706202C90FFE7FFE71799002033
:101280001F290D9007D8FFE72C990020092988BF56
:1012900001200D90FFE70D98C00750B1FFE7179AA6
:1012A000501C179018A9302088542C9801382C9085
:1012B000E4E79DED200B51EC100BFFF782FA129042
:1012C0009DED200B8DED080B1298FFF75CFA9DED5C
:1012D000081B41EC100B51EC110B53EC102BFFF7DA
:1012E000E3F841EC100B2C9945F2B870C1F2000004
:1012F00000EBC10090ED001B53EC112B51EC100BD7
:10130000FFF7D8F841EC100B8DED100B9DED100B95
:1013100051EC100BFFF774FA0F909DED100B8DED53
:101320000A0B0F98FFF740FA9DED0A1B41EC100BDA
:1013300051EC110B53EC102BFFF7B6F841EC100BEE
:101340008DED140B149815999FEDBD0B53EC102BDC
:10135000FFF791F900BBFFE70F9801300F900F984E
:10136000FFF722FA41EC100B2C9945F2B870C1F24C
:10137000000000EBC10090ED001B53EC112B51EC71
:10138000100BFFF793F930B9FFE700200F90129888
:1013900001301290FFE718E0149815999FEDA80B03
:1013A00053EC102BFFF79DF908B9FFE70CE00F98FD
:1013B00028B1FFE79DF83C00C00720B1FFE70F9878
:1013C00001300F90FFE7FFE7FFE72C9898BBFFE79E
:1013D0009DED200B8DED060B1298FFF7D4F99DEDD6
:1013E000061B41EC100B51EC110B53EC102BFFF7CB
:1013F0005BF841EC100B8DED140B149815999FEDD3
:10140000900B53EC102BFFF76CF950B9FFE71498D1
:1014100015999FED8B0B53EC102BFFF72CF948B966
:10142000FFE79DF84800C00720B1FFE712980130A0
:101430001290FFE75FE02C980E90FFE717981F28A7
:101440001FD8FFE70E9801380E900F984CF6CD414B
:10145000CCF6CC41A0FB0132D20802EB8202A0EB19
:10146000420040F03000179B5A1C179218AAD05423
:101470000F98A0FB0110C0080F9008B9FFE700E02B
:10148000DCE7FFE7179900201F2905901CD813E01F
:10149000FFFFFFFFFFFFEFFFFFFFFFFFFFFFEF7FFC
:1014A0000000000065CDCD410000000065CDCDC13C
:1014B00000000000000000000E98411E0E91002860
:1014C00018BF01200590FFE70598C00738B1FFE776
:1014D000179A501C179018A930208854D2E71798F3
:1014E0001F2807D8FFE7179A501C179018A92E201D
:1014F0008854FFE7FFE7FFE717981F281FD8FFE78B
:10150000129846F26761C6F2666150FB01F39A08D1
:1015100002EBD37202EB8202A0EB42003030179B49
:101520005A1C179218AAD054129850FB01F1881037
:1015300000EBD170129008B9FFE700E0DCE79DF8FE
:10154000B8008007002832D4FFE79DF8B800C00734
:1015500068B3FFE72D9878B1FFE79DF84F00C0070B
:1015600030B9FFE79DF8B80010F00C0F04D0FFE78A
:101570002D9801382D90FFE7FFE717992D9A00204D
:101580009142049007D2FFE717990020202938BF25
:1015900001200490FFE70498C00738B1FFE7179ACD
:1015A000501C179018A930208854E6E7FFE71798D9
:1015B0001F2829D8FFE79DF84F00C00738B1FFE783
:1015C000179A501C179018A92D2088541BE09DF8DD
:1015D000B8004007002807D5FFE7179A501C17905E
:1015E00018A92B2088540DE09DF8B80000070028AA
:1015F00007D5FFE7179A501C179018A92020885488
:10160000FFE7FFE7FFE7FFE726982599249A239B4A
:10161000DDF85CC02D9C2E9DEE46CEF80C50CEF829
:101620000840CEF804C00DF1600CCEF800C000F008
:1016300081FA2790FFE7279828B070BD00BF00BF50
:10164000000000000000E03F82B08DF807009DF828
:10165000071000203029009008DBFFE79DF80710F5
:1016600000203A29B8BF01200090FFE7009800F061
:10167000010002B07047000070B58CB08446169827
:101680001598149813981298DDF844E0DDF840E0BE
:10169000CDF82CC00A91099208938DF81F009DF88F
:1016A00058008007002853D4FFE71598A0B1FFE742
:1016B0009DF85800C00778B1FFE79DF81F00C007EC
:1016C00030B9FFE79DF8580010F00C0F04D0FFE789
:1016D000159801381590FFE7FFE71199149A00203B
:1016E0009142069007D2FFE711990020202938BFC8
:1016F00001200690FFE70698C00738B1FFE7109970
:10170000119A501C119030208854E6E7FFE7002022
:101710009DF85810C907059071B1FFE71199159A06
:1017200000209142059007D2FFE71199002020295F
:1017300038BF01200590FFE70598C00738B1FFE7E3
:101740001099119A501C119030208854DFE7FFE760
:101750009DF85800C006002869D5FFE79DF859009C
:10176000400700281CD4FFE71198C8B1FFE7119883
:101770001499884205D0FFE71198159988420FD136
:10178000FFE7119801381190119840B1FFE71398C5
:10179000102804D1FFE7119801381190FFE7FFE707
:1017A0001398102811D1FFE79DF8580080060028F3
:1017B0000BD4FFE711981F2807D8FFE71099119A5B
:1017C000501C11907820885425E01398102811D1CE
:1017D000FFE79DF85800800600280BD5FFE7119819
:1017E0001F2807D8FFE71099119A501C1190582014
:1017F00088540FE0139802280BD1FFE711981F2897
:1018000007D8FFE71099119A501C11906220885454
:10181000FFE7FFE7FFE711981F2807D8FFE71099B8
:10182000119A501C119030208854FFE7FFE711985F
:101830001F2829D8FFE79DF81F00C00738B1FFE730
:101840001099119A501C11902D2088541BE09DF87E
:1018500058004007002807D5FFE71099119A501C3F
:1018600011902B2088540DE09DF8580000070028A7
:1018700007D5FFE71099119A501C11902020885429
:10188000FFE7FFE7FFE7FFE70B980A99099A089B34
:10189000DDF840C0119C159D169EEE46CEF80C60FA
:1018A000CEF80850CEF80440CEF800C000F042F95F
:1018B0000CB070BD2DE9F04198B084462398229871
:1018C000219820981F98DDF878E0CDF85CC016913B
:1018D000159214938DF84F0000200A901E9828B995
:1018E000FFE7239820F010002390FFE79DF88D007C
:1018F0004007002804D5FFE71E9800283FD0FFE7E7
:10190000FFE71E9A2099B2FBF1F000FB11208DF841
:1019100027009DF82700092805DCFFE79DF8270030
:10192000303008900CE09DF88C0081066120002981
:1019300048BF41209DF8271008440A380890FFE767
:1019400008980A9A511C0A910DF12F018854209988
:101950001E98B0FBF1F01E90FFE71E990020079043
:1019600039B1FFE70A990020202938BF01200790EC
:10197000FFE70798C0070028C3D1FFE7FFE71798E4
:101980001699159A149BDDF828C0209D219E229F50
:10199000DDF88C809DF84F40EE46CEF81880CEF8EA
:1019A0001470CEF81060CEF80C5004F00104CEF89C
:1019B0000840CEF804C00DF12F0CCEF800C0FFF7A0
:1019C0005BFE18B0BDE8F0812DE9F0419EB09E4667
:1019D00014460D46064629992898DDF894C0249BA4
:1019E0002C9A2B9A2A9A269A1D961C951B94CDF810
:1019F00068E0CDF864C018938DF85F2015911490BD
:101A000000200B9018981999084328B9FFE72C98E3
:101A100020F010002C90FFE79DF8B100400700284F
:101A200006D5FFE7189819990843002843D0FFE727
:101A3000FFE718981999149A159BFEF73FFC8DF84B
:101A40002B209DF82B00092805DCFFE79DF82B00D3
:101A5000303009900CE09DF8B0008106612000292B
:101A600048BF41209DF82B1008440A380990FFE731
:101A700009980B9A511C0B910CA98854149A159B28
:101A800018981999FEF71AFC19911890FFE7189801
:101A9000199901430020089039B1FFE70B99002004
:101AA000202938BF01200890FFE70898C0070028C8
:101AB000BFD1FFE7FFE71D981C991B9A1A9BDDF821
:101AC0002CC0149D2A9E2B9FDDF8B0809DF85F40AE
:101AD000EE46CEF81880CEF81470CEF81060CEF82E
:101AE0000C5004F00104CEF80840CEF804C00DF10B
:101AF000300CCEF800C0FFF7BFFD1EB0BDE8F0818E
:101B000080B584B08DF80F000291019200939DF88A
:101B10000F0028B1FFE79DF80F0002F03BFAFFE746
:101B200004B080BD84B08DF80F0002910192009343
:101B300004B0704780B586B0DDF82CC0DDF828C051
:101B4000DDF824C0DDF820C00590049103920293D3
:101B5000039801909DF82C00800700281CD4FFE713
:101B60009DF82C00C007B8B9FFE709980090FFE77F
:101B700000980A9988420ED2FFE7DDF814C0049954
:101B8000039A501C0390029B2020E047FFE7009837
:101B900001300090ECE7FFE7FFE7099870B1FFE73D
:101BA000DDF814C00898099901390991405C04993D
:101BB000039A531C0393029BE047EEE79DF82C0029
:101BC0008007002813D5FFE7FFE703980199401A23
:101BD0000A9988420AD2FFE7DDF814C00499039AF3
:101BE000501C0390029B2020E047EEE7FFE703989C
:101BF00006B080BD84B00390029103980190FFE786
:101C0000019801780020009041B1FFE70298411E41
:101C10000291002818BF01200090FFE70098C0073C
:101C200028B1FFE7FFE7019801300190E8E701984C
:101C30000399401A04B070472DE9F043C1B0DDF8B4
:101C400020C1CDF800C13F903E913D923C930020D1
:101C500037903E9830B9FFE741F62530C1F20000D9
:101C60003F90FFE7FFE73C980078002800F0E18410
:101C7000FFE73C98007825280ED0FFE7DDF8FCC090
:101C80003C9800783E99379A531C37933D9BE04728
:101C90003C9801303C90E6E73C9801303C90FFE7EF
:101CA00000203B90FFE73C980078203801462A91BD
:101CB00010283DD82A99DFE801F0273B3B313B3B18
:101CC0003B3B3B3B3B1D3B133B3B09003B9840F000
:101CD00001003B903C9801303C90012038902AE074
:101CE0003B9840F002003B903C9801303C90012032
:101CF000389020E03B9840F004003B903C98013045
:101D00003C900120389016E03B9840F008003B9052
:101D10003C9801303C90012038900CE03B9840F01A
:101D200010003B903C9801303C900120389002E03C
:101D300000203890FFE7FFE738980028B3D1FFE78D
:101D400000203A903C980078FFF77EFC28B1FFE72E
:101D50003CA8FEF779FE3A901EE03C9800782A28CD
:101D600019D1FFE74098011D4091006836903698E0
:101D7000B0F1FF3F08DCFFE73B9840F002003B90EA
:101D8000369840423A9002E036983A90FFE73C9805
:101D900001303C90FFE7FFE7002039903C98007845
:101DA0002E282ED1FFE73B9840F480603B903C9872
:101DB00001303C903C980078FFF746FC28B1FFE7E3
:101DC0003CA8FEF741FE39901AE03C9800782A289A
:101DD00015D1FFE74098011D409100683590359876
:101DE000012803DBFFE73598299002E000202990C5
:101DF000FFE7299839903C9801303C90FFE7FFE7D6
:101E0000FFE73C98007868380146289112284ED8A0
:101E10002899DFE801F01F4C3C4C0A4C4C4C4C4CD0
:101E20004C4C344C4C4C4C4C44003B9840F480702F
:101E30003B903C9801303C903C9800786C2808D14D
:101E4000FFE73B9840F400703B903C9801303C9099
:101E5000FFE72DE03B9840F080003B903C9801303C
:101E60003C903C980078682808D1FFE73B9840F008
:101E700040003B903C9801303C90FFE718E03B98D5
:101E800040F480703B903C9801303C9010E03B98CF
:101E900040F400703B903C9801303C9008E03B9847
:101EA00040F480703B903C9801303C9000E0FFE7AC
:101EB0003C980078253801462791532800F2A983E1
:101EC0002799DFE811F09903A603A603A603A6034A
:101ED000A603A603A603A603A603A603A603A603BA
:101EE000A603A603A603A603A603A603A603A603AA
:101EF000A603A603A603A603A603A603A603A6039A
:101F0000A603A603A6035D0231025D02A603A60393
:101F1000A603A603A603A603A603A603A603A60379
:101F2000A603A603A603A603A603A6035400A603BE
:101F3000A603A603A603A603A603A603A603A60359
:101F400054009D0254005D0231025D02A60354005C
:101F5000A603A603A603A603A60354006C03A603C8
:101F6000A603E102A6035400A603A60354003C986E
:101F70000078782805D0FFE73C980078582803D1EE
:101F8000FFE71020349018E03C9800786F2803D1C8
:101F9000FFE7082034900FE03C980078622803D1D6
:101FA000FFE70220349006E00A2034903B9820F0AE
:101FB00010003B90FFE7FFE7FFE73C9800785828C8
:101FC00005D1FFE73B9840F020003B90FFE73C98AD
:101FD000007869280AD0FFE73C980078642805D08B
:101FE000FFE73B9820F00C003B90FFE79DF8ED00E9
:101FF0004007002805D5FFE73B9820F001003B9003
:10200000FFE73C980078692806D0FFE73C98007805
:10201000642840F0E880FFE79DF8ED008007002885
:102020004FD5FFE74098073020F0070101F1080085
:10203000409008684968339132903F9823903E98C9
:102040002490379825903D982690329933980139FD
:1020500070F1000005DBFFE732993398219122905F
:1020600008E03298339A41424FF0000090412191AC
:102070002290FFE7269B259A24992398DDF884C0B7
:10208000229C339D349E399FDDF8E880DDF8EC908A
:10209000EE46CDF880E0CEF82090CEF81C80CEF849
:1020A00018700027CEF81470CEF81060ED0FCEF83F
:1020B0000850CEF80440CEF800C0FFF785FC3790FA
:1020C00090E09DF8ED00C007B0B3FFE74098011D18
:1020D0004091006831903F981C903E981D90379831
:1020E0001E903D981F903198012803DBFFE731983F
:1020F0001B9003E0319840421B90FFE71F9B1E9A04
:102100001D991C98DDF86CC0319C349D399E3A9F16
:10211000DDF8EC80EE46CEF81480CEF81070CEF8E4
:102120000C60CEF80850E40FCEF80440CEF800C0A2
:10213000FFF7C0FB379054E09DF8EC004006002804
:1021400006D5FFE74098011D409100781A9015E0F0
:102150009DF8EC000006002807D5FFE74098011D18
:102160004091B0F90000199005E04098011D4091A0
:1021700000681990FFE719981A90FFE71A983090B5
:102180003F9815903E981690379817903D98189064
:102190003098012803DBFFE73098149003E0309873
:1021A00040421490FFE7189B179A16991598DDF88E
:1021B00050C0309C349D399E3A9FDDF8EC80EE464D
:1021C000CEF81480CEF81070CEF80C60CEF808501F
:1021D000E40FCEF80440CEF800C0FFF76BFB379059
:1021E000FFE7FFE79CE09DF8ED00800700282FD572
:1021F000FFE73F983E99379A3D9BDDF800C10CF10F
:10220000070C2CF0070E0EF1080CCDF800C1DEF81B
:1022100000C0DEF80440349E399D3A9FDDF8EC8022
:10222000EE46CDF84CE0CEF82080CEF81C70CEF80B
:1022300018500025CEF81450CEF81060CEF8085093
:10224000CEF80440CEF800C0FFF7BEFB379066E042
:102250009DF8ED00C00710B3FFE73F983E99379A0D
:102260003D9BDDF800C10CF1040ECDF800E1DCF877
:1022700000C0349C399D3A9E3B9FEE46CEF81470C8
:10228000CEF81060CEF80C50CEF808400024CEF8FE
:102290000440CEF800C0FFF70DFB37903EE09DF8FC
:1022A000EC004006002806D5FFE74098011D40914C
:1022B0000078129014E09DF8EC000006002806D586
:1022C000FFE74098011D40910088119005E040987B
:1022D000011D409100681190FFE711981290FFE7EF
:1022E00012982F903F983E99379A3D9BDDF8BCC0DD
:1022F000349C399D3A9E3B9FEE46CEF81470CEF842
:102300001060CEF80C50CEF808400024CEF80440FF
:10231000CEF800C0FFF7CEFA3790FFE7FFE7FFE700
:102320003C9801303C9082E13C980078462805D1E9
:10233000FFE73B9840F020003B90FFE73F983E9935
:10234000379A3D9BDDF800C10CF1070C2CF0070C0F
:102350000CF1080ECDF800E19CED000BDDF8E4C0B7
:102360003A9C3B9DEE46CEF80850CEF80440CEF89D
:1023700000C0FEF7A9FE37903C9801303C9056E132
:102380003C980078672805D0FFE73C9800784728FC
:1023900005D1FFE73B9840F400603B90FFE73C9895
:1023A0000078452805D0FFE73C980078472805D1FC
:1023B000FFE73B9840F020003B90FFE73F983E99B5
:1023C000379A3D9BDDF800C10CF1070C2CF0070C8F
:1023D0000CF1080ECDF800E19CED000BDDF8E4C037
:1023E0003A9C3B9DEE46CEF80850CEF80440CEF81D
:1023F00000C0FEF749FB37903C9801303C9016E155
:1024000001202E909DF8EC008007002813D4FFE7F0
:10241000FFE72E98411C2E913A9988420AD2FFE795
:10242000DDF8FCC03E99379A501C37903D9B202028
:10243000E047EEE7FFE7DDF8FCC04098011D409162
:1024400000783E99379A531C37933D9BE0479DF89F
:10245000EC008007002813D5FFE7FFE72E98411C0A
:102460002E913A9988420AD2FFE7DDF8FCC03E99E6
:10247000379A501C37903D9B2020E047EEE7FFE75E
:102480003C9801303C90D2E04098011D409100689A
:102490002D902D981090399818B1FFE739980F902A
:1024A00003E04FF0FF300F90FFE710980F99FFF710
:1024B000A1FB2C909DF8ED00400700280ED5FFE70A
:1024C0002C983999884203D2FFE72C980E9002E0AD
:1024D00039980E90FFE70E982C90FFE79DF8EC00DE
:1024E0008007002813D4FFE7FFE72C98411C2C91AC
:1024F0003A9988420AD2FFE7DDF8FCC03E99379A44
:10250000501C37903D9B2020E047EEE7FFE7FFE7B8
:102510002D98017800200D9099B1FFE701209DF8DA
:10252000ED10490700290C9008D5FFE73998411EA6
:102530003991002818BF01200C90FFE70C980D90EE
:10254000FFE70D98C00768B1FFE7DDF8FCC02D98E4
:10255000411C2D9100783E99379A531C37933D9B2F
:10256000E047D5E79DF8EC008007002813D5FFE78A
:10257000FFE72C98411C2C913A9988420AD2FFE738
:10258000DDF8FCC03E99379A501C37903D9B2020C7
:10259000E047EEE7FFE73C9801303C9047E0082039
:1025A0003A903B9840F021003B9000248DF8AF40DA
:1025B0003F983E99379A3D9BDDF800C10CF1040E1F
:1025C000CDF800E1DCF800C0399D3A9E3B9FEE4615
:1025D000CEF81470CEF81060CEF80C501025CEF85E
:1025E0000850CEF80440CEF800C0FFF763F93790EA
:1025F0003C9801303C901AE0DDF8FCC03E99379AD7
:10260000501C37903D9B2520E0473C9801303C9082
:102610000DE0DDF8FCC03C9800783E99379A531CD9
:1026200037933D9BE0473C9801303C90FFE7FFF734
:102630001ABB3F980A903E980B9037983D99884274
:1026400003D2FFE73798099003E03D9801380990DD
:10265000FFE7DDF828C00B99099A3D9B0020E04771
:10266000379841B0BDE8F08380B5C6B006A80190A8
:102670004FF48071FDF76CFE00F08AF8059000F0D1
:102680008FF8014601980491059A049B402100F0BF
:1026900091F803900398B0F1FF3F08DCFFE703993E
:1026A00045F66800C1F2000000F03CFC23E045F66E
:1026B0009500C1F2000000F035FC00200290FFE719
:1026C0000298039988420FDAFFE7029906A850F8AA
:1026D000211045F68F00C1F2000000F023FCFFE757
:1026E000029801300290EBE745F60800C1F20000C5
:1026F00000F018FCFFE746B080BD000080B582B056
:102700000190019945F61E10C1F2000000F00AFC8C
:10271000019800F0D3F802B080BD000082B0012023
:102720000190009048F64800C3F60000006818B118
:10273000FFE70020009028E048F6B400C3F6000050
:10274000006818B1FFE7002000901DE048F6440043
:10275000C3F60000006818B1FFE70020009012E007
:1027600048F67000C3F60000006848F20831C3F66E
:10277000000109680139884203D1FFE70220009077
:1027800000E0FFE7FFE7FFE7FFE7009802B07047D0
:1027900081B0EFF308800090009801B0704700000E
:1027A00041F20001C0F2000148F6B800C3F6000093
:1027B0000844704780B58AB0089007910692059347
:1027C00000200490039002900190089818B1FFE750
:1027D000079820B9FFE76FF0010009906BE00698B9
:1027E00028B1FFE706980599884204D9FFE76FF002
:1027F000020009905FE006980190FFE70199002030
:10280000009041B1FFE70199059A0020914298BFDD
:1028100001200090FFE70098C007002848D0FFE79C
:10282000019800680390039840F20001C1F2000192
:1028300088420DD3FFE7039845F64052C0F20002EC
:1028400040F20001C1F200011144884201D9FFE7C2
:102850002AE09DF80C00C00708B9FFE724E00398C0
:10286000013803900398043803909DF80C00C007CA
:1028700008B1FFE718E0039800F05AFA02900298B6
:1028800000F01AFB08B9FFE70EE003980899049AD4
:1028900041F8220004980130049004980799884276
:1028A00001D3FFE704E0FFE7019804300190A5E7BA
:1028B00004980990FFE709980AB080BD80B582B0FE
:1028C000019045F67020C1F2000000F02BFB45F6A8
:1028D000F240C1F2000000F025FB9DF80400C007A3
:1028E00038B1FFE745F6AE30C1F2000000F01AFB48
:1028F00006E045F60240C1F2000000F013FBFFE7DE
:1029000045F6B840C1F2000000F00CFB9DF8040051
:102910004007002807D5FFE745F60630C1F2000062
:1029200000F000FB06E045F6EA20C1F2000000F0EE
:10293000F9FAFFE745F6D540C1F2000000F0F2FADF
:102940009DF804000007002807D5FFE745F6223070
:10295000C1F2000000F0E6FA06E045F63E30C1F2B2
:10296000000000F0DFFAFFE745F67E40C1F200000C
:1029700000F0D8FA9DF80400C006002807D5FFE74C
:1029800045F69230C1F2000000F0CCFA06E045F6C0
:102990007630C1F2000000F0C5FAFFE745F69B4033
:1029A000C1F2000000F0BEFA9DF804008006002885
:1029B00007D5FFE745F65A30C1F2000000F0B2FA41
:1029C00006E045F6E630C1F2000000F0ABFAFFE7A2
:1029D00045F66140C1F2000000F0A4FA9DF8040041
:1029E0004006002807D5FFE745F6CA30C1F20000CF
:1029F00000F098FA06E045F61E40C1F2000000F033
:102A000091FAFFE745F67020C1F2000000F08AFA63
:102A100002B080BD80B588B0079006910020059077
:102A20000490079803900398011D0391006840F2F9
:102A30001011C3F60001019108600398021D039272
:102A4000006848600398021D03920068886003983C
:102A5000021D03920068C8600398021D039200687B
:102A600008610398021D0392006848610398021DE3
:102A70000392006888610398021D03920068C86190
:102A80000398021D0392006808620398021D0392D6
:102A9000006848620398021D0392006888620398E8
:102AA000021D03920068C8620398021D0392006829
:102AB00008630398021D0392006848630398021D8F
:102AC0000392006888630398021D03920068C8633C
:102AD00045F68800C1F20000029000F023FA45F6A6
:102AE0005520C1F2000000F01DFA45F60C10C1F2AD
:102AF000000000F017FA0198016A45F63510C1F29E
:102B0000000000F00FFA0198416A45F64710C1F243
:102B1000000000F007FA0198816A45F65910C1F2E9
:102B2000000000F0FFF90198C16A45F66B10C1F290
:102B3000000000F0F7F90198016845F67D10C1F238
:102B4000000000F0EFF90198416845F68F10C1F2DE
:102B5000000000F0E7F90198816845F6A110C1F284
:102B6000000000F0DFF90198C16845F6B310C1F22A
:102B7000000000F0D7F90198016945F6C510C1F2CF
:102B8000000000F0CFF90198416945F6D710C1F275
:102B9000000000F0C7F90198816945F60D20C1F2E7
:102BA000000000F0BFF90198C16945F61F20C1F28D
:102BB000000000F0B7F90198016B45F63120C1F231
:102BC000000000F0AFF90198416B45F6FB10C1F22F
:102BD000000000F0A7F90198816B45F6E910C1F2F9
:102BE000000000F09FF90198C16B45F64320C1F247
:102BF000000000F097F9029800F094F90698FFF7AA
:102C00007DFD10200490069801F03AFBD8B1FFE753
:102C100040F20400C3F60000D0F800C00798049901
:102C200000EB810241F20001C0F2000148F6B80059
:102C3000C3F60000431840F21000C3F60000402124
:102C4000E04705900FE040F20800C3F60000D0F81E
:102C500000C0079A40F21000C3F600004021002394
:102C6000E0470590FFE745F6DC20C1F2000000F0E8
:102C700059F940F21010C3F60000816B45F68F0041
:102C8000C1F2000000F04EF900200490FFE7049824
:102C90000599884212DAFFE7049940F21000C3F662
:102CA000000050F8211045F68F00C1F2000000F03E
:102CB00039F9FFE7049801300490E8E745F6880009
:102CC000C1F2000000F02EF9FFE7FEE780B540F208
:102CD0005010C3F6000048F6B801C3F600010160C9
:102CE00041F20003C0F20003CA1840F25410C3F6C8
:102CF0000000026045F6B820C1F2000000F012F9B1
:102D000045F64053C0F2000340F20001C1F2000159
:102D1000CA1845F69420C1F2000000F003F945F608
:102D20007420C1F20000012100F0FCF880BD000019
:102D300084B003900020029001900090FFE700987B
:102D400001280CD8FFE70398009A30F8120002A976
:102D500021F81200FFE7009801300090EFE7029899
:102D60000190019804B0704780B584B000200390B2
:102D700002904EF61452CEF20002116841F00801A2
:102D8000116003900398006802900399029A45F637
:102D90003A40C1F20000019000F0C4F8019804210B
:102DA00003910399096802910399029A00F0BAF815
:102DB0000198032103910399096802910399029AEA
:102DC00000F0B0F804B080BD82B000909DF8000023
:102DD0004007002804D5FFE700208DF8070003E036
:102DE00001208DF80700FFE79DF8070002B070474B
:102DF00080B582B000200190009001F0A9FA45F65C
:102E00008300C1F2000000F08DF8FFF75FFF00F0D3
:102E100029F8FFE700BF0099481C009045F64600DE
:102E2000C1F2000000F07EF8F4E7000080B582B047
:102E3000019000200090FFE74FF47A7001F082FDCE
:102E400045F62C00C1F2000000F06CF80098032851
:102E500003DBFFE701F06EFA03E000980130009019
:102E6000FFE7E9E780B584B00120039040F25812F3
:102E7000C3F6000269464A60086042F62D60C1F25E
:102E8000000045F6C601C1F200014FF400620023C4
:102E900002F056F803900398012803D1FFE701F0F0
:102EA000CDFD07E0039945F60D00C1F2000000F0EA
:102EB00039F8FFE704B080BD83B00190019800F4B9
:102EC0007840ADF80200BDF8060000F47840ADF897
:102ED0000000BDF80200B0F5704F06D0FFE7BDF866
:102EE0000200B0F5784F04D1FFE701208DF80B0008
:102EF00013E0BDF80000B0F5704F06D0FFE7BDF855
:102F00000000B0F5784F04D1FFE701208DF80B00E9
:102F100003E000208DF80B00FFE79DF80B0003B0E5
:102F20007047000083B080B585B00993089207917F
:102F3000049007A80390049B03986946086041F633
:102F40000130C1F200000DF10B014FF0FF32FEF72E
:102F500073FE0190019805B0BDE8804003B0704752
:102F600080B588B00790069148F6A800C3F6000027
:102F70000068049040F26420C3F6000000680390EB
:102F800040F26C20C3F600000068029040F25C2022
:102F9000C3F600000268002182F84A10006804307D
:102FA00001F002FA08B9FFE700E0FFE707980130F7
:102FB00028BBFFE7069810B3FFE7FFE748F670016C
:102FC000C3F6000148680190019A40F25C20C3F604
:102FD000000003689A60019A92680368DA600268E8
:102FE0000432019B9B685A6002680432019B9A601C
:102FF00000684161086801300860FFE735E0049827
:10300000079908440590059840F25C21C3F6000139
:10301000096848600598049988420AD2FFE7029837
:1030200040F25C21C3F600010968043101F03EFA68
:103030001AE0039840F25C21C3F6000109680431EC
:1030400001F034FA059848F63401C3F60001096826
:10305000884207D2FFE7059848F63401C3F600011D
:10306000086000E0FFE7FFE7FFE708B080BD000071
:1030700080B582B0019001F04FFA48F20831C3F6F2
:10308000000108680130086040F25C20C3F60000CF
:10309000006898B9FFE7019840F25C21C3F600018F
:1030A000086048F20830C3F600000068012803D128
:1030B000FFE700F0FDFB00E0FFE71CE048F66400DE
:1030C000C3F600000068A0B9FFE740F25C20C3F639
:1030D00000000068C06A0199C96A884207D8FFE702
:1030E000019840F25C21C3F60001086000E0FFE7B0
:1030F00000E0FFE7FFE748F21431C3F6000108687B
:1031000001300860FFE7FFE70198C06A48F2183114
:10311000C3F600010968884208D9FFE70198C06A30
:1031200048F21831C3F600010860FFE7FFE7FFE748
:103130000198C06AC0EBC00040F27421C3F60001E0
:1031400001EB8000406800900098019A9060009820
:103150008068019AD06001980430009A92685060AB
:1031600001980430009A9060019AD06AC0EBC000C8
:1031700001EB800050610198C06AC0EBC00251F8B9
:103180002200013041F82200FFE7FFE701F0D4F907
:1031900048F66400C3F60000006890B1FFE7FFE75F
:1031A00040F25C20C3F600000068C06A0199C96A59
:1031B000884203D2FFE701F061FB00E0FFE7FFE791
:1031C00000E0FFE702B080BD80B584B001F0A4F953
:1031D00048F6AC00C3F60000006878BBFFE748F291
:1031E000B470C3F60000029001F03CF948F2D070D0
:1031F000C3F60000039001F035F90299039840F2FC
:103200006022C3F60002116040F27021C3F6000193
:10321000086069460020086040F25C12C3F60002B4
:1032200040F2FC13C3F600030A20102101F0F8FC61
:1032300048F6AC01C3F60001086000E0FFE701F0CA
:103240007BF904B080BD000080B582B0FFE748F292
:103250000C30C3F60000006808B3FFE701F05CF92A
:1032600048F68C00C3F60000C068C0680190019861
:10327000043001F099F848F20831C3F600010868FB
:103280000138086048F20C31C3F6000108680138C3
:10329000086001F051F9019800F074F9D7E702B025
:1032A00080BD000080B582B0019000910198006D52
:1032B000B8B1FFE70199C8680A6D1044C860019869
:1032C0008168C068884204D3FFE701990868C86034
:1032D00000E0FFE70098019AD168126DFDF71FF832
:1032E000FFE702B080BD000080B586B00590049174
:1032F0000392002002900598806C01900598006D63
:1033000078B9FFE70598006848B9FFE70598806835
:1033100001F0A8FF029005990020886000E0FFE717
:1033200041E00398B8B9FFE7059A04995068126D17
:10333000FCF7F5FF059948680A6D10444860059947
:1033400048688968884204D3FFE70599086848609F
:1033500000E0FFE726E0059A0499D068126DFCF7BB
:10336000DEFF0599C8680A6D801AC8600598016873
:10337000C068884206D2FFE7059988680A6D801AFE
:10338000C86000E0FFE70398022809D1FFE7019831
:1033900020B1FFE701980138019000E0FFE700E06D
:1033A000FFE7FFE7FFE7019801300599886402987D
:1033B00006B080BD80B58CB001200B900020089035
:1033C0000790FFE70798032813DCFFE7079A45F605
:1033D0000F50C1F20000815C09A881540799405C3C
:1033E00008B9FFE705E0FFE7FFE70798013007901E
:1033F000E8E700200A90FFE70A9800283BDCFFE797
:1034000043F22970C1F2000008900020039006905A
:10341000059006A805A904AA00F0F0FF039B0898F0
:10342000049ADDF814C0DDF818E06946C1F808E038
:10343000C1F804C00B6009A901F0ACFD01460A9A6D
:1034400048F62800C3F6000040F822100A9950F808
:10345000210018B1FFE701200B9002E000200B9043
:10346000FFE70B9808B9FFE705E0FFE7FFE70A98D9
:1034700001300A90C0E70B980CB080BD70B58AB0DF
:10348000DDF844C0DDF840C0DDF83CC0DDF838C0F0
:103490000990089107920693109828B3FFE70F98B8
:1034A00010B3FFE71098059005984C21FCF750FFEA
:1034B0000F98059908630599022081F84900099839
:1034C0000899079A069BDDF838C0119C059DEE46C9
:1034D0000026CEF80C60CEF80850CEF80440CEF8A6
:1034E00000C000F06FF902E000200590FFE70598AA
:1034F0000AB070BD70B58AB0DDF83CC0DDF838C0E8
:1035000009900891079206930798800000F056FDF5
:1035100004900498A0B1FFE74C2000F04FFD059007
:10352000059840B1FFE705984C21FCF711FF04987E
:103530000599086303E0049801F00EF8FFE702E044
:1035400000200590FFE70598C0B1FFE70598002629
:1035500080F8496009980899079A069BDDF838C0F9
:103560000F9C059DEE46CEF80C60CEF80850CEF8C4
:103570000440CEF800C000F025F9FFE705980AB036
:1035800070BD000080B582B00190019890F84900AC
:1035900040B9FFE70198006B00F0DEFF019800F0F2
:1035A000DBFF0BE0019890F84900012804D1FFE708
:1035B000019800F0D1FF00E0FFE7FFE702B080BD17
:1035C00082B00020009048F21830C3F60000006876
:1035D00018B1FFE701200090FFE740F25C20C3F63E
:1035E00000000068C06A18B1FFE70020019021E0E8
:1035F00040F27420C3F600000068022803D3FFE7FE
:103600000020019015E0009818B1FFE7002001901C
:103610000EE048F63400C3F600000068019048F65A
:10362000A800C3F6000001680198401A0190FFE766
:10363000FFE7FFE7019802B07047000082B00190F9
:1036400040F26020C3F6000000680068B0FA80F025
:103650004009019908600198006848B9FFE740F205
:103660006020C3F600000068C0680068009002E0B7
:1036700000200090FFE7009802B0704784B04FF43C
:103680000040009040F20030C3F6000002909DF828
:103690000800400788B1FFE70298073002900298BF
:1036A00020F007000290029A40F20031C3F60001B8
:1036B0000098891A08440090FFE7029948F66800CC
:1036C000C3F600000160002141600298009A104496
:1036D0000190019808380190019820F007000190AE
:1036E000019A40F26820C3F600000260026851604F
:1036F00002681160029903910199039A891A516035
:103700000068039908600398406848F63001C3F6E2
:10371000000108600398406848F62401C3F60001E0
:10372000086004B07047000080B582B00190FFE7E8
:10373000FFF78AFD40F27420C3F6000000680228FB
:1037400003D3FFE701F09AF800E0FFE7FFF738FF47
:1037500000900098022811D3FFE701F0CFF9FFF79E
:103760002FFF00900098022804D3FFE7009800F094
:1037700073FF00E0FFE701F0BDFE00E0FFE7D7E7E1
:1037800080B584B0DDF818C00390029101928DF8E5
:103790000330029818B9FFE70698006003E001982B
:1037A00006990860FFE703980699C864029806998D
:1037B00008650698012101F069FA069900208865DC
:1037C00004B080BD80B586B0DDF82CC0DDF828C01F
:1037D000DDF824C0DDF820C0059004910392029327
:1037E0000A98006B03998900A522FCF7AAFD0A98A4
:1037F000006B039900EB810004380190019820F0E0
:10380000070001900498F8B1FFE700200090FFE75F
:103810000098032813D8FFE70498009A805C0A995F
:10382000114481F8340004980099405C08B9FFE71E
:1038300005E0FFE7FFE7009801300090E8E70A990C
:10384000002081F8370000E0FFE70898052803D33F
:10385000FFE70420089000E0FFE708980A99C86293
:1038600008980A9988630A98043000F017FE0A98AD
:10387000183000F013FE0A9800610898C0F10500A6
:103880000A9988610A98406201980A99096B059A19
:10389000029B00F06FFC0A990860099820B1FFE7CD
:1038A0000A980999086000E0FFE706B080BD0000B3
:1038B00080B584B000200390FFE70398042810D857
:1038C000FFE70398C0EBC00140F27420C3F600008C
:1038D00000EB810000F0C6FDFFE703980130039084
:1038E000EBE748F2EC70C3F60000019000F0BAFD7F
:1038F00048F60800C3F60000029000F0B3FD48F659
:103900004800C3F6000000F0ADFD48F68C00C3F699
:10391000000000F0A7FD48F67000C3F6000000F0BC
:10392000A1FD0199029840F26422C3F600021160E1
:1039300040F26C21C3F60001086004B080BD0000B5
:1039400083B0029048F66800C3F600000190FFE7DC
:10395000019800680299884205D2FFE7FFE70198C5
:1039600000680190F4E7019848F66801C3F6000189
:10397000884201D0FFE7FFE7019800900098019985
:10398000496808440299884209D1FFE702984268D1
:1039900001994868104448600198029000E0FFE7F0
:1039A00002980090009802994968084401990968B2
:1039B000884220D1FFE70198006840F26821C3F6F1
:1039C0000001096888420DD0FFE70198006842684D
:1039D000029948681044486001980068006802999C
:1039E000086007E040F26820C3F600000068029912
:1039F0000860FFE704E00198006802990860FFE7AB
:103A000001980299884204D0FFE702980199086062
:103A100000E0FFE703B0704780B586B005900491E1
:103A2000039202930020019004980599486005983C
:103A3000006104980399884216D8FFE70398029919
:103A4000401A05998969884203D3FFE70120019054
:103A500009E040F27020C3F60000006805990431C7
:103A600000F024FDFFE717E003980299884208D28E
:103A7000FFE704980299884203D3FFE701200190F1
:103A800009E040F26020C3F60000006805990431A7
:103A900000F00CFDFFE7FFE7019806B080BD0000D5
:103AA00080B582B0019000F037FD0198806C18B9A4
:103AB000FFE70120009002E000200090FFE700F007
:103AC0003BFD009802B080BD80B586B0059005989A
:103AD000806D0490002003900498806C0499C96C58
:103AE000884235D2FFE7049890F855008DF80B0016
:103AF000049805A90022FFF7F7FB03909DF90B003E
:103B0000013088B9FFE70498C06A58B1FFE704980C
:103B10002C3001F021FC18B1FFE70120039000E0F8
:103B2000FFE700E0FFE712E0FFE700F061FC019033
:103B30009DF90B000199884207D2FFE79DF80B0021
:103B40000130049981F85500FFE7FFE7FFE700E047
:103B5000FFE7039806B080BD80B584B00390029162
:103B600040F26020C3F600000068C068C0680190A1
:103B70000198043000F018FC019890F824004007E8
:103B8000002806D5FFE701980399029A00F0FAF899
:103B900007E0019991F8240000F0FE0081F824006C
:103BA000FFE70198016A884704B080BD80B58AB0FC
:103BB00000200990089007900690FFE748F6AC00B7
:103BC000C3F60000006806A9002201F0BFF8002833
:103BD00000F09180FFE70698B0F1FF3F09DCFFE7B6
:103BE00006A80430029002990A68486889689047DC
:103BF00000E0FFE70698002800F17C80FFE70898C6
:103C000005900598406928B1FFE70598043000F059
:103C1000CBFB00E0FFE704A800F0ECF80390069867
:103C2000013801460191082862D80199DFE801F0C6
:103C30000505323A4C0505323A00059991F8240001
:103C400040F0010081F824000598079B8169194420
:103C5000039AFFF7E1FED8B1FFE7059890F824003A
:103C60004007002808D5FFE70598079982691144A5
:103C7000039A00F087F807E0059991F8240000F016
:103C8000FE0081F82400FFE70598016A884700E0FC
:103C9000FFE72EE0059991F8240000F0FE0081F87E
:103CA000240026E0059991F8240040F0010081F8F5
:103CB00024000798059988610598039B8169194438
:103CC0001A46FFF7A9FE14E0059890F82400800733
:103CD000002804D4FFE7059800F03EFC07E00599B2
:103CE00091F8240000F0FE0081F82400FFE700E0D6
:103CF000FFE7FFE762E70AB080BD000080B584B04F
:103D00000390029100F0FAFE684600F073F801900B
:103D1000009890BBFFE7029860B9FFE7039801990C
:103D2000884207D8FFE701F0E5FB03980199FFF708
:103D300013FF21E0029858B1FFE740F27020C3F66C
:103D4000000000680068B0FA80F040090290FFE7C8
:103D500048F6AC00C3F6000000680399019A891A7E
:103D6000029A00F097FD01F0C5FB18B9FFE700F0DB
:103D700085FD00E0FFE7FFE702E001F0BBFBFFE7A6
:103D800004B080BD80B584B0039002910192FFE73A
:103D90000398029B81691944019AFFF73DFE48B1DF
:103DA000FFE7039881690298084402900398016A2A
:103DB0008847EDE704B080BD40F26420C3F6000000
:103DC0000068006840B9FFE748F63401C3F6000117
:103DD0004FF0FF3008600CE040F26420C3F60000B2
:103DE0000068C068006848F63401C3F60001086046
:103DF000FFE7704780B582B0019001F0F9F80090BC
:103E0000009840F25821C3F600010968884206D2A2
:103E1000FFE700F011F801990120086003E0019923
:103E200000200860FFE7009840F25821C3F6000127
:103E30000860009802B080BD80B582B0FFE740F214
:103E40006020C3F600000068006870B1FFE740F230
:103E50006020C3F600000068C06800680190019807
:103E60004FF0FF31FFF778FEE9E740F26022C3F63A
:103E700000021068009040F27021C3F6000108684B
:103E800010600098086002B080BD000080B582B06C
:103E90000020019000F07CFAFFE7019808B9FFE7E5
:103EA000FBE702B080BD000080B584B00390FFE75F
:103EB00001A8FFF7C3FB029002980199FFF71EFFCC
:103EC000FFF774FEF4E7000080B582B0019000F0C7
:103ED00023FB019890F855008DF80300FFE79DF94A
:103EE0000300012825DBFFE70198806D50B1FFE753
:103EF0000198FFF7E9FD18B1FFE700F051FD00E080
:103F0000FFE710E00198C06A58B1FFE701982C3034
:103F100001F022FA18B1FFE700F042FD00E0FFE7F0
:103F200000E006E0FFE79DF8030001388DF803008C
:103F3000D5E70199FF2081F8550000F0FDFA00F067
:103F4000EBFA019890F854008DF80200FFE79DF914
:103F50000200012816DBFFE70198006980B1FFE746
:103F60000198103001F0F8F918B1FFE700F018FDE2
:103F700000E0FFE79DF8020001388DF8020000E044
:103F800000E0E4E70199FF2081F8540000F0D4FA42
:103F900002B080BD81B00090FFE71820C4F220007D
:103FA00000688006002801D5FFE7F6E700980021A9
:103FB000C4F220010860009801B0704780B588B055
:103FC000079000200390079840B3FFE7079810F18F
:103FD000090F1FD8FFE70798083007909DF81C00CD
:103FE0004007A8B1FFE7079800F00700C0F10800FC
:103FF000029007980299C943884205D8FFE70299C1
:1040000007980844079002E000200790FFE700E0CF
:10401000FFE702E000200790FFE700E0FFE700F085
:104020006DFD40F26820C3F60000006818B9FFE794
:10403000FFF724FB00E0FFE79DF81F0000060028C3
:1040400000F19180FFE70798002800F08A80FFE7E1
:10405000079848F62401C3F600010968884200F277
:104060008080FFE748F66800C3F60000059000680E
:104070000690FFE706984168079A00209142019058
:1040800007D2FFE706980068002818BF01200190BA
:10409000FFE70198C00730B1FFE706980590069842
:1040A00000680690E6E7069840F26821C3F6000132
:1040B0000968884253D0FFE70598006808300390EC
:1040C0000698006805990860069840680799401AA4
:1040D000112815D3FFE7069807990844049006981D
:1040E00040680799401A0499486007980699486003
:1040F000059800680499086004980599086000E034
:10410000FFE70698426848F62400C3F600000168FD
:10411000891A0160006848F63001C3F60001096899
:1041200088420BD2FFE748F62400C3F6000000687F
:1041300048F63001C3F60001086000E0FFE7069989
:10414000486840F00040486006990020086048F642
:104150003C01C3F6000108680130086000E0FFE799
:1041600000E0FFE700E0FFE701F0C4F9039808B0C2
:1041700080BD000084B003900291019200930398E7
:104180000438039003994FF0807008600398043856
:1041900003900198039908600398043803900399E9
:1041A00043F68D60C1F20000086003980438039064
:1041B00003994FF012300860039804380390039974
:1041C0004FF00330086003980438039003994FF0D0
:1041D0000230086003980438039003994FF00130CF
:1041E00008600398043803900098039908600398C6
:1041F0000438039003994FF0113008600398043895
:10420000039003994FF0103008600398043803902E
:1042100003994FF00930086003980438039003991C
:104220004FF00830086003980438039003994FF06A
:104230000730086003980438039003994FF0063064
:10424000086003980438039003994FF00530086024
:1042500003980438039003994FF0043008600398E2
:104260000438039003996FF0020008600398043843
:104270000390029803990860039804B07047000007
:1042800080B582B0019001208DF803000198FEF7FF
:104290009BFD8DF803009DF8030000F0010002B0C3
:1042A00080BD000080B545F65A00C1F2000045F619
:1042B000A201C1F20001FEF735FEFEF7D5F9FEF7C7
:1042C00053FD80BD80B545F65A00C1F2000045F6A9
:1042D000A801C1F20001FEF725FEFFF7E3FF80BD54
:1042E00080B545F65A00C1F2000045F6AE01C1F2B4
:1042F0000001FEF717FEFFF7E5FF80BD80B545F62C
:104300005A00C1F2000045F6B401C1F20001FEF707
:1043100009FEFFF7E5FF80BD80B545F65A00C1F202
:10432000000045F6BA01C1F20001FEF7FBFDFFF700
:10433000E5FF80BD80B545F65A00C1F2000045F6A4
:10434000C001C1F20001FEF7EDFDFFF7E5FF80BD02
:104350002421C4F22001282008602821C4F2200171
:104360000B2008602C21C4F220016020086030215D
:10437000C4F2200140F2013008600421C4F220019F
:104380000A2008600821C4F220010120086070475B
:10439000EFF311804FF0BF0181F31188BFF34F8F0E
:1043A000BFF36F8F7047000082B0019001980069E1
:1043B0000090019841688068886001994868896820
:1043C0004860009840680199884205D1FFE701984C
:1043D00080680099486000E0FFE7019900200861CB
:1043E00000990868013808600098006802B07047BA
:1043F00048F20830C3F600000068704783B00290AE
:1044000001910092029948F21C50C3F60000086026
:10441000019948F21C30C3F6000008600099802022
:10442000086003B07047000083B0029001910092D1
:10443000029948F26870C3F600000860019948F2DA
:104440006850C3F60000086000998020086003B03F
:104450007047000080F31188BFF34F8FBFF36F8F59
:104460007047000081B00090009901F10800486099
:1044700000994FF0FF308860009901F10800C86092
:10448000009901F108000861009900204861009935
:1044900088610099086001B07047000081B0009009
:1044A00000990020086101B07047000084B00390BB
:1044B00002910298006800900098013020B9FFE74F
:1044C00003980069019010E0039808300190FFE71D
:1044D0000198406800680099884205D8FFE7FFE727
:1044E000019840680190F3E7FFE70198406802995E
:1044F0004860029841688860019802998860029833
:10450000019948600398029908610399086801308D
:10451000086004B07047000080B5FFF739FF40F233
:104520000C01C3F60001086801300860BFF34F8F2B
:10453000BFF36F8F80BD000080B540F20C00C3F662
:104540000000016801390160006820B9FFE7002020
:10455000FFF780FFFFE780BD80B584B0039003982C
:104560000290039888B3FFE70298083802900298F7
:1045700001900198C1790020B0EBD11F23D0FFE753
:1045800001980068E8B9FFE70199486820F0004009
:10459000486000F0B3FA0198426848F62401C3F677
:1045A00000010868104408600198FFF7C9F948F64F
:1045B0004001C3F6000108680130086000F09AFF6E
:1045C00000E0FFE700E0FFE7FFE704B080BD000088
:1045D00080B584B00390039880690290029810F827
:1045E000020C8DF807009DF80700662803D1FFE74D
:1045F00000F082F900E0FFE704B080BD48F204302B
:10460000C3F6000044F62061016001686FF07F404E
:10461000B0FBF1F048F62C01C3F60001086048F247
:104620000031C3F600015E2008604EF21001CEF2A8
:104630000001042008604EF21802CEF200020020B1
:1046400010604EF21402CEF2000244F61F601060B9
:10465000072008607047000080B588B00790079871
:1046600048F62C01C3F600010968884207D9FFE724
:1046700048F62C00C3F6000000680790FFE772B60A
:10468000BFF34F8FBFF36F8FFEF748F810B9FFE706
:1046900062B6F1E04EF21001CEF200010620086091
:1046A0004EF21800CEF2000000680390039838B96B
:1046B000FFE748F20430C3F6000000680390FFE70C
:1046C000039A48F20430C3F60000006807990139E4
:1046D00000FB012006904EF60450CEF20000006868
:1046E0004001002810D5FFE74EF60451CEF200013C
:1046F0004FF00070086048F20430C3F60000016813
:104700000698401A0690FFE7069848F20031C3F673
:1047100000010968884209D9FFE748F20030C3F672
:10472000000001680698401A0690FFE706984EF2CE
:104730001401CEF2000108604EF21801CEF2000121
:10474000002008604EF21001CEF20001086840F02F
:104750000100086007980290029830B1FFE7BFF3AC
:104760004F8F30BFBFF36F8FFFE762B6BFF34F8F3E
:10477000BFF36F8F72B6BFF34F8FBFF36F8F4EF2E1
:104780001000CEF20000062101600068C00300287E
:1047900033D5FFE748F20430C3F600000068069AFC
:1047A0004EF21801CEF200010968891A0844013856
:1047B0000190019848F20031C3F60001096888426F
:1047C00009D9FFE7019848F20431C3F600010968EE
:1047D000884208D9FFE748F20430C3F600000068B9
:1047E00001380190FFE701984EF21401CEF200016A
:1047F000086007980138059022E04EF21800CEF2CA
:10480000000000680390079848F20431C3F60001E5
:104810000A6800FB02F0039A801A049004980A6860
:10482000B0FBF2F0059005980130096800FB01F03B
:104830000499401A4EF21401CEF200010860FFE71D
:104840004EF21801CEF20001002008604EF2100175
:10485000CEF200010720086048F20430C3F60000E1
:10486000006801384EF21401CEF20001086005988C
:1048700000F016F962B6FFE708B080BD4EF60451AD
:10488000CEF200014FF080500860BFF34F8FBFF3AE
:104890006F8F704780B584B00390029101920398A6
:1048A0000090FFF739FE009890F95400013028B9C4
:1048B000FFE70099002081F85400FFE7009890F985
:1048C0005500013028B9FFE70099002081F8550014
:1048D000FFE7FFF731FE0098806C38B9FFE70098DA
:1048E0002C300299019A00F077F800E0FFE7009879
:1048F000FFF7EAFA04B080BD094A1168086806C8E3
:1049000081F30B88022181F31488203080F3098819
:10491000BFF36F8F4FF0000080F311881047000045
:104920005C02003806480068006880F3088862B6B8
:1049300061B6BFF34F8FBFF36F8F66DF00BF00001C
:1049400008ED00E080B582B0019000200090019851
:1049500050B1FFE700F0D2F801980021FEF700FB0C
:1049600000F0C8FD009000E0FFE7009818B9FFE7ED
:10497000FFF784FF00E0FFE702B080BD81B0009048
:1049800048F63800C3F6000000680099086048F651
:10499000A800C3F6000000680099486001B07047A5
:1049A00048F6B401C3F6000101200860704700001A
:1049B00080B582B001900091019840F25C21C3F66D
:1049C000000109681831FFF771FD00980121FEF719
:1049D000C7FA02B080BD000080B584B00390029198
:1049E0000192FFE7039840680090009840F25C2134
:1049F000C3F600010A68D061009880680A681062F6
:104A000008681830009A9268506008681830009A58
:104A1000906003980968886203990868013008600B
:104A2000FFE7019820B1FFE74FF0FF300290FFE76A
:104A300002980199FEF794FA04B080BD80B582B067
:104A4000FEF7B8FC01900198012804D1FFE700F0BF
:104A500067FE019000E0FFE70198012818D1FFE709
:104A6000FFF796FC48F63401C3F600014FF0FF3023
:104A7000086048F66401C3F600010120086048F6AA
:104A8000A801C3F600010020086000F09DF800E0D6
:104A9000FFE745F61C50C1F20000006802B080BD7F
:104AA00080B582B0019048F6A800C3F60000006807
:104AB000019908440090009848F63401C3F60001BB
:104AC000096888420FD1FFE7FFF726FD48F6440149
:104AD000C3F60001086801300860FFF72DFD01985A
:104AE0000138019000E0FFE7019A48F6A801C3F6FB
:104AF000000108681044086002B080BD48F210311F
:104B0000C3F60001086801300860704782B048F2BF
:104B10001030C3F60000006838B1FFE748F6B40172
:104B2000C3F60001012008604BE048F6B401C3F66B
:104B3000000100200860FFE748F21830C3F60000CB
:104B400000680190FFE70198C0EBC00140F27420BB
:104B5000C3F6000050F8210020B9FFE701980138A2
:104B60000190F0E7FFE70198C0EBC00140F274202C
:104B7000C3F6000000EB810000900099486840688F
:104B80004860009948680831884204D1FFE70099DD
:104B9000C8684860FFE700984068C06840F25C2140
:104BA000C3F600010860FFE7019848F21831C3F628
:104BB00000010860FFE740F25C20C3F600000068D7
:104BC000FFE702B07047000080B582B04EF6085093
:104BD000CEF20000006801904EF62051CEF20001A6
:104BE000086840F47F000860086840F07F40086073
:104BF0004EF61C51CEF20001002000900860FFF735
:104C0000FDFC009840F20C01C3F600010860FFF7BC
:104C100089FEFFF77BFFFFF739F9009802B080BDEE
:104C200080B588B084460A98CDF81CC006910592DC
:104C300004938DF80F0000200290079810B3FFE74F
:104C40000498F8B1FFE7059818B1FFE70698C8B1D6
:104C5000FFE7059818B9FFE7069898B9FFE70498A9
:104C600002900299012081F8560007980699059A4A
:104C70009DF80F30DDF808C0EE46CEF800C0FEF714
:104C80007FFD00E0FFE7029808B080BD80B584B0EA
:104C90000390029101200190039800900098002851
:104CA0004DD0FFE70098C06C002848D0FFE700987F
:104CB000C26C016D4FF0FF30B0FBF2F088423ED382
:104CC000FFE7FFF729FC00990B68C86C0A6D00FB31
:104CD0000230886000990020886400990868486064
:104CE00000990B68C86C0A6D013800FB0230C8607F
:104CF0000099FF2081F85400009981F8550002982E
:104D000088B9FFE70098006958B1FFE700981030B4
:104D100000F022FB18B1FFE7FFF7B0FD00E0FFE76E
:104D200000E0FFE708E000981030FFF79BFB0098D9
:104D30002C30FFF797FBFFE7FFF7FEFB02E00020B8
:104D40000190FFE7019804B080BD000080B58AB0F3
:104D50000890079106920020059008980290FFE7BE
:104D6000FFF7DAFB0298806C01900198E8B1FFE749
:104D700002980799FEF796FA01980138029988641B
:104D80000298006958B1FFE70298103000F0E4FA89
:104D900018B1FFE7FFF772FD00E0FFE700E0FFE773
:104DA000FFF7CAFB0120099064E0069828B9FFE7E5
:104DB000FFF7C2FB002009905CE0059830B9FFE7DF
:104DC00003A8FFF7DBFD0120059000E0FFE7FFE708
:104DD000FFE7FFF7B1FBFFF791FEFFF79DFB02989E
:104DE00090F95400013028B9FFE70299002081F8BA
:104DF0005400FFE7029890F95500013028B9FFE709
:104E00000299002081F85500FFE7FFF795FB03A802
:104E100006A900F033F8E8B9FFE70298FEF740FE74
:104E200088B1FFE702982C300699FFF7C1FD029880
:104E3000FFF74AF800F05EFB18B9FFE7FFF71EFD29
:104E400000E0FFE705E00298FFF73EF800F052FBB4
:104E5000FFE70EE00298FFF737F800F04BFB0298EF
:104E6000FEF71EFE18B1FFE70020099002E0FFE701
:104E7000FFE775E709980AB080BD000080B586B0ED
:104E800005900491FFF748FB48F6A800C3F6000020
:104E900000680290029805994968401A019040F212
:104EA0005C20C3F60000006890F84A0058B1FFE7A4
:104EB00040F25C20C3F600000168002081F84A003F
:104EC0000120039037E004980068013018B9FFE72B
:104ED000002003902EE048F63800C3F6000000687A
:104EE0000599096888420CD0FFE70298059949683E
:104EF000884206D3FFE70120039004990020086050
:104F000017E001980499096888420BD2FFE7019ADB
:104F100004990868801A08600598FFF72FFD0020A3
:104F2000039005E004990020086001200390FFE74A
:104F3000FFE7FFE7FFE7FFF7FFFA039806B080BD42
:104F400010B588B0DDF82CC0DDF828C007900691B8
:104F50000592049307980699059A049BDDF828C0EA
:104F60000B9CEE46CEF80440CEF800C0FEF7C2FA25
:104F70000390039830B1FFE70398FEF779F801201A
:104F8000029003E04FF0FF300290FFE7029808B074
:104F900010BD000070B58AB0DDF840C0DDF83CC03F
:104FA000DDF838C00990089107920693002005901B
:104FB00009980899079A069BDDF838C00F9C109D48
:104FC000EE4605AECEF80C60CEF80850CEF80440A0
:104FD000CEF800C0FEF752FA0490049820B1FFE723
:104FE0000498FEF745F800E0FFE705980AB070BDA9
:104FF00081B048F6A800C3F6000000680090009851
:1050000001B0704780B588B00020059048F210309C
:10501000C3F600000068002840F01881FFE748F65A
:10502000A801C3F6000108680130049004980860E4
:105030000498D0B9FFE7FFE740F26422C3F600020C
:105040001068039040F26C21C3F6000108681060FC
:105050000398086048F63801C3F60001086801307B
:105060000860FEF7A9FEFFE700E0FFE7049848F6B6
:105070003401C3F6000109688842C0F0C680FFE72A
:10508000FFE740F26420C3F600000068006840B902
:10509000FFE748F63401C3F600014FF0FF30086027
:1050A000B2E040F26420C3F600000068C068C06847
:1050B000079007984068069004980699884207D29E
:1050C000FFE7069848F63401C3F6000108609BE04C
:1050D000FFE7FFE707984069029007988168C0687A
:1050E000886007998868C96848600298406807998D
:1050F0000431884205D1FFE70798C06802994860EB
:10510000FFE70799002048610299086801380860A4
:10511000FFE70798806A08B3FFE7FFE70798806A10
:1051200001900798C169006A88600799C869096A8F
:1051300048600198406807991831884205D1FFE717
:105140000798006A01994860FFE707990020886284
:105150000199086801380860FFE700E0FFE7FFE712
:10516000FFE70798C06A48F21831C3F600010968E2
:10517000884208D9FFE70798C06A48F21831C3F699
:1051800000010860FFE7FFE7FFE70798C06AC0EB90
:10519000C00040F27421C3F6000101EB80004068BA
:1051A00000900098079A906000988068079AD060F5
:1051B00007980430009A9268506007980430009A6B
:1051C0009060079AD06AC0EBC00001EB800050618C
:1051D0000798C06AC0EBC00251F82200013041F8C4
:1051E0002200FFE7FFE70798C06A40F25C21C3F6A0
:1051F00000010968C96A884203D9FFE701200590C8
:1052000000E0FFE7FFE73CE7FFE740F25C20C3F682
:1052100000000068C06AC0EBC00140F27420C3F611
:10522000000050F82100022803D3FFE70120059079
:1052300000E0FFE748F6B400C3F60000006818B1CC
:10524000FFE70120059000E0FFE707E048F6440192
:10525000C3F60001086801300860FFE7059808B050
:1052600080BD000080B584B00390039802900020B8
:105270000190039800286AD0FFE70299C86B0138B3
:10528000C8630299C86A896B88425ED0FFE70298BA
:10529000C06B002857D1FFE702980430FFF784F86D
:1052A00008B9FFE700E0FFE70299886BC86202993E
:1052B000C86AC0F105008861FFE7FFE70298C06A8D
:1052C00048F21831C3F600010968884208D9FFE79F
:1052D0000298C06A48F21831C3F600010860FFE77F
:1052E000FFE7FFE70298C06AC0EBC00040F27421FC
:1052F000C3F6000101EB8000406800900098029A1C
:10530000906000988068029AD06002980430009AF9
:105310009268506002980430009A9060029AD06AB5
:10532000C0EBC00001EB800050610298C06AC0EB86
:10533000C00251F82200013041F82200FFE7FFE7E8
:105340000120019000E0FFE700E0FFE700E0FFE759
:10535000019804B080BD000080B588B00790079820
:10536000C068C0680690FFE70698806A04900698B7
:10537000C169006A88600699C869096A486004982A
:10538000406806991831884205D1FFE70698006AFF
:1053900004994860FFE7069900208862049908682C
:1053A00001380860FFE748F21030C3F600000068DB
:1053B000002867D1FFE7FFE7069840690390069849
:1053C0008168C068886006998868C96848600398E1
:1053D000406806990431884205D1FFE70698C06805
:1053E00003994860FFE7069900204861039908681F
:1053F00001380860FFE7FFE7FFE70698C06A48F258
:105400001831C3F600010968884208D9FFE70698F9
:10541000C06A48F21831C3F600010860FFE7FFE7F1
:10542000FFE70698C06AC0EBC00040F27421C3F6E3
:10543000000101EB8000406802900298069A90609B
:1054400002988068069AD06006980430029A9268A2
:10545000506006980430029A9060069AD06AC0EBB9
:10546000C00001EB800050610698C06AC0EBC0022A
:1054700051F82200013041F82200FFE7FFE7FEF774
:105480009BFC1DE0FFE748F64801C3F600014868B1
:1054900001900198069AD06101988068069A10627E
:1054A00006981830019A9268506006981830019A50
:1054B000906006988162086801300860FFE7FFE7A6
:1054C0000698C06A40F25C21C3F600010968C96A07
:1054D000884208D9FFE70120059048F6B401C3F6D9
:1054E0000001086002E000200590FFE7059808B081
:1054F00080BD000080B588B0002000900790069025
:10550000FFF70AF80098059048F21030C3F6000043
:105510000168013901600068002840F0FB80FFE766
:1055200048F20830C3F600000068002800F0F1805F
:10553000FFE7FFE748F64800C3F6000000680028D0
:1055400000F0A280FFE748F64800C3F60000C068FC
:10555000C0680790FFE70798806A04900798C169C0
:10556000006A88600799C869096A486004984068B9
:1055700007991831884205D1FFE70798006A049916
:105580004860FFE70799002088620499086801389D
:105590000860FFE7FFE70798406903900798816874
:1055A000C068886007998868C9684860039840683F
:1055B00007990431884205D1FFE70798C06803992D
:1055C0004860FFE70799002048610399086801389F
:1055D0000860FFE7FFE7FFE70798C06A48F2183165
:1055E000C3F600010968884208D9FFE70798C06A36
:1055F00048F21831C3F600010860FFE7FFE7FFE754
:105600000798C06AC0EBC00040F27421C3F60001E5
:1056100001EB8000406802900298079A906002981F
:105620008068079AD06007980430029A92685060A8
:1056300007980430029A9060079AD06AC0EBC000C5
:1056400001EB800050610798C06AC0EBC00251F8BE
:105650002200013041F82200FFE7FFE70798C06A07
:1056600040F25C21C3F600010968C96A884209D981
:10567000FFE7059A48F6B401C3F60001012041F89E
:10568000220000E0FFE755E7079818B1FFE7FEF7B3
:1056900093FBFFE748F64400C3F600000068019062
:1056A0000198F0B1FFE7FFE7FFF7ACFC48B1FFE777
:1056B000059A48F6B401C3F60001012041F8220022
:1056C00000E0FFE7019801380190FFE7019800280A
:1056D000EAD1FFE748F64401C3F600010020086064
:1056E00000E0FFE7059948F6B400C3F6000050F863
:1056F000210060B1FFE701200690FFE740F25C2047
:10570000C3F600000068FFF7B9F8FFE700E0FFE725
:10571000FFE700E0FFE7FEF70FFF069808B080BD47
:1057200080B588B000200790FDF74EFD48F6AC002C
:10573000C3F60000006858B3FFE70020039006900E
:10574000059006A805A904AAFEF76EFE039B049A1D
:105750000598DDF818C06946C1F808C04860042003
:10576000086043F6A960C1F2000045F61451C1F289
:105770000001FFF70FFC014648F6B000C3F6000039
:105780000160006818B1FFE701200790FFE700E023
:10579000FFE7079808B080BD02E008C8121F08C1E3
:1057A000002AFAD170477047002001E001C1121FA2
:1057B000002AFBD170470000000000000000F03F0D
:1057C00000000000000024400000000000005940DC
:1057D0000000000000408F40000000000088C3402F
:1057E00000000000006AF8400000000080842E41A4
:1057F00000000000D01263410000000084D79741F0
:105800000000000065CDCD415D200D0A006D61698D
:105810006E207461736B20637265617465206661CC
:10582000696C6564282564292E0D0A0068656C6C16
:105830006F207468697320697320467265655254DD
:105840004F532E0D0A0068656C6C6F20776F726C79
:1058500064202D2025642E0D0A0074686973206968
:10586000732025732E0D0A0043616C6C53746163C1
:105870006B2064756D70206572726F723A202564BA
:105880000D0A0053746172740D0A0025730A002515
:10589000303858200043616C6C537461636B3A5B21
:1058A000200074657374300074657374310074651E
:1058B00073743200746573743300746573743400E8
:1058C0007465737435006D61696E5F7461736B002C
:1058D00044656661756C745F48616E646C657200E6
:1058E000486172644661756C745F48616E646C6592
:1058F000725F4C6567656E637900666E692B006642
:105900006E692D00666E69006E616E0020537461D1
:10591000636B204672616D652020200D0A002045D2
:1059200058455F52455455524E3A2030782530380C
:1059300058200D0A002052302020203D20307825AC
:10594000303858200D0A002052312020203D2030D0
:105950007825303858200D0A002052322020203D72
:1059600020307825303858200D0A0020523320206E
:10597000203D20307825303858200D0A0020523440
:105980002020203D20307825303858200D0A002076
:1059900052352020203D20307825303858200D0AFF
:1059A000002052362020203D2030782530385820E5
:1059B0000D0A002052372020203D20307825303835
:1059C00058200D0A002052382020203D2030782514
:1059D000303858200D0A002052392020203D203038
:1059E0007825303858200D0A002050432020203DD3
:1059F00020307825303858200D0A00204C522020C5
:105A0000203D20307825303858200D0A00205231B2
:105A10003020203D20307825303858200D0A0020D5
:105A200052313120203D20307825303858200D0A61
:105A3000002052313220203D203078253038582047
:105A40000D0A002050535220203D20307825303858
:105A500058200D0A0020486172644661756C7420FC
:105A6000496E666F726D6174696F6E2044756D70FA
:105A7000200D0A00436F646520537461636B2047F7
:105A8000726F77746820446F776E776172643A251D
:105A9000640D0A00436F64652054657874203A5B96
:105AA00025303858202D20253038585D2C2073693A
:105AB0007A653A25640D0A00436F6465205374616A
:105AC000636B3A5B25303858202D20253038585DDF
:105AD0002C2073697A653A25640D0A00205374619D
