:020000040800F2
:10000000A8090020A10100080D120008C501000880
:10001000ED110008ED020008C517000800000000FF
:100020000000000000000000000000002F12000887
:100030000D030008000000002D1200083112000816
:10004000BB010008BB010008BB010008BB010008A0
:10005000BB010008BB010008BB010008BB01000890
:10006000BB010008BB010008BB010008BB01000880
:10007000BB010008BB010008BB010008BB01000870
:10008000BB010008BB010008BB010008BB01000860
:10009000BB010008BB010008BB010008BB01000850
:1000A000BB010008BB010008BB010008BB01000840
:1000B000BB010008BB010008BB010008BB01000830
:1000C000BB010008BB010008BB010008BB01000820
:1000D000BB010008B5170008BB010008BB01000800
:1000E000BB010008BB010008BB010008BB01000800
:1000F000BB010008BB010008BB010008BB010008F0
:10010000BB010008BB010008BB010008BB010008DF
:10011000BB010008BB010008BB010008BB010008CF
:10012000BB010008BB010008BB010008BB010008BF
:10013000BB0100080000000000000000BB01000837
:10014000BB010008BB010008BB010008BB0100089F
:10015000BB010008BB010008BB010008BB0100088F
:10016000BB010008BB010008BB010008BB0100087F
:10017000BB010008BB0100080000000000000000F7
:10018000BB010008BB010008DFF810D000F09CF8AC
:1001900000480047E1210008AFF30080A8090020D3
:1001A0000648804706480047FEE7FEE7FEE7FEE711
:1001B000FEE7FEE7FEE7FEE7FEE7FEE7391200088E
:1001C000890100080D4B19680D4B1A681EF0040FC9
:1001D0000CBFEFF30880EFF3098088420ADB9042FE
:1001E00008DC2DE9F00F1EF0040F0CBFEFF30880C0
:1001F000EFF30980714601F0B5FD0000000000201A
:10020000040000202DE9F05F0546002092469B4641
:1002100088460646814640241BE02846414647461C
:10022000224600F041F853465A46C01A914110D375
:1002300011461846224600F028F82D1A67EB0108EF
:100240004F4622460120002100F01FF817EB00095D
:100250004E41201EA4F10104DFDC484631462A4607
:100260004346BDE8F09FD2B201E000F8012B491EE1
:10027000FBD270470022F6E710B513460A46044643
:100280001946FFF7F0FF204610BD202A04DB203A74
:1002900000FA02F1002070479140C2F1200320FAD9
:1002A00003F3194390407047202A04DB203A21FAD7
:1002B00002F00021704721FA02F3D040C2F120027F
:1002C0009140084319467047064C074D06E0E06828
:1002D00040F0010394E8070098471034AC42F6D38D
:1002E000FFF756FFDC230008FC230008024903A0A7
:1002F00001F078FA00BFFEE7A02300087468697374
:100300002069732025732E0D0A000000704700003D
:10031000034904A001F066FA72B600BFFEE70000D0
:100320004C230008746869732069732025732E0DAF
:100330000A00000070B50446A56D00F07DFA06467F
:1003400094F83500022808D08020606500BF0020A6
:1003500084F8340000BF012070BD2068006820F0E0
:100360001600216808602068406920F0800021683C
:100370004861206C08B9A06C28B12068006820F0A2
:100380000800216808602068006820F001002168EA
:10039000086010E000F050FA801B05280BD92020DF
:1003A0006065032084F8350000BF002084F8340025
:1003B00000BF0320D0E72068006800F0010000289B
:1003C000E8D194F85C103F208840A860012084F8B0
:1003D000350000BF002084F8340000BF00BFBBE739
:1003E000014691F83500022803D08020486501209D
:1003F0007047052081F835000868006820F001008A
:100400000A6810600020F3E770B5044600F014FAA3
:1004100006462546681C10B104480078054400BF14
:1004200000F00AFA801BA842FAD370BD1000002029
:100430002DE9F84306460C464FF00009C846002552
:10044000E248864217D0E248864214D0E14886420C
:1004500011D0E14886420ED0E04886420BD0E048F9
:10046000864208D0DF48864205D0DF48864202D067
:10047000DE48864200D103E0AC21DDA001F01AFC89
:10048000208880B220B120686FF30F0000B903E02C
:10049000AD21D7A001F00EFC606830B36068012880
:1004A00023D06068112820D0606802281DD06068C1
:1004B00012281AD06068B0F5881F16D06068B0F5B1
:1004C000041F12D06068B0F5441F0ED06068B0F50C
:1004D000901F0AD06068B0F5081F06D06068B0F5BC
:1004E000481F02D06068032800D103E0AE21C0A0FD
:1004F00001F0E0FB002763E1012000FA07F9206822
:1005000000EA0908C8457DD1207900F003000128E0
:1005100004D0207900F00300022823D1E06840B124
:10052000E068012805D0E068022802D0E0680328CE
:1005300000D103E0C021AEA001F0BCFBB56879009A
:100540000320884085437900E06888400543B56012
:1005500075680120B84085432079C0F30010B84089
:1005600005437560207900F00300032816D0A068C9
:1005700028B1A068012802D0A068022800D103E0B9
:10058000D1219BA001F096FBF568790003208840FB
:1005900085437900A06888400543F560207900F024
:1005A000030002287CD1206968B3206909285ED045
:1005B000206940B3206930B3206920B3206910B3AB
:1005C0002069012853D02069012850D020690228D1
:1005D0004DD0206902284AD02069022847D02069DE
:1005E000032844D02069042841D0206904283ED043
:1005F000206904283BD02069052838D020690528C7
:1006000035D001E0DBE032E0206909282FD02069F5
:1006100006282CD02069092829D02069072826D04F
:100620002069072823D02069072820D020690828BE
:100630001DD0206908281AD02069082817D0206901
:10064000092814D02069092811D020690A280ED061
:1006500020690A280BD020690C2808D020690C28B2
:1006600005D020690C2802D020690F2800D103E0B2
:10067000DE215FA001F01EFBF90806F1200050F812
:1006800021507807C10E0F20884085437907C90E95
:10069000206988400543F90806F1200040F8215000
:1006A00035687900032088408543207900F00300F5
:1006B0007900884005433560606800F440300028C8
:1006C0007DD000BF002000905848006840F4804072
:1006D000564908600846006800F48040009000BF5A
:1006E00000BF5348B90850F82150B807010F0F2038
:1006F000884085433548864201D1002023E03448B4
:10070000864201D101201EE03248864201D10220FA
:1007100019E03148864201D1032014E02F48864277
:1007200001D104200FE02E48864201D105200AE0C5
:100730002C48864201D1062005E02B48864201D193
:10074000072000E00820B907090F88400543384812
:10075000B90840F821503748056825EA080560685F
:1007600000F4801008B145EA080532480560001D14
:10077000056825EA0805606800F4001008B145EA3C
:1007800008052C48001D05602A48001F056825EA59
:100790000805606800F4003008B145EA08052548FE
:1007A000001F0560001F056825EA0805606800F461
:1007B000803008B145EA08051E48083805607F1CEE
:1007C000102FFFF499AEBDE8F8830000000002404E
:1007D0000004024000080240000C024000100240E9
:1007E0000014024000180240001C02400020024099
:1007F0002E2E2F447269766572732F53544D333207
:10080000463478785F48414C5F4472697665722F50
:100810005372632F73746D3332663478785F686116
:100820006C5F6770696F2E630000000044380240FF
:1008300008380140083C014001480068704700004A
:10084000080000200348006803490978084401496A
:1008500008607047080000201000002010B50D4807
:10086000006840F400700B4908600846006840F4D6
:10087000806008600846006840F4807008600320CB
:1008800000F0F8F80F2000F007F800F02BF8002037
:1008900010BD0000003C024070B504460E480078D0
:1008A0004FF47A71B1FBF0F00C490968B1FBF0F537
:1008B000284600F049F908B1012070BD102C07D27C
:1008C00000222146501E00F06BF80548046001E04C
:1008D0000120F2E70020F0E71000002014000020C3
:1008E0000C00002008B500BF002000900E480068F2
:1008F00040F480400C4908600846006800F48040DD
:10090000009000BF00BF00BF00200090081F0068DB
:1009100040F08050091F08600846006800F08050D1
:10092000009000BF00BF08BD4438024010B5044627
:10093000002C00DB03E0BC210AA001F0BBF920463B
:1009400000280DDB00BF00BF00F01F020121914015
:100950004209920002F1E022C2F8001100BF00BF7C
:1009600000BF10BD2E2E2F447269766572732F530F
:10097000544D3332463478785F48414C5F44726955
:100980007665722F5372632F73746D3332663478C9
:10099000785F68616C5F636F727465782E630000C6
:1009A0002DE9F05F80460C4615460027102D00D239
:1009B00003E0A82120A001F07DF9102C00D203E073
:1009C000A9211DA001F076F900F01CFF0746394669
:1009D00022462B4601F00700C0F1070ABAF1040FC6
:1009E00002D94FF0040A01E0C0F1070AD14600F134
:1009F000040ABAF1070F02D24FF0000A01E0A0F199
:100A0000030AD4464FF0010A0AFA09FAAAF1010AC8
:100A10000AEA020A0AFA0CFA4FF0010B0BFA0CFB75
:100A2000ABF1010B0BEA030B4AEA0B0631464046D9
:100A300000F0F0FEBDE8F09F2E2E2F44726976651F
:100A400072732F53544D3332463478785F48414C9B
:100A50005F4472697665722F5372632F73746D33BE
:100A600032663478785F68616C5F636F7274657842
:100A70002E63000010B50446072C07D0062C05D0C5
:100A8000052C03D0042C01D0032C00D103E09021CD
:100A900009A001F00FF900BF04F00701154A106822
:100AA0004FF6FF021040144A024342EA0120114A65
:100AB000106000BF10BD00002E2E2F4472697665B5
:100AC00072732F53544D3332463478785F48414C1B
:100AD0005F4472697665722F5372632F73746D333E
:100AE00032663478785F68616C5F636F72746578C2
:100AF0002E6300000CED00E00000FA0501480068DC
:100B0000704700001400002000B5FFF7F7FF04490C
:100B10000968C1F38221034A515CC84000BD00004E
:100B200008380240D423000800B5FFF7E7FF044966
:100B30000968C1F34231034A515CC84000BD00005E
:100B400008380240D423000870B504462546681EC4
:100B5000B0F1807F01D301200FE0681E4FF0E0214B
:100B600048610F214FF0FF3000F054FE00204FF09D
:100B7000E021886107200861002070BD7047704740
:100B80002DE9F84F0446206805682068C66820688B
:100B900047694FF00009CA4605F00F09B9F1000F87
:100BA0000AD105F0200038B106F0200020B120461F
:100BB00000F09CFBBDE8F88FB9F1000F7CD007F086
:100BC000010018B906F49070002875D005F00100F6
:100BD00030B106F4807018B1606C40F001006064C0
:100BE00005F0040030B107F0010018B1606C40F06E
:100BF0000200606405F0020030B107F0010018B196
:100C0000606C40F00400606405F0080048B106F034
:100C1000200010B907F0010018B1606C40F0080026
:100C20006064606C002846D005F0200028B106F012
:100C3000200010B1204600F059FB20684069C0F345
:100C4000801A606C00F0080010B9BAF1000F2DD0C6
:100C5000204600F005FB2068406900F04000402875
:100C600020D100BF00BF2168143151E8001F21F0DE
:100C700040002168143141E80002002AF3D100BF8E
:100C8000E06B50B17748E16B0865E06BFFF7A8FBBC
:100C900088B1E06B016D88470DE02046FFF76FFFDC
:100CA00009E009E02046FFF76AFF04E02046FFF76D
:100CB00066FF002060647DE7206B012878D105F095
:100CC0001000002874D006F010000028FAD000BFF1
:100CD0000020009020680068009020684068009024
:100CE00000BF00BF2068406900F04000402860D18C
:100CF000E06B006840681FFA80F8B8F1000F56D02A
:100D0000A08D404553DDA4F82E80E06BC069B0F59E
:100D1000807F43D000BF00BF21680C3151E8001F25
:100D200021F4807021680C3141E80002002AF3D1DF
:100D300000BF00BF00BF2168143151E8001F21F03F
:100D400001002168143141E80002002AF3D100BFFC
:100D500000BF00BF2168143151E8001F21F040009E
:100D60002168143141E80002002AF3D100BF20209D
:100D700084F842000020206300BF00BF21680C31CE
:100D800051E8001F21F0100021680C3141E80002F9
:100D9000002AF3D100BFE06BFFF7CCFA02206063BA
:100DA000A08DE28D801A81B22046FFF7E7FE01E7B1
:100DB00042E0A08DE18D401A1FFA80F8E08DD0B39B
:100DC000B8F1000F37D000BF00BF21680C3151E8E7
:100DD000001F21F4907021680C3141E80002002AC4
:100DE000F3D100BF00BF00BF2168143151E8001FDC
:100DF00021F001002168143141E80002002AF3D1FA
:100E000000BF202084F842000020206300BF00BF04
:100E100021680C3151E8001F21F0100021680C31CD
:100E200041E80002002AF3D100BF0220606341467E
:100E30002046FFF7A3FEBDE605F0800030B106F0C6
:100E4000800018B1204600F03FFCB3E605F04000FA
:100E500030B106F0400018B1204600F037FAA9E69C
:100E600000BFA7E64D12000810B504460CB90120DA
:100E700010BDA06900282AD04949206888420BD0BB
:100E800048492068884207D047492068884203D0F3
:100E900046492068884200D104E040F2731144A022
:100EA00000F008FFA06958B1A069B0F5807F07D0B5
:100EB000A069B0F5007F03D0A069B0F5407F00D1F4
:100EC00023E04FF4BA713AA000F0F4FE1DE034497B
:100ED0002068884213D03349206888420FD03249B5
:100EE000206888420BD041492068884207D0404999
:100EF0002068884203D02D492068884200D104E050
:100F00004FF4BC712AA000F0D5FEA06818B1A0680B
:100F1000B0F5805F00D104E04FF4BD7124A000F073
:100F2000C9FEE06918B1E069B0F5004F00D104E0F6
:100F300040F27B111EA000F0BDFE94F8410028B9DC
:100F4000002084F84000204600F054F8242084F863
:100F500041002068C06820F400502168C860204625
:100F600000F042FA2068006920F49040216808618E
:100F70002068406920F02A00216848612068C06824
:100F800040F400502168C86000206064202084F88C
:100F9000410084F842000020606300BF68E7000061
:100FA000001001400044004000480040001401408F
:100FB0002E2E2F447269766572732F53544D33323F
:100FC000463478785F48414C5F4472697665722F89
:100FD0005372632F73746D3332663478785F68614F
:100FE0006C5F756172742E6300000000004C00405D
:100FF0000050004010B586B00446142101A8FFF748
:1010000039F91F492068884238D100BF002000907C
:101010001C48006840F010001A4908600846006843
:1010200000F01000009000BF00BF00BF0020009043
:1010300014481438006840F001001249143908605F
:101040000846006800F00100009000BF00BF4FF4A8
:10105000C0600190022002900020039003200490C1
:101060000720059001A90848FFF7E2F90022114680
:101070002520FFF795FC2520FFF758FC06B010BD92
:1010800000100140443802400000024070472DE942
:10109000F84F04460E46174699464FF0000A94F85A
:1010A0004100202850D106B117B90120BDE8F88FC2
:1010B00000206064212084F84100FFF7BDFB8246D8
:1010C000A784E784A068B0F5805F04D1206910B9D7
:1010D0000025B04602E035464FF000081EE05346BA
:1010E000002280212046CDF8009000F01DFB20B1A9
:1010F000202084F841000320D8E745B9B8F8000063
:10110000C0F308002168486008F1020803E028786D
:10111000216848606D1CE08C401EE084E08C002853
:10112000DDD15346002240212046CDF8009000F04A
:10113000FBFA20B1202084F841000320B6E72020EC
:1011400084F841000020B1E70220AFE770470000BB
:1011500008B500BF002000901548006840F004006A
:10116000134908600846006800F00400009000BFC2
:1011700000BF00BF002000900846006840F08000DB
:1011800008600846006800F08000009000BF00BFC3
:1011900000BF002000900846006840F00100086091
:1011A0000846006800F00100009000BF00BF08BDC5
:1011B0003038024010B50B480B4908604FF4E1305D
:1011C0004860002108488160C16001610C214161D3
:1011D00000218161C161FFF747FE08B1FFF798F870
:1011E00010BD0000001001401C000020024903A0B7
:1011F00000F0F8FA00BFFEE78E23000874686973F8
:101200002069732025732E0D0A000000024903A0F7
:1012100000F0E8FA00BFFEE768230008746869730D
:101220002069732025732E0D0A0000007047704757
:1012300010B5FFF707FB10BD0348006840F47000CD
:10124000014908607047000088ED00E070B5054670
:10125000AC6B0020E085E0842046FFF790FC70BD79
:1012600000BF00BF02680C3252E8002F22F49071D8
:1012700002680C3242E80013002BF3D100BF00BF1C
:1012800000BF0268143252E8002F22F00101026808
:10129000143242E80013002BF3D100BF016B012987
:1012A0000ED100BF00BF02680C3252E8002F22F0BE
:1012B000100102680C3242E80013002BF3D100BF8A
:1012C000202180F8421000210163704710B50446C8
:1012D0002068C06820F040002168C860202084F8A1
:1012E00041002046FFF732FF002010BDF8B504464C
:1012F00094F84200222875D1A068B0F5805F0CD127
:10130000206950B90025A66A20684068C0F308002B
:101310003080A06A801CA06215E0A56A0026A06843
:10132000B0F5805F03D0A06828B9206918B920689B
:101330004068287004E02068406800F07F00287052
:10134000A06A401CA062E08D401E80B2E0850028AB
:1013500046D12068C06820F020002168C86020685D
:10136000C06820F480702168C8602068406920F05F
:10137000010021684861202084F842000020606359
:10138000206B012826D10020206300BF00BF216808
:101390000C3151E8001F21F0100021680C3141E8A8
:1013A0000002002AF3D100BF2068006800F010009E
:1013B00010280AD100BF002000902068006800902B
:1013C00020684068009000BF00BFA18D2046FFF755
:1013D000D5FB02E02046FFF759FE0020F8BD01E0F2
:1013E0000020FBE70220F9E72DE9FC5F0446A44951
:1013F0006068884200D804E040F67561A1A000F062
:1014000059FCE06818B1E068B0F5005F00D104E075
:1014100040F676619BA000F04DFC206938B1206950
:10142000B0F5806F03D02069B0F5C06F00D104E043
:1014300040F6776193A000F03DFC4FF6F3716069D0
:10144000084010B9606900B104E040F678618DA0F1
:1014500000F030FC2068006920F44050E168084347
:10146000216808612169A068084361690843E1694E
:1014700040EA010A2068C06849F20C61884340EAEA
:101480000A002168C8602068406920F44070A169A2
:101490000843216848618A492068884203D0894905
:1014A0002068884203D1FFF73FFB814602E0FFF747
:1014B0002BFB8146E069B0F5004F70D102206168D6
:1014C000A0FB015003461920A9FB00712A463846AB
:1014D000FEF798FE6421B0FBF1F00701022061687D
:1014E000A0FB015003461920A9FB00B001462A4683
:1014F0005846FEF787FE804602206168A0FB015136
:101500001920A9FB00B084462A460B46584661467E
:10151000FEF778FE6421B0FBF1F000EBC00101EBB7
:101520000010A8EB8000322101EBC0006421B0FB69
:10153000F1F000F0F80007EB400702206168A0FB23
:10154000015003461920A9FB00B001462A4658461F
:10155000FEF758FE804602206168A0FB0151192069
:10156000A9FB00B084462A460B4658466146FEF762
:1015700049FE6421B0FBF1F000EBC00101EB00106B
:10158000A8EB8000322101EBC0006421B0FBF1F038
:1015900000F007003844216888606FE0FFE704200E
:1015A0006168A0FB015003461920A9FB00700146A9
:1015B0002A463846FEF726FE834604206168A0FBD3
:1015C000015003461920A9FB007001462A463846FF
:1015D000FEF718FE6421B0FBF1F000EBC00101EB57
:1015E0000010ABEB8000322101EB00106421B0FB56
:1015F000F1F000F0F00B04206168A0FB015119200C
:10160000A9FB007080462A460B4638464146FEF745
:10161000F9FD6421B0FBF1F00BEB001B04206168C5
:10162000A0FB01511920A9FB007080462A460B46F9
:1016300038464146FEF7E6FD074604206168A0FBF8
:1016400001510B461920A9FB00012A46CDE90001F2
:10165000FEF7D8FD6421B0FBF1F000EBC00101EB17
:101660000010A7EB8000322101EB00106421B0FBD9
:10167000F1F000F00F00584421688860BDE8FC9F3D
:10168000A037A0002E2E2F447269766572732F53F7
:10169000544D3332463478785F48414C5F44726928
:1016A0007665722F5372632F73746D33326634789C
:1016B000785F68616C5F756172742E630000000072
:1016C0000010014000140140014691F8410021281A
:1016D00028D18868B0F5805F0BD1086948B90A6ADB
:1016E0001088C0F308000B685860086A801C086204
:1016F00005E00B6A581C086218780B685860C88CA3
:10170000401E80B2C88458B90868C06820F08000C4
:101710000B68D8600868C06840F040000B68D8606B
:10172000002070470220FCE72DE9F84304460D46EF
:1017300017469846089E31E0701C70B3FFF77CF89E
:10174000A0EB0800B04200D816B90320BDE8F8832A
:101750002068C06800F00400F8B1802D1ED0402D34
:101760001CD020680068C0F3C000B0B100BF0020EA
:10177000009020680068009020684068009000BFDA
:1017800000BF2046FFF76CFD0820606400BF00200A
:1017900084F8400000BF0120D8E7FFE72068006818
:1017A0002840A84201D1012000E00020B842C3D067
:1017B0000020CBE710B50248FFF7E2F910BD0000AA
:1017C0001C000020024903A000F00CF800BFFEE757
:1017D000B1230008746869732069732025732E0D86
:1017E0000A0000000FB4054B10B503A9044A029883
:1017F00000F034F810BC5DF814FB0000C5210008AF
:101800001800002002480068C0F302207047000062
:101810000CED00E010B5002804DB0A07130E054AA2
:10182000135406E00A07140E034A00F00F031B1FAF
:10183000D45410BD00E400E018ED00E002E008C858
:10184000121F08C1002AFAD170477047002001E03A
:1018500001C1121F002AFBD1704700002DE9FF4F84
:101860008DB00F460546002606E025280BD0DDE9A1
:101870000F1290476D1C761C28780028F5D111B006
:101880003046BDE8F08F0024A246A1460122E94976
:1018900000E0044315F8013F203B02FA03F0084240
:1018A000F7D128782A2810D06FF02F022878A0F1DD
:1018B0003001092914D80AEB8A0102EB410144F0F6
:1018C000020400EB010A6D1CF0E701CF5FEA000A99
:1018D00003D544F40054CAF1000A44F002046D1C1C
:1018E00028782E2817D115F8010F44F004042A286F
:1018F0000ED06FF02F022878A0F1300109290AD804
:1019000009EB890102EB410100EB01096D1CF2E7D3
:1019100057F8049B6D1C28786C280FD006DC4C28E7
:1019200017D068280DD06A2814D104E0742810D08C
:101930007A280FD10DE044F400140AE044F4801436
:1019400001E044F440146978814202D104F5801426
:101950006D1C6D1C28786E281ED00CDC632830D0DE
:1019600004DC00288BD0582811D19FE0642867D070
:1019700069280CD164E073282DD004DC6F2872D064
:10198000702804D194E075286ED078286DD0DDE9F8
:101990000F129047761C4BE1C4F30250022806D088
:1019A000032809D0042801CF09D0066040E101CF07
:1019B000F117C0E900613BE101CF068038E1067014
:1019C00036E117F8040B8DF8000000208DF80100B7
:1019D000EB46012003E057F804BB4FF0FF306107EE
:1019E0004FF0000102D40DE008F10101884649459D
:1019F0000FDA8045F8DB1BF808100029F4D108E065
:101A000008F1010188468142FADB1BF80810002921
:101A1000F6D1DDE90F23AAEB08008146214600F04C
:101A200031F9304400EB080604E0DDE90F121BF841
:101A3000010B9047B8F10108F7D221464846F2E081
:101A40000A21C4F302524FF0000B0891022A04D07D
:101A500001CFC117032A09D00AE0FF1D27F00707AD
:101A6000F7E8020108E02CE01EE01FE000B2C11719
:101A7000042A01D140B2C117021E71F1000206DA38
:101A80000023D0EB030063EB01012D2202E02205CD
:101A900004D52B228DF82420012203E0E20701D097
:101AA0002022F7E7904653E00A210BE0102109E0DD
:101AB00010214FF0000B44F004044FF00809089186
:101AC00003E008214FF0000B0891C4F30252022AF0
:101AD00004D001CF0021032A06D006E0FF1D27F025
:101AE0000707F7E8020103E080B2042A00D1C0B280
:101AF0004FF0000822072BD52A78702A07D0DDF88E
:101B000020C08CF0100C5CEA0B0C05D00EE04022DB
:101B10008DF82420012208E050EA010306D030238A
:101B20008DF824308DF8252002229046089B83F002
:101B3000080353EA0B030BD150EA010201D16207FB
:101B400006D530228DF824204FF00108A9F10109B3
:101B50002A78582A04D038A20B9208AA0A920BE0DD
:101B60003AA2F9E75B46089AFEF74CFB0B9B9B5C9D
:101B70000A9A521E0A92137050EA0102F2D10A9890
:101B8000ADEB000000F1200B600702D524F4803497
:101B900001E04FF00109D94502DDA9EB0B0000E09F
:101BA000002000EB0B0141440890AAEB010AE0037E
:101BB00006D4DDE90F232146504600F063F80644C1
:101BC0004FF0000908E009A911F80900DDE90F123A
:101BD000904709F10109761CC145F4DBE0030CD5FF
:101BE000DDE90F232146504600F04CF8064404E09E
:101BF000DDE90F1230209047761C0899481E0890A6
:101C00000029F5DC08E00A980A990078491C0A9135
:101C1000DDE90F129047761CBBF10001ABF1010B1F
:101C2000F1DC21465046DDE90F2300F019F80644A7
:101C30006D1C21E609280100303132333435363746
:101C40003839616263646566000000003031323308
:101C500034353637383941424344454600000000A8
:101C60002DE9F041044600251E461746880404D499
:101C700005E039462020B0476D1C641EF9D5284682
:101C8000BDE8F0812DE9F041044600251E4690464E
:101C9000C80301D5302700E02027880404D505E0DB
:101CA00041463846B0476D1C641EF9D52846BDE84C
:101CB000F081000070B504460D46024902A0FFF70E
:101CC00091FD70BD5A230008746869732069732000
:101CD00025732E0D0A0000002DE9F05F06460F4621
:101CE0009046994600250024A346A24606B11FB996
:101CF0004FF0FF30BDE8F09FC84502D96FF00100FA
:101D0000F8E7C24625E0DAF800401448844203D3DD
:101D100013490844A04200D219E004F0010000B9C0
:101D200015E0641E241F04F0010000B10FE02046FE
:101D300000F0FEF98346584600F070FA00B906E05C
:101D400046F825406D1CBD4200D304E000BF0AF1F7
:101D5000040ACA45D7D900BF2846CBE700000008CF
:101D6000FC23000005460F464FF0000800262C46D5
:101D700001CC5249086001CC486001CC886001CC9C
:101D8000C86001CC086101CC486101CC886101CCFC
:101D9000C86101CC086202CC4848416202CC816231
:101DA00002CCC16202CC016302CC416302CC8163EC
:101DB0002168C16342A0FFF715FD42A0FFF712FDA5
:101DC00048A0FFF70FFD3D48016A4BA0FFF70AFD51
:101DD0003A48416A4DA0FFF705FD3848816A50A096
:101DE000FFF700FD3548C16A52A0FFF7FBFC3348FE
:101DF000016855A0FFF7F6FC3048416857A0FFF78F
:101E0000F1FC2E4881685AA0FFF7ECFC2B48C16812
:101E10005CA0FFF7E7FC294801695FA0FFF7E2FC3F
:101E20002648416961A0FFF7DDFC2448816964A070
:101E3000FFF7D8FC2148C16966A0FFF7D3FC1F4813
:101E4000016B69A0FFF7CEFC1C48416B6BA0FFF74C
:101E5000C9FC1A48816B6EA0FFF7C4FC1748C16B20
:101E600070A0FFF7BFFC16A0FFF7BCFC394672A0BC
:101E7000FFF7B8FC102676487649431805EB860232
:101E800040217548FFF728FF804674A0FFF7AAFCA1
:101E90000A48816B75A0FFF7A5FC002606E06E4896
:101EA00050F8261071A0FFF79DFC761C4645F6DB26
:101EB00003A0FFF797FC00BFFEE7000064000020CE
:101EC0000D0A000020486172644661756C742049F7
:101ED0006E666F726D6174696F6E2044756D7020EF
:101EE0000D0A000020537461636B204672616D65BA
:101EF0002020200D0A0000002052302020203D200C
:101F0000307825303858200D0A000000205231204A
:101F100020203D20307825303858200D0A00000060
:101F20002052322020203D20307825303858200D96
:101F30000A0000002052332020203D203078253038
:101F40003858200D0A0000002052342020203D2067
:101F5000307825303858200D0A00000020523520F6
:101F600020203D20307825303858200D0A00000010
:101F70002052362020203D20307825303858200D42
:101F80000A0000002052372020203D2030782530E4
:101F90003858200D0A0000002052382020203D2013
:101FA000307825303858200D0A00000020523920A2
:101FB00020203D20307825303858200D0A000000C0
:101FC0002052313020203D20307825303858200DE7
:101FD0000A0000002052313120203D203078253089
:101FE0003858200D0A0000002052313220203D20B8
:101FF000307825303858200D0A000000204C52203F
:1020000020203D20307825303858200D0A0000006F
:102010002050432020203D20307825303858200D96
:102020000A0000002050535220203D2030782530F7
:102030003858200D0A000000204558455F5245548D
:1020400055524E3A20307825303858200D0A00007D
:10205000A801002000080000A400002020537461A3
:10206000636B2043616C6C3A2000000025303858C7
:102070002000000010B50E480E4908600E490844C3
:102080000E4908600A480C4942180B4601460CA04C
:10209000FFF7A8FB1348144942180B46014613A04A
:1020A000FFF7A0FB01211AA0FFF79CFB10BD000069
:1020B000A80100200000002000080000040000200B
:1020C000436F646520537461636B3A5B2530385805
:1020D000202D20253038585D2C2073697A653A25EB
:1020E000640D0A0000000008FC230000436F6465D3
:1020F0002054657874203A5B25303858202D2025EF
:102100003038585D2C2073697A653A25640D0A00D1
:10211000436F646520537461636B2047726F7774FB
:102120006820446F776E776172643A25640D0A0007
:1021300018B5014600200090002200BF04E031F8ED
:1021400010302DF81030401C0228F8D3BDF80000E4
:10215000BDF8023040EA0342104618BD38B50024ED
:10216000002000900F48006840F008000D4908600A
:1021700000BF2068009021460BA0009AFFF732FBB9
:10218000042420680090214607A0009AFFF72AFB4C
:10219000032420680090214603A0009AFFF722FB49
:1021A00038BD000014ED00E0616464723A307825B7
:1021B0003032582D76616C75653A30782530385854
:1021C0000D0A000013B50C464FF6FF730122694655
:1021D0000248FEF75CFF00981CBD00001C000020B8
:1021E000FEF73CFBFEF7B4FFFEF7E4FFFFF742FF0C
:1021F00000F088F807E004A107A0FFF7F3FA4FF416
:102200007A70FEF701F9F6E768656C6C6F2071650E
:102210006D752E0D0A00000025730000014601F4C3
:1022200078424FF4784000EA1143B2F5704F02D083
:10223000B2F5784F01D101207047B3F5704F02D04D
:10224000B3F5784F01D10120F6E70020F4E7000054
:1022500010B5034903A0FFF7C5FAFFF77FFF10BDD4
:1022600028230008746869732069732025732E0D74
:102270000A00000010B5034903A0FFF7B3FAFFF707
:10228000E7FF10BD2E23000874686973206973206E
:1022900025732E0D0A00000010B5034903A0FFF7B7
:1022A000A1FAFFF7E7FF10BD3423000874686973D3
:1022B0002069732025732E0D0A00000010B5034914
:1022C00003A0FFF78FFAFFF7E7FF10BD3A230008DE
:1022D000746869732069732025732E0D0A0000004D
:1022E00010B5034903A0FFF77DFAFFF7E7FF10BD24
:1022F00040230008746869732069732025732E0DCC
:102300000A00000010B5034903A0FFF76BFAFFF7BE
:10231000E7FF10BD462300087468697320697320C5
:1023200025732E0D0A000000746573743000746507
:1023300073743100746573743200746573743300A0
:102340007465737434007465737435004572726F0C
:10235000725F48616E646C6572006173736572745C
:102360005F6661696C6564004E4D495F48616E64EB
:102370006C657200486172644661756C745F486197
:102380006E646C65725F4C6567656E6379004D6560
:102390006D4D616E6167655F48616E646C6572006A
:1023A0004275734661756C745F48616E646C6572EA
:1023B0000055736167654661756C745F48616E6452
:1023C0006C657200000000000000000001020304C0
:1023D000060708090000000001020304FC230008AE
:1023E000000000201C0000003C1800081824000811
:1023F0001C0000208C0900004C18000800000000A0
:1024000000000000000000001000000001000000BB
:082410000024F40000000000AC
:040000050800018965
:00000001FF
