:020000041000EA
:10000000C0980038E9420010C329001011430010C5
:10001000C3290010C3290010C3290010C3290010F0
:100020000000000000000000000000002D4500104E
:10003000C329001000000000E9440010ED2C00105E
:10004000C3290010C3290010C3290010C3290010C0
:10005000C3290010C3290010C3290010C3290010B0
:10006000C3290010C3290010000000000000000098
:100070000000000000000000000000000000000080
:100080000000000000000000000000000000000070
:100090000000000000000000000000000000000060
:1000A0000000000000000000000000000000000050
:1007C00010B50400642000F089F9174801F0C8FE54
:1007D000F8E73EB501241548019001200090002360
:1007E0004FF400621249134800F0B3F80500012DE0
:1007F00002D100F0C8F903E029000F4801F0B0FE73
:1008000037BD10B5002401F0F2FE0C4801F0A8FE3F
:1008100001F012FFFFF7DDFF00BF2100084801F0E3
:100820009FFE641CF8E70000244700104088003851
:10083000344A0010C107001004460010404A00105E
:10084000A84800102DE9F34F85B093461E00119C77
:10085000129D002D1ED0002C1CD02F005FF04C08E4
:100860005FF00009BA464A464146504602F076F823
:100870003C63022087F849000020039002971398F8
:1008800001901098009033005A460699059800F0A0
:100890007CF800E00027380007B0BDE8F08F2DE9B4
:1008A000F84185B005000E0017009846002004901E
:1008B00004A803900E9802900D9801900C98009057
:1008C00043463A0031002800FFF7BCFF0400002C2B
:1008D00002D0200000F0ABF8049806B0BDE8F0812B
:1008E0002DE9F14F84B08B4616001F00B00002F0D6
:1008F00069F80500002D15D04C2002F063F80400C3
:10090000002C0BD05FF04C085FF00009A2464A466D
:100910004146504602F022F8256304E0280002F028
:10092000CBF800E00024002C0FD0002084F8490010
:100930000020039002940F9801900E9800903B00C5
:1009400032005946049800F020F8200005B0BDE8B8
:10095000F08F2DE9FC4105000E001700984609981C
:1009600001900898009043463A0031002800FFF7B4
:10097000B7FF0400002C04D0200000F058F801203C
:1009800001E05FF0FF30BDE8F6812DE9F94F81B05D
:100990000C0091460C9E0D9D0E9F5FEA8900009011
:1009A0005FF0A50BD7F830A05A460099504601F0E9
:1009B000D5FF386B00EB8900B0F1040A5FEADA0A70
:1009C0005FEACA0A002C14D000208046B8F1040F58
:1009D0000CD214F8081007EB080080F8341014F853
:1009E0000800002802D018F10108EFE7002087F87E
:1009F0003700052E01D304200600FE62BE63381DB9
:100A000002F001F917F1180002F0FDF83F61D6F18C
:100A10000500B8617F62029B019A396B504602F073
:100A200081F93860002D00D02F60BDE8F78F70B5D8
:100A3000040002F043F9DFF85C130868401C08600A
:100A4000DFF854532868002806D12C600868012874
:100A50000DD100F0DFFB0AE0DFF84003006800285A
:100A600005D1E06A2968C96A884200D32C60DFF8A2
:100A700030130868401C0860DFF828030168E26A48
:100A8000914201D2E16A01601C20DFF81C13E26A86
:100A900042430A445668A660B268E260231DB26809
:100AA0005360221DB260E26A42430A446261E26A14
:100AB0004243E36A00FB03F00858401C885002F0F0
:100AC00009F9DFF8D8020068002806D02868C06A53
:100AD000E16A884201D202F0E7F870BD38B505003E
:100AE0000024002D08D000F071F80021280000F04B
:100AF00057FC00F095F80400002C01D102F0D4F866
:100B000031BD2DE9F84187B0012400250026042ECF
:100B100009DA06A8DFF8F816895D8155805D00289E
:100B200001D0761CF3E70027012F28DA0FF24D6081
:100B30000500002004900020039005AA03A904A842
:100B400000F07FFCDFF86087049802900398019022
:100B5000002000900023059A06A92800FFF79FFEB9
:100B600048F8270058F82700002802D00120040088
:100B700001E000200400002C01D07F1CD4E72000FD
:100B800008B0BDE8F08110B5FFF7BBFF0400012CF1
:100B900002D102F033F90400012C10D103F092FCD1
:100BA0005FF0FF31DFF8040701600121DFF8EC019D
:100BB00001600021DFF8F403016002F0F7F8DFF8CC
:100BC000E806DFF84007006810BD0000DFF8E81510
:100BD0000868401C086070470021DFF8C801006801
:100BE000002801D001200100DFF8AC010068C06AD4
:100BF000002801D0002011E0DFF8AC0100680228D5
:100C000001D300200AE0002901D0002006E0DFF82F
:100C10009C060068DFF898261268801A704700006A
:100C20002DE9F0410025002702F048F80026DFF802
:100C300088150868401E08600868002840F0858014
:100C4000DFF850010068002800F07F80DFF8D01244
:100C50000868002854D0C868C0680500A86A2A6AD5
:100C6000E9698A60EA69296A4A60416815F11802EF
:100C7000914201D1296A41600021A9620168491E9F
:100C800001606869EA68A9688A60AA68E9684A60D8
:100C90004268291D8A4201D1E968416000216961E9
:100CA0000168491E01603F480268E96A8A4201D230
:100CB000E96A01603C481C21EA6A4A4302445268DE
:100CC000AA609368EB602C1D93685C602B1D936099
:100CD000EB6A4B4303446B61EB6A4B43EC6A01FBE9
:100CE00004F14158491CC1502B480068C16AE86AA8
:100CF0008142ABD20121DFF8C40440F82610A5E7F9
:100D0000002D01D000F0EBFADFF87C86D8F8004027
:100D1000002C0ED000F04AF8002804D00121DFF8A2
:100D20009C0440F82610641E002CF3D10020C8F863
:100D30000000DFF8880450F82600002805D00120C4
:100D400007001548006801F0AFFF01F0C3FF38004D
:100D5000BDE8F081DFF85805006870470D4800686D
:100D6000704770B50400DFF844522E68A619DFF80A
:100D70003C050068864209D101F0A0FFDFF80816A3
:100D80000868401C086001F0A5FF641E2868201850
:100D9000286070BD5C8800384C880038688800384E
:100DA0007888003864880038B48500382DE9F0412F
:100DB0000026DFF804040068002840F0A5807B4886
:100DC0000468641C0460002C0ED15348D0F80080E5
:100DD00052490A680260C1F80080DFF8B01508685F
:100DE000401C086000F07BFADFF8C01408688442F9
:100DF00075D3494A10680068002803D15FF0FF30BE
:100E000008606CE01068C068C0680700786805007A
:100E1000AC4201D20D6062E07869FA68BB689A6002
:100E2000BB68FA68536043683A1D934201D1FA687F
:100E3000426000227A610268521E0260B86A00288D
:100E400012D0B86A3B6AFA699360FA693B6A5A60E1
:100E5000436817F11802934201D13A6A42600022B6
:100E6000BA620268521E0260DFF824050368FA6A5B
:100E7000934201D2FA6A0260DFF818051C22FB6A6D
:100E8000534303445B68BB60D3F808C0C7F80CC089
:100E900017F1040ED3F808C0CCF804E017F1040CE5
:100EA000C3F808C0D7F82CC002FB0CFC8444C7F878
:100EB00014C0D7F82CC002FB0CFCD7F82CE002FBC6
:100EC0000EF28258521C40F80C20DFF8CC04006867
:100ED000C26AF86A82428CD20120060089E7DFF8F4
:100EE000B414DFF8B4040068C26A1C204243885876
:100EF000022801D301200600DFF8C00200680028A4
:100F000007D00120060004E0DFF87C140868401CCC
:100F100008603000BDE8F0815088003854880038FF
:100F2000AC87003810B4DFF890020068002804D0C5
:100F30000121DFF88802016025E00021DFF87C0252
:100F40000160DFF84C140A681C23DFF8484403FBF7
:100F500002F02058002801D1521EF5E703FB02F3EE
:100F600004EB030043685B684360446810F10803C6
:100F70009C4201D1C3684360DFF81C344068C068FC
:100F800018600A60186810BC7047000038B504008B
:100F90000D00DFF80404006810F11801200001F0D2
:100FA00035FE0121280000F0FBF931BD60880038D2
:100FB00070B505000E0014006868DFF8DC130A68DD
:100FC000D06183680A6813620A6812F118038268A4
:100FD00053600A681832826009688D622968491C6A
:100FE0002960002C02D05FF0FF30060021003000A5
:100FF00000F0D6F970BD70B50400E068C568A86A55
:101000002A6AE9698A60EA69296A4A60426815F1D0
:1010100018018A4201D1296A41600021A962016850
:10102000491E016064480068002837D16869EA6891
:10103000A9688A60AA68E9684A604268291D8A42EC
:1010400001D1E9684160002169610168491E0160C0
:10105000DFF83C030268E96A8A4201D2E96A01606A
:10106000DFF830031C21EA6A4A4302445668AE6046
:10107000B268EA602B1DB26853602A1DB260EA6A4A
:101080004A4302446A61EA6A4A43EB6A01FB03F19C
:101090004158491C815000F022F910E0DFF8FC02B1
:1010A0004168E9618A682A6215F118038A68536009
:1010B00015F118028A60A8620268521C0260DFF80B
:1010C000D8020068C06AE96A884205D2012001227C
:1010D000DFF88C130A6000E0002070BDDFF8AC126E
:1010E00009680160DFF87C130968416070472DE9E9
:1010F000F04104000D0001F0E1FD6D4806686768ED
:10110000F71BDFF89412086890F84A00002806D010
:101110000020096881F84A005FF0010824E028688F
:1011200010F1010F02D15FF000081DE0DFF8380375
:1011300001682068814207D06068864204D35FF06E
:101140000108002028600FE02868874208D228683C
:10115000C01B28602000FFF7C1FF5FF0000803E01C
:10116000002028605FF0010801F0B4FD4046BDE8B2
:10117000F0810121DFF8E8020160704770B50400DA
:1011800000F073F8DFF8E4020068022801D301F0F0
:101190008BFDFFF721FD0600022EF1D3FFF716FDB0
:1011A000FFF71AFD0500022D02D3280001F0E0FF31
:1011B000FFF736FDE4E700008488003870880038C7
:1011C00001220120DFF8D4110968002902D0002192
:1011D00008001AE0DFF888120968002902D000210F
:1011E000080012E0DFF8A0110968002902D00021F0
:1011F00008000AE0DFF878120968DFF878321B6827
:101200009B1A994201D102210800C0B27047000028
:10121000604A001070B50024052C09D2DFF8741163
:101220001C2000FB04F0084401F0DAFC641CF3E726
:10123000DFF84462300001F0D3FCDFF840522800B0
:1012400001F0CEFCDFF8540101F0CAFCDFF83002F7
:1012500001F0C6FCDFF8180201F0C2FCDFF824023E
:101260000660DFF82402056070BD38B5DFF81C5257
:101270002868002817D001F021FDDFF80402C068BB
:10128000C0680400201D01F0DCFCDFF8E8110868EC
:10129000401E08602868401E286001F01BFD2000E9
:1012A00000F008F8E2E731BD808800387C8800381B
:1012B0006088003810B5040094F84900002806D171
:1012C000206B01F0F9FB200001F0F6FB06E094F83A
:1012D0004900012802D1200001F0EEFB10BDDFF82B
:1012E000A41108680068002805D15FF0FF31DFF81D
:1012F000A401016005E00868C0680168DFF8940196
:101300000160704704000038F8B50400250000268D
:10131000002C37D0E86B401EE863E96AA86B814275
:1013200030D0E86B00282DD1281D01F08AFCA86B75
:10133000E862E86AD0F10500A861DFF854000268AD
:10134000E96A8A4201D2E96A01601C20DFF81C11B7
:10135000EA6A42430A445268AA609368EB602F1D10
:1013600093685F602B1D9360EB6A43430B446B6192
:10137000EB6A4343EF6A00FB07F00858401CC85073
:10138000012006003000F2BD6C88003874880038F7
:1013900064880038B48500384C880038AC87003841
:1013A0002DE9F04782460C002E480668354807684C
:1013B0003548D0F80080DFF8D8900021D9F8000037
:1013C00080F84A10D9F80000001D01F03AFC1AF12B
:1013D000010F1AD1002C18D025484168D9F80020F7
:1013E00091608B68D9F80020D360D9F80020131DD4
:1013F0008A685360D9F80020121D8A60D9F800204D
:1014000050610268521C026019E01AEB06000500E8
:10141000D9F800004560B54206D2D9F80000011D98
:10142000404601F0F3FB0AE0D9F80000011D380046
:1014300001F0ECFB17490868854200D20D60BDE859
:10144000F087154B0360154B0B60802313607047CA
:10145000134B0360134B0B60802313607047000035
:10146000708800386088003874880038B485003887
:10147000E48700385C88003874870038908700382B
:10148000C887003850880038548800385888003899
:101490004C8800387C8800389C86003814800038DE
:1014A000E8860038148200387047F8B507000C0051
:1014B00015001E003800C0B2002803D03800C0B2AA
:1014C00001F08EF8F1BD03001A78002A05D00A0059
:1014D000511E002A01D05B1CF6E7181A7047010064
:1014E000C9B2302904DBC0B23A2801DA012000E099
:1014F0000020C0B2704738B504000025206800788D
:10150000FFF7EDFF002808D02168481C20600A2062
:101510000978303900FB0515F0E7280032BD2DE9C8
:10152000F84F82460D0016001F000B9CDDF830803E
:10153000DDF83490009619F0030F0BD1A346C34594
:1015400008D23B00320029002020D047761C1BF136
:10155000010BF4E7002C08D0641E3B003200290088
:101560000A98005DD047761CF4E75FEA89700AD5D7
:101570000098301A404506D23B0032002900202056
:10158000D047761CF4E73000BDE8F28F2DE9F74F25
:1015900084B09B46109F119C129EDDF84C80DDF8B4
:1015A0005090159DDDF858A05FEA8A701FD4002D79
:1015B0000AD05FEACA7007D53000C0B2002802D155
:1015C0001AF00C0F00D06D1E4C4505D2202C03D212
:1015D00030203855641CF7E75FEACA7007D5AC4283
:1015E00005D2202C03D230203855641CF4E75FEA82
:1015F000CA6034D55FEA4A500CD4002C0AD04C455E
:1016000001D0AC4206D1641E002C03D0B8F1100FFB
:1016100000D1641EB8F1100F08D15FEA8A6005D4CA
:10162000202C03D278203855641C13E0B8F1100F39
:1016300008D15FEA8A6005D5202C03D2582038559E
:10164000641C07E0B8F1020F04D1202C02D2622002
:101650003855641C202C02D230203855641C202CB4
:1016600014D23000C0B2002803D02D203855641C9D
:101670000CE05FEA4A7003D52B203855641C05E066
:101680005FEA0A7002D520203855641CCDF80CA002
:101690000295019400975B46069A05990498FFF716
:1016A0003EFF07B0BDE8F08F2DE9F04F8FB08346C5
:1016B0000D0016001F00189CDDF86880DDF874909E
:1016C0005FF0000A002C01D139F010095FEA49509F
:1016D00001D5002C1FD0B4FBF8F008FB1040514698
:1016E00011F1010A0200D2B20A2A02DA10F1300323
:1016F00008E05FEA896201D5412200E06122821898
:10170000B2F10A0307AA5354B4FBF8F4002C02D038
:10171000BAF1200FDFD3CDF818901C9805901B98D4
:101720000490CDF80C809DF864000290CDF804A0E0
:1017300007A800903B00320029005846FFF726FF1B
:101740000FB0BDE8F08F2DE9F74F90B09A46DDE974
:101750001C45DDE92089249F0026002D03D1002CA3
:1017600001D137F01007780503D5002D01D1002CE9
:1017700028D02000290042464B4601F0A3FD9346A5
:101780003000461C5946C9B20A2902DA1BF1300260
:1017900008E0B90601D5412100E061211BEB010100
:1017A000B1F10A0207A90A542000290042464B461B
:1017B00001F088FD04000D00002D01D1002C01D0A6
:1017C000202ED6D306972398059022980490CDF822
:1017D0000C809DF878000290019607A8009053466F
:1017E000129A11991098FFF7D1FE13B0BDE8F08F4F
:1017F000000000002DE9F74F2DED088B8EB09B46C1
:10180000B0EE409AF0EE609A229EDDF88C80DDF812
:10181000909000279FEDBE8B51EC190B53EC192BC8
:1018200001F068FE0ED0CDF80C90CDF808800320B2
:101830000190B5A000905B46189A17991698FFF78B
:101840006EFE5CE151EC190B5FF0FF327FF4801308
:1018500001F060FE0FD2CDF80C90CDF80880042086
:101860000190DFF8340600905B46189A1799169895
:10187000FFF755FE43E151EC190B0022DFF81C364F
:1018800001F038FE19D15FEA497001D5042000E06B
:1018900003205FEA497102D5DFF8041600E09BA13E
:1018A000CDF80C90CDF80880019000915B46189A15
:1018B00017991698FFF733FE21E151EC190B01221D
:1018C000DFF8E03501F040FE07D951EC190B00229A
:1018D000DFF8D43501F01EFE0FD2CDF80890CDF818
:1018E00004800096B0EE490AF0EE690A5B46189A49
:1018F0001799169800F010F901E100208DF81000FA
:1019000051EC190B0022002301F004FE08D2012043
:101910008DF8100051EC190B91F0004141EC190BBE
:101920005FEA495001D406200600202F07D20A2E74
:1019300005D3302105A8C1557F1C761EF5E751EC73
:10194000190B01F01BFE0500DFF860A5280001F06F
:1019500031FE02000B0051EC190B01F0FBFE0AEB0B
:10196000C602D2E9002301F067FF41EC1A0B51ECEB
:101970001A0B02F037F80400200002F045F80200CC
:101980000B0051EC1A0B01F0E5FE41EC1B0B51EC86
:101990001B0B0122DFF8E83B01F0D6FD0ED8641CDA
:1019A000200002F031F80AEBC602D2E9002301F070
:1019B000CBFD10D8002004006D1C0CE051EC1B0B7B
:1019C0000022DFF8BC3B01F0A5FD04D3002C01D0C0
:1019D000E00700D5641C002E1ED1280001F0EAFDAE
:1019E00002000B0051EC190B01F0B4FE41EC1B0B93
:1019F00051EC1B0B0022DFF8883B01F08BFD07D276
:101A000051EC1B0B0122DFF8783B01F09DFD26D83D
:101A1000E80724D56D1C22E03100202F0ED2491E8C
:101A20000A20B4FBF0F200FB1240303005AAD0557A
:101A30007F1C0A20B4FBF0F4002CEED1202F08D23A
:101A40000800411E002804D0302205A8C2557F1C82
:101A5000F4E7202F03D22E2205A8C2557F1C202F89
:101A60000DD20A2095FBF0F100FB1150303005A992
:101A7000C8557F1C0A2095FBF0F5002DEFD119F019
:101A80000300012814D1B8F1000F08D09DF8100010
:101A9000002802D119F00C0F01D0B8F10108474518
:101AA00006D2202F04D2302105A8C1557F1CF6E7AD
:101AB000202F17D29DF81000002804D02D2105A852
:101AC000C1557F1C0EE05FEA497004D52B2005A9A3
:101AD000C8557F1C06E05FEA097003D5202105A8E0
:101AE000C1557F1CCDF80C90CDF80880019705A852
:101AF00000905B46189A17991698FFF710FD0EB0E4
:101B0000BDEC088BBDE8FE8F6E616E00666E6900ED
:101B100000000000000000002DE9FE4F2DED068BB7
:101B20008AB08046B0EE408AF0EE608A1C9D1E9F0F
:101B300051EC180B53EC182B01F0DCFC0FD151ECDD
:101B4000180B0022D54B01F0D5FC08D051EC180B36
:101B50005FF0FF327FF4801301F0DCFC0ED20297BD
:101B60001D9801900095B0EE480AF0EE680A129BAD
:101B7000119A10994046FFF73DFE88E151EC180B91
:101B80000022002301F0C6FC02D25FF0010A01E04E
:101B90005FF0000A5046C0B2002805D051EC180B87
:101BA00091F0004141EC180B780501D406200500A6
:101BB0008DED068BDDE90601080D002104006405AA
:101BC000640DA4F2FF34DDE906015FF0FF32DFF8B7
:101BD000B439104019400022DFF8AC3910431943E2
:101BE000CDE90601200001F0E5FCDFF8A029DFF8CF
:101BF000A03901F021FEDFF89C29DFF89C3901F0C3
:101C0000EBFCCDE90001DDE906010022DFF88C39AB
:101C100001F0E2FCDFF88829DFF8883901F00CFEDA
:101C2000DDE9002301F0D8FC01F0A8FC060030003B
:101C300001F0C0FCDFF87029DFF8703901F0FCFD1D
:101C40000022DFF83C3901F0C7FC01F097FC089056
:101C5000300001F0AFFCDFF85829DFF8583901F007
:101C6000EBFDCDE90001089801F0A4FCDFF848295C
:101C7000DFF8483901F0E0FDDDE9002301F0ACFCBC
:101C800041EC1A0B51EC1A0B53EC1A2B01F0D4FD5A
:101C900041EC190B089800F2FF30C1170105002034
:101CA000CDE9060151EC1A0B00225FF0804301F0F0
:101CB000C3FDCDE9020100205FF0804153EC1A2BF7
:101CC00001F048FDCDE9000151EC190B0022DFF8CD
:101CD000F03801F0A7FE0022DFF8E83801F07CFCC4
:101CE00002000B0051EC190B01F09CFE0022DFF802
:101CF000D83801F071FC02000B0051EC190B01F017
:101D000091FEDDE9002301F067FC02000B00DDE934
:101D1000020101F087FE0022DFF86C3801F05CFC64
:101D2000DDE9062301F088FDCDE9060151EC180B31
:101D3000DDE9062301F0EEFB09D2761EDDE906019E
:101D40000022DFF8803801F06DFECDE90601642E37
:101D500004DA16F1630F01DB042400E005243805E2
:101D600023D551EC180BDFF86428DFF8643801F054
:101D7000EBFB15D851EC180B0022DFF8583801F0B6
:101D8000C9FB0DD2AE4202DAAD1B6D1E01E0002090
:101D9000050057F48067002004000020060004E0DE
:101DA000002D02D0780500D56D1E1D981D998C421E
:101DB00002D2001B814601E05FF00009B80703D59D
:101DC000002C01D000208146002E07D051EC180BCA
:101DD000DDE9062301F026FE41EC180B119809906D
:101DE0005046C0B2002806D051EC180B91F00041CB
:101DF00041EC100B03E0B0EE480AF0EE680A37F44D
:101E000000600290CDF804900095129B119A1099F1
:101E10004046FFF7EFFC8346002C37D05A46501C53
:101E20001190B80601D5452000E06520129B10995D
:101E3000C0B2C047002E01D5012000E00020002ED6
:101E400001D5714200E0310005220592621E049224
:101E5000002203920A220292C0B201900091129BCA
:101E6000119A10994046FFF71FFC8346B8070DD51D
:101E70000999BBEB01011D98814207D2129B5A467A
:101E800010992020C0471BF1010BF1E758460AB01A
:101E9000BDEC068BBDE8FE8F484A00100000F07FC5
:101EA000504A001065CDCD4165CDCDC148450010EB
:101EB0002DE9FB4F90B0070092461C9E002511981B
:101EC000002802D1DFF810070700129800780028D8
:101ED00000F038831298007825280AD053462A004B
:101EE000119912980078B8476D1C1298401C1290F6
:101EF000EBE71298401C1290002004001298007822
:101F000020281FD0232825D02B2813D02D2809D0F6
:101F1000302827D154F001041298401C129001205F
:101F20000A9021E054F002041298401C1290012003
:101F30000A9019E054F004041298401C12900120F9
:101F40000A9011E054F008041298401C12900120ED
:101F50000A9009E054F010041298401C12900120DD
:101F60000A9001E000200A900A980028C6D10020BB
:101F7000099012980078FFF7B2FA002804D012A84E
:101F8000FFF7B9FA099010E0129800782A280CD1CE
:101F90003068361D002804D554F0020441420991EE
:101FA00000E009901299491C129100208046129875
:101FB00000782E281ED154F480641298401C129090
:101FC00012980078FFF78BFA002804D012A8FFF7C8
:101FD00092FA80460EE0129800782A280AD13068DA
:101FE000361D012801DB804601E05FF000081299F0
:101FF000491C129112980078682817D06A282AD0B4
:102000006C2804D0742820D07A282AD02FE054F4E9
:1020100080741298401C1290129800786C2804D199
:1020200054F400741298401C129020E054F0800484
:102030001298401C129012980078682804D154F02D
:1020400040041298401C129011E054F480741298CD
:10205000401C12900BE054F400741298401C129033
:1020600005E054F480741298401C1290FFE7129817
:102070000078252800F05182452800F07381462819
:1020800000F05381472800F06D8158281ED0622847
:102090001CD0632800F09181642817D0652800F0D7
:1020A0006181662800F04181672800F05B81692822
:1020B0000CD06F280AD0702800F0F581732800F04A
:1020C000A881752802D0782840F0318212980078D3
:1020D000782803D012980078582802D15FF01009B0
:1020E00011E0129800786F2802D15FF008090AE029
:1020F00012980078622802D15FF0020903E05FF0D5
:102100000A0934F0100412980078582801D154F0CC
:10211000200412980078692805D012980078642865
:1021200001D034F00C04600501D5640864001298F5
:102130000078692804D012980078642840F09880CC
:10214000A0053FD5F21D32F00702D2E9000112F1DD
:102150000806CDE90C01DDE90C01002902D55FF08C
:10216000010C01E05FF0000CDDE90C2301200021EF
:102170008B4207DB01DC824204D3DDE90C01CDE9AF
:102180000E0106E0DDE90C01404271EB4101CDE9B1
:102190000E01089409980790CDF818804846002150
:1021A000CDE904015FFA8CFCCDF808C0DDE90E0131
:1021B000CDE9000153462A0011993800FFF7C3FA10
:1021C0000500AEE0E00521D5D6F800B0361DBBF124
:1021D000000F01D5012200E00022BBF1010F01DB5D
:1021E000584601E0DBF10000059409990491CDF80F
:1021F0000C80CDF80890D2B20192009053462A008C
:1022000011993800FFF750FA05008AE0600605D5FD
:10221000D6F800B0361D5FFA8BFB0AE0200605D524
:10222000D6F800B0361D0FFA8BFB02E0D6F800B0EE
:10223000361DBBF1000F01D5012000E00020BBF1ED
:10224000010F01DB594601E0DBF100010594099A19
:102250000492CDF80C80CDF80890C0B201900091A6
:1022600053462A0011993800FFF71EFA050058E07E
:10227000A0051BD5F01D30F00700D0E9002310F1B8
:102280000806089409980790CDF818804846002160
:10229000CDE9040100200290CDE9002353462A0035
:1022A00011993800FFF74FFA05003AE0E00513D521
:1022B0003068361D059409990491CDF80C80CDF84D
:1022C000089000210191009053462A00119938008E
:1022D000FFF7EAF9050024E0600605D5D6F800B05E
:1022E000361D5FFA8BFB0AE0200605D5D6F800B054
:1022F000361D1FFA8BFB02E0D6F800B0361D0594A0
:1023000009980490CDF80C80CDF808900020019039
:10231000CDF800B053462A0011993800FFF7C4F9F0
:1023200005001298401C1290CFE5129800784628BC
:1023300001D154F02004F01D30F0070090ED000BA7
:1023400010F10806029409980190CDF800805346D8
:102350002A0011993800FFF74DFA05001298401C29
:102360001290B2E512980078672803D0129800788E
:10237000472801D154F4006412980078452803D00E
:1023800012980078472801D154F02004F01D30F055
:10239000070090ED000B10F10806029409980190D7
:1023A000CDF8008053462A0011993800FFF7B4FB9E
:1023B00005001298401C129087E55FF00109A00704
:1023C0000CD4494611F101090998814206D25346BD
:1023D0002A0011992020B8476D1CF2E73068361D9D
:1023E00053462A001199C0B2B8476D1CA0070CD5FE
:1023F000494611F101090998814206D253462A0043
:1024000011992020B8476D1CF2E71298401C1290D9
:102410005BE5D6F800B0361DB8F1000F01D041469B
:1024200001E05FF0FF315846FFF74DF88146600547
:1024300002D5C14500D3C146A0070CD4494611F1CD
:1024400001090998814206D253462A001199202099
:10245000B8476D1CF2E79BF80000002810D060051B
:1024600004D54046B0F10108002809D02A00551CC7
:10247000534611999BF80000B8471BF1010BEAE79E
:10248000A0070CD5484610F101090999884206D2E7
:1024900053462A0011992020B8476D1CF2E7129884
:1024A000401C129011E50820099054F021045FF0BF
:1024B00000094846C0B2002818D03268361D08947A
:1024C00009980790CDF8188010200021CDE904016B
:1024D0000020029010000021CDE9000153462A009F
:1024E00011993800FFF72FF9050012E03068361D0A
:1024F000059409990491CDF80C80102102910021D6
:102500000191009053462A0011993800FFF7CCF84A
:1025100005001298401C1290D7E453462A001199E6
:102520002520B8476D1C1298401C1290CDE45346EC
:102530002A00119912980078B8476D1C1298401C17
:102540001290C2E4554501D22A0001E0BAF101021D
:10255000534611990020B847280013B0BDE8F08F0A
:102560000EB43CB5050005AC00942B005FF0FF32C3
:1025700001A91A48FFF79CFC36BC5DF810FB00006F
:102580000000E03FFFFF0F000000F03FFB799F508D
:102590001344D33FB3C8608B288AC63F0000F8BFFE
:1025A00061436F63A787D23F71A379094F930A40B4
:1025B0001655B5BBB16B0240EF39FAFE422EE6BFAD
:1025C00000002C4000002440000018402D431CEB6C
:1025D000E2361A3F80842E41A9140010AB1400107B
:1025E0000D4909688906FBD40C4908607047282109
:1025F0000B4801600B210B48016060210A48016013
:1026000040F20131094801600A21094801600121B5
:10261000084801607047000018002040000020407A
:1026200024002040280020402C0020403000204082
:10263000040020400800204080B5A849A848016057
:10264000A84AA9480260531AA848FFF789FFA84979
:10265000A84A531AA848FFF783FF0121A748FFF7AC
:102660007FFF01BD18B5040004210022684600F078
:1026700075F900210020022807D214EB40021388CC
:102680006A4622F81030401CF5E7BDF80220BDF87C
:10269000000050EA024012BD010011F478420B0024
:1026A0001B0C13F47843100080B2B0F5704F04D0C7
:1026B000100080B2B0F5784F01D101200CE0180075
:1026C00080B2B0F5704F04D0180080B2B0F5784FEA
:1026D00001D1012000E00020704710B50400210066
:1026E0008748FFF73DFF200001F0C0FA10BD2DE93B
:1026F000FE4F04000D0000200290002001902100F8
:10270000804E08683060091D08687060091D0868FF
:10271000B060091D0868F060091D08683061091D76
:1027200008687061091D0868B061091D0868F061DA
:10273000091D08683062091D08687062091D086873
:10274000B062091D0868F062091D08683063091D40
:1027500008687063081D0168B163011D0868F063B3
:10276000081D00900FF2701B5846FFF7F9FE6648EF
:10277000FFF7F6FE6548FFF7F3FE316A6448FFF79E
:10278000EFFE716A6348FFF7EBFEB16A6248FFF73C
:10279000E7FEF16A6148FFF7E3FE31686048FFF742
:1027A000DFFE71685F48FFF7DBFEB1685E48FFF748
:1027B000D7FEF1685D48FFF7D3FE31695C48FFF74B
:1027C000CFFE71695B48FFF7CBFEB1695A48FFF74E
:1027D000C7FEF1695948FFF7C3FE316B5848FFF750
:1027E000BFFE716B5748FFF7BBFEB16B5648FFF752
:1027F000B7FEF16B5548FFF7B3FE5846FFF7B0FE42
:102800002800FFF76AFF1027DFF84481354B04EBFF
:1028100087024021404600F018F881464D48FFF7F6
:102820009FFEDFF834A1B16B5046FFF799FE0026FA
:102830004E4506DA58F826105046FFF791FE761CF2
:10284000F6E75846FFF78CFEFEE72DE9F84F050046
:102850000E0017009B465FF000085FF000095FF074
:10286000000A0021002D01D0002E02D17FF00100CE
:1028700030E0002F01D0BB4502D27FF0020029E0FA
:102880003C00002C25D0A34523D32068814618485E
:10289000814502D31748484500D218E05FEAC97065
:1028A00015D5B9F10109B9F104095FEAC9700ED46F
:1028B0004846FFF7D7FE82465046FFF7EDFE002858
:1028C00005D045F8289018F10108B04501D2241D23
:1028D000D7E74046BDE8F28F0D0A0000C0880038F7
:1028E00044880038C098003848880038984500105F
:1028F000C007001078440010BC45001024460010AA
:10290000904800103487003844460010BC4800103E
:10291000D0480010E4480010F84800100C4900109E
:102920002049001034490010484900105C4900104B
:10293000704900108449001098490010AC490010FB
:10294000C0490010D4490010E8490010FC490010AB
:1029500014840038244A0010584A001062F30F22F1
:1029600062F31F42401810F0030308D0C91A1FD3A6
:10297000DB0748BF00F8012D28BF20F8022D130007
:1029800030B414461546103928BF20E93C00FAD867
:10299000490728BF20E90C0048BF40F8042D8900F2
:1029A00028BF20F8022D48BF00F8012D30BC704729
:1029B000C91818BF00F8012DCB0728BF00F8012D5A
:1029C0007047FEE72DE9F04704005FF00008002C97
:1029D0001ED07B495FF0FF320868121AA24215D35D
:1029E0000868041914F0070F12D014F00700D0F192
:1029F000080082465FF0FF30B0EB0A00A04202D32D
:102A00001AEB040404E00020040001E000200400AC
:102A1000FEF7DCF8DFF8AC91D9F80000002801D10E
:102A200000F06FF8002C42D4002C40D066490868B2
:102A3000A0423CD365480600006805006868A042D3
:102A400005D22868002802D02E002D68F6E7D9F8B4
:102A5000000085422BD05A48336802681A449046D9
:102A60002A683260026852006868001B824209D2FC
:102A700005EB040007006868001B78606C60306834
:102A8000386037600A686868121A0A6050480A6835
:102A900003689A4201D209680160686850F00040FA
:102AA0006860002028604B490868401C0860FEF7F9
:102AB000B7F84046BDE8F08770B504002600002C4A
:102AC0001ED03F4800684042064435006868002830
:102AD00016D52868002813D1686820F00040686087
:102AE000FEF774F8384A11686868411811602800C8
:102AF00000F035F838490868401C0860FEF790F887
:102B000070BD30B44FF40042344B190011F0070F80
:102B100006D0C91DC908C900521A10001A0012189F
:102B20002A4B1960002058605318254800681B1A6A
:102B3000DB08DB00234C236000252068456000256E
:102B40002068056008001D1A456024680460456817
:102B50001F4C256045681C4C256030BC704730B464
:102B60001A4A1168814201D21268FAE713005168CB
:102B70001944814204D1546841680C195460100012
:102B80000400416804EB010511688D4210D10D4D20
:102B900011682B68994208D0436811684968CB18BE
:102BA000436011680968016004E02968016001E080
:102BB00011680160824200D0106030BC7047000094
:102BC000704A00109C880038A08800383888003887
:102BD000A4880038A8880038AC8800381400003871
:102BE00010F1080141605FF0FF31816010F10801D0
:102BF000C16010F108010161002141610021816182
:102C000000210160704700210161704710B40A681B
:102C100012F1010F01D1036907E010F108035C68AC
:102C20002468A24201D35B68F9E75C684C604C6899
:102C3000A1608B60596008610468641C046010BC6A
:102C40007047010008698B684A6893604B688A681E
:102C5000536042688A4201D18A68426000220A6158
:102C60000268521E0260006870470EE00268436806
:102C7000024408305FEAC37C44BF4B445B1E52F8F9
:102C800004CB43F804CB091FF9D150F8041B0029E9
:102C9000ECD1704780B50020009001F013FC009843
:102CA0000028FCD001BD00005FF080514D4801605C
:102CB000BFF34F8FBFF36F8F7047000080B501F0F7
:102CC00001FC49490868401C0860BFF34F8FBFF3FF
:102CD0006F8F01BD80B544490868401E08600868D0
:102CE000002802D1002001F0F8FB01BD10B501F071
:102CF000E9FB0400FEF75AF8002803D05FF080518A
:102D000038480160200001F0E8FB10BD70B50400F8
:102D1000A56915F8026C3000C0B2662801D101F037
:102D2000ABFB70BD10B4041F5FF080702060201FEB
:102D30000260041F2D482060241F5FF012302060C5
:102D4000241F5FF003302060241F5FF002302060FA
:102D5000241F5FF001302060201F0360041F5FF01C
:102D600011302060241F5FF010302060241F5FF0BE
:102D700009302060241F5FF008302060241F5FF0BE
:102D800007302060241F5FF006302060241F5FF0B2
:102D900005302060241F5FF004302060241F7FF086
:102DA00002002060201F016010BC704780B51048F1
:102DB00000681048016851F47F010160016851F01A
:102DC0007F41016000210C48016000F0C7FF002135
:102DD0000548016001F06AFBFEF7A4F8FFF75AFF0F
:102DE000002002BD04ED00E008000038952C001022
:102DF00008ED00E020ED00E01CED00E038B586B005
:102E0000002400F082F9DFF84003006800281ED09B
:102E1000002004900020039005AA03A904A8FEF74F
:102E200017FBDFF8285304980290039801900420C0
:102E300000900023059ADFF818130FF28100FDF7C8
:102E40002EFD28602868002801D001200400200001
:102E500007B030BD70B504000E00150033002A0025
:102E6000A1698919200000F08DF8002805D0A0691B
:102E700086192000216A8847F0E770BD70B504000C
:102E80000D00DFF8D0020068C068C668301DFFF78B
:102E9000D8FE96F82400400705D52A00210030000E
:102EA000FFF7D8FF05E096F8240010F0FE0086F842
:102EB00024003000316A884770BD000038B5050035
:102EC000684600F039F804000099200000F003F88B
:102ED00000F080F8F4E77CB505000C00FDF776FE05
:102EE000684600F03CF806000098002821D1002C2C
:102EF00008D1AE4206D3FDF793FE31002800FFF75C
:102F0000BDFF18E0002C07D0934800680068002837
:102F100001D1012400E000242200A91B8A48006896
:102F200001F003F9FDF77CFE002804D1FFF7BCFE99
:102F300001E0FDF775FE73BD0100864A1068006868
:102F4000002801D1012000E0002008600868002866
:102F500003D11068C068006800E00020704770B5B9
:102F60000400FDF7F7FE05007C4E3068854204D270
:102F700000F0B5F80120206001E0002020603560FD
:102F8000280070BD2DE9F04104000D0016001F005F
:102F90005FF0000865602461AE420CD3F11BA069AC
:102FA000814202D30120804611E0211D6A48006859
:102FB000FFF72CFE0BE0BE4204D2BD4202D301203B
:102FC000804604E0211D63480068FFF71FFE40466D
:102FD000BDE8F08178B585B06846102101F0FAF8B7
:102FE000002269465848006800F06EFF002874D03F
:102FF0000098002804D501AEB16870683268904727
:1030000000980028ECD4029805006869002802D0D6
:10301000281DFFF716FE04A8FFF7A1FF0400009883
:1030200001280DD058D3032830D009D3052844D027
:1030300033D3072804D003D309282ED026D34BE05E
:1030400095F8240050F0010085F82400019B22002F
:103050000199A86941182800FFF794FF002814D0AF
:1030600095F82400400707D522000199A869411866
:103070002800FFF7EFFE05E095F8240010F0FE00B1
:1030800085F824002800296A8847A9E795F82400D4
:1030900010F0FE0085F82400A2E795F8240050F017
:1030A000010085F824000198A86123002200A96985
:1030B00009192800FFF766FF92E795F824008007BA
:1030C00003D42800FFF7F8FC05E095F8240010F081
:1030D000FE0085F8240083E782E706B070BD10B5D6
:1030E0001C4908680068002809D00868C0680068A2
:1030F00004005FF0FF312000FFF7C0FEF0E70B682F
:10310000154802680A60036010BD7CB5FFF7D6FD64
:103110000D4C2068002814D1114E3000FFF760FDDF
:10312000104D2800FFF75CFD0A4806600A4805605C
:10313000002000900C4B0D4A10210A2000F082FE66
:103140002060FFF7C7FD73BD908800389488003871
:10315000684A0010888800388C88003898880038C1
:10316000008800381C8800384086003814850038F4
:103170002DE9F04706004C490868B04201D20868C2
:10318000060072B6BFF34F8FBFF36F8FFEF718F8CC
:10319000002801D162B685E0444906200860444A0F
:1031A00010680400002C02D1424800680400414B22
:1031B000D3F800C0701E00FB0C4CE1463E48D0F82E
:1031C00000C05FEA4C1C06D55FF0007CC0F800C070
:1031D0001868B9EB0009DFF8E4C0DCF800004845E6
:1031E00003D2DCF80000B9EB0009DFF8D4E0CEF838
:1031F000009000201060086850F001000860350061
:10320000002D04D0BFF34F8F30BFBFF36F8F62B676
:10321000BFF34F8FBFF36F8F72B6BFF34F8FBFF304
:103220006F8F062008600868C0031BD5D3F800A084
:10323000BAF1010ABAEB090A106810EB0A00DCF8CF
:1032400000C0844503D2D3F800C0844504D2D3F82B
:1032500000C0BCF1010C6046CEF80000B6F1010CD4
:10326000674613E010680400186800FB06F0001BB6
:1032700080461868B8FBF0F0070017F1010C1868D9
:1032800000FB0CFCBCEB080CCEF800C0002010606A
:10329000072008601868401ECEF800003800FDF7CF
:1032A00060FD62B6BDE8F087B488003810E000E049
:1032B00018E000E0B088003804ED00E0B88800387D
:1032C00014E000E0BBBBE1B1B2F5803F80F07E804E
:1032D000022A1ED98C46B1FBF2F102FB11C31B047A
:1032E00043EA1043B3FBF2FC02FB1C3380B240EA1A
:1032F0000343B3FBF2F002FB103240EA0C40002320
:103300007047022A05D98446B0FBF2F002FB10C2D6
:1033100070474AB105D100F0010249085FEA300068
:10332000704700220023704700F058BF0B000200D6
:10333000002100207047904271EB030CF6D3B3F5E7
:10334000803F2FD2F0B5B3FA83F7B1FA81F4A7F139
:103350000F0E3D1B5340CEF1200602FA0EF2F34150
:103360005340B5F10F0746D80F3C2C444140C4F1FF
:103370002006A040F1414140B1FBF3F603FB1611DA
:10338000A2FB0645001BA94102D2761E80185941B6
:1033900080EA010221FA0EF362FA0EF200215A408D
:1033A0003046F0BD30B4B1FBF3FC03FB1C11A2FBB3
:1033B0000C45001BA94103D2ACF1010C8018594106
:1033C00030BC02460B46604600217047B2F1807F58
:1033D00065D3F0B5B2FA82F7B1FA81F4C7F10F06FE
:1033E0003D1B22FA06F307F1110EF24120355A4037
:1033F000B5F10F07B8D94140C4F12006A040F14112
:103400004140B1FBF3FC03FB1C11A2FB0C45001B6C
:10341000A94103D2BCF1010C801859410F2F12D3DE
:103420000F3FC90341EA5041B1FBF3F603FB16110C
:10343000A2FB0645D4EBC030A94102D2761E80180B
:10344000594146EACC3C07B34140C7F12006B84099
:10345000F1414140B1FBF3F603FB1611A2FB064517
:10346000001BA94102D2761E8018594180EA010250
:1034700021FA0EF3C7F1200462FA0EF20CFA07F0FB
:103480005A402CFA04F13043F0BD80EA010221FADF
:103490000EF3002162FA0EF260465A40F0BD8C46EF
:1034A000B1FBF2F102FB11C31B0243EA1063B3FB51
:1034B000F2FC02FB1C331B024CEA002043EA1063BF
:1034C000B3FBF2FC02FB1C331B024CEA002043EA74
:1034D0001063B3FBF2FC02FB1C331B024CEA00201E
:1034E00043EA1063B3FBF2FC02FB1C324CEA0020FF
:1034F00000237047904205D1994204D041EA030C61
:1035000050EA4C0C70474FF4001C1CEB410F38BFC5
:103510008942704741EA030C50EA4C0C52EA0C0C09
:103520004FF4001C09D307D01CEB410F9CBF1CEBD0
:10353000430F8B4208BF824270471CEB430FFBD8FE
:10354000994208BF9042704741EA030C50EA4C0C84
:1035500052EA0C0C4FF4001C09D307D01CEB410FAE
:103560009CBF1CEB430F994208BF904270471CEB75
:10357000410FFBD88B4208BF82427047C1F30A5308
:1035800040F21E42D31A0CDDCA0283F3070342EA5B
:10359000505242F00042DA4002EBE17282EAE170FE
:1035A00070476FEAE17203F2E13008B182F0004047
:1035B0007047000010F0004160B148BF4042B0FACF
:1035C00080F29040D21CC2F5846241EA025202EBC2
:1035D000D02140057047000070B491EA030F4FF00E
:1035E000004540F1BF806B40841A71EB030604D2A2
:1035F0006E40001BB141121973414FF4001C1CEBCB
:10360000410F34BF7CEB430683E00C0DA4EB135653
:10361000362E00F37C80012E45EAC32341DC43EAC9
:10362000525312BFD20292025B08240545EAC1211F
:1036300041EA5051D2EBC020994125D407D1B0FACC
:1036400080F610FA06F162D00020203608E0B1FAC8
:1036500081F6B140C6F1200220FA02F21143B040D7
:103660004FEAF474B4EB465434F001064FEA7404A4
:103670000AD8D6F50016760D04F00044F04061FA41
:1036800006F25040F1404840C00A40EA415021F063
:10369000004128BF5FEA500550F1000044EBD12102
:1036A00035E0DB0A45EAC121C90AB6F120050EDD85
:1036B00042EA0242120CC5F1200603FA06F6EB407C
:1036C00042EA06056D42984161F100010DE062FA9F
:1036D00006F5F240554063FA06FC82EA0C02F3401C
:1036E0005A406D42904161EB030111F4801F05D1F6
:1036F000641E620502D06D004041494121F48011F1
:10370000430875F1004350F1000041EB045170BCD7
:1037100070471CEB410F15D223F0004352EA4306D9
:103720000BD04FEA4C0CBCEB410F04D80C0D661EBD
:10373000342EB7DDEBE7801A994150EA410608BF05
:103740000021E4E708BF1CEB430F28BF6FF0000126
:10375000DDE7000070B491EA030F4FF000457FF5FC
:1037600043AF6B40841A71EB030603D2001BB141D7
:10377000121973414FF4001C1CEB410F34BF7CEB5A
:10378000430442E00C0DA4EB1356352E4FDC45EA02
:10379000C323DB0A45EAC121C912B6F120050DDDBC
:1037A00063FA05F6EB4086EA0305124218BF45F0BE
:1037B0000105C01851F100010CD213E062FA06F5C0
:1037C000F2405540F3415A40B340F3405A4080180C
:1037D000594107D349085FEA30005FEA350528BF41
:1037E00045F0010501F58011420875F1004250F1E4
:1037F000000041EB04514E0016F5001F70BC38BFAD
:1038000070470020090D090570471CEB410F10D2CD
:1038100052EA43060BD0BCEB410F05D80C0DAB436D
:10382000661E342EB6DD02E0AB438018594170BCF1
:10383000704770BC7047000030B540F2FF7C1CEA56
:1038400011541DBF1CEA1355644565453FE06419DA
:1038500081EA030C6FF35F530CF0004C43F48013C8
:10386000C90241F0004141EA505EC5021100A5FBCA
:10387000020200284FF00000EEFB01204FF0000193
:10388000E3FB052118BF42F0010240180021494125
:10389000E3FB0E01A4F580640D0302D292184041AF
:1038A000494154F1010470DD450872F1004250F1C4
:1038B000000051EB0451A1F5801102D441EA0C0142
:1038C00030BD40F2FF7E4CEA0E51002030BD0CEAC4
:1038D0001355644518BF654581EA030C0CF0004C94
:1038E00041D050EA410E1CBF52EA430E02E061464D
:1038F000002030BD24422C441BD15FEA050EF6D0D7
:10390000090302BF01460020AEF1140EB1FA81F5A1
:10391000AEEB050401FA05FE0C35C5F1200100FAF5
:1039200005F5C8404EEA000E6FF35F5343F4801371
:103930009CE733F00043B3FA83F504BFB2FA82FE8A
:1039400075440B3D641BB5F1200E2FBF02FA0EF338
:10395000AB40C5F1200E22FA0EFE38BF43EA0E033B
:10396000AA40641C7CE750EA410E14BF52EA430EA1
:103970006FF000014FF4001515EB430F8EBF194691
:1039800015EB410F9DE7B4D830BDD4F10104B4F17B
:1039900020050FDAC4F12005520828BF42F00102C9
:1039A00010FA05FE01FA05F57244E2BFE040284333
:1039B000E1400FE0352C9ADCC5F1200452EA4002C8
:1039C00020FA05F218BF42F0010231FA05F0A140D9
:1039D0000A43002172F1004250F1000051EB0C014A
:1039E00030BD0000400D40F21E4C40EAC120BCEB4F
:1039F000115C40F0004003D48CF30701C8407047CD
:103A00006FEAE1707047000050B1B0FA80F1884071
:103A1000C91CC1F58461090501EBD021400570473F
:103A200001467047F0B540F2FF7581EA030C0CF0D7
:103A3000004C15EA11541DBF15EA1357AC42AF42B2
:103A4000E5E0BC41C1F31301C3F31303801A9941AC
:103A500043F4801304D2641E001849418018594170
:103A6000C90241EA5051B1FBF3F603FB1611A2FB68
:103A70000675D7EBC020A94102D2761E80185941A5
:103A8000C90241EA5051B1FBF3FE03FB1E11A2FB38
:103A90000E75D7EBC020A94103D2AEF1010E8018FC
:103AA0005941890241EA9051760546EA8E2EB1FBD2
:103AB000F3F603FB1611A2FB0675D7EB8020A94194
:103AC00002D2761E80185941C90241EA50514EEA8D
:103AD000060EB1FBF3F603FB1611A2FB0675D7EB3E
:103AE000C020A94102D2761E80185941C90241EA7C
:103AF0005051B1FBF3F703FB1711A2FB0735D3EBD2
:103B0000C020A94167F100070CBF004247F0010740
:103B100066F3D5274FEA1E31B80814F5806412DD2C
:103B2000BD0775F1004250EB0E5051EB045111F5F9
:103B3000801F5CBF41EA0C01F0BD4CF07F6141F099
:103B4000E0410020F0BDBD076D0840EA0E5041F491
:103B50008011D4F10104B4F120060ADAC4F1200680
:103B60000200E04001FA06F3E1401843B240154379
:103B70000EE0342C13DCC6F1200445EA40056D0844
:103B800020FA06F2154321FA06F0A1400D43002168
:103B900075F1004250F1000051EB0C01F0BD002026
:103BA0005FEA0C01F0BDCFB992185B41B3FA83F71D
:103BB00004BFB2FA82F6BF190B3FB7F120062FBF40
:103BC00002FA06F3BB40C7F1200622FA06F638BF18
:103BD0003343BA401CB1E419641E33E77F4231F02D
:103BE0000041B1FA81F404BFB0FA80F6A4190B3C8D
:103BF000B4F120062FBF00FA06F1A140C4F120065F
:103C000020FA06F638BF3143A0403C1B1AE7AC420D
:103C10001ABF05EA1357AF4212E050EA41061CBF33
:103C200052EA4306BFE750EA4107304661461CBFEF
:103C300041EA0551F0BD52EA430C08BFC143F0BD53
:103C400000204FF4001616EB410F98BF16EB430F00
:103C500008BF16EB410F24BFC14305E016EB430F2D
:103C60000CBF61464CEA0551F0BD000038B50400B8
:103C700027A52800FEF774FC2648FEF771FCE00734
:103C800003D52548FEF76CFC02E02448FEF768FCEB
:103C90002348FEF765FC600703D52248FEF760FC69
:103CA00002E02148FEF75CFC2048FEF759FC2007A3
:103CB00003D51F48FEF754FC02E01E48FEF750FCF7
:103CC0001D48FEF74DFCE00603D51C48FEF748FCF6
:103CD00002E01B48FEF744FC1A48FEF741FCA00630
:103CE00003D51948FEF73CFC02E01848FEF738FC03
:103CF0001748FEF735FC600603D51648FEF730FC82
:103D000002E01548FEF72CFC2800FEF729FC31BD27
:103D1000200D0A0064460010404700105C47001068
:103D2000844600107847001094470010A446001005
:103D3000B0470010CC470010C4460010E847001000
:103D400004480010E4460010204800103C480010D1
:103D50000447001058480010744800100C490D48E2
:103D600008607FF07F400968B0FBF1F10A4801600C
:103D70005E210A4801600A480421016000220949C5
:103D80000A60094A09490A6007210160704700BFBB
:103D9000B0880038400D0300B4880038B888003877
:103DA00010E000E018E000E03F0D030014E000E048
:103DB000F8B507000C0001263D00002D3ED0E86C50
:103DC00000283BD05FF0FF31E86CB1FBF0F1286DCB
:103DD000814233D3FEF772FF2A68E96C286D4143B4
:103DE00002EB0100A8600020A864286868602A68C7
:103DF000E96C491E286D414302EB0100E8605FF069
:103E0000FF3085F8540085F85500002C0BD1286947
:103E1000002810D015F11000FDF7EDF800280AD0A9
:103E2000FEF742FF07E015F11000FEF7D9FE15F18D
:103E30002C00FEF7D5FEFEF74DFF01E00020060046
:103E40003000F2BD2DE9F84306000C0015001F00FC
:103E5000DDF820805FF00009002E16D0002F14D06E
:103E6000002D01D0002C10D0002D01D1002C0CD140
:103E7000B946012089F85600CDF800904346DBB2E0
:103E80002A002100300000F003F84846BDE8F28324
:103E90002DE9F04105000C0016001F00DDF8188028
:103EA000002C02D1C8F8008001E0C8F80060C8F812
:103EB0004C50C8F8504001214046FFF779FF0020E0
:103EC000C8F85800BDE8F0812DE9F64182B080467F
:103ED0000E0000244746FEF7F1FEBD6C002D14D005
:103EE0003100380000F0B3F8681EB8643869002863
:103EF00007D017F11000FDF77EF8002801D0FEF77B
:103F0000D3FEFEF7E7FE012050E00398002803D11E
:103F1000FEF7E0FE002049E0002C04D16846FDF7E2
:103F2000DDF801200400FEF7D5FEFCF74FFEFEF79A
:103F3000C5FE97F9540010F1010F02D1002087F857
:103F4000540097F9550010F1010F02D1002087F8B5
:103F50005500FEF7BFFE03A96846FDF7C8F8002824
:103F600019D1380000F0D3F800280ED0039917F1CA
:103F70002C00FDF70BF8380000F085F8FCF750FE38
:103F80000028A8D1FEF790FEA5E7380000F07BF8E6
:103F9000FCF746FE9FE7380000F075F8FCF740FE9E
:103FA000380000F0B4F8002895D0002004B0BDE837
:103FB000F0812DE9F84F06000F0014005FF00008B3
:103FC000B56C306D002809D1306800283AD1B0684E
:103FD000FDF79AF980460020B06033E0002C14D140
:103FE000D6F850B0B946D6F804A05A4649465046CD
:103FF00000F0F6F87168306D084470607168B06860
:1040000081421FD3306870601CE0D6F850B0B946CA
:10401000D6F80CA05A464946504600F0E1F8F1683F
:10402000306D40420844F060F1683068814204D24B
:10403000B168306D40420844F060022C02D1002D7E
:1040400000D06D1E681CB0644046BDE8F28F2DE9BB
:10405000F04104000D00206D002812D0E168206DB1
:104060000844E060E168A068814201D32068E06014
:10407000D4F85080E6682F0042463100380000F046
:10408000AFF8BDE8F081F8B50400FEF717FE94F92B
:104090005550280040B2012819DBA06D002807D038
:1040A000200000F068F800280FD0FDF762F80CE05F
:1040B000E06A002808D014F12C00FCF79CFF0028CF
:1040C00003D0FDF756F800E001E06D1EE1E75FF078
:1040D000FF3684F85560FEF7FDFDFEF7EFFD94F91D
:1040E0005470380040B201280CDB2069002809D048
:1040F00014F11000FCF77FFF002801D0FDF739F81C
:104100007F1EEEE784F85460FEF7E4FDF1BD38B59C
:104110000400FEF7D3FDA06C002801D1012500E0CA
:104120000025FEF7D7FD280032BDF8B504000D00CC
:1041300016002700FEF7C2FD97F9540010F1010F99
:1041400002D1002087F8540097F9550010F1010FB3
:1041500002D1002087F85500FEF7BCFDB86C00289E
:1041600005D13200290017F12C00FCF721FF38009F
:10417000FFF789FFF1BD71B581B00198846D00250D
:10418000A16CE06C814222D294F95560002201A911
:104190002000FFF70EFF050031005FF0FF3049B24D
:1041A00081420BD1E06A002811D014F12C00FCF7F9
:1041B00022FF00280BD00120050008E0FCF7CEFD0F
:1041C000310049B2814202D2711C84F85510280096
:1041D00076BD0000002200F057B8000070470000D4
:1041E00062B38B0708D0521E11F8013B00F8013B67
:1041F00000F024808B07F6D1830740F0208000BFB9
:10420000103A07D330B4B1E83810103AA0E83810AB
:10421000F9D230BC530724BFB1E80810A0E8081059
:1042200044BF51F8043B40F8043BD20724BF31F8A7
:10423000022B20F8022B44BF0B7803707047121F2B
:1042400017D35B0009D151F8043B20F8023B1B0C4B
:10425000121F20F8023BF6D20BE051F8043B00F8A5
:10426000013B1B0A20F8023B1B0C121F00F8013B0C
:10427000F3D238BF121D521E24BF11F8013B00F8C3
:10428000013BF8D87047000000B500BF1300964608
:104290009446103928BFA0E80C50FAD85FEA417C58
:1042A00028BF0CC048BF40F8042BC90728BF20F81E
:1042B000022B48BF00F8012B00BD00000749084849
:1042C00001600849086850F470000860014902481C
:1042D0000160704740787D01000000380000001048
:1042E00008ED00E088ED00E0054880F30988054806
:1042F00080F30A8880F30B8803488047034800470F
:10430000C0980038C0880038BD42001059430010E2
:1043100072B60E4B19680E4B1A681EF0040F05D1C9
:10432000EFF3088088420ADB904208DC2DE9F00FA9
:104330001EF0040F0CBFEFF30880EFF30980714605
:10434000044ABFF34F8F62B610470000448800381C
:1043500048880038EF2600100548014603B4684637
:1043600080F30988AFF3008000F004F800F014F83F
:10437000A5EDF5FE4EF68851CEF20001086840F436
:1043800070000860BFF34F8FBFF36F8F4FF0017065
:10439000E1EE100A7047000000F00DF8002801D08F
:1043A00000F00CF8AFF300800020AFF30080FCF7C2
:1043B00028FA00F018F801207047000010B5034AF1
:1043C0007A440832024C7C44A41D03E0140200002D
:1043D0003402000004E01168101D114488470246B1
:1043E000A242F8D110BD00F001B8000007463846DF
:1043F00000F002F8FBE7000080B500F007F8024A81
:1044000011001820ABBEFBE72600020010B500F03B
:1044100013F8020000230024E4431068A04203D0F4
:1044200011000220ABBE13605068A04203D0111DE2
:104430000220ABBE536010BD004870470C0000382E
:1044400030B4002412E050F8043BDA0744BF4B4478
:104450005B1E091F042943F8044BFAD21A468D0744
:1044600044BF1C80921CCB0748BF147050F8041B3B
:104470000029E8D130BC7047314A1168086806C885
:1044800081F30B88022181F31488203080F309889E
:10449000BFF36F8F4FF0000080F311881047EFF3E8
:1044A000148020F0010080F31488704725480068CC
:1044B000006880F3088862B661B6BFF34F8FBFF320
:1044C0006F8F66DFEFF311804FF0BF0181F311882A
:1044D000BFF34F8FBFF36F8F704780F31188BFF327
:1044E0004F8FBFF36F8F7047EFF30980EFF30B82AD
:1044F000734620E9FC0F124A116808604FF0BF00B4
:1045000080F31188BFF34F8FBFF36F8FFCF70AFD65
:104510004FF0000080F31188094A11680868B0E87C
:10452000FC0F82F30B8880F3098818471EF0040FF4
:104530000CBFEFF30880EFF30980FEF7E7BB000044
:104540004C88003808ED00E0000000000000F03F5B
:10455000000000000000244000000000000059405E
:104560000000000000408F40000000000088C340B1
:1045700000000000006AF8400000000080842E4126
:1045800000000000D01263410000000084D7974172
:104590000000000065CDCD41436F64652053746118
:1045A000636B3A5B25303858202D20253038585D14
:1045B0002C2073697A653A25640D0A00436F64659F
:1045C0002054657874203A5B25303858202D2025FA
:1045D0003038585D2C2073697A653A25640D0A00DD
:1045E00061FEFFFFA88800001400003800000000F2
:1045F0007BE6FFFF140000001804000000000038F4
:10460000000000006D61696E207461736B2063723D
:1046100065617465206661696C6564282564292E6E
:104620000D0A0000436F646520537461636B20477B
:10463000726F77746820446F776E776172643A2581
:10464000640D0A0020486172644661756C742049EB
:104650006E666F726D6174696F6E2044756D702047
:104660000D0A00002042697430204578636570743B
:104670002053656375726974792053746174653A67
:1046800020000000204269743220537461636B2063
:10469000506F696E742053656C6563743A202020F6
:1046A0002000000020426974332050726F63204D57
:1046B0006F6465204265666F7265204952513A20E9
:1046C00020000000204269743420537461636B2021
:1046D0004672616D6520547970653A202020202053
:1046E0002000000020426974352044656661756CC5
:1046F000742043616C6C2052756C653A2020202038
:104700002000000020426974362053656375726989
:10471000747920537461636B3A202020202020207C
:104720002000000068656C6C6F20746869732069F4
:1047300073204672656552544F532E0D0A000000D7
:104740005B55736520536563757269747920537482
:10475000617465202020205D2E0D0A005B55736575
:10476000204E6F7420536563757269747920537499
:104770006174655D2E0D0A005B55736520505350C2
:104780002020202020202020202020202020205DEC
:104790002E0D0A005B557365204D535020202020BC
:1047A00020202020202020202020205D2E0D0A0007
:1047B0005B55736520546872656164204D6F646554
:1047C000202020202020205D2E0D0A005B557365DF
:1047D0002050726F63657373204D6F6465202020D5
:1047E0002020205D2E0D0A005B55736520537461F7
:1047F0006E64617264204672616D65202020205DC8
:104800002E0D0A005B55736520457874656E6465EE
:1048100064204672616D65202020205D2E0D0A0007
:104820005B5573652044656661756C742052756CC8
:10483000652020202020205D2E0D0A005B55736529
:10484000204E6F742044656661756C742052756CDF
:104850006520205D2E0D0A005B557365205365634E
:10486000757269747920537461636B202020205D18
:104870002E0D0A005B557365204E6F7420536563DF
:10488000757269747920537461636B5D2E0D0A0033
:10489000204558455F52455455524E3A20307825B0
:1048A000303858200D0A000068656C6C6F20776FF7
:1048B000726C64202D2025642E0D0A002053746133
:1048C000636B204672616D652020200D0A00000098
:1048D0002052302020203D20307825303858200DBF
:1048E0000A0000002052312020203D203078253061
:1048F0003858200D0A0000002052322020203D2090
:10490000307825303858200D0A000000205233201E
:1049100020203D20307825303858200D0A00000036
:104920002052342020203D20307825303858200D6A
:104930000A0000002052352020203D20307825300C
:104940003858200D0A0000002052362020203D203B
:10495000307825303858200D0A00000020523720CA
:1049600020203D20307825303858200D0A000000E6
:104970002052382020203D20307825303858200D16
:104980000A0000002052392020203D2030782530B8
:104990003858200D0A0000002052313020203D20E0
:1049A000307825303858200D0A000000205231316F
:1049B00020203D20307825303858200D0A00000096
:1049C0002052313220203D20307825303858200DBB
:1049D0000A000000204C522020203D203078253055
:1049E0003858200D0A0000002050432020203D2090
:1049F000307825303858200D0A00000020505352DE
:104A000020203D20307825303858200D0A00000045
:104A100040787D0104000000AAAAAAAAFFFFFFFFB8
:104A2000FFFFFFFF20537461636B2043616C6C3A9E
:104A3000200000006D61696E5F7461736B0000009F
:104A400053746172740D0A00666E692D00000000D7
:104A5000666E692B000000002530385820000000E9
:104A600049444C4500000000546D722053766300A9
:044A7000080000003A
:04000005100043594B
:00000001FF
