:020000041000EA
:1000000000001038A51D0010F91D0010151E00106D
:10001000F91D0010F91D0010F91D0010F91D001048
:10002000000000000000000000000000F91D0010AA
:10003000F91D001000000000F91D0010F91D00104E
:10004000F91D0010F91D0010F91D0010F91D001018
:10005000F91D0010F91D0010F91D0010F91D001008
:10006000F91D0010F91D0010000000000000000044
:100070000000000000000000000000000000000080
:100080000000000000000000000000000000000070
:100090000000000000000000000000000000000060
:1000A0000000000000000000000000000000000050
:1007C00010B5054C237833B9044B13B1044800E04D
:1007D00000BF0123237010BD70000038000000002E
:1007E000A838001008B5034B1BB10349034800E0CB
:1007F00000BF08BD0000000074000038A8380010D9
:100800007047000030B583B0002401940E4A53694C
:1008100043F00803536123680193019A0B4D21466D
:10082000284601F02FF963680193019A04212846B4
:1008300001F028F9D4F803300193019A03212846E6
:1008400001F020F903B030BD00ED00E05435001098
:1008500008B50349034801F015F9FFF7D3FF08BDB8
:10086000C43500107035001008B50349034801F085
:1008700009F9FFF7EDFF08BDBC3500107035001019
:1008800008B50349034801F0FDF8FFF7EDFF08BD87
:10089000B43500107035001008B50349034801F065
:1008A000F1F8FFF7EDFF08BDAC3500107035001012
:1008B00008B50349034801F0E5F8FFF7EDFF08BD6F
:1008C000A43500107035001008B50349034801F045
:1008D000D9F8FFF7EDFF08BD9C350010703500100A
:1008E00010B501F0EFF8074801F02CFB01F02EF9EC
:1008F000FFF7EAFF002100BF4C1C034801F0C2F8DB
:100900002146F8E78035001088350010064B074A6D
:100910009A60D3F8882042F47002C3F88820044B10
:10092000044A1A60704700BF00ED00E000000010AC
:100930000000003840787D0170470146002007E044
:1009400000EB8000531C0B60137803EB4000303841
:100950000A681378303BDBB2092BF1D970472DE9D7
:10096000F04F83B005460E4693461F46DDF830A093
:100970000D9CDDF838900F9B13F0030F19D1A046A2
:100980000192C84509D202F1010B3B4631462020B5
:10099000A84708F101085A46F3E7DDF804B008E07B
:1009A000013C02F101083B4631461AF80400A84711
:1009B0004246002CF4D10F9B13F0020F03D11046D6
:1009C00003B0BDE8F08FA2EB0B034B45F7D2541CEC
:1009D0003B4631462020A8472246F4E72DE9F04364
:1009E00085B00C9D0D9C9DF83890DDF83C80DDF8BD
:1009F00040E0119F129E16F0020F21D17FB116F038
:100A0000010F0CD0B9F1000F02D116F00C0F06D077
:100A1000013F04E04FF0300C05F804C00134744588
:100A200001D21F2CF6D916F0010F09D0BC4207D213
:100A30001F2C05D84FF0300C05F804C00134F2E744
:100A400016F0100F17D016F4806F04D11CB1744546
:100A500024D0BC4222D0B8F1100F2BD0B8F1100F27
:100A600033D0B8F1020F3BD01F2C04D84FF0300C1C
:100A700005F804C001341F2C07D8B9F1000F37D096
:100A80004FF02D0C05F804C0013403960297019431
:100A90000095FFF764FF05B0BDE8F083B4F1010CE9
:100AA00006D0B8F1100F01D06446D4E7023CD2E77B
:100AB0006446D0E716F0200FD0D11F2CCED84FF0CF
:100AC000780C05F804C00134CEE716F0200FC8D02A
:100AD0001F2CC6D84FF0580C05F804C00134C3E7EA
:100AE0001F2CC1D84FF0620C05F804C00134BBE7DD
:100AF00016F0040F05D04FF02B0C05F804C001349C
:100B0000C3E716F0080FC0D04FF0200C05F804C062
:100B10000134BAE7F0B591B0169C189D1B9E0CB934
:100B200026F0100616F4806E16D064B34FF0000E57
:100B300012E00CF1300C5FFA8CFC0EF101070EF1A3
:100B4000400EEE440EF820CCB4FBF5FCAC421BD3B7
:100B50001F2F19D8BE466446B4FBF5FC05FB1C4CA0
:100B60005FFA8CFCBCF1090FE3D916F0200F08D016
:100B70004127BC445FFA8CFCACF10A0C5FFA8CFC98
:100B8000DBE76127F5E7274606961A9C0594199C32
:100B9000049403959DF85C400294019708AC00947E
:100BA000FFF71CFF11B0F0BD2DE9F04F95B0099093
:100BB0000A910B929B461E9D1F9E229FDDF88C8002
:100BC000DDF898A055EA060301D12AF0100A1AF4BC
:100BD00080641FD055EA060330D000241AE003F1E8
:100BE0003002D2B204F1010904F150030DEB030409
:100BF00004F8202C3A4643462846314602F00EFBC4
:100C0000BD4276EB08031BD3B9F11F0F18D84C4631
:100C100005460E463A4643462846314602F0FEFA5D
:100C2000D3B2092BDBD91AF0200F05D041221A4488
:100C3000D2B20A3AD2B2D5E76122F8E74FF0000902
:100C4000CDF818A0259B0593249B049303979DF84A
:100C500080300293CDF804900CAB00935B460B9A66
:100C60000A990998FFF7BAFE15B0BDE8F08F0000A9
:100C70002DE9F04F2DED028B91B082460C46934644
:100C80001D46DDE91C231046194602F04DFA0028E6
:100C900000F007814FF0FF32B14BDDE91C0102F09B
:100CA0006BFA002840F0FD804FF0FF326FF48013A4
:100CB000DDE91C0102F042FA002840F0F280002237
:100CC0000023DDE91C0102F039FA002840F0FE8023
:100CD0009DED1C7B8DED067B209B13F480630F93B1
:100CE00001D106231E93DDE906010246C1F30A5035
:100CF000C1F31303904643F07F5949F44019A0F221
:100D0000FF3001F03FFF84A3D3E9002301F0A4FFEB
:100D100083A3D3E9002301F0E9FD06460F46002234
:100D2000904B4046494601F0DFFD7FA3D3E9002305
:100D300001F092FF02460B463046394601F0D6FDDF
:100D400002F024FA064601F01DFF8046894678A38A
:100D5000D3E9002301F080FF0022834B01F0C6FDA0
:100D600002F014FA074674A3D3E90023404649462B
:100D700001F072FF80468946384601F003FF70A3F8
:100D8000D3E9002301F068FF02460B46404649467E
:100D900001F0AAFD8046894602460B4601F05CFF41
:100DA000CDE90A0107F2FF3700210022CDE9081240
:100DB0003B0509930023089342464B46404649466B
:100DC00001F094FDCDE90C0142464B4600204FF066
:100DD000804101F089FD804689460022634BDDE9B0
:100DE0000A0102F063F80022614B01F07FFD024628
:100DF0000B46DDE90A0102F059F800225D4B01F0D3
:100E000075FD02460B46DDE90A0102F04FF8024685
:100E10000B464046494601F069FD02460B46DDE9B6
:100E20000C0102F043F80022534B01F05FFDDDE9B5
:100E3000082301F011FF8046894649EC188BDDE953
:100E4000062302F099F940B1013E0022484B40468A
:100E5000494602F02BF841EC180B06F16303C62B50
:100E60003FD80427209B13F4006F44D036A3D3E966
:100E70000023DDE906894046494602F073F900285F
:100E80003FD033A3D3E900234046494602F056F948
:100E9000002836D01E9BB34225DD9E1B731E1E9379
:100EA00023E0209B04931F9B03931E9B02939DEDC5
:100EB0001C7B8DED007B2B465A462146504600F0A8
:100EC000CFF811B0BDEC028BBDE8F08F9FED227B17
:100ED0008DED067B1C9B06931D9B03F1004307933E
:100EE000FAE60527BEE700231E93209B43F48063A8
:100EF000209300273E461F9B9F423FD2A3EB07084B
:100F00003EE01E9B002BF6D00F9B002BF3D01E9BC8
:100F1000013B1E93EFE700BFFB799F501344D33F83
:100F2000B3C8608B288AC63F61436F63A787D23FEF
:100F300071A379094F930A401655B5BBB16B0240B6
:100F4000EF39FAFE422EE63F2D431CEBE2361A3F04
:100F50000000000080842E4100000000000000001E
:100F6000FFFFEF7F0000F83F0000E03F00002C4053
:100F700000002440000018400000F03F4FF000083F
:100F8000209B13F0020902D00FB14FF000083EB1D0
:100F900053EC182BDDE9060101F088FFCDE90601CD
:100FA00000220023DDE91C0102F0C8F800283DD131
:100FB000209B23F400630493CDF80C801E9B0293C6
:100FC0009DED067B8DED007B2B465A462146504613
:100FD00000F046F8002F3FF474AF209B13F0200F71
:100FE0002CD04FF0450C00F101082B46024621465B
:100FF0006046D04786EAE673A3EBE67305220592C6
:10100000013F0497002203920A220292F00F0190FE
:1010100000932B46424621465046FFF77BFDB9F12F
:10102000000F3FF44EAF02461F9F10E0DDE90601BE
:10103000024601F10043CDE90623B9E74FF0650C04
:10104000D1E7561C2B4621462020D0473246A2EB42
:101050000B03BB42F5D3104633E700BF000000008E
:101060002DE9F04F2DED028B95B007900A91924635
:101070009B46DDE92089229D42464B464046494633
:1010800002F052F8002840D04FF0FF326FF4801386
:101090004046494602F052F8002845D14FF0FF3251
:1010A0009F4B4046494602F067F800284BD198A371
:1010B000D3E900234046494602F05EF800285AD1A1
:1010C00095A3D3E900234046494602F037F80028AB
:1010D00051D1002200234046494602F02FF8002853
:1010E00057D100230B93249B13F4806F5CD0002412
:1010F0001F2C5BD8092D59D904F150036B443022C1
:1011000003F8202C013D0134F2E7249B0393239B39
:10111000029303230193834B00935B4652460A9943
:101120000798FFF71CFC2CE1249B0393239B02935D
:10113000042301937C4B00935B4652460A9907981F
:10114000FFF70DFC1DE1249B13F004030FD0774A39
:101150007BB1042324990391239902910193009276
:101160005B4652460A990798FFF7F9FB09E1704A76
:10117000EEE70323EEE7249B0493239B039302955E
:10118000CDE900895B4652460A990798FFF770FD42
:10119000F7E042464B460020002101F0A5FB8046C7
:1011A000894601230B939EE70625A0E74046494662
:1011B00001F0ECFF064601F0E5FC02460B46404616
:1011C000494601F091FB5B4B03EBC50393ED008BAC
:1011D00053EC182B01F040FD02460B46CDE90823E5
:1011E00001F0FCFF074601F0BDFC02460B46DDE9BD
:1011F000080101F079FB02460B46CDE908230022E5
:101200004D4B01F0B9FF50B30137384601F0AAFC4D
:1012100002460B4651EC180B01F09AFF08B101365B
:10122000002755BB304601F0ADFC02460B46404658
:10123000494601F059FB0746884600223E4B01F023
:101240007DFF38B100223C4B3846414601F094FF07
:10125000002842D016F0010F3FD001363DE00022B9
:10126000354BDDE9080101F069FF0028D9D117B13C
:1012700017F0010FD5D00137D3E71F2C17D8013D48
:101280002E4BA3FB0723DB08194603EB8303A7EBD5
:101290004303621C303304F150000DEB000404F8EA
:1012A000203C092F02D90F461446E6E714461F2CAE
:1012B0000AD86B1E45B104F150026A44302102F88D
:1012C000201C1D460134F2E71F2C06D804F1500300
:1012D0006B442E2203F8202C01341F2C33D8184ADB
:1012E00082FB0632F317C3EBA2031A4603EB830318
:1012F000A6EB4303611C303304F150000DEB0004F6
:1013000004F8203C1646EAB10C46E6E7AFF300804D
:101310000000000065CDCD410000000065CDCDC1CD
:10132000FFFFEF7FD8350010DC350010D0350010FE
:10133000CC350010E83500100000E03FCDCCCCCC1F
:10134000676666660C46249B03F00303012B1DD0E1
:101350001F2C09D80B9B002B35D004F150036B4494
:101360002D2203F8202C0134249B0393239B02930A
:1013700001940CAB00935B4652460A990798FFF71D
:10138000EEFA15B0BDEC028BBDE8F08F239BB3B134
:101390000B9B1BB9249B13F00C0F12D0239B013B1A
:1013A0002393194606E004F150036B44302203F8FE
:1013B000202C01348C42CBD21F2CF4D9C8E72399BE
:1013C000F8E72399F6E7249B13F0040F07D004F104
:1013D00050036B442B2203F8202C0134C4E7249BD8
:1013E00013F0080FC0D004F150036B44202203F81F
:1013F000202C0134B8E700BF2DE9F04F8FB007462D
:1014000016460D938846002900F0248300240D9B86
:101410001878002800F02083252809D0651C334661
:1014200022464146B8470D9B01330D932C46EEE70B
:1014300001330D9300250D9B1978A1F12002102A8C
:101440000AD8DFE802F03809093D09090909090944
:101450000933092E09092900A1F13003DBB2092B58
:1014600033D92A2936D000230A930D9B1A782E2AC5
:1014700040D04FF0000B0D9A1378683B122B77D8B1
:10148000DFE803F06476D3765676767676767676EF
:10149000727676767676D80045F0010501330D93A5
:1014A000C9E745F0020501330D93C4E745F0040593
:1014B00001330D93BFE745F0080501330D93BAE7FB
:1014C00045F0100501330D93B5E70DA8FFF735FA88
:1014D0000A90CAE7189B1A1D18921868002804DBA6
:1014E0000A900D9B01330D93BFE745F0020543427F
:1014F0000A93F6E745F480655A1C0D925A78A2F1DA
:101500003003DBB2092B04D92A2A07D04FF0000B95
:10151000B1E70DA8FFF711FA8346ACE7189B1A1D37
:1015200018921B6823EAE37B0D9B01330D93A2E71E
:1015300045F48071531C0D9352786C2A01D00D46EE
:1015400016E045F4407501330D9311E045F080013C
:10155000531C0D935278682A01D00D4608E045F0DF
:10156000C00501330D9303E045F4807501320D92FF
:101570000D9B1878A0F12503532B00F26182DFE860
:1015800013F054025F025F025F025F025F025F02BC
:101590005F025F025F025F025F025F025F025F0243
:1015A0005F025F025F025F025F025F025F025F0233
:1015B0005F025F025F025F025F025F025F025F0223
:1015C0005F027401540174015F025F025F025F02F7
:1015D0005F025F025F025F025F025F025F025F0203
:1015E0005F025F025F025F025E005F025F025F02F6
:1015F0005F025F025F025F025F025F025E009B01AB
:101600005E007401540174015F025E005F025F02BC
:101610005F025F025F025E0039025F025F02D40177
:101620005F025E005F025F025E0045F400750132FA
:101630000D929DE745F4807501320D9298E7782868
:1016400009D058283AD06F283AD062283AD025F0ED
:1016500010050A2300E01023582835D0692803D04C
:10166000642801D025F00C0515F4806F01D025F019
:10167000010569282BD0642829D015F4007F40F09B
:10168000968015F4807F40F0AE8015F0400F00F09A
:10169000BF80189A111D1891127805950A99049126
:1016A000CDF80CB0029300230193009233462246FA
:1016B00041463846FFF72EFA044629E01023CBE7CF
:1016C0000823C9E70223C7E745F02005C6E715F45C
:1016D000007F21D115F4807F42D115F0400F58D002
:1016E000189A111D1891127882EAE271A1EBE27149
:1016F00005950A980490CDF80CB00293D20F019290
:1017000000913346224641463846FFF703FA044625
:101710000D9B01330D937AE6189A073222F00702E7
:1017200002F108011891516812680846002913DB7C
:1017300008950A9D0795CDF818B0049300230593EA
:10174000C90F029100920190334622464146384625
:10175000FFF72AFA0446DBE7524261EB4100E7E774
:10176000189A111D1891126882EAE271A1EBE271D8
:1017700005950A980490CDF80CB00293D20F01920F
:1017800000913346224641463846FFF7C3F90446E6
:10179000BEE715F0800F05D0189A111D1891B2F907
:1017A0000020A1E7189A111D189112689CE7189A59
:1017B000073222F0070202F10801189108950A99F0
:1017C0000791CDF818B00021049305910291D2E958
:1017D0000023CDE900233346224641463846FFF731
:1017E000E3F9044694E7189A111D189105950A9992
:1017F0000491CDF80CB00293002301931368009379
:101800003346224641463846FFF784F904467FE7CF
:1018100015F0800F04D0189A111D189112883CE71A
:10182000189A111D1891126837E746281AD0189B8C
:10183000073323F0070303F10802189204950A9A6C
:101840000392CDF808B0D3E90023CDE90023334655
:10185000224641463846FFF703FC04460D9B013300
:101860000D93D4E545F02005E1E7672801D047282E
:1018700001D145F40065452801D0472801D145F044
:101880002005189B073323F0070303F10802189281
:1018900004950A9A0392CDF808B0D3E90023CDE964
:1018A00000233346224641463846FFF7E1F9044615
:1018B0000D9B01330D93AAE515F002051FD04FF0E3
:1018C00001091898031D189304F1010A33462246B2
:1018D00041460078B847BDB90D9B01330D9354467E
:1018E00095E502F1010A334641462020B8474B46B0
:1018F000524603F101099B45F3D81446E1E7012361
:10190000DDF828B02246F4E75246DDF828A006E0CC
:10191000551C334641462020B847A1462A4609F1C6
:101920000104CA45F4D89246D6E7189B1A1D1892AE
:10193000D3F800A0BBF1000F1ED14FF0FF33D1460A
:1019400002E009F10109134699F8002012B15A1E6C
:10195000002BF6D1A9EB0A0915F480630B9302D092
:10196000D94528BFD94615F002030C9306D022466C
:101970005C46B3460B9E1DE05B46E0E722460A9CB0
:101980004B4607E002F10109334641462020B847A3
:101990002B464A465D1C9C42F4D8A9465C46B34699
:1019A0000B9E07E01C460AF1010A551C5B464146A6
:1019B000B8472A469AF8000020B1002EF3D0631EE3
:1019C000002CEFD114465E460C9B1BB90D9B0133D6
:1019D0000D931CE5DDF828A006E0551C3346414672
:1019E0002020B847A1462A4609F10104CA45F4D887
:1019F0001446EBE745F02105189B1A1D18921B6849
:101A0000059508220492CDF80CB010220292002213
:101A1000019200933346224641463846FFF77AF852
:101A200004460D9B01330D93F1E4651C33462246B9
:101A300041462520B8470D9B01330D932C46E6E423
:101A4000651C334622464146B8470D9B01330D9332
:101A50002C46DCE4074FD9E4B44201D3721E00E007
:101A60002246334641460020B84720460FB0BDE825
:101A7000F08F00BF3909001000B9704708B500F0B9
:101A800017F808BD0FB400B585B006AA52F8043B9C
:101A9000039200924FF0FF3202A90448FFF7ACFC1A
:101AA00005B05DF804EB04B0704700BF791A001070
:101AB000034B9B6913F0200FFAD1014B186070475C
:101AC00000002040074B28225A620B229A626022B3
:101AD000DA6240F201321A630A225A6001229A60E5
:101AE000704700BF0000204082B00023019307E050
:101AF00030F8131002AA02EB430222F8041C01334F
:101B0000012BF5D9BDF80600BDF8043043EA0040CA
:101B100002B0704700F47843000C00F47840B3F54D
:101B2000704F0AD0B3F5784F09D0B0F5704F08D098
:101B3000B0F5784F07D00020704701207047012092
:101B400070470120704701207047000008B50A491E
:101B50000A4B19600A4A0B4B1A60531A0A48FFF7DE
:101B600091FF0A490A4A531A0A48FFF78BFF0121DD
:101B70000948FFF787FF08BD00F00F388C010038D7
:101B800000001038900100383836001000000010B6
:101B9000AC3800105C360010803600102DE9F84398
:101BA00048B30F4614461D46804639B34AB39A429D
:101BB0002AD8002600E00434D4B1AC4218D82268F8
:101BC00013489042F7D8134B9342F4D312F0010F0D
:101BD000F1D0A2F10509EED04846FFF785FFFFF7E7
:101BE00099FF0028E7D048F826900136BE42E2D39C
:101BF0003046BDE8F8836FF00106F9E76FF00106A3
:101C0000F6E76FF00206F3E76FF00206F0E700BFB9
:101C100000000010AC380010F8B505460E46036809
:101C2000474C2360436863608368A360C368E360D4
:101C300003692361436963618369A361C369E361E4
:101C4000036A2362436A6362836AA362C36AE362CC
:101C5000036B2363436B6363836BA363C36BE363B4
:101C6000384F384600F06EF9374800F06BF93748C6
:101C700000F068F9216A3648FFF704FF616A3548C9
:101C8000FFF700FFA16A3448FFF7FCFEE16A334822
:101C9000FFF7F8FE21683248FFF7F4FE616831482B
:101CA000FFF7F0FEA1683048FFF7ECFEE1682F482F
:101CB000FFF7E8FE21692E48FFF7E4FE61692D4831
:101CC000FFF7E0FEA1692C48FFF7DCFEE1692B4835
:101CD000FFF7D8FE216B2A48FFF7D4FE616B294835
:101CE000FFF7D0FEA16B2848FFF7CCFEE16B274839
:101CF000FFF7C8FE384600F025F931462448FFF7C3
:101D0000C1FE244B05F1400240212348FFF746FF66
:101D100005462248FFF7B6FEA16B2148FFF7B2FE49
:101D2000002406E01C4B53F824101D48FFF7AAFEC0
:101D30000134AC42F6DB034800F004F9FEE700BFD3
:101D400094010038BC360010A0360010C0360010D8
:101D5000D4360010E8360010FC36001010370010A2
:101D600024370010383700104C370010603700104F
:101D700074370010883700109C370010B0370010FF
:101D8000C4370010D8370010EC37001000380010AE
:101D900014380010000010388C0000382C38001067
:101DA0003C380010154880F30988154880F30A88EC
:101DB00080F30B88FEF7AAFD124C134DAC420ADAF1
:101DC00021686268A3689B00043BA2BFC858D0503A
:101DD000FAE70C34F2E70D4B0D4CA34209DA19680F
:101DE0005A6892000020043AA4BF8850FBE70833E9
:101DF000F3E7FEF775FDFEE7FEE700000000103890
:101E000000F00F38BC380010C8380010C838001077
:101E1000C83800100D4B19680D4B1A681EF0040FDE
:101E20000CBFEFF30880EFF3098088420ADB904291
:101E300008DC2DE9F00F1EF0040F0CBFEFF3088053
:101E4000EFF309807146034A104700008C01003807
:101E500090010038191C001002440346934200D13F
:101E6000704703F8011BF9E770B50E46054618B137
:101E700083690BB900F046FAAB69AC6813B9284620
:101E800000F040FA2C4B9C4220D16C68636EDB075B
:101E900005D4A389980502D4A06D00F0D1FAA389D6
:101EA00019071DD52369DBB1013EA36816F8011F90
:101EB000013BA36039BB002B38DA22460A212846B1
:101EC00000F048F8013011D00A2511E01B4B9C426C
:101ED00001D1AC68DAE71A4B9C4208BFEC68D5E741
:101EE0002146284600F088F80028DDD04FF0FF3565
:101EF000636EDA0705D4A3899B0502D4A06D00F0B8
:101F0000A0FA284670BD002B04DAA2699A4206DCCA
:101F10000A2904D023685A1C22601970C5E722469A
:101F2000284600F017F80130BFD1DFE723680A2503
:101F30005A1C22601D70DBE76838001088380010DA
:101F400048380010024B01461868FFF78DBF00BFEC
:101F500004000038F8B50E461446054618B18369EA
:101F60000BB900F0CFF9214B9C422BD16C68A369CF
:101F7000A360A3891A072FD523696BB32369F6B22F
:101F800020683746C01A6369834204DC214628462C
:101F900000F024F930BBA3680130013BA360236843
:101FA0005A1C22601E706369834204D0A389DB0738
:101FB00006D50A2E04D12146284600F00FF988B92B
:101FC0003846F8BD0A4B9C4201D1AC68CFE7094BBB
:101FD0009C4208BFEC68CAE72146284600F00CF88E
:101FE0000028CBD04FF0FF37EAE700BF6838001079
:101FF0008838001048380010324B70B51D6806460E
:102000000C4625B1AB6913B9284600F07BF92E4B7D
:102010009C420FD16C68A389B4F90C2019072CD409
:10202000DD0611D40923336042F040034FF0FF3046
:10203000A3813EE0254B9C4201D1AC68EBE7244BE9
:102040009C4208BFEC68E6E7580712D5616B41B1C6
:1020500004F14403994202D0304600F059FA0023BB
:102060006363A38923F02403A381002363602369AE
:102070002360A38943F00803A38123694BB9A38993
:1020800003F42073B3F5007F03D02146304600F0FF
:10209000FFF9A089B4F90C2010F001030AD0002345
:1020A000A36063695B42A361236943B910F08000B8
:1020B000BAD170BD810758BF6369A360F4E70020FF
:1020C000F7E700BF040000386838001088380010B7
:1020D000483800108A892DE9F041054610070C4662
:1020E00058D44B68002B05DC0B6C002B02DC002065
:1020F000BDE8F081E66A002EF9D0002312F4805288
:102100002F682B6032D0606DA3895A0705D56368AC
:10211000C01A636B0BB1236CC01A00230246E66A37
:102120002846216AB047431CA38906D129681D2986
:102130002CD8294ACA40D60728D50022D904626083
:102140002269226004D5421C01D12B6803B9606565
:10215000616B2F600029CAD004F14403994202D078
:10216000284600F0D5F900206063C1E7216A012309
:102170002846B047411CC7D12B68002BC4D01D2B6B
:1021800001D0162B01D12F60B1E7A38943F04003A2
:10219000A381ADE70F69002FA9D093070E680F60E8
:1021A0000CBF4B690023A6EB07088B60B8F1000F4A
:1021B0009DDD43463A46216A2846A66AB047002874
:1021C00006DCA3894FF0FF3043F04003A3818FE783
:1021D0000744A8EB0008E9E70100402038B50B6987
:1021E00005460C4613B90025284638BD18B1836949
:1021F0000BB900F087F8144B9C421BD16C68B4F902
:102200000C30002BEFD0626ED00704D4990502D4B5
:10221000A06D00F015F928462146FFF75BFF636EBD
:102220000546DA07E0D4A3899B05DDD4A06D00F054
:1022300008F9D9E7054B9C4201D1AC68DFE7044BB4
:102240009C4208BFEC68DAE7683800108838001054
:1022500048380010002310B5044683608181194678
:102260004366C28108228361C0E90033C0E90433B8
:102270005C30FFF7F1FD054B24626362044BA362FF
:10228000044BE362044B236310BD00BFF126001032
:10229000132700104B2700106F270010014900F092
:1022A000AFB800BFDD21001070B568224D1E0E468C
:1022B000554305F1740100F097F9044640B100213F
:1022C00005F16802C0E900160C30A060FFF7C4FDFC
:1022D000204670BD014800F0B3B800BFD5010038FA
:1022E000014800F0AEB800BFD5010038014800F049
:1022F000A7B800BFD6010038014800F0A2B800BF5F
:10230000D601003810B50446FFF7F0FFA3691BB1F2
:10231000BDE81040FFF7F0BFC4E912332365204643
:10232000124B134A1B68A262A34204BF0123A3619C
:1023300000F020F86060204600F01CF8A060204605
:1023400000F018F800220421E0606068FFF782FFC7
:1023500001220921A068FFF77DFF02221221E06817
:10236000FFF778FF0123A361D2E700BF44380010D4
:102370009D220010F8B50746FFF7ACFF1E4B1E6804
:10238000B36913B93046FFF7BDFF4836D6E90134CB
:10239000013B03D533680BB33668F7E7B4F90C504B
:1023A000D5B9164B04F158006566E36000F047F8B4
:1023B000FFF796FF0822294604F15C002560A5611D
:1023C000C4E90155C4E90455FFF746FDC4E90D55BC
:1023D000C4E912552046F8BD6834D9E704213846CF
:1023E000FFF762FF044630600028D5D1FFF778FF81
:1023F0000C233B60EEE700BF443800100100FFFFF4
:102400002DE9F8430646884600F148040027D4E940
:102410000195B9F1010905D52468002CF7D138469A
:10242000BDE8F883AB89012B07D9B5F90E3001332C
:1024300003D029463046C04707436835E9E770476F
:102440007047704770B50E46B1F90E1096B014463D
:1024500000291D4608DAB6F90C3000222A601A0657
:1024600010D44FF480630EE06A4600F0A7F900280C
:10247000F1DB019A02F47042A2F500535A425A412C
:102480002A60EEE740230020236016B070BD0000F4
:102490008B8973B59D0706460C4607D504F14703A3
:1024A000236023610123636102B070BD01AB6A4602
:1024B000FFF7C8FF00990546304600F095F848B987
:1024C000B4F90C309A05EFD423F0030343F0020370
:1024D000A381E3E70D4BB362A389206043F080033F
:1024E0002061A381009B6361019B5BB1B4F90E1075
:1024F000304600F075F928B1A38923F0030343F0B7
:102500000103A381A0890543A581CDE79D22001089
:1025100037B5002943D051F8043C0C1F0190002B23
:10252000B8BFE41800F07EF91E4A0198136833B969
:102530006360146003B0BDE8304000F079B9A34295
:1025400008D9256861198B4201BF19685B68491970
:102550002160EDE71A465B680BB1A342FAD9116816
:102560005518A5420BD12468214454181160A34288
:10257000E0D11C685B68214453601160DAE702D93E
:102580000C230360D6E7256861198B4202BF1968E6
:102590005B684919636008BF21605460CAE703B0F3
:1025A00030BD00BFD801003870B50E4E0C46054650
:1025B000316811B900F08CF830602146284600F0EF
:1025C00087F8431C0AD0C41C24F00304A04207D09F
:1025D000211A284600F07CF8013001D14FF0FF3479
:1025E000204670BDDC0100382DE9F041CD1C0746C6
:1025F00025F0030508350C2D38BF0C25002D01DB17
:10260000A94205D90C2300263B603046BDE8F08185
:102610002E4E00F007F933681C4634BB2946384675
:10262000FFF7C2FF431C04464DD134682646002EF6
:1026300040D123683146384604EB030800F048F8DF
:1026400080453AD12168033538466D1A25F00305D7
:1026500008350C2D38BF0C252946FFF7A5FF0130A2
:102660002BD023682B4423600EE02268521B1ED41B
:102670000B2A16D96119A342256018BF59606368F7
:1026800008BF316062514B6004F10B06384600F020
:10269000CFF8231D26F00706F21AB6D09B1BA350D5
:1026A000B3E76268A3420CBF32605A60ECE723468E
:1026B0006468B2E734467668B9E70C2338463B6075
:1026C00000F0B6F8A1E72560DEE700BFD8010038CA
:1026D00038B50023054D044608462B6000F0E8F8A5
:1026E000431C02D12B6803B1236038BDE0010038E0
:1026F00010B50C46B1F90E1000F0A0F80028ABBFE1
:10270000636DA3891B1823F48053ACBF6365A38159
:1027100010BD2DE9F0411F468B8905460C46DB05AF
:10272000164605D502230022B1F90E1000F068F814
:10273000A3893246B4F90E10284623F48053A381AE
:102740003B46BDE8F04100F017B810B50C46B1F9B2
:102750000E1000F055F8431CA38915BF606523F4E3
:10276000805343F48053A38118BFA38110BDB1F9F6
:102770000E1000F013B8000038B50446064D0846A8
:10278000114600222A601A4600F0A2F8431C02D12A
:102790002B6803B1236038BDE001003838B5002351
:1027A000054D044608462B6000F05AF8431C02D140
:1027B0002B6803B1236038BDE001003838B5002331
:1027C000064D0446084611462B6000F051F8431CA4
:1027D00002D12B6803B1236038BD00BFE00100388F
:1027E00038B50023054D044608462B6000F048F834
:1027F000431C02D12B6803B1236038BDE0010038CF
:1028000038B50446064D0846114600222A601A468D
:1028100000F03EF8431C02D12B6803B1236038BDA1
:10282000E00100380148FFF70BBE00BFD4010038BB
:102830000148FFF706BE00BFD401003838B5044692
:10284000064D0846114600222A601A4600F028F874
:10285000431C02D12B6803B1236038BDE00100386E
:10286000024B58224FF0FF301A607047E0010038E9
:10287000024B58224FF0FF301A607047E0010038D9
:10288000024B582200201A60704700BFE001003858
:10289000024B58224FF0FF301A607047E0010038B9
:1028A000024B58224FF0FF301A607047E0010038A9
:1028B000054A0346106810B103441360704703488B
:1028C00003441360704700BFE4010038E80100389A
:1028D000024B58224FF0FF301A607047E001003879
:1028E00081F0004102E000BF83F0004330B54FEAC1
:1028F00041044FEA430594EA050F08BF90EA020F2E
:102900001FBF54EA000C55EA020C7FEA645C7FEAC0
:10291000655C00F0E2804FEA5454D4EB5555B8BFE3
:102920006D420CDD2C4480EA020281EA030382EA54
:10293000000083EA010180EA020281EA0303362DE6
:1029400088BF30BD11F0004F4FEA01314FF4801CB9
:102950004CEA113102D0404261EB410113F0004FCB
:102960004FEA03334CEA133302D0524263EB430382
:1029700094EA050F00F0A780A4F10104D5F1200E20
:102980000DDB02FA0EFC22FA05F2801841F100017B
:1029900003FA0EF2801843FA05F359410EE0A5F14F
:1029A00020050EF1200E012A03FA0EFC28BF4CF080
:1029B000020C43FA05F3C01851EBE37101F0004536
:1029C00007D54FF0000EDCF1000C7EEB00006EEB43
:1029D0000101B1F5801F1BD3B1F5001F0CD34908CD
:1029E0005FEA30004FEA3C0C04F101044FEA445224
:1029F00012F5800F80F09A80BCF1004F08BF5FEAAB
:102A0000500C50F1000041EB045141EA050130BD8A
:102A10005FEA4C0C404141EB0101013C28BFB1F59C
:102A2000801FE9D291F0000F04BF01460020B1FAE7
:102A300081F308BF2033A3F10B03B3F120020CDABA
:102A40000C3208DD02F1140CC2F10C0201FA0CF098
:102A500021FA02F10CE002F11402D8BFC2F1200CFD
:102A600001FA02F120FA0CFCDCBF41EA0C019040B3
:102A7000E41AA2BF01EB0451294330BD6FEA0404FC
:102A80001F3C1CDA0C340EDC04F11404C4F12002E7
:102A900020FA04F001FA02F340EA030021FA04F3F9
:102AA00045EA030130BDC4F10C04C4F1200220FA50
:102AB00002F001FA04F340EA0300294630BD21FA8E
:102AC00004F0294630BD94F0000F83F4801306BF54
:102AD00081F480110134013D4EE77FEA645C18BF48
:102AE0007FEA655C29D094EA050F08BF90EA020FDF
:102AF00005D054EA000C04BF1946104630BD91EAD7
:102B0000030F1EBF0021002030BD5FEA545C05D1D9
:102B10004000494128BF41F0004130BD14F5800418
:102B20003CBF01F5801130BD01F0004545F0FE418C
:102B300041F470014FF0000030BD7FEA645C1ABFC1
:102B4000194610467FEA655C1CBF0B46024650EAF8
:102B5000013406BF52EA033591EA030F41F4002124
:102B600030BD00BF90F0000F04BF0021704730B5AA
:102B70004FF4806404F132044FF000054FF000017F
:102B800050E700BF90F0000F04BF0021704730B540
:102B90004FF4806404F1320410F0004548BF404215
:102BA0004FF000013EE700BF42004FEAE2014FEA6A
:102BB00031014FEA02701FBF12F07F4393F07F4F45
:102BC00081F06051704732F07F4208BF704793F048
:102BD0007F4F04BF41F40021704730B54FF460745B
:102BE00001F0004521F000411CE700BF50EA01025E
:102BF00008BF704730B54FF000050AE050EA010207
:102C000008BF704730B511F0004502D5404261EB76
:102C100041014FF4806404F132045FEA915C3FF4B7
:102C2000D8AE4FF003025FEADC0C18BF03325FEA54
:102C3000DC0C18BF033202EBDC02C2F1200300FA05
:102C400003FC20FA02F001FA03FE40EA0E0021FA2A
:102C500002F11444BDE600BF70B54FF0FF0C4CF418
:102C6000E06C1CEA11541DBF1CEA135594EA0C0FCA
:102C700095EA0C0F00F0DEF82C4481EA030621EA05
:102C80004C5123EA4C5350EA013518BF52EA033540
:102C900041F4801143F4801338D0A0FB02CE4FF0F2
:102CA0000005E1FB02E506F00042E0FB03E54FF022
:102CB0000006E1FB03569CF0000F18BF4EF0010E1A
:102CC000A4F1FF04B6F5007F64F5407404D25FEA16
:102CD0004E0E6D4146EB060642EAC62141EA5551C9
:102CE0004FEAC52040EA5E504FEACE2EB4F1FD0C0B
:102CF00088BFBCF5E06F1ED8BEF1004F08BF5FEA89
:102D0000500E50F1000041EB045170BD06F000463A
:102D100046EA010140EA020081EA0301B4EB5C04E7
:102D2000C2BFD4EB0C0541EA045170BD41F48011DF
:102D30004FF0000E013C00F3AB8014F1360FDEBF04
:102D4000002001F0004170BDC4F10004203C35DAE0
:102D50000C341BDC04F11404C4F1200500FA05F363
:102D600020FA04F001FA05F240EA020001F0004204
:102D700021F0004110EBD37021FA04F642EB06017A
:102D80005EEA430E08BF20EAD37070BDC4F10C04A4
:102D9000C4F1200500FA04F320FA05F001FA04F268
:102DA00040EA020001F0004110EBD37041F1000154
:102DB0005EEA430E08BF20EAD37070BDC4F120055F
:102DC00000FA05F24EEA020E20FA04F301FA05F2C7
:102DD00043EA020321FA04F001F0004121FA04F26F
:102DE00020EA020000EBD3705EEA430E08BF20EA3F
:102DF000D37070BD94F0000F0FD101F00046400079
:102E000041EB010111F4801F08BF013CF7D041EAFA
:102E1000060195F0000F18BF704703F000465200FE
:102E200043EB030313F4801F08BF013DF7D043EACF
:102E30000603704794EA0C0F0CEA135518BF95EA85
:102E40000C0F0CD050EA410618BF52EA4306D1D10C
:102E500081EA030101F000414FF0000070BD50EA2B
:102E6000410606BF1046194652EA430619D094EAB5
:102E70000C0F02D150EA013613D195EA0C0F05D19F
:102E800052EA03361CBF104619460AD181EA0301F3
:102E900001F0004141F0FE4141F470014FF00000AB
:102EA00070BD41F0FE4141F4780170BD70B54FF046
:102EB000FF0C4CF4E06C1CEA11541DBF1CEA1355C6
:102EC00094EA0C0F95EA0C0F00F0A7F8A4EB0504A8
:102ED00081EA030E52EA03354FEA013100F088809F
:102EE0004FEA03334FF0805545EA131343EA126368
:102EF0004FEA022245EA111545EA10654FEA00261D
:102F00000EF000419D4208BF964244F1FD0404F5D5
:102F1000407402D25B084FEA3202B61A65EB030531
:102F20005B084FEA32024FF480104FF4002CB6EBEE
:102F3000020E75EB030E22BFB61A754640EA0C006E
:102F40005B084FEA3202B6EB020E75EB030E22BFAE
:102F5000B61A754640EA5C005B084FEA3202B6EBEF
:102F6000020E75EB030E22BFB61A754640EA9C00AE
:102F70005B084FEA3202B6EB020E75EB030E22BF7E
:102F8000B61A754640EADC0055EA060E18D04FEA3C
:102F9000051545EA16754FEA06164FEAC30343EADC
:102FA00052734FEAC2025FEA1C1CC0D111F4801FA9
:102FB0000BD141EA00014FF000004FF0004CB6E7A2
:102FC00011F4801F04BF01430020B4F1FD0C88BF41
:102FD000BCF5E06F3FF6AFAEB5EB030C04BFB6EB4C
:102FE000020C5FEA500C50F1000041EB045170BD3F
:102FF0000EF0004E4EEA113114EB5C04C2BFD4EB6C
:103000000C0541EA045170BD41F480114FF0000EEF
:10301000013C90E645EA060E8DE60CEA135594EA6B
:103020000C0F08BF95EA0C0F3FF43BAF94EA0C0F6E
:103030000AD150EA01347FF434AF95EA0C0F7FF4E3
:1030400025AF104619462CE795EA0C0F06D152EA37
:1030500003353FF4FDAE1046194622E750EA41061B
:1030600018BF52EA43067FF4C5AE50EA41047FF42C
:103070000DAF52EA43057FF4EBAE12E74FF0FF3C91
:1030800006E000BF4FF0010C02E000BF4FF0010C62
:103090004DF804CD4FEA410C7FEA6C5C4FEA430CDB
:1030A00018BF7FEA6C5C1BD001B050EA410C0CBF2A
:1030B00052EA430C91EA030F02BF90EA020F00208C
:1030C000704710F1000F91EA030F58BF994208BFF3
:1030D00090422CBFD8176FEAE37040F001007047B0
:1030E0004FEA410C7FEA6C5C02D150EA013C07D107
:1030F0004FEA430C7FEA6C5CD6D152EA033CD3D052
:103100005DF8040B704700BF8446104662468C464B
:103110001946634600E000BF01B5FFF7B7FF00287E
:1031200048BF10F1000F01BD4DF808EDFFF7F4FFA7
:103130000CBF012000205DF808FB00BF4DF808ED32
:10314000FFF7EAFF34BF012000205DF808FB00BF55
:103150004DF808EDFFF7E0FF94BF012000205DF877
:1031600008FB00BF4DF808EDFFF7CEFF94BF01202C
:1031700000205DF808FB00BF4DF808EDFFF7C4FF25
:1031800034BF012000205DF808FB00BF4FEA410278
:1031900012F5001215D211D56FF47873B3EB6252A9
:1031A00012D94FEAC12343F0004343EA505311F0D0
:1031B000004F23FA02F018BF404270474FF0000062
:1031C000704750EA013005D111F0004008BF6FF0A0
:1031D000004070474FF00000704700BF4A0011D216
:1031E00012F5001211D20DD56FF47873B3EB625261
:1031F0000ED44FEAC12343F0004343EA505323FA6D
:1032000002F070474FF00000704750EA013002D1E1
:103210004FF0FF3070474FF00000704753B94AB984
:10322000002908BF00281CBF4FF0FF314FF0FF30CE
:1032300000F082B9ADF1080C6DE904CE00F006F89B
:10324000DDF804E0DDE9022304B070472DE9F04F1A
:10325000099D04460F46002B48D18A42944661D905
:10326000B2FA82F343B1C3F120019F4002FA03FC9A
:103270009C4020FA01F10F434FEA1C411FFA8CFEDB
:10328000220CB7FBF1F601FB167706FB0EF042EAC3
:103290000742904208D91CEB020206F1FF3702D226
:1032A000904200F237813E46121AA4B2B2FBF1F00E
:1032B00001FB102200FB0EFE44EA0244A64508D999
:1032C0001CEB040400F1FF3202D2A64500F21C817F
:1032D000104640EA0640A4EB0E0400261DB1DC4077
:1032E0000023C5E900433146BDE8F08F8B4209D980
:1032F000002D00F0FD800026C5E900013046314672
:10330000BDE8F08FB3FA83F6002E4BD18B42C0F0AC
:10331000F280824240F2EF803046002DE3D0C5E9D2
:103320000047E0E702B9FFDEB2FA82F3002B40F07B
:103330009D80891A4FEA124E97B20126200CB1FBEC
:10334000FEF20EFB121140EA014107FB02F0884237
:103350000FD91CEB010102F1FF382CBF4FF001091E
:103360004FF00009884203D9B9F1000F00F0CF8077
:103370004246091AA4B2B1FBFEF00EFB101100FB8D
:1033800007F744EA0144A74208D91CEB040400F102
:10339000FF3102D2A74200F2B4800846E41B40EAA3
:1033A00002409BE7C6F12007B34001FA06F422FA77
:1033B00007FCF940B2404CEA030C20FA07F34FEA4D
:1033C0001C491C431FFA8CFE00FA06F3200CB1FBCB
:1033D000F9F809FB181140EA014108FB0EF0884298
:1033E0000FD91CEB010108F1FF3A2CBF4FF0010B84
:1033F0004FF0000B884203D9BBF1000F00F08D8025
:10340000D046091AA4B2B1FBF9F009FB101100FB78
:103410000EFE44EA01418E4507D91CEB010100F183
:10342000FF3401D28E457FD8204640EA0840A1EB08
:103430000E01A0FB029841454C46C64602D306D178
:103440004B4504D20138B9EB020468EB0C0E002D99
:1034500070D01A1B61EB0E0122FA06F301FA07F78E
:10346000F14000261F43C5E900713CE702FA03FC66
:10347000C3F1200001FA03F221FA00F64FEA1C4ED4
:1034800024FA00F11FFA8CF79C401143B6FBFEF0C2
:103490000A0C0EFB106642EA064200FB07F6964253
:1034A0000ED91CEB020200F1FF382CBF4FF00109CE
:1034B0004FF00009964202D9B9F1000F31D04046D1
:1034C000921B89B2B2FBFEF60EFB162241EA0241C4
:1034D00006FB07F28A4207D91CEB010106F1FF380F
:1034E00001D28A4223D84646891A46EA004625E791
:1034F0002E462846F7E6841A61EB030301201F4697
:103500000BE76444023849E764440238E1E6023AD2
:1035100061442EE7023E6244C6E6A8F10208614417
:103520006FE702386244CBE7023861447DE7023E30
:103530006144D9E72E46D6E6704700BFF8B500BF14
:10354000F8BC08BC9E467047F8B500BFF8BC08BC84
:103550009E467047616464723A3078253032582D47
:1035600076616C75653A3078253038580D0A000060
:10357000746869732069732025732E0D0A0000009A
:10358000537461727400000068656C6C6F20776F13
:10359000726C64202D2025642E0A000074657374FB
:1035A0003500000074657374340000007465737432
:1035B0003300000074657374320000007465737426
:1035C000310000007465737430000000666E69009D
:1035D000666E692B000000006E616E00666E692DDC
:1035E0000000000000000000000000000000F03FAC
:1035F00000000000000024400000000000005940CE
:103600000000000000408F40000000000088C34020
:1036100000000000006AF8400000000080842E4195
:1036200000000000D01263410000000084D79741E1
:103630000000000065CDCD41436F64652053746187
:10364000636B3A5B25303858202D20253038585D83
:103650002C2073697A653A25640D0A00436F64650E
:103660002054657874203A5B25303858202D202569
:103670003038585D2C2073697A653A25640D0A004C
:10368000436F646520537461636B2047726F777476
:103690006820446F776E776172643A25640D0A0082
:1036A00020486172644661756C7420496E666F7261
:1036B0006D6174696F6E2044756D70200D0000009F
:1036C00020537461636B204672616D652020200D6C
:1036D000000000002052302020203D20307825308E
:1036E0003858200D0A0000002052312020203D20B3
:1036F000307825303858200D0A0000002052322042
:1037000020203D20307825303858200D0A00000058
:103710002052332020203D20307825303858200D8D
:103720000A0000002052342020203D20307825302F
:103730003858200D0A0000002052352020203D205E
:10374000307825303858200D0A00000020523620ED
:1037500020203D20307825303858200D0A00000008
:103760002052372020203D20307825303858200D39
:103770000A0000002052382020203D2030782530DB
:103780003858200D0A0000002052392020203D200A
:10379000307825303858200D0A0000002052313092
:1037A00020203D20307825303858200D0A000000B8
:1037B0002052313120203D20307825303858200DDE
:1037C0000A0000002052313220203D203078253080
:1037D0003858200D0A000000204C522020203D20A7
:1037E000307825303858200D0A0000002050432042
:1037F00020203D20307825303858200D0A00000068
:103800002050535220203D20307825303858200D4C
:103810000A000000204558455F52455455524E3A23
:1038200020307825303858200D0A0000205374616C
:10383000636B2043616C6C3A2000000025303858DF
:103840002000000008000038000000000000000018
:103850000000000000000000000000000000000068
:103860000000000000000000000000000000000058
:103870000000000000000000000000000000000048
:103880000000000000000000000000000000000038
:103890000000000000000000000000000000000028
:0C38A0000000000000000000000000001C
:1038AC00F8E4FF7FB0B0B08060E5FF7F010000005E
:0C38BC00C8380010000000381C0000009C
:1038C80040787D01080000380000000068380010CA
:1038D8008838001048380010000000000000000080
:1038E80000000000000000000000000000000000D0
:1038F80000000000000000000000000000000000C0
:1039080000000000000000000000000000000000AF
:10391800000000000000000000000000000000009F
:103928000000000000000000E5070010C1070010BB
:0400000510001DA525
:00000001FF
